:100000000C9462000C948A000C948A000C948A0070
:100010000C948A000C948A000C9419120C948A0097
:100020000C948A000C948A000C948A000C948A0028
:100030000C948A000C948A000C948A000C948A0018
:100040000C94F2060C948A000C94C0060C949A0648
:100050000C948A000C948A000C948A000C948A00F8
:100060000C948A000C948A000000000024002700F1
:100070002A0000000000250028002B0000000000DE
:1000800023002600290004040404040404040202DA
:100090000202020203030303030301020408102007
:1000A0004080010204081020010204081020000012
:1000B0000008000201000003040700000000000027
:1000C00000001C1211241FBECFEFD8E0DEBFCDBF51
:1000D00011E0A0E0B1E0E2E4F8E202C005900D9288
:1000E000AC39B107D9F722E0ACE9B1E001C01D920B
:1000F000A73EB207E1F710E0C2E6D0E004C02197C6
:10010000FE010E940914C136D107C9F70E94661288
:100110000C941F140C940000AF92BF92CF92DF9208
:10012000EF92FF920F931F93CF93DF936C017B01AC
:100130008B01040F151FEB015E01AE18BF08C0173D
:10014000D10759F06991D601ED91FC910190F081B0
:10015000E02DC6010995892B79F7C501DF91CF9173
:100160001F910F91FF90EF90DF90CF90BF90AF90D5
:100170000895FC01538D448D252F30E0842F90E0AD
:10018000821B930B541710F0CF9608950197089592
:10019000FC01918D828D981761F0A28DAE0FBF2F5B
:1001A000B11D5D968C91928D9F5F9F73928F90E0B1
:1001B00008958FEF9FEF0895FC01918D828D981720
:1001C00031F0828DE80FF11D858D90E008958FEF5D
:1001D0009FEF0895FC01918D228D892F90E0805C26
:1001E0009F4F821B91098F73992708958EE292E0A9
:1001F0000E94EA0021E0892B09F420E0822F089573
:100200000E94F60081110C940000089580E090E0B7
:10021000892B11F00C9400010895FC01A48DA80F06
:10022000B92FB11DA35ABF4F2C91848D90E0019638
:100230008F739927848FA689B7892C93A089B18958
:100240008C91837080648C93938D848D981306C0F9
:100250000288F389E02D80818F7D80830895EF925D
:10026000FF920F931F93CF93DF93EC0181E0888F70
:100270009B8D8C8D98131AC0E889F989808185FF40
:1002800015C09FB7F894EE89FF896083E889F989E2
:1002900080818370806480839FBF81E090E0DF91E4
:1002A000CF911F910F91FF90EF900895F62E0B8D37
:1002B00010E00F5F1F4F0F731127E02E8C8D8E11F2
:1002C0000CC00FB607FCFACFE889F989808185FF59
:1002D000F5CFCE010E940D01F1CFEB8DEC0FFD2F7C
:1002E000F11DE35AFF4FF0829FB7F8940B8FEA8914
:1002F000FB8980818062CFCFCF93DF93EC01888D23
:100300008823B9F0AA89BB89E889F9898C9185FD90
:1003100003C0808186FD0DC00FB607FCF7CF8C911E
:1003200085FFF2CF808185FFEDCFCE010E940D01C8
:10033000E9CFDF91CF910895833081F028F48130A7
:1003400099F08230A9F008958730A9F08830C9F07B
:100350008430B1F4809180008F7D03C08091800053
:100360008F7780938000089584B58F7784BD08953A
:1003700084B58F7DFBCF8091B0008F778093B000E4
:1003800008958091B0008F7DF9CFCF93DF93282F10
:1003900030E0F901E255FF4F8491F901E656FF4F35
:1003A000D491F901EA57FF4FC491CC23A1F08111F8
:1003B0000E949C01EC2FF0E0EE0FFF1FE458FF4F6E
:1003C000A591B491EC91ED2381E090E009F480E0F7
:1003D000DF91CF91089580E090E0FACF1F93CF9303
:1003E000DF93282F30E0F901E255FF4F8491F901A6
:1003F000E656FF4FD491F901EA57FF4FC491CC2341
:10040000A9F0162F81110E949C01EC2FF0E0EE0F55
:10041000FF1FEE58FF4FA591B4918FB7F894EC9160
:10042000111108C0D095DE23DC938FBFDF91CF91EF
:100430001F910895DE2BF8CFCF93DF9390E0FC015E
:10044000E656FF4F24918A579F4FFC0184918823E1
:10045000D1F090E0880F991FFC01E859FF4FA5915A
:10046000B491FC01EE58FF4FC591D49161110EC0BB
:100470009FB7F8948C91E22FE0958E238C9328817E
:10048000E223E8839FBFDF91CF9108958FB7F8945F
:10049000EC91E22BEC938FBFF6CF3FB7F8948091AD
:1004A000CB019091CC01A091CD01B091CE0126B5A8
:1004B000A89B05C02F3F19F00196A11DB11D3FBF9C
:1004C000BA2FA92F982F8827BC01CD01620F711D6B
:1004D000811D911D42E0660F771F881F991F4A9565
:1004E000D1F708958F929F92AF92BF92CF92DF92F1
:1004F000EF92FF924B015C010E944D026B017C0167
:100500000E944D026C197D098E099F09683E734057
:1005100081059105A8F321E0821A9108A108B1088C
:1005200088EEC80E83E0D81EE11CF11C81149104F2
:10053000A104B10429F7FF90EF90DF90CF90BF9016
:10054000AF909F908F900895089590E080E0089577
:10055000E091D701F091D8018081811107C08FEF20
:100560009FEF9093BF018093BE010895E091D70162
:10057000F091D8010580F681E02D0680F781E02D0D
:1005800082819381EECFCF93DF93EC0160E08E8187
:100590000E94EE0161E08E810E94EE0160E08E819A
:1005A0000E94EE018BE891E00197F1F7DF91CF9186
:1005B0000895CF92DF92EF92FF920F931F93CF9304
:1005C000DF936C017C0187E0E80EF11CD0E0C0E015
:1005D000062F10E0B8010C2E02C0759567950A949D
:1005E000E2F76170F70181917F010E94EE0121968F
:1005F000C430D10579F7C601DF91CF911F910F91DA
:10060000FF90EF90DF90CF900C94C302CF92DF92D7
:10061000EF92FF920F931F93CF93DF93EC01F62E8F
:10062000642F8C810E94EE018D818F3F19F060E074
:100630000E94EE010F2D10E08F8584FF25C06E0112
:1006400087E0C80ED11CF12CE12CB8010E2C02C0A1
:10065000759567950A94E2F76170F60181916F01D3
:100660000E94EE01FFEFEF1AFF0A88E0E816F1049E
:1006700061F7CE01DF91CF911F910F91FF90EF9025
:10068000DF90CF900C94C302B80184E07595679514
:100690008A95E1F7CE010E94D9026F2DCE01DF913C
:1006A000CF911F910F91FF90EF90DF90CF900C941E
:1006B000D90240E0682F8BEC92E00C9406039091F5
:1006C000DE02691710F06FEF690FE62FF0E0E553D7
:1006D000FD4F9489890F80680C945903CF93DF9361
:1006E000823029F49091DA0298609093DA02809334
:1006F000DE021092DF0280E48093E00280E18093CA
:10070000E10280E58093E20261E08091CF020E94E5
:100710001C028091D0028F3F19F061E00E941C0200
:1007200061E08091D1020E941C02CBECD2E09E01DC
:100730002B5C32408091DA0284FD0BC084E090E0B3
:1007400021962817390744F461E08E810E941C022B
:10075000EECF88E090E0F4CF8BE39DE00197F1F7D6
:1007600060E08091CF020E94EE0160E08091D102B2
:100770000E94EE018091D0028F3F19F060E00E944C
:10078000EE018091DA0284FD39C063E08BEC92E0E7
:100790000E94D902CBE4D6E4CE010197F1F763E0E1
:1007A0008BEC92E00E94D9022197F1F763E08BEC89
:1007B00092E00E94D90283E592E00197F1F762E0AE
:1007C0008BEC92E00E94D9028091DA0280620E9452
:1007D000590384E08093DB028CE00E94590381E09E
:1007E0000E9459038BE39FE10197F1F782E0809328
:1007F000DC0286E0DF91CF910C94590380620E9465
:1008000059038BE496E40197F1F78091DA02806254
:100810000E94590383E592E00197F1F78091DA0293
:1008200080620E945903D0CF41E00E94060381E01C
:1008300090E00895FB0101900020E9F73197AF01A6
:10084000461B570BDC01ED91FC910280F381E02DFA
:1008500009944F925F926F927F92AF92BF92CF9224
:10086000DF92EF92FF920F931F93CF93DF93CDB759
:10087000DEB7A1970FB6F894DEBF0FBECDBF5C0107
:100880006A017B01F7FE47C0DC01ED91FC9101900C
:10089000F081E02D6DE209958C0122273327A90113
:1008A0002C193D094E095F0919A2FE01B1967F017D
:1008B0009AE0492E512C612C712CCA01B901A30177
:1008C00092010E94E713605DD7016E937D012115AF
:1008D00031054105510589F790E080E0109721F03E
:1008E000BD01C5010E941A04800F911FA1960FB689
:1008F000F894DEBF0FBECDBFDF91CF911F910F9156
:10090000FF90EF90DF90CF90BF90AF907F906F906F
:100910005F904F900895AB01960119A28E010F5D73
:100920001F4F8AE0C82ED12CE12CF12CCA01B9014D
:10093000A70196010E94E713605DF80162938F01A1
:10094000211531054105510589F790E080E0309788
:1009500069F2BF01C5010E941A04C8CFCF93DF938B
:10096000CDB7DEB729970FB6F894DEBF0FBECDBF67
:1009700082E00E946E034FEF5FEFBE016F5F7F4F1B
:100980008091A2019091A3010E949A0C813061F59F
:1009900060E080E00E945F0364E271E08BEC92E033
:1009A0000E941A0460E089E00E945F034A815B8133
:1009B0006C817D818BEC92E00E94290461E080E0F3
:1009C0000E945F036EE271E08BEC92E00E941A04D9
:1009D00061E08DE00E945F034E815F8168857985CB
:1009E0008BEC92E00E9429040E944809C4CFCF9367
:1009F000DF93CDB7DEB72D970FB6F894DEBF0FBEED
:100A0000CDBF22242394312C19821A821B821C828E
:100A10001D8261E086E00E941C0260E086E00E9488
:100A2000EE0162E170E080E090E00E94720261E01D
:100A300086E00E94EE018BE990E00197F1F760E01B
:100A400086E00E941C0201E117E286E00E94C501D7
:100A5000892BD1F401501109C1F70EEF1FEF6CE3A0
:100A600071E08EE292E00E941A04A801110F660B59
:100A7000770B8EE292E00E94290467E571E08EE236
:100A800092E00E941A047AC001E117E286E00E9417
:100A9000C501019721F401501109C1F7DECF08E229
:100AA00010E037E0D32EC12C21E1E22E27E2F22E16
:100AB00086E00E94C501892B29F421E0E21AF108A1
:100AC000B9F7CBCF0E944D022B013C0191E1E92EF9
:100AD00097E2F92E86E00E94C501019729F431E0E2
:100AE000E31AF108B9F7B9CF0E944D0264197509EC
:100AF00086099709693271058105910578F0E1E071
:100B0000F0E0EC0FFD1FEC0DF11D808191010D2C2B
:100B100001C0220F0A94EAF7822B8083D1104AC0C9
:100B2000C39487E0D82E0150110909F0BDCF898107
:100B3000282F30E030939F0120939E019B81292F25
:100B400030E03093A1012093A001382F390F2D817F
:100B50000FEF1FEF321383CF292F30E050E040E03A
:100B60002A873B874C875D87882E912CB12CA12C3E
:100B700064E670E080E090E00E94720281E0898388
:100B80008A859B85AC85BD858A839B83AC83BD8329
:100B90008E829F82A886B9864FEF5FEFBE016F5F9E
:100BA0007F4F8091A2019091A3010E942C0B0E9483
:100BB00048092ACFDA94B7CF00E010E08091BD0158
:100BC00081110CC080910602823010F00E94480909
:100BD0000115110599F30E940001F0CF0FB6F894AA
:100BE0000F92E091E701F091E801C681D781CE0133
:100BF00002960E94AA0780912D02815080932D02B7
:100C00008091BD0181508093BD010F900FBE8F89EF
:100C1000988D0E94170FCE010E94170FCFCF0F9310
:100C20001F93CF93DF93E0913E02F0913F0282E069
:100C30008083E0913A02F0913B021082E0913C0205
:100C4000F0913D028FEC808310924602E0914202C7
:100C5000F091430286E08083E0914002F0914102EE
:100C6000808180618083E0914002F0914102808127
:100C700088608083E0914002F09141028081806829
:100C80008083E0914002F091410280818F7D8083DA
:100C900067E671E08EE292E00E941A0467E571E077
:100CA0008EE292E00E941A0482E00E946E0367E6E0
:100CB00071E08BEC92E00E941A048AE390E00E94BB
:100CC0004D10EC01009751F04F969983888383E093
:100CD0008B8F89E08C8FCE010E941809D093A301DD
:100CE000C093A201CD2B61F465E771E08EE292E042
:100CF0000E941A0467E571E08EE292E00E941A04F5
:100D000010E000E021E048EC50E068E871E087EF97
:100D100094E00E946B1021E048EC50E063E971E040
:100D20008EEA94E00E946B10DF91CF911F910F919A
:100D30000C9476111F920F920FB60F9211242F93DD
:100D40003F934F935F936F937F938F939F93AF9353
:100D5000BF93EF93FF938EE292E00E940D01FF910B
:100D6000EF91BF91AF919F918F917F916F915F9123
:100D70004F913F912F910F900FBE0F901F9018959C
:100D80001F920F920FB60F9211242F938F939F9360
:100D9000EF93FF93E0913E02F0913F028081E0915A
:100DA0004402F091450282FD1BC090818091470270
:100DB0008F5F8F7320914802821741F0E0914702C4
:100DC000F0E0E25DFD4F958F80934702FF91EF9138
:100DD0009F918F912F910F900FBE0F901F9018959C
:100DE0008081F4CF1F920F920FB60F9211242F9390
:100DF0003F938F939F93AF93BF938091C70190913F
:100E0000C801A091C901B091CA013091C60123E087
:100E1000230F2D3758F50196A11DB11D2093C60152
:100E20008093C7019093C801A093C901B093CA01F0
:100E30008091CB019091CC01A091CD01B091CE01D8
:100E40000196A11DB11D8093CB019093CC01A0937D
:100E5000CD01B093CE01BF91AF919F918F913F9102
:100E60002F910F900FBE0F901F90189526E8230F1B
:100E70000296A11DB11DD2CFFC01DB010FB6F89483
:100E80000F924091D2015091D3012D913C91119735
:100E90002F3F3207E1F0818192816091D40170810E
:100EA000761719F048175907C0F4481B590B421719
:100EB000530788F4241B350B2D933C938091D40168
:100EC00080838091D2019091D3019283818380E0CD
:100ED0000F900FBE08951D921C9281E0F9CF0FB6BE
:100EE000F8940F928091D2019091D3010F900FBE90
:100EF00008958091CF018F5F8093CF0108950FB641
:100F0000F8940F92FC01928D0F900FBE81E0911129
:100F100080E00895CF93DF939C01FB01DC011196E3
:100F2000CD91DC91D383C2838C819D819583848311
:100F30008C819D81DC0113967C936E9312977D8347
:100F40006C8331872087F90180818F5F8083DF91F7
:100F5000CF910895CF93DF93FC01A085B185828165
:100F6000938124813581EC013D832C83C481D5811B
:100F70009B838A8311968D919C9112978E179F0760
:100F800021F41296DC93CE931197118610868C91E2
:100F900081508C938C91DF91CF9108950F931F9383
:100FA000CF93DF93DC011596ED91FC91C681D7813B
:100FB0008E01045F1F4FC8010E94AA078091CF01D4
:100FC000811125C00A501109C8010E94AA078E8903
:100FD00090912A02981710F480932A02B9E08B9F0F
:100FE000C0011124B8018A5F9D4F0E948A07E091D9
:100FF0009C01F0919D019E898689891760F481E0AA
:101000008093BC01DF91CF911F910F910895B8019A
:101010008BEE91E0EACF80E0F5CFEF92FF920F9355
:101020001F93CF93DF93EC010FB6F8940F921E8DB0
:101030007C0181E1E80EF11C01E01116D4F08FEF84
:101040008E8F0F900FBE0FB6F8940F921D8D7E01FC
:1010500088E0E80EF11C01E01116B4F08FEF8D8FDF
:101060000F900FBEDF91CF911F910F91FF90EF90E6
:1010700008958989882319F3C7010E94CE07811139
:101080000093BC011150D9CF8885882339F3C7015B
:101090000E94CE0781110093BC011150DDCF0F9348
:1010A0001F93CF93DF938C01FB0180819181D80145
:1010B00013968F3F9807F1F4E801AF81B885129637
:1010C0008D919C91139793838283EC01FD83EC8334
:1010D000B583A4831396FC93EE9312971187008730
:1010E000F80180818F5F8083DF91CF911F910F91F5
:1010F0000895D90112962D913C911397E9014881E9
:10110000598184179507A8F7DACFFC0173836283AE
:10111000918780874617570790F0421B530B8485B1
:10112000958548175907C8F4BF016E5F7F4F8091BE
:10113000C2019091C3010E944F0880E008954217B8
:10114000530718F46217730740F4BF016E5F7F4FB7
:101150008091C4019091C501EECF81E00895FF9286
:101160000F931F93CF93DF93EC01F62E0091D201E2
:101170001091D30180919C0190919D0102960E9453
:10118000AA07CF3FDC0789F4FF2079F060919C012A
:1011900070919D016E5F7F4F89ED91E0DF91CF915E
:1011A0001F910F91FF900C948A07C00FD11FE091FF
:1011B0009C01F0919D01D383C28360919C01709149
:1011C0009D01C017D10768F48091D5019091D60197
:1011D0006E5F7F4FDF91CF911F910F91FF900C9425
:1011E0004F088091D7019091D8016E5F7F4F0E9488
:1011F0004F088091BE019091BF01C817D90720F414
:10120000D093BF01C093BE01DF91CF911F910F9189
:10121000FF900895FC010396928381832FEF3FEFA7
:1012200034832383968385839087878310820895F0
:10123000CF93DF93EC010FB6F8940F9288819981D8
:101240002B8D4C8DBC01249F600D711D11247D835D
:101250006C831A8E9B838A832150330B429FB0018B
:10126000439F700D1124860F971F9F838E838FEFEE
:101270008D8F8E8FCE0108960E940A09CE0141966D
:101280000E940A090F900FBE81E0DF91CF9108956F
:101290000F920FB6F8940F921F9211242F923F9243
:1012A0004F925F926F927F928F929F92AF92BF9276
:1012B000CF92DF92EF92FF920F931F932F933F9362
:1012C0004F935F936F937F938F939F93AF93BF934E
:1012D000CF93DF93EF93FF93A0919C01B0919D0179
:1012E0000DB60D920EB60D928091CF01882321F09C
:1012F00081E08093BC015FC01092BC01A0919C0171
:10130000B0919D01E0919C01F0919D012D913C9146
:101310008789908D82179307A8F080919C01909106
:101320009D0180919C0190919D01259A2D9A2FEF0E
:1013300087EA91E6215080409040E1F700C000002C
:101340001D9AF5CF20912A0289E001C02150422F39
:1013500050E0849FF001859FF00D1124EA5FFD4F5E
:101360009081992399F3A181B28112960D90BC913D
:10137000A02DB283A183289FC0011124875F9D4FB8
:10138000A817B90729F412968D919C9192838183B5
:1013900089E0849FF001859FF00D1124EA5FFD4FE5
:1013A0000180F281E02D8681978190939D01809349
:1013B0009C0120932A02A0919C01B0919D01CD91A6
:1013C000CDBFDD91DEBFFF91EF91DF91CF91BF9156
:1013D000AF919F918F917F916F915F914F913F91CD
:1013E0002F911F910F91FF90EF90DF90CF90BF90C2
:1013F000AF909F908F907F906F905F904F903F90B5
:101400002F901F900F900FBE0F9008957F928F9294
:101410009F92AF92BF92CF92DF92EF92FF920F9383
:101420001F93CF93DF930FB6F8940F928091CF0163
:1014300081508093CF018091CF01882389F080E093
:101440000F900FBEDF91CF911F910F91FF90EF9002
:10145000DF90CF90BF90AF909F908F907F90089536
:1014600080912D02882359F3D0E0C0E029E0F22ECC
:10147000EE24E39429C0E091F001F091F101C681DE
:10148000D781CE010C960E94AA078E010E5F1F4FD6
:10149000C8010E94AA078E8990912A02981710F419
:1014A00080932A028F9DC0011124B8018A5F9D4F4D
:1014B0000E948A07E0919C01F0919D019E89868996
:1014C000981710F0E092BC018091EB018111D3CF0D
:1014D000CD2B11F00E94A802E090BA01F090BB0160
:1014E000E114F10409F4AFC089E0A82E77247394C5
:1014F000CC24CA94DC2C8091CF01811192C0C09180
:10150000D201D091D3012196D093D301C093D201BF
:101510002097B9F48091D7019091D8012091D501FD
:101520003091D6013093D8012093D7019093D60102
:101530008093D5018091D4018F5F8093D4010E9464
:10154000A8028091BE019091BF01B12CC817D907A4
:1015500008F05BC0E0919C01F0919D01E689AE9E90
:10156000F0011124EA5FFD4F8081823010F0BB242E
:10157000B3948091BC01811103C0BB2009F45AC00F
:101580007092BC0157C0E091D701F091D80105805D
:10159000F681E02D06811781D80112968D919C91DC
:1015A000C817D90728F49093BF018093BE01D2CF0A
:1015B0004801B2E08B0E911CC4010E94AA07F801F9
:1015C00084899589892B21F0C8010C960E94AA076D
:1015D000D80156968C9190912A02981710F4809316
:1015E0002A028A9DC0011124B4018A5F9D4F0E9486
:1015F0008A07E0919C01F0919D01D80156969C913B
:101600008689981710F0BB24B394E091D701F0912C
:10161000D80180818111B7CFD092BF01C092BE01A5
:1016200099CF8091BA019091BB0101969093BB0133
:101630008093BA01B1E0EB1AF10809F05CCF109287
:10164000BB011092BA018091BC01882309F4F7CE46
:101650000E94480981E0F4CEAF92BF92CF92DF9210
:10166000EF92FF920F931F93CF93DF9300D000D0A0
:101670001F92CDB7DEB78C017B015D834C8380E088
:10168000680128E0C20ED11C0FB6F8940F92F80141
:10169000228D938D291708F078C0D28C448D41118A
:1016A0005AC080819181892B11F080E009C0E480CB
:1016B000F580E114F10421F580E0F801158214822F
:1016C000D394F801D28E9189992321F0C8014196D3
:1016D0000E94CE0781110E9448090F900FBE81E041
:1016E0000F900F900F900F900F90DF91CF911F915F
:1016F0000F91FF90EF90DF90CF90BF90AF90089543
:10170000F70182A1815082A3268991A12917A1F214
:101710008111D2CF5701F2E0AF0EB11CC5010E947A
:10172000AA07F70181A1868B24E030E0281B31094C
:101730003587248790912A02981710F480932A0203
:10174000F9E08F9FC0011124B5018A5F9D4F0E946F
:101750008A0781E0B2CF50E0B701828193810E9475
:101760000F14F801848D22813381820F932F911DF4
:1017700093838283248135818217930708F495CF60
:10178000808191819383828390CF2C813D81232B13
:1017900021F40F900FBE80E0A3CF811109C080918A
:1017A000D40189838091D2019091D3019B838A8354
:1017B0000F900FBE0E9479070FB6F8940F92F801B0
:1017C000858D8F3F09F4158EF801868D8F3F09F4C2
:1017D000168E0F900FBEBE016C5F7F4FCE0101963B
:1017E0000E943C0781112AC00FB6F8940F92F801AD
:1017F000928D838D0F900FBE98131AC0AC80BD8060
:1018000060919C0170919D01645F7F4FC6010E94B1
:101810004F0861E0C5010E94AF08C8010E940D0891
:101820000E94060A811102C00E94480981E02CCF63
:10183000C8010E940D080E94060AF8CFC8010E9444
:101840000D080E94060AA7CFCF93DF9300D000D0E7
:101850001F92CDB7DEB79C018091D0019091D1014C
:101860000097C9F019827B836A833D832C83209182
:101870002C0250E040E0BE016F5F7F4F21112091AC
:10188000CF010E942C0B0F900F900F900F900F9094
:10189000DF91CF91089580E0F6CFEF92FF920F9302
:1018A0001F93CF93DF93E091C401F091C501808134
:1018B000811113C08091C2019091C3019093C50121
:1018C0008093C401F093C301E093C201DF91CF91F3
:1018D0001F910F91FF90EF9008950580F681E02D04
:1018E00000811181C681D7817E0182E0E80EF11C62
:1018F000C7010E94AA07E889F989CE0109958A895A
:1019000082FFD1CF8C859D85800F911F0817190705
:1019100060F49B838A83D987C887B7018091C4010B
:101920009091C5010E944F08BECFB801CE010E9420
:10193000240CB9CFAF92BF92CF92DF92EF92FF9279
:101940000F931F93CF93DF9300D000D01F92CDB79A
:10195000DEB78C016B015D834C8380E0580191E11F
:10196000A90EB11C0FB6F8940F92F801F28CFF206B
:10197000C9F1448D4423B1F050E086819781840FF2
:10198000951F97838683248135818217930720F0E2
:101990008081918197838683F80166817781C60172
:1019A0000E940F14FA94F801F28E8085882339F092
:1019B000C80108960E94CE0781110E9448090F9025
:1019C0000FBE81E00F900F900F900F900F90DF915E
:1019D000CF911F910F91FF90EF90DF90CF90BF902C
:1019E000AF9008952C813D81232B21F40F900FBEE1
:1019F00080E0E8CF811109C08091D4018983809172
:101A0000D2019091D3019B838A830F900FBE0E94D5
:101A100079070FB6F8940F92F801858D8F3F09F47E
:101A2000158EF801868D8F3F09F4168E0F900FBE2C
:101A3000BE016C5F7F4FCE0101960E943C07811171
:101A400025C0C8010E947F078823D1F0EC80FD806B
:101A500060919C0170919D01645F7F4FC5010E9460
:101A60004F0861E0C7010E94AF08C8010E940D083D
:101A70000E94060A811102C00E94480981E072CFCB
:101A8000C8010E940D080E94060AF8CFC8010E94F2
:101A90000D080E94060AC8010E947F07882371F37F
:101AA000A7CF0F920FB6F8940F921F9211242F9286
:101AB0003F924F925F926F927F928F929F92AF92DE
:101AC000BF92CF92DF92EF92FF920F931F932F93CB
:101AD0003F934F935F936F937F938F939F93AF93B6
:101AE000BF93CF93DF93EF93FF93A0919C01B091AD
:101AF0009D010DB60D920EB60D9213BE8091CF01D1
:101B00008111F6C08091D2019091D30101969093FA
:101B1000D3018093D201009799F52091D70130919C
:101B2000D8014091D5015091D6015093D8014093EE
:101B3000D7013093D6012093D5012091D4012F5F96
:101B40002093D401E091D701F091D8012081211197
:101B500007C02FEF3FEF3093BF012093BE0110C0AD
:101B6000E091D701F091D8010580F681E02D068043
:101B7000F781E02D228133813093BF012093BE0194
:101B80002091BE013091BF018217930710F420E02D
:101B90009BC020E019E0E091D701F091D80130819D
:101BA000311107C08FEF9FEF9093BF018093BE016B
:101BB0008BC0E091D701F091D8010580F681E02D2E
:101BC0000680F781E02D428153818417950728F420
:101BD0005093BF014093BE0177C0AF014E5F5F4F8E
:101BE000A285B38564817581E680F780EB01FD8273
:101BF000EC82C681D7817B836A8311966D917C913B
:101C000012974617570721F41296DC93CE9311973B
:101C1000138612863C9131503C933C91A489B5893E
:101C20001097F9F066857785E088F188EB01FD82F1
:101C3000EC82C089D1897B836A831196ED90FC90F8
:101C40001297BF01645F7F4FE616F70621F41296E4
:101C5000DC93CE931197158A148A3C9131503C93B2
:101C60003C91A68930912A023A1710F4A0932A02D7
:101C70001A9FD0011124BD016A5F7D4F7B01DB01FA
:101C80001196CD91DC91D583C4836C817D8177835E
:101C900066836C817D81DB0113965C934E93129772
:101CA0005D834C83F386E286E70138813F5F3883AA
:101CB000A0919C01B0919D01468956963C91431795
:101CC00008F469CF21E067CFE0919C01F0919D017C
:101CD000E689D9E0ED9FF0011124EA5FFD4F808194
:101CE000823008F021E08091BC0181110EC00AC051
:101CF0008091BA019091BB0101969093BB018093B2
:101D0000BA016AC0222309F467C08091CF018823F9
:101D100021F081E08093BC015FC01092BC01A091D2
:101D20009C01B0919D01E0919C01F0919D012D914C
:101D30003C918789908D82179307A8F080919C0130
:101D400090919D0180919C0190919D01259A2D9AE1
:101D50002FEF67EA71E6215060407040E1F700C064
:101D600000001D9AF5CF20912A0289E001C0215080
:101D7000422F50E0849FF001859FF00D1124EA5F0F
:101D8000FD4F9081992399F3A181B28112960D9014
:101D9000BC91A02DB283A183289FC0011124875F2D
:101DA0009D4FA817B90729F412968D919C919283A3
:101DB000818389E0849FF001859FF00D1124EA5F03
:101DC000FD4F0180F281E02D8681978190939D01E6
:101DD00080939C0120932A02A0919C01B0919D01C7
:101DE000CD91CDBFDD91DEBFFF91EF91DF91CF911E
:101DF000BF91AF919F918F917F916F915F914F9123
:101E00003F912F911F910F91FF90EF90DF90CF9016
:101E1000BF90AF909F908F907F906F905F904F900A
:101E20003F902F901F900F900FBE0F900895CF936B
:101E3000DF93009751F0EC010E947907CE010E94D8
:101E40005E13DF91CF910C94060ADF91CF91089534
:101E5000CF93DF9300D000D01F92CDB7DEB7E091D3
:101E6000C401F091C501F08010E000E0FF2029F0EE
:101E70000580F681E02D008111810E9479070E9482
:101E80006F076C018091C0019091C101C816D906FD
:101E900008F04BC00E944D0CD092C101C092C0010D
:101EA0000E94060A50E040E0BE016F5F7F4F8091C4
:101EB000D0019091D1010E949A0C882381F28981EE
:101EC00087FDF0CF0C811D81D8011A968D919C91D0
:101ED000892B21F0C80102960E94AA070E946F0771
:101EE0007C018091C0019091C101E816F90610F4BF
:101EF0000E944D0CF092C101E092C001E981EA30EC
:101F000088F60E2E000CFF0BE557F04FD8015296C5
:101F10008C910C9409140F100F100F1048103310EF
:101F200042100F100F1048103310D092C101C09210
:101F3000C001FF2099F1C016D106C0F10E94060A27
:101F4000E091C401F091C5010580F681E02DE680A5
:101F5000F780C70102960E94AA07D70152968C917A
:101F6000529782FF17C01C966D917C91600F711F74
:101F70009801A601C7010E948508882321F0B801B5
:101F8000C7010E94240CD7015096ED91FC91C70126
:101F9000099588CF8E7FF701828BF5CFE091C20142
:101FA000F091C3018081BB24B3948111B12CE090E6
:101FB000D001F090D1010FB6F8940F92F701858D02
:101FC0008F3F09F4158ED7015E968C915E978F3FF7
:101FD00011F45E961C920F900FBEF701828D811155
:101FE00014C060919C0170919D01645F7F4FC70197
:101FF00041960E948A07C8018C199D09BB2011F0E7
:102000008FEF9FEF6B2D0E94AF08C7010E940D0854
:102010000E94060A811146CF0E94480943CF816081
:10202000F801828B2A813B8164857585620F731F5D
:10203000A701C8010E948508882309F433CFD8017D
:102040005096ED91FC91C8010995F801828982FFB3
:1020500029CF6A817B8184859585680F791FC801A6
:102060000E94240C1FCF8160F801828B6A817B81E2
:10207000758764876E0D7F1D9701A701C8010E94B7
:10208000850810CF81FD04C0C8010E94170F0ACF38
:102090008E7FD80152968C9305CFCF93DF93EC01BE
:1020A0000E947907CE010E94C212EC010E94060A2A
:1020B000209769F4259A2D9A2FEF80E792E021501E
:1020C00080409040E1F700C000001D9AF5CFCE019E
:1020D000DF91CF9108957F928F929F92AF92BF929E
:1020E000CF92DF92EF92FF920F931F93CF93DF93E4
:1020F000982EA92E762E872E7A01B22ECA010E9422
:102100004D106C01892B09F4D0C088E290E00E9448
:102110004D10EC01892B09F4C5C0D88ECF8AA701D8
:1021200065EA70E0C6010E94181421E0E21AF10885
:10213000EF89F88DEE0DFF1D672D782DCE014996A4
:102140009B01285F3F4FDB014D91BD01DC014D93A9
:10215000CD01AB0141505109DA014C91442319F0F2
:102160006217730781F718A2BE8AB9A21AA21B864A
:102170001A861D8A1C8AD987C88784E090E08B194B
:1021800091099D878C87DB8BCA8B1BA21CA21DA289
:102190001EA21FA29082DF011197AC9211971C9290
:1021A000119780E88C9311971C9257971C92119766
:1021B0001C92B397F983E8830115110519F0F80112
:1021C000D183C0830FB6F8940F9280912D028F5F58
:1021D00080932D0280919C0190919D01892B09F0A3
:1021E00073C0D0939D01C0939C0180912D028130DA
:1021F00081F586E092E00E940A098FE092E00E9459
:102200000A0988E192E00E940A0981E292E00E94B4
:102210000A098DEF91E00E940A0984EF91E00E9483
:102220000A098BEE91E00E940A0982EE91E00E9479
:102230000A0989ED91E00E940A098DEF91E09093DF
:10224000D8018093D70184EF91E09093D6018093D9
:10225000D50180912B028F5F80932B028E89909104
:102260002A02981710F480932A02F9E08F9FC00188
:102270001124BE016E5F7F4F8A5F9D4F0E948A07C7
:102280000F900FBE80912C02882351F0E0919C01A9
:10229000F0919D0196898E89981710F40E94480943
:1022A00081E004C0C6010E94170F8FEFDF91CF912C
:1022B0001F910F91FF90EF90DF90CF90BF90AF9064
:1022C0009F908F907F90089580912C028111C1CFB3
:1022D000E0919C01F0919D019E898689981708F4F0
:1022E000B8CFD0939D01C0939C01B3CF0F931F93A0
:1022F000CF93DF9308EB11E020E040EC50E06AE57B
:1023000071E08CED95E00E946B10813009F08CC07B
:102310000FB6F8940F928091D0019091D101892B42
:1023200049F58DEA91E00E940A0984EA91E00E9451
:102330000A098DEA91E09093C5018093C40184EA73
:1023400091E09093C3018093C20181E590E00E94E7
:102350004D10EC01009751F04F96998388838AE0E5
:102360008B8F85E08C8FCE010E941809D093D1010C
:10237000C093D0010F900FBE8091D0019091D101F8
:10238000892B09F451C006EB11E023E045E550E04C
:102390006FE571E088E29FE00E946B10813009F0E8
:1023A00043C0F8942FEF3FEF3093BF012093BE015D
:1023B00080932C021092D3011092D201A89588E14B
:1023C00090EC0FB6F894A895809360000FBE9093A0
:1023D0006000A0919C01B0919D01CD91CDBFDD9198
:1023E000DEBFFF91EF91DF91CF91BF91AF919F91B0
:1023F0008F917F916F915F914F913F912F911F919D
:102400000F91FF90EF90DF90CF90BF90AF909F9093
:102410008F907F906F905F904F903F902F901F9084
:102420000F900FBE0F900895DF91CF911F910F91E4
:1024300008950E94510D1895EEE2F2E01382128287
:1024400088EE93E0A0E0B0E084839583A683B78311
:102450008AE091E09183808385EC90E09587848782
:1024600084EC90E09787868780EC90E0918B808B5E
:1024700081EC90E0938B828B82EC90E0958B848B47
:1024800086EC90E0978B868B118E128E138E148EB5
:10249000EBECF2E0138212828CE191E09183808375
:1024A0008CE084838FEF85838BE0868385E0878350
:1024B00084E0808783E0818782E0828713861486A8
:1024C00015861686178681E00C946E03789484B581
:1024D000826084BD84B5816084BD85B5826085BD20
:1024E00085B5816085BD80916E00816080936E00AE
:1024F00010928100809181008260809381008091A0
:102500008100816080938100809180008160809350
:1025100080008091B10084608093B1008091B00010
:1025200081608093B00080917A00846080937A000B
:1025300080917A00826080937A0080917A00816035
:1025400080937A0080917A00806880937A0010925C
:10255000C10020910401309105018FEF98E0821BAA
:10256000930B90930101809300010E940F060E943B
:1025700076110E940F06C0E0D0E02097F1F30E9490
:102580000001FBCF0F931F93CF93DF938230910510
:1025900010F482E090E0E091E502F091E60230E094
:1025A00020E0B0E0A0E0309799F42115310509F45E
:1025B0004AC0281B390B24303105D8F58A819B810C
:1025C0006115710589F1FB0193838283FE0111C0BE
:1025D000408151810281138148175907E0F0481763
:1025E000590799F4109761F012960C93129713966D
:1025F0001C933296CF01DF91CF911F910F910895D7
:102600000093E5021093E602F4CF2115310551F055
:102610004217530738F0A901DB019A01BD01DF0120
:10262000F801C1CFEF01F9CF9093E6028093E50264
:10263000CDCFFE01E20FF31F819391932250310918
:1026400039832883D7CF2091E3023091E402232BF2
:1026500041F420910201309103013093E402209370
:10266000E30220910001309101012115310541F46F
:102670002DB73EB74091040150910501241B350B45
:10268000E091E302F091E402E217F307A0F42E1BBD
:102690003F0B2817390778F0AC014E5F5F4F2417C6
:1026A000350748F04E0F5F1F5093E4024093E3025A
:1026B000819391939FCFF0E0E0E09CCFCF93DF93A5
:1026C0000097E9F0FC01329713821282A091E50293
:1026D000B091E602ED0130E020E01097A1F42081F6
:1026E0003181820F931F2091E3023091E402281779
:1026F000390709F061C0F093E402E093E302DF914F
:10270000CF910895EA01CE17DF07E8F54A815B8192
:102710009E0141155105B1F7E901FB83EA83499117
:102720005991C40FD51FEC17FD0761F48081918189
:102730000296840F951FE901998388838281938192
:102740009B838A83F0E0E0E012968D919C91139731
:102750000097B9F52D913C911197CD010296820F0A
:10276000931F2091E3023091E4022817390739F6CC
:10277000309751F51092E6021092E502B093E40210
:10278000A093E302BCCFD383C28340815181840FE5
:10279000951FC817D90761F44E5F5F4F88819981F3
:1027A000480F591F518340838A819B819383828381
:1027B0002115310509F0B0CFF093E602E093E50270
:1027C0009ECFFD01DC01C0CF13821282D7CFA1E2E0
:1027D0001A2EAA1BBB1BFD010DC0AA1FBB1FEE1F9B
:1027E000FF1FA217B307E407F50720F0A21BB30BE6
:1027F000E40BF50B661F771F881F991F1A9469F762
:1028000060957095809590959B01AC01BD01CF01BD
:102810000895EE0FFF1F0590F491E02D0994FB0140
:10282000DC0102C001900D9241505040D8F708954C
:10283000DC0101C06D9341505040E0F70895F894D9
:02284000FFCFC8
:102842000000E7028000000000002F018C00B900A8
:102852007C01EA00C800DC000000000014048C00C7
:10286200A502A40274656D70202843293A00687598
:102872006D6964697479202825293A005B455252B2
:102882004F525D2052656164206468743131206565
:1028920072726F723A20000D0A0049444C4500548E
:1028A2006D722053766300506C616E742D6D6F6E85
:1028B20069746F720043616E27742063726561747C
:1028C2006520717565756500444854313120544165
:0C28D200534B004C4344205441534B0036
:107E0000112484B714BE81FFF0D085E080938100F7
:107E100082E08093C00088E18093C10086E0809377
:107E2000C20080E18093C4008EE0C9D0259A86E02C
:107E300020E33CEF91E0309385002093840096BBD3
:107E4000B09BFECF1D9AA8958150A9F7CC24DD24C4
:107E500088248394B5E0AB2EA1E19A2EF3E0BF2EE7
:107E6000A2D0813461F49FD0082FAFD0023811F036
:107E7000013811F484E001C083E08DD089C08234E0
:107E800011F484E103C0853419F485E0A6D080C0E4
:107E9000853579F488D0E82EFF2485D0082F10E0AE
:107EA000102F00270E291F29000F111F8ED06801E7
:107EB0006FC0863521F484E090D080E0DECF843638
:107EC00009F040C070D06FD0082F6DD080E0C81688
:107ED00080E7D80618F4F601B7BEE895C0E0D1E017
:107EE00062D089930C17E1F7F0E0CF16F0E7DF06D8
:107EF00018F0F601B7BEE89568D007B600FCFDCFD4
:107F0000A601A0E0B1E02C9130E011968C91119780
:107F100090E0982F8827822B932B1296FA010C0160
:107F200087BEE89511244E5F5F4FF1E0A038BF0790
:107F300051F7F601A7BEE89507B600FCFDCF97BE46
:107F4000E89526C08437B1F42ED02DD0F82E2BD052
:107F50003CD0F601EF2C8F010F5F1F4F84911BD097
:107F6000EA94F801C1F70894C11CD11CFA94CF0C13
:107F7000D11C0EC0853739F428D08EE10CD085E9AC
:107F80000AD08FE07ACF813511F488E018D01DD067
:107F900080E101D065CF982F8091C00085FFFCCF94
:107FA0009093C60008958091C00087FFFCCF809118
:107FB000C00084FD01C0A8958091C6000895E0E648
:107FC000F0E098E1908380830895EDDF803219F02E
:107FD00088E0F5DFFFCF84E1DECF1F93182FE3DFCA
:107FE0001150E9F7F2DF1F91089580E0E8DFEE27F6
:047FF000FF270994CA
:027FFE00040479
:0400000300007E007B
:00000001FF
