:100000000C9462000C948A000C948A000C948A0070
:100010000C948A000C948A000C94E1120C948A00CF
:100020000C948A000C948A000C948A000C948A0028
:100030000C948A000C948A000C948A000C948A0018
:100040000C94BA070C948A000C9488070C946207ED
:100050000C948A000C948A000C948A000C948A00F8
:100060000C948A000C948A000000000024002700F1
:100070002A0000000000250028002B0000000000DE
:1000800023002600290004040404040404040202DA
:100090000202020203030303030301020408102007
:1000A0004080010204081020010204081020000012
:1000B0000008000201000003040700000000000027
:1000C0000000E41211241FBECFEFD8E0DEBFCDBF89
:1000D00011E0A0E0B1E0E6E6FDE202C005900D927D
:1000E000AA3CB107D9F723E0AAECB1E001C01D9208
:1000F000A531B207E1F710E0C2E6D0E004C02197D5
:10010000FE010E949B16C136D107C9F70E942E132B
:100110000C94B1160C940000AF92BF92CF92DF9274
:10012000EF92FF920F931F93CF93DF936C017B01AC
:100130008B01040F151FEB015E01AE18BF08C0173D
:10014000D10759F06991D601ED91FC910190F081B0
:10015000E02DC6010995892B79F7C501DF91CF9173
:100160001F910F91FF90EF90DF90CF90BF90AF90D5
:100170000895FC01538D448D252F30E0842F90E0AD
:10018000821B930B541710F0CF9608950197089592
:10019000FC01918D828D981761F0A28DAE0FBF2F5B
:1001A000B11D5D968C91928D9F5F9F73928F90E0B1
:1001B00008958FEF9FEF0895FC01918D828D981720
:1001C00031F0828DE80FF11D858D90E008958FEF5D
:1001D0009FEF0895FC01918D228D892F90E0805C26
:1001E0009F4F821B91098F73992708958CE592E0A8
:1001F0000E94EA0021E0892B09F420E0822F089573
:100200000E94F60081110C940000089580E090E0B7
:10021000892B11F00C9400010895FC01A48DA80F06
:10022000B92FB11DA35ABF4F2C91848D90E0019638
:100230008F739927848FA689B7892C93A089B18958
:100240008C91837080648C93938D848D981306C0F9
:100250000288F389E02D80818F7D80830895EF925D
:10026000FF920F931F93CF93DF93EC0181E0888F70
:100270009B8D8C8D98131AC0E889F989808185FF40
:1002800015C09FB7F894EE89FF896083E889F989E2
:1002900080818370806480839FBF81E090E0DF91E4
:1002A000CF911F910F91FF90EF900895F62E0B8D37
:1002B00010E00F5F1F4F0F731127E02E8C8D8E11F2
:1002C0000CC00FB607FCFACFE889F989808185FF59
:1002D000F5CFCE010E940D01F1CFEB8DEC0FFD2F7C
:1002E000F11DE35AFF4FF0829FB7F8940B8FEA8914
:1002F000FB8980818062CFCFCF93DF93EC01888D23
:100300008823B9F0AA89BB89E889F9898C9185FD90
:1003100003C0808186FD0DC00FB607FCF7CF8C911E
:1003200085FFF2CF808185FFEDCFCE010E940D01C8
:10033000E9CFDF91CF910895833081F028F48130A7
:1003400099F08230A9F008958730A9F08830C9F07B
:100350008430B1F4809180008F7D03C08091800053
:100360008F7780938000089584B58F7784BD08953A
:1003700084B58F7DFBCF8091B0008F778093B000E4
:1003800008958091B0008F7DF9CFCF93DF93282F10
:1003900030E0F901E255FF4F8491F901E656FF4F35
:1003A000D491F901EA57FF4FC491CC23A1F08111F8
:1003B0000E949C01EC2FF0E0EE0FFF1FE458FF4F6E
:1003C000A591B491EC91ED2381E090E009F480E0F7
:1003D000DF91CF91089580E090E0FACF1F93CF9303
:1003E000DF93282F30E0F901E255FF4F8491F901A6
:1003F000E656FF4FD491F901EA57FF4FC491CC2341
:10040000A9F0162F81110E949C01EC2FF0E0EE0F55
:10041000FF1FEE58FF4FA591B4918FB7F894EC9160
:10042000111108C0D095DE23DC938FBFDF91CF91EF
:100430001F910895DE2BF8CFCF93DF9390E0FC015E
:10044000E656FF4F24918A579F4FFC0184918823E1
:10045000D1F090E0880F991FFC01E859FF4FA5915A
:10046000B491FC01EE58FF4FC591D49161110EC0BB
:100470009FB7F8948C91E22FE0958E238C9328817E
:10048000E223E8839FBFDF91CF9108958FB7F8945F
:10049000EC91E22BEC938FBFF6CF3FB7F8948091AD
:1004A000F9019091FA01A091FB01B091FC0126B5F0
:1004B000A89B05C02F3F19F00196A11DB11D3FBF9C
:1004C000BA2FA92F982F8827BC01CD01620F711D6B
:1004D000811D911D42E0660F771F881F991F4A9565
:1004E000D1F708958F929F92AF92BF92CF92DF92F1
:1004F000EF92FF924B015C010E944D026B017C0167
:100500000E944D026C197D098E099F09683E734057
:1005100081059105A8F321E0821A9108A108B1088C
:1005200088EEC80E83E0D81EE11CF11C81149104F2
:10053000A104B10429F7FF90EF90DF90CF90BF9016
:10054000AF909F908F900895089590E080E0089577
:10055000E0910502F09106028081811107C08FEFC2
:100560009FEF9093ED018093EC010895E0910502D7
:10057000F09106020580F681E02D0680F781E02DDE
:1005800082819381EECFCF93DF93EC0160E08E8187
:100590000E94EE0161E08E810E94EE0160E08E819A
:1005A0000E94EE018BE891E00197F1F7DF91CF9186
:1005B0000895CF92DF92EF92FF920F931F93CF9304
:1005C000DF936C017C0187E0E80EF11CD0E0C0E015
:1005D000062F10E0B8010C2E02C0759567950A949D
:1005E000E2F76170F70181917F010E94EE0121968F
:1005F000C430D10579F7C601DF91CF911F910F91DA
:10060000FF90EF90DF90CF900C94C302CF92DF92D7
:10061000EF92FF920F931F93CF93DF93EC01F62E8F
:10062000642F8C810E94EE018D818F3F19F060E074
:100630000E94EE010F2D10E08F8584FF25C06E0112
:1006400087E0C80ED11CF12CE12CB8010E2C02C0A1
:10065000759567950A94E2F76170F60181916F01D3
:100660000E94EE01FFEFEF1AFF0A88E0E816F1049E
:1006700061F7CE01DF91CF911F910F91FF90EF9025
:10068000DF90CF900C94C302B80184E07595679514
:100690008A95E1F7CE010E94D9026F2DCE01DF913C
:1006A000CF911F910F91FF90EF90DF90CF900C941E
:1006B000D90240E0682F89EF92E00C9406039091F4
:1006C0000C03691710F06FEF690FE62FF0E0E750A9
:1006D000FD4F9489890F80680C945903CF93DF9361
:1006E000813029F0909108039860909308038093DB
:1006F0000C0310920D0380E480930E0380E180933D
:100700000F0380E58093100361E08091FD020E9459
:100710001C028091FE028F3F19F061E00E941C02D2
:1007200061E08091FF020E941C02C9EFD2E09E01AD
:10073000295F32408091080384FD0BC084E090E083
:1007400021962817390744F461E08E810E941C022B
:10075000EECF88E090E0F4CF8BE39DE00197F1F7D6
:1007600060E08091FD020E94EE0160E08091FF0256
:100770000E94EE018091FE028F3F19F060E00E941E
:10078000EE018091080384FD39C063E089EF92E0B7
:100790000E94D902CBE4D6E4CE010197F1F763E0E1
:1007A00089EF92E00E94D9022197F1F763E089EF87
:1007B00092E00E94D90283E592E00197F1F762E0AE
:1007C00089EF92E00E94D9028091080380620E9422
:1007D000590384E0809309038CE00E94590381E06F
:1007E0000E9459038BE39FE10197F1F782E0809328
:1007F0000A0386E0DF91CF910C94590380620E9436
:1008000059038BE496E40197F1F780910803806225
:100810000E94590383E592E00197F1F78091080364
:1008200080620E945903D0CF41E00E94060381E01C
:1008300090E00895FB0101900020E9F73197AF01A6
:10084000461B570BDC01ED91FC910280F381E02DFA
:1008500009948F929F92AF92BF92EF92FF920F9363
:100860001F93CF93DF93CDB7DEB7A1970FB6F89460
:10087000DEBF0FBECDBF7C01FA01CB0119A2223031
:1008800008F42AE08E010F5D1F4F822E912CB12CAF
:10089000A12CBF01A50194010E947916F901CA019A
:1008A0006A300CF5605DD8016E938D01232B242BEB
:1008B000252B79F790E080E0109721F0BD01C7016A
:1008C0000E941A04A1960FB6F894DEBF0FBECDBFEA
:1008D000DF91CF911F910F91FF90EF90BF90AF905C
:1008E0009F908F900895695CDECFCF92DF92EF9258
:1008F000FF920F931F93CF93DF9377FF21C06A017D
:100900007B01EC01E881F9810190F081E02D6DE23D
:1009100009958C0144275527BA014C195D096E09C8
:100920007F092AE0CE010E942904800F911FDF91E8
:10093000CF911F910F91FF90EF90DF90CF9008958E
:100940002AE0DF91CF911F910F91FF90EF90DF9000
:10095000CF900C94290487E00E94C501BC01990F37
:10096000880B990B0E9452156B017C014B015C01B5
:1009700064E271E08CE592E00E941A04A7019601FE
:10098000C701B6010E94741662E371E081111AC0BA
:1009900026013701E89477F82FEF3FEF4FE75FE745
:1009A000C301B2010E947416811119C02FEF3FEFED
:1009B0004FE75FE7C301B2010E941C1518167CF4D3
:1009C00066E371E08CE592E00E941A046EE371E048
:1009D0008CE592E00E941A040E94100ABCCF2FEF0F
:1009E0003FEF4FE75FE4C701B6010E9402161816F9
:1009F0001CF46AE371E0E6CF2FEF3FEF4FE75FECC7
:100A0000C701B6010E941C1587FDF3CF20E030E03E
:100A1000A901C701B6010E941C1587FF0BC06DE23A
:100A20008CE592E00E942F0146015701B7FAB0947D
:100A3000B7F8B0942AE037ED43EA5BE3C501B401AF
:100A40000E94B0144B015C010E9421156B017C01D6
:100A50000E9450159B01AC01C501B4010E94AF1466
:100A60004B015C012AE0B701A6018CE592E00E94EF
:100A700029046EE28CE592E00E942F0120E030E034
:100A800040E251E4C501B4010E9407164B015C012C
:100A90000E9421156B01F12CE12C2AE0B701A6017F
:100AA0008CE592E00E942904C701B6010E9450150E
:100AB0009B01AC01C501B4010E94AF1420E030E0FD
:100AC00040E251E40E9407160E942115AB0170E03C
:100AD00060E02AE08CE592E00E94290477CFCF9372
:100AE000DF93CDB7DEB72B970FB6F894DEBF0FBEFE
:100AF000CDBF60E080E00E945F034FEF5FEFBE017B
:100B00006F5F7F4F8091D0019091D1010E94620D63
:100B1000813061F589819A81892B41F561E471E029
:100B200089EF92E00E941A0460E089E00E945F036E
:100B30004C815D816E817F8189EF92E00E94750416
:100B400061E080E00E945F036AE471E089EF92E077
:100B50000E941A0461E08DE00E945F034885598578
:100B60006A857B8589EF92E00E9475040E94100AD5
:100B7000C0CFCF93DF93CDB7DEB764970FB6F894AD
:100B8000DEBF0FBECDBF22242394312C1C861D86D0
:100B90001E861F86188A61E086E00E941C0260E0C3
:100BA00086E00E94EE0162E170E080E090E00E9449
:100BB000720261E086E00E94EE018BE990E001970D
:100BC000F1F760E086E00E941C0201E117E286E096
:100BD0000E94C501892BD9F401501109C1F70EEF0C
:100BE0001FEF67E571E08CE592E00E941A04A8010E
:100BF000110F660B770B8CE592E00E9475046EE393
:100C000071E08CE592E00E941A0480E07BC001E173
:100C100017E286E00E94C501019721F401501109F5
:100C2000C1F7DDCF08E210E037E0D32EC12C21E17F
:100C3000E22E27E2F22E86E00E94C501892B29F4DC
:100C400021E0E21AF108B9F7CACF0E944D022B0148
:100C50003C0191E1E92E97E2F92E86E00E94C50160
:100C6000019729F431E0E31AF108B9F7B8CF0E94EF
:100C70004D02641975098609970969327105810564
:100C8000910578F0ECE0F0E0EC0FFD1FEC0DF11DAC
:100C9000808191010D2C01C0220F0A94EAF7822B6A
:100CA0008083D1104EC0C39487E0D82E0150110923
:100CB00009F0BDCF8C85282F30E03093CD012093F3
:100CC000CC019E85292F30E03093CF012093CE01B7
:100CD000382F390F28890FEF1FEF321382CF292FBA
:100CE00030E050E040E0298B3A8B4B8B5C8B882EB8
:100CF000912CB12CA12C64E670E080E090E00E9481
:100D0000720281E01A8219828B8329893A894B8980
:100D10005C892C833D834E835F8388869986AA866F
:100D2000BB86882359F04FEF5FEFBE016F5F7F4FA7
:100D30008091D0019091D1010E94F40B0E94100A81
:100D400025CFDA94B3CF00E010E08091EB01811160
:100D50000CC080913402823010F00E94100A0115FC
:100D6000110599F30E940001F0CF0FB6F8940F928D
:100D7000E0911502F0911602C681D781CE0102964C
:100D80000E94720880915B02815080935B02809187
:100D9000EB0181508093EB010F900FBE8F89988DEE
:100DA0000E94DF0FCE010E94DF0FCFCF0F931F9362
:100DB000CF93DF93E0916C02F0916D0282E080832B
:100DC000E0916802F09169021082E0916A02F0916C
:100DD0006B028FEC808310927402E0917002F091AC
:100DE000710286E08083E0916E02F0916F02808153
:100DF00080618083E0916E02F0916F028081886053
:100E00008083E0916E02F0916F0280818068808320
:100E1000E0916E02F0916F0280818F7D808384E08B
:100E20000E946E036FE771E089EF92E00E941A045E
:100E300060E087E00E941C0280E490E00E941511AF
:100E4000EC01009751F04F969983888383E08B8F54
:100E50008BE08C8FCE010E94E009D093D101C0932A
:100E6000D001CD2B61F46DE871E08CE592E00E9439
:100E70001A046EE371E08CE592E00E941A0410E01F
:100E800000E022E048EC50E068EA71E089EB95E090
:100E90000E94331121E048EC50E063EB71E08FE6F3
:100EA00095E00E94331123E048EC50E06CEB71E0D8
:100EB0008BEA94E00E943311DF91CF911F910F9143
:100EC0000C943E121F920F920FB60F9211242F9383
:100ED0003F934F935F936F937F938F939F93AF93C2
:100EE000BF93EF93FF938CE592E00E940D01FF9179
:100EF000EF91BF91AF919F918F917F916F915F9192
:100F00004F913F912F910F900FBE0F901F9018950A
:100F10001F920F920FB60F9211242F938F939F93CE
:100F2000EF93FF93E0916C02F0916D028081E0916C
:100F30007202F091730282FD1BC090818091750254
:100F40008F5F8F7320917602821741F0E0917502D6
:100F5000F0E0E45AFD4F958F80937502FF91EF9179
:100F60009F918F912F910F900FBE0F901F9018950A
:100F70008081F4CF1F920F920FB60F9211242F93FE
:100F80003F938F939F93AF93BF938091F50190917F
:100F9000F601A091F701B091F8013091F40123E03E
:100FA000230F2D3758F50196A11DB11D2093F40193
:100FB0008093F5019093F601A093F701B093F801A7
:100FC0008091F9019091FA01A091FB01B091FC018F
:100FD0000196A11DB11D8093F9019093FA01A09390
:100FE000FB01B093FC01BF91AF919F918F913F9115
:100FF0002F910F900FBE0F901F90189526E8230F8A
:101000000296A11DB11DD2CFFC01DB010FB6F894F1
:101010000F9240910002509101022D913C91119745
:101020002F3F3207E1F0818192816091020270814D
:10103000761719F048175907C0F4481B590B421787
:10104000530788F4241B350B2D933C9380910202A7
:10105000808380910002909101029283818380E0DD
:101060000F900FBE08951D921C9281E0F9CF0FB62C
:10107000F8940F9280910002909101020F900FBEA0
:1010800008958091FD018F5F8093FD0108950FB653
:10109000F8940F92FC01928D0F900FBE81E0911198
:1010A00080E00895CF93DF939C01FB01DC01119652
:1010B000CD91DC91D383C2838C819D819583848380
:1010C0008C819D81DC0113967C936E9312977D83B6
:1010D0006C8331872087F90180818F5F8083DF9166
:1010E000CF910895CF93DF93FC01A085B1858281D4
:1010F000938124813581EC013D832C83C481D5818A
:101100009B838A8311968D919C9112978E179F07CE
:1011100021F41296DC93CE931197118610868C9150
:1011200081508C938C91DF91CF9108950F931F93F1
:10113000CF93DF93DC011596ED91FC91C681D781A9
:101140008E01045F1F4FC8010E9472088091FD014B
:10115000811125C00A501109C8010E9472088E89A8
:1011600090915802981710F480935802B9E08B9F21
:10117000C0011124B8018C5C9D4F0E945208E0917F
:10118000CA01F091CB019E898689891760F481E0BC
:101190008093EA01DF91CF911F910F910895B801DB
:1011A00089E192E0EACF80E0F5CFEF92FF920F93D2
:1011B0001F93CF93DF93EC010FB6F8940F921E8D1F
:1011C0007C0181E1E80EF11C01E01116D4F08FEFF3
:1011D0008E8F0F900FBE0FB6F8940F921D8D7E016B
:1011E00088E0E80EF11C01E01116B4F08FEF8D8F4E
:1011F0000F900FBEDF91CF911F910F91FF90EF9055
:1012000008958989882319F3C7010E9496088111DE
:101210000093EA011150D9CF8885882339F3C7019B
:101220000E94960881110093EA011150DDCF0F93BF
:101230001F93CF93DF938C01FB0180819181D801B3
:1012400013968F3F9807F1F4E801AF81B8851296A5
:101250008D919C91139793838283EC01FD83EC83A2
:10126000B583A4831396FC93EE931297118700879E
:10127000F80180818F5F8083DF91CF911F910F9163
:101280000895D90112962D913C911397E901488157
:10129000598184179507A8F7DACFFC01738362831D
:1012A000918780874617570790F0421B530B848520
:1012B000958548175907C8F4BF016E5F7F4F80912D
:1012C000F0019091F1010E94170980E00895421702
:1012D000530718F46217730740F4BF016E5F7F4F26
:1012E0008091F2019091F301EECF81E00895FF9299
:1012F0000F931F93CF93DF93EC01F62E0091000222
:10130000109101028091CA019091CB0102960E9436
:101310007208CF3FDC0789F4FF2079F06091CA01A1
:101320007091CB016E5F7F4F87E092E0DF91CF91AC
:101330001F910F91FF900C945208C00FD11FE091A4
:10134000CA01F091CB01D383C2836091CA0170912D
:10135000CB01C017D10768F4809103029091040279
:101360006E5F7F4FDF91CF911F910F91FF900C9493
:10137000170980910502909106026E5F7F4F0E94CF
:1013800017098091EC019091ED01C817D90720F45D
:10139000D093ED01C093EC01DF91CF911F910F919C
:1013A000FF900895FC010396928381832FEF3FEF16
:1013B000348323839683858390878783108208955F
:1013C000CF93DF93EC010FB6F8940F928881998147
:1013D0002B8D4C8DBC01249F600D711D11247D83CC
:1013E0006C831A8E9B838A832150330B429FB001FA
:1013F000439F700D1124860F971F9F838E838FEF5D
:101400008D8F8E8FCE0108960E94D209CE01419613
:101410000E94D2090F900FBE81E0DF91CF91089515
:101420000F920FB6F8940F921F9211242F923F92B1
:101430004F925F926F927F928F929F92AF92BF92E4
:10144000CF92DF92EF92FF920F931F932F933F93D0
:101450004F935F936F937F938F939F93AF93BF93BC
:10146000CF93DF93EF93FF93A091CA01B091CB018B
:101470000DB60D920EB60D928091FD01882321F0DC
:1014800081E08093EA015FC01092EA01A091CA0155
:10149000B091CB01E091CA01F091CB012D913C912B
:1014A0008789908D82179307A8F08091CA01909147
:1014B000CB018091CA019091CB01259A2D9A2FEFF3
:1014C00087EA91E6215080409040E1F700C000009B
:1014D0001D9AF5CF2091580289E001C02150422F7A
:1014E00050E0849FF001859FF00D1124EC5CFD4FCE
:1014F0009081992399F3A181B28112960D90BC91AC
:10150000A02DB283A183289FC0011124895C9D4F27
:10151000A817B90729F412968D919C919283818323
:1015200089E0849FF001859FF00D1124EC5CFD4F54
:101530000180F281E02D868197819093CB01809389
:10154000CA0120935802A091CA01B091CB01CD915C
:10155000CDBFDD91DEBFFF91EF91DF91CF91BF91C4
:10156000AF919F918F917F916F915F914F913F913B
:101570002F911F910F91FF90EF90DF90CF90BF9030
:10158000AF909F908F907F906F905F904F903F9023
:101590002F901F900F900FBE0F9008957F928F9203
:1015A0009F92AF92BF92CF92DF92EF92FF920F93F2
:1015B0001F93CF93DF930FB6F8940F928091FD01A4
:1015C00081508093FD018091FD01882389F080E0A6
:1015D0000F900FBEDF91CF911F910F91FF90EF9071
:1015E000DF90CF90BF90AF909F908F907F900895A5
:1015F00080915B02882359F3D0E0C0E029E0F22E0D
:10160000EE24E39429C0E0911E02F0911F02C681EE
:10161000D781CE010C960E9472088E010E5F1F4F7B
:10162000C8010E9472088E8990915802981710F490
:10163000809358028F9DC0011124B8018C5C9D4F8E
:101640000E945208E091CA01F091CB019E898689DF
:10165000981710F0E092EA01809119028111D3CF1E
:10166000CD2B11F00E94A802E090E801F090E90172
:10167000E114F10409F4AFC089E0A82E7724739433
:10168000CC24CA94DC2C8091FD01811192C0C091C0
:101690000002D09101022196D0930102C093000272
:1016A0002097B9F4809105029091060220910302DF
:1016B00030910402309306022093050290930402B5
:1016C00080930302809102028F5F809302020E9446
:1016D000A8028091EC019091ED01B12CC817D907B7
:1016E00008F05BC0E091CA01F091CB01E689AE9EA3
:1016F000F0011124EC5CFD4F8081823010F0BB249E
:10170000B3948091EA01811103C0BB2009F45AC04F
:101710007092EA0157C0E0910502F091060205803F
:10172000F681E02D06811781D80112968D919C914A
:10173000C817D90728F49093ED018093EC01D2CF1C
:101740004801B2E08B0E911CC4010E947208F8019E
:1017500084899589892B21F0C8010C960E94720812
:10176000D80156968C9190915802981710F4809356
:1017700058028A9DC0011124B4018C5C9D4F0E94C7
:101780005208E091CA01F091CB01D80156969C9184
:101790008689981710F0BB24B394E0910502F0916C
:1017A000060280818111B7CFD092ED01C092EC0189
:1017B00099CF8091E8019091E90101969093E90118
:1017C0008093E801B1E0EB1AF10809F05CCF1092C8
:1017D000E9011092E8018091EA01882309F4F7CE2B
:1017E0000E94100A81E0F4CEAF92BF92CF92DF92B6
:1017F000EF92FF920F931F93CF93DF9300D000D00F
:101800001F92CDB7DEB78C017B015D834C8380E0F6
:10181000680128E0C20ED11C0FB6F8940F92F801AF
:10182000228D938D291708F078C0D28C448D4111F8
:101830005AC080819181892B11F080E009C0E48039
:10184000F580E114F10421F580E0F801158214829D
:10185000D394F801D28E9189992321F0C801419641
:101860000E94960881110E94100A0F900FBE81E01D
:101870000F900F900F900F900F90DF91CF911F91CD
:101880000F91FF90EF90DF90CF90BF90AF900895B1
:10189000F70182A1815082A3268991A12917A1F283
:1018A0008111D2CF5701F2E0AF0EB11CC5010E94E9
:1018B0007208F70181A1868B24E030E0281B3109F2
:1018C0003587248790915802981710F48093580216
:1018D000F9E08F9FC0011124B5018C5C9D4F0E94DF
:1018E000520881E0B2CF50E0B701828193810E941B
:1018F000A116F801848D22813381820F932F911DCF
:1019000093838283248135818217930708F495CFCE
:10191000808191819383828390CF2C813D81232B81
:1019200021F40F900FBE80E0A3CF811109C08091F8
:101930000202898380910002909101029B838A8335
:101940000F900FBE0E9441080FB6F8940F92F80155
:10195000858D8F3F09F4158EF801868D8F3F09F430
:10196000168E0F900FBEBE016C5F7F4FCE010196A9
:101970000E94040881112AC00FB6F8940F92F80152
:10198000928D838D0F900FBE98131AC0AC80BD80CE
:101990006091CA017091CB01645F7F4FC6010E94C4
:1019A000170961E0C5010E947709C8010E94D508A6
:1019B0000E94CE0A811102C00E94100A81E02CCF41
:1019C000C8010E94D5080E94CE0AF8CFC8010E9423
:1019D000D5080E94CE0AA7CFCF93DF9300D000D0C6
:1019E0001F92CDB7DEB79C018091FE019091FF015F
:1019F0000097C9F019827B836A833D832C832091F1
:101A00005A0250E040E0BE016F5F7F4F21112091EC
:101A1000FD010E94F40B0F900F900F900F900F900C
:101A2000DF91CF91089580E0F6CFEF92FF920F9370
:101A30001F93CF93DF93E091F201F091F301808146
:101A4000811113C08091F0019091F1019093F30105
:101A50008093F201F093F101E093F001DF91CF91D7
:101A60001F910F91FF90EF9008950580F681E02D72
:101A700000811181C681D7817E0182E0E80EF11CD0
:101A8000C7010E947208E889F989CE0109958A89FF
:101A900082FFD1CF8C859D85800F911F0817190774
:101AA00060F49B838A83D987C887B7018091F2014C
:101AB0009091F3010E941709BECFB801CE010E9498
:101AC000EC0CB9CFAF92BF92CF92DF92EF92FF9220
:101AD0000F931F93CF93DF9300D000D01F92CDB709
:101AE000DEB78C016B015D834C8380E0580191E18E
:101AF000A90EB11C0FB6F8940F92F801F28CFF20DA
:101B0000C9F1448D4423B1F050E086819781840F60
:101B1000951F97838683248135818217930720F050
:101B20008081918197838683F80166817781C601E0
:101B30000E94A116FA94F801F28E8085882339F06C
:101B4000C80108960E94960881110E94100A0F9001
:101B50000FBE81E00F900F900F900F900F90DF91CC
:101B6000CF911F910F91FF90EF90DF90CF90BF909A
:101B7000AF9008952C813D81232B21F40F900FBE4F
:101B800080E0E8CF811109C08091020289838091B1
:101B90000002909101029B838A830F900FBE0E94E6
:101BA00041080FB6F8940F92F801858D8F3F09F424
:101BB000158EF801868D8F3F09F4168E0F900FBE9B
:101BC000BE016C5F7F4FCE0101960E940408811117
:101BD00025C0C8010E9447088823D1F0EC80FD8011
:101BE0006091CA017091CB01645F7F4FC5010E9473
:101BF000170961E0C7010E947709C8010E94D50852
:101C00000E94CE0A811102C00E94100A81E072CFA8
:101C1000C8010E94D5080E94CE0AF8CFC8010E94D0
:101C2000D5080E94CE0AC8010E944708882371F394
:101C3000A7CF0F920FB6F8940F921F9211242F92F4
:101C40003F924F925F926F927F928F929F92AF924C
:101C5000BF92CF92DF92EF92FF920F931F932F9339
:101C60003F934F935F936F937F938F939F93AF9324
:101C7000BF93CF93DF93EF93FF93A091CA01B091ED
:101C8000CB010DB60D920EB60D9213BE8091FD01E3
:101C90008111F6C08091000290910102019690930B
:101CA000010280930002009799F52091050230917E
:101CB00006024091030250910402509306024093A1
:101CC00005023093040220930302209102022F5F49
:101CD00020930202E0910502F09106022081211179
:101CE00007C02FEF3FEF3093ED012093EC0110C0C0
:101CF000E0910502F09106020580F681E02D068054
:101D0000F781E02D228133813093ED012093EC01A6
:101D10002091EC013091ED018217930710F420E03F
:101D20009BC020E019E0E0910502F09106023081AD
:101D3000311107C08FEF9FEF9093ED018093EC017D
:101D40008BC0E0910502F09106020580F681E02D3E
:101D50000680F781E02D428153818417950728F48E
:101D60005093ED014093EC0177C0AF014E5F5F4FA0
:101D7000A285B38564817581E680F780EB01FD82E1
:101D8000EC82C681D7817B836A8311966D917C91A9
:101D900012974617570721F41296DC93CE931197AA
:101DA000138612863C9131503C933C91A489B589AD
:101DB0001097F9F066857785E088F188EB01FD8260
:101DC000EC82C089D1897B836A831196ED90FC9067
:101DD0001297BF01645F7F4FE616F70621F4129653
:101DE000DC93CE931197158A148A3C9131503C9321
:101DF0003C91A689309158023A1710F4A0935802EA
:101E00001A9FD0011124BD016C5C7D4F7B01DB0169
:101E10001196CD91DC91D583C4836C817D817783CC
:101E200066836C817D81DB0113965C934E931297E0
:101E30005D834C83F386E286E70138813F5F388318
:101E4000A091CA01B091CB01468956963C914317A7
:101E500008F469CF21E067CFE091CA01F091CB018E
:101E6000E689D9E0ED9FF0011124EC5CFD4F808103
:101E7000823008F021E08091EA0181110EC00AC091
:101E80008091E8019091E90101969093E901809396
:101E9000E8016AC0222309F467C08091FD0188230C
:101EA00021F081E08093EA015FC01092EA01A091E5
:101EB000CA01B091CB01E091CA01F091CB012D9103
:101EC0003C918789908D82179307A8F08091CA0171
:101ED0009091CB018091CA019091CB01259A2D9AC6
:101EE0002FEF67EA71E6215060407040E1F700C0D3
:101EF00000001D9AF5CF2091580289E001C02150C1
:101F0000422F50E0849FF001859FF00D1124EC5C7E
:101F1000FD4F9081992399F3A181B28112960D9082
:101F2000BC91A02DB283A183289FC0011124895C9C
:101F30009D4FA817B90729F412968D919C91928311
:101F4000818389E0849FF001859FF00D1124EC5C72
:101F5000FD4F0180F281E02D868197819093CB0126
:101F60008093CA0120935802A091CA01B091CB017D
:101F7000CD91CDBFDD91DEBFFF91EF91DF91CF918C
:101F8000BF91AF919F918F917F916F915F914F9191
:101F90003F912F911F910F91FF90EF90DF90CF9085
:101FA000BF90AF909F908F907F906F905F904F9079
:101FB0003F902F901F900F900FBE0F900895CF93DA
:101FC000DF93009751F0EC010E944108CE010E947E
:101FD0002614DF91CF910C94CE0ADF91CF91089512
:101FE000CF93DF9300D000D01F92CDB7DEB7E09142
:101FF000F201F091F301F08010E000E0FF2029F001
:102000000580F681E02D008111810E9441080E9427
:1020100037086C018091EE019091EF01C816D90646
:1020200008F04BC00E94150DD092EF01C092EE0156
:102030000E94CE0A50E040E0BE016F5F7F4F80916A
:10204000FE019091FF010E94620D882381F2898137
:1020500087FDF0CF0C811D81D8011A968D919C913E
:10206000892B21F0C80102960E9472080E9437084D
:102070007C018091EE019091EF01E816F90610F4D1
:102080000E94150DF092EF01E092EE01E981EA3035
:1020900088F60E2E000CFF0BED5AFF4ED80152961B
:1020A0008C910C949B16D710D710D7101011FB10E1
:1020B0000A11D710D7101011FB10D092EF01C09267
:1020C000EE01FF2099F1C016D106C0F10E94CE0AA0
:1020D000E091F201F091F3010580F681E02DE680B8
:1020E000F780C70102960E947208D70152968C9120
:1020F000529782FF17C01C966D917C91600F711FE3
:102100009801A601C7010E944D09882321F0B8015A
:10211000C7010E94EC0CD7015096ED91FC91C701CC
:10212000099588CF8E7FF701828BF5CFE091F00182
:10213000F091F1018081BB24B3948111B12CE09026
:10214000FE01F090FF010FB6F8940F92F701858D14
:102150008F3F09F4158ED7015E968C915E978F3F65
:1021600011F45E961C920F900FBEF701828D8111C3
:1021700014C06091CA017091CB01645F7F4FC701A9
:1021800041960E945208C8018C199D09BB2011F08C
:102190008FEF9FEF6B2D0E947709C7010E94D50832
:1021A0000E94CE0A811146CF0E94100A43CF81605F
:1021B000F801828B2A813B8164857585620F731FCC
:1021C000A701C8010E944D09882309F433CFD80123
:1021D0005096ED91FC91C8010995F801828982FF22
:1021E00029CF6A817B8184859585680F791FC80115
:1021F0000E94EC0C1FCF8160F801828B6A817B8189
:10220000758764876E0D7F1D9701A701C8010E9425
:102210004D0910CF81FD04C0C8010E94DF0F0ACF15
:102220008E7FD80152968C9305CFCF93DF93EC012C
:102230000E944108CE010E948A13EC010E94CE0A3E
:10224000209769F4259A2D9A2FEF80E792E021508C
:1022500080409040E1F700C000001D9AF5CFCE010C
:10226000DF91CF9108957F928F929F92AF92BF920C
:10227000CF92DF92EF92FF920F931F93CF93DF9352
:10228000982EA92E762E872E7A01B22ECA010E9490
:1022900015116C01892B09F4D0C088E290E00E94EE
:1022A0001511EC01892B09F4C5C0D88ECF8AA7017E
:1022B00065EA70E0C6010E94AA1621E0E21AF10860
:1022C000EF89F88DEE0DFF1D672D782DCE01499613
:1022D0009B01285F3F4FDB014D91BD01DC014D9318
:1022E000CD01AB0141505109DA014C91442319F061
:1022F0006217730781F718A2BE8AB9A21AA21B86B9
:102300001A861D8A1C8AD987C88784E090E08B19B9
:1023100091099D878C87DB8BCA8B1BA21CA21DA2F7
:102320001EA21FA29082DF011197AC9211971C92FE
:10233000119780E88C9311971C9257971C921197D4
:102340001C92B397F983E8830115110519F0F80180
:10235000D183C0830FB6F8940F9280915B028F5F98
:1023600080935B028091CA019091CB01892B09F087
:1023700073C0D093CB01C093CA0180915B028130BE
:1023800081F584E392E00E94D2098DE392E00E94FD
:10239000D20986E492E00E94D2098FE492E00E9482
:1023A000D2098BE292E00E94D20982E292E00E947E
:1023B000D20989E192E00E94D20980E192E00E9474
:1023C000D20987E092E00E94D2098BE292E09093DA
:1023D00006028093050282E292E0909304028093C9
:1023E0000302809159028F5F809359028E899091E8
:1023F0005802981710F480935802F9E08F9FC0019B
:102400001124BE016E5F7F4F8C5C9D4F0E9452086D
:102410000F900FBE80915A02882351F0E091CA01BB
:10242000F091CB0196898E89981710F40E94100ABA
:1024300081E004C0C6010E94DF0F8FEFDF91CF91D2
:102440001F910F91FF90EF90DF90CF90BF90AF90D2
:102450009F908F907F90089580915A028111C1CFF3
:10246000E091CA01F091CB019E898689981708F402
:10247000B8CFD093CB01C093CA01B3CF0F931F93B2
:10248000CF93DF9306EE11E020E040EC50E062E7EE
:1024900071E083EA96E00E943311813009F08CC02C
:1024A0000FB6F8940F928091FE019091FF01892B55
:1024B00049F58BED91E00E94D20982ED91E00E94F6
:1024C000D2098BED91E09093F3018093F20182EDBC
:1024D00091E09093F1018093F00181E590E00E94FA
:1024E0001511EC01009751F04F96998388838AE08B
:1024F0008B8F85E08C8FCE010E94E009D093FF0185
:10250000C093FE010F900FBE8091FE019091FF01DC
:10251000892B09F451C004EE11E023E045E550E0B9
:1025200067E771E080EF9FE00E943311813009F08E
:1025300043C0F8942FEF3FEF3093ED012093EC016F
:1025400080935A021092010210920002A89588E12D
:1025500090EC0FB6F894A895809360000FBE90930E
:102560006000A091CA01B091CB01CD91CDBFDD91AA
:10257000DEBFFF91EF91DF91CF91BF91AF919F911E
:102580008F917F916F915F914F913F912F911F910B
:102590000F91FF90EF90DF90CF90BF90AF909F9002
:1025A0008F907F906F905F904F903F902F901F90F3
:1025B0000F900FBE0F900895DF91CF911F910F9153
:1025C00008950E94190E1895ECE5F2E0138212822C
:1025D00088EE93E0A0E0B0E084839583A683B78380
:1025E0008AE091E09183808385EC90E095878487F1
:1025F00084EC90E09787868780EC90E0918B808BCD
:1026000081EC90E0938B828B82EC90E0958B848BB5
:1026100086EC90E0978B868B118E128E138E148E23
:10262000E9EFF2E0138212828CE191E091838083E2
:102630008CE084838FEF85838BE0868385E08783BE
:1026400084E0808783E0818782E082871386148616
:1026500015861686178681E00C946E03789484B5EF
:10266000826084BD84B5816084BD85B5826085BD8E
:1026700085B5816085BD80916E00816080936E001C
:10268000109281008091810082608093810080910E
:1026900081008160809381008091800081608093BF
:1026A00080008091B10084608093B1008091B0007F
:1026B00081608093B00080917A00846080937A007A
:1026C00080917A00826080937A0080917A008160A4
:1026D00080937A0080917A00806880937A001092CB
:1026E000C10020910401309105018FEF98E0821B19
:1026F000930B90930101809300010E94D6060E94E3
:102700003E120E94D606C0E0D0E02097F1F30E946E
:102710000001FBCF0F931F93CF93DF93823091057E
:1027200010F482E090E0E0911303F091140330E0A4
:1027300020E0B0E0A0E0309799F42115310509F4CC
:102740004AC0281B390B24303105D8F58A819B817A
:102750006115710589F1FB0193838283FE0111C02C
:10276000408151810281138148175907E0F04817D1
:10277000590799F4109761F012960C9312971396DB
:102780001C933296CF01DF91CF911F910F91089545
:102790000093130310931403F4CF2115310551F066
:1027A0004217530738F0A901DB019A01BD01DF018F
:1027B000F801C1CFEF01F9CF909314038093130375
:1027C000CDCFFE01E20FF31F819391932250310987
:1027D00039832883D7CF2091110330911203232B03
:1027E00041F42091020130910301309312032093B0
:1027F000110320910001309101012115310541F4AF
:102800002DB73EB74091040150910501241B350BB3
:10281000E0911103F0911203E217F307A0F42E1BCD
:102820003F0B2817390778F0AC014E5F5F4F241734
:10283000350748F04E0F5F1F50931203409311036A
:10284000819391939FCFF0E0E0E09CCFCF93DF9313
:102850000097E9F0FC01329713821282A0911303D2
:10286000B0911403ED0130E020E01097A1F4208135
:102870003181820F931F2091110330911203281789
:10288000390709F061C0F0931203E0931103DF915F
:10289000CF910895EA01CE17DF07E8F54A815B8101
:1028A0009E0141155105B1F7E901FB83EA83499186
:1028B0005991C40FD51FEC17FD0761F480819181F8
:1028C0000296840F951FE901998388838281938101
:1028D0009B838A83F0E0E0E012968D919C911397A0
:1028E0000097B9F52D913C911197CD010296820F79
:1028F000931F20911103309112032817390739F6DD
:10290000309751F51092140310921303B0931203F1
:10291000A0931103BCCFD383C28340815181840F24
:10292000951FC817D90761F44E5F5F4F8881998161
:10293000480F591F518340838A819B8193838283EF
:102940002115310509F0B0CFF0931403E093130380
:102950009ECFFD01DC01C0CF13821282D7CF505829
:10296000BB27AA270E94C7140C94C8150E94BA1549
:1029700038F00E94C11520F039F49F3F19F426F475
:102980000C94B7150EF4E095E7FB0C94B115E92F04
:102990000E94D91558F3BA17620773078407950781
:1029A00020F079F4A6F50C94FB150EF4E0950B2EAF
:1029B000BA2FA02D0B01B90190010C01CA01A00191
:1029C0001124FF27591B99F0593F50F4503E68F1EC
:1029D0001A16F040A22F232F342F4427585FF3CF2D
:1029E000469537952795A795F0405395C9F77EF4FE
:1029F0001F16BA0B620B730B840BBAF09150A1F047
:102A0000FF0FBB1F661F771F881FC2F70EC0BA0FCC
:102A1000621F731F841F48F4879577956795B79554
:102A2000F7959E3F08F0B0CF9395880F08F099274F
:102A3000EE0F9795879508950E948D1508F481E013
:102A400008950E94E11588F09F5798F0B92F9927B3
:102A5000B751B0F0E1F0660F771F881F991F1AF089
:102A6000BA95C9F714C0B13091F00E94FB15B1E0DE
:102A700008950C94FB15672F782F8827B85F39F0DD
:102A8000B93FCCF3869577956795B395D9F73EF422
:102A900090958095709561957F4F8F4F9F4F0895CA
:102AA000E89409C097FB3EF49095809570956195E8
:102AB0007F4F8F4F9F4F9923A9F0F92F96E9BB279E
:102AC0009395F695879577956795B795F111F8CF1A
:102AD000FAF4BB0F11F460FF1BC06F5F7F4F8F4F85
:102AE0009F4F16C0882311F096E911C0772321F07B
:102AF0009EE8872F762F05C0662371F096E8862F13
:102B000070E060E02AF09A95660F771F881FDAF769
:102B1000880F9695879597F90895990F0008550F96
:102B2000AA0BE0E8FEEF16161706E807F907C0F053
:102B300012161306E407F50798F0621B730B840B5B
:102B4000950B39F40A2661F0232B242B252B21F435
:102B500008950A2609F4A140A6958FEF811D811DD5
:102B6000089597F99F6780E870E060E008959FEF0F
:102B700080EC089500240A94161617061806090614
:102B8000089500240A9412161306140605060895E3
:102B9000092E0394000C11F4882352F0BB0F40F46B
:102BA000BF2B11F460FF04C06F5F7F4F8F4F9F4FAB
:102BB000089557FD9058440F551F59F05F3F71F02D
:102BC0004795880F97FB991F61F09F3F79F0879594
:102BD0000895121613061406551FF2CF4695F1DF1D
:102BE00008C0161617061806991FF1CF86957105AD
:102BF000610508940895E894BB2766277727CB01E1
:102C000097F908950E948D1508F48FEF08950E949A
:102C10001A160C94C8150E94BA1538F00E94C115F6
:102C200020F0952311F00C94B1150C94B7151124D4
:102C30000C94FC150E94D91570F3959FC1F3950F64
:102C400050E0551F629FF001729FBB27F00DB11D30
:102C5000639FAA27F00DB11DAA1F649F6627B00DC0
:102C6000A11D661F829F2227B00DA11D621F739FA9
:102C7000B00DA11D621F839FA00D611D221F749FB7
:102C80003327A00D611D231F849F600D211D822FFE
:102C9000762F6A2F11249F5750409AF0F1F0882325
:102CA0004AF0EE0FFF1FBB1F661F771F881F915052
:102CB0005040A9F79E3F510580F00C94B1150C943B
:102CC000FC155F3FE4F3983ED4F3869577956795BE
:102CD000B795F795E7959F5FC1F7FE2B880F911D7C
:102CE0009695879597F908950E948D15880B990BF5
:102CF0000895A1E21A2EAA1BBB1BFD010DC0AA1F3D
:102D0000BB1FEE1FFF1FA217B307E407F50720F054
:102D1000A21BB30BE40BF50B661F771F881F991FCF
:102D20001A9469F760957095809590959B01AC0118
:102D3000BD01CF010895EE0FFF1F0590F491E02D26
:102D40000994FB01DC0102C001900D9241505040FA
:102D5000D8F70895DC0101C06D9341505040E0F771
:062D60000895F894FFCF76
:102D6600000015038000000000002F018C00B90050
:102D76007C01EA00C800DC000000000014048C009E
:102D8600A502A4024D51392072656164696E673AE5
:102D960020006E616E00696E66006F7666000D0A31
:102DA6000074656D702843293A0068756D69646919
:102DB60074792825293A005B4552524F525D2052BC
:102DC600656164206468743131206572726F723A8D
:102DD600200049444C4500546D72205376630050E0
:102DE6006C616E742D6D6F6E69746F72005B455207
:102DF600524F525D2043616E277420637265617481
:102E0600652071756575650044485431312054411B
:102E1600534B004C4344205441534B004D512D39E4
:0A2E260020474153205441534B0054
:00000001FF
