:100000000C945D000C9485000C9485000C94850084
:100010000C9485000C9485000C94E5100C948500DC
:100020000C9485000C9485000C9485000C9485003C
:100030000C9485000C9485000C9485000C9485002C
:100040000C94C0050C9485000C948E050C946805E6
:100050000C9485000C9485000C9485000C9485000C
:100060000C9485000C94850000000008000201003B
:100070000003040700000000000000000000000072
:10008000250028002B0000000000240027002A0083
:10009000040404040404040402020202020203032E
:1000A0000303030301020408102040800102040836
:1000B0001020010204081020E81011241FBECFEF09
:1000C000D8E0DEBFCDBF11E0A0E0B1E0EEE6F9E29E
:1000D00002C005900D92A238B107D9F722E0A2E83C
:1000E000B1E001C01D92A93CB207E1F710E0CDE5F7
:1000F000D0E004C02197FE010E949F14CC35D107A7
:10010000C9F70E9432110C94B5140C94000090E0D1
:10011000FC01EC55FF4F249180579F4FFC018491C7
:10012000882399F090E0880F991FFC01EA57FF4F50
:10013000A591B491FC01E458FF4F859194918FB73C
:10014000F894EC91E22BEC938FBF0895FC01538D52
:10015000448D252F30E0842F90E0821B930B5417A1
:1001600010F0CF96089501970895FC01918D828D2E
:10017000981761F0A28DAE0FBF2FB11D5D968C91C7
:10018000928D9F5F9F73928F90E008958FEF9FEF06
:100190000895FC01918D828D981731F0828DE80FC2
:1001A000F11D858D90E008958FEF9FEF0895FC017C
:1001B000918D228D892F90E0805C9F4F821B910949
:1001C0008F7399270895FC01A48DA80FB92FB11D35
:1001D000A35ABF4F2C91848D90E001968F7399277D
:1001E000848FA689B7892C93A089B1898C9183705B
:1001F00080648C93938D848D981306C00288F38954
:10020000E02D80818F7D80830895EF92FF920F9380
:100210001F93CF93DF93EC0181E0888F9B8D8C8DB2
:1002200098131AC0E889F989808185FF15C09FB7A6
:10023000F894EE89FF896083E889F9898081837069
:10024000806480839FBF81E090E0DF91CF911F9118
:100250000F91FF90EF900895F62E0B8D10E00F5F39
:100260001F4F0F731127E02E8C8D8E110CC00FB60F
:1002700007FCFACFE889F989808185FFF5CFCE01A7
:100280000E94E300F1CFEB8DEC0FFD2FF11DE35A3F
:10029000FF4FF0829FB7F8940B8FEA89FB8980812A
:1002A0008062CFCFCF93DF93EC01888D8823B9F0A4
:1002B000AA89BB89E889F9898C9185FD03C0808171
:1002C00086FD0DC00FB607FCF7CF8C9185FFF2CFEE
:1002D000808185FFEDCFCE010E94E300E9CFDF9161
:1002E000CF91089580E192E00E94D70021E0892B10
:1002F00009F420E0822F08950E94720181110C946C
:100300000000089580E090E0892B11F00C947C01AE
:100310000895AF92BF92CF92DF92EF92FF920F9328
:100320001F93CF93DF936C017B018B01040F151F8B
:10033000EB015E01AE18BF08C017D10759F06991F3
:10034000D601ED91FC910190F081E02DC601099557
:10035000892B79F7C501DF91CF911F910F91FF9004
:10036000EF90DF90CF90BF90AF90089590E0FC01A8
:10037000E859FF4F2491FC01EC55FF4F3491FC01EB
:10038000E057FF4FE491EE23C9F0222339F02330E8
:1003900001F1A8F4213019F1223029F1F0E0EE0F3B
:1003A000FF1FE458FF4FA591B4918FB7F894EC91DB
:1003B000611126C030953E233C938FBF08952730AE
:1003C000A9F02830C9F0243049F7809180008F7D52
:1003D00003C0809180008F7780938000DFCF84B549
:1003E0008F7784BDDBCF84B58F7DFBCF8091B0004C
:1003F0008F778093B000D2CF8091B0008F7DF9CFFE
:100400003E2BDACF089590E080E00895E091B601A8
:10041000F091B7018081811107C08FEF9FEF90931A
:10042000A1018093A0010895E091B601F091B70178
:100430000580F681E02D0680F781E02D8281938191
:10044000EECFCF93DF93EC0160E08E810E94B60186
:1004500061E08E810E94B60160E08E810E94B6014B
:100460008BE891E00197F1F7DF91CF910895CF925A
:10047000DF92EF92FF920F931F93CF93DF936C0164
:100480007C0187E0E80EF11CD0E0C0E0062F10E010
:10049000B8010C2E02C0759567950A94E2F7617059
:1004A000F70181917F010E94B6012196C430D105E8
:1004B00079F7C601DF91CF911F910F91FF90EF90D7
:1004C000DF90CF900C942102CF92DF92EF92FF92B7
:1004D0000F931F93CF93DF93EC01F62E642F8C8143
:1004E0000E94B6018D818F3F19F060E00E94B60135
:1004F0000F2D10E08F8584FF25C06E0187E0C80EA8
:10050000D11CF12CE12CB8010E2C02C07595679519
:100510000A94E2F76170F60181916F010E94B601C1
:10052000FFEFEF1AFF0A88E0E816F10461F7CE0149
:10053000DF91CF911F910F91FF90EF90DF90CF90BF
:100540000C942102B80184E0759567958A95E1F7CE
:10055000CE010E9437026F2DCE01DF91CF911F9106
:100560000F91FF90EF90DF90CF900C94370240E016
:10057000682F8DEA92E00C946402CF93DF9382306F
:1005800029F49091BC0298609093BC028093C002C1
:100590001092C10280E48093C20280E18093C30282
:1005A00080E58093C4028091B1020E94870080910F
:1005B000B2028F3F11F00E9487008091B3020E9427
:1005C0008700CDEAD2E09E012D5A32408091BC02D4
:1005D00084FD0AC084E090E02196281739073CF496
:1005E0008E810E948700EFCF88E090E0F5CF8BE30B
:1005F0009DE00197F1F760E08091B1020E94B601A1
:1006000060E08091B3020E94B6018091B2028F3FF8
:1006100019F060E00E94B6018091BC0284FD39C0EF
:1006200063E08DEA92E00E943702CBE4D6E4CE018B
:100630000197F1F763E08DEA92E00E94370221977B
:10064000F1F763E08DEA92E00E94370283E592E0E1
:100650000197F1F762E08DEA92E00E943702809103
:10066000BC0280620E94B70284E08093BD028CE0ED
:100670000E94B70281E00E94B7028BE39FE10197DD
:10068000F1F782E08093BE0286E0DF91CF910C9477
:10069000B70280620E94B7028BE496E40197F1F7FB
:1006A0008091BC0280620E94B70283E592E00197CC
:1006B000F1F78091BC0280620E94B702D0CF41E086
:1006C0000E94640281E090E00895FB010190002007
:1006D000E9F73197AF01461B570BDC01ED91FC9117
:1006E0000280F381E02D09948F929F92AF92BF9286
:1006F0000F931F93CF93DF93CDB7DEB7A1970FB6BC
:10070000F894DEBF0FBECDBF19A2423008F44AE014
:100710008E010F5D1F4F842E912CB12CA12CA501B1
:1007200094010E947D14E62FB901CA01EA3004F554
:10073000E05DD801EE938D01232B242B252B79F737
:1007400090E080E0109729F0BD018DEA92E00E94D0
:100750006503A1960FB6F894DEBF0FBECDBFDF9143
:10076000CF911F910F91BF90AF909F908F90089560
:10077000E95CDFCFCF93DF9300D000D0CDB7DEB7F9
:1007800019821A821B821C8282E00E94BD02BE0175
:100790006F5F7F4F80918401909185010E94FA09DB
:1007A0008823A9F3E1E08091C0028111E0E0E195A6
:1007B000F0E0E355FD4F848980680E94B70264E24F
:1007C00071E08DEA92E00E946503E1E08091C00251
:1007D0008111E0E0E195F0E0E355FD4F84898B5F06
:1007E00080680E94B702C980DA80EB80FC80A70194
:1007F0009601C701B6010E9478146AE271E0811186
:1008000026C046015701E894B7F82FEF3FEF4FE7B6
:100810005FE7C501B4010E94781481110CC02FEF6D
:100820003FEF4FE75FE7C501B4010E9420136EE27E
:1008300071E0181664F02FEF3FEF4FE75FE4C70158
:10084000B6010E94061418163CF462E371E08DEACA
:1008500092E00E9465039BCF2FEF3FEF4FE75FECE5
:10086000C701B6010E94201387FDEFCF20E030E0E2
:10087000A901C701B6010E94201387FF0AC041E009
:100880006DE28DEA92E00E946402F7FAF094F7F8C4
:10089000F0942AE037ED43EA5BE3C701B6010E941A
:1008A000B4124B015C010E9425136B017C010E9474
:1008B00054139B01AC01C501B4010E94B3124B015A
:1008C0005C014AE0C701B6010E94740341E06EE298
:1008D0008DEA92E00E94640220E030E040E251E4C0
:1008E000C501B4010E940B144B015C010E94251349
:1008F0006B01F12CE12C4AE0C701B6010E947403A0
:10090000C701B6010E9454139B01AC01C501B4019B
:100910000E94B31220E030E040E251E40E940B1448
:100920000E94251390E080E04AE00E9474032FCFDC
:10093000CF93DF9300D000D0CDB7DEB710E4109393
:100940007C0080917A00806480937A0080917A00A4
:1009500086FDFCCF8091780060917900762F682F1A
:10096000072E000C880B990B0E94561320E030E0F4
:1009700040EA50E40E940B1420E030E040E85AE3E3
:100980000E940B1420E030E040E05FE30E94B312CD
:1009900020E030E048EC52E40E940B1469837A8333
:1009A0008B839C834FEF5FEFBE016F5F7F4F809122
:1009B0008401909185010E94B10A0E94470660E07F
:1009C00086E090E00E947D070E94D4088111B7CF95
:1009D0000E941608B4CF00E010E080919F018111C1
:1009E0000CC08091E501823010F00E9416080115BC
:1009F000110599F30E947C01F0CF0FB6F8940F9285
:100A0000E091C601F091C701C681D781CE0102965F
:100A10000E94780680910C02815080930C02809194
:100A20009F01815080939F010F900FBE8F89988DF9
:100A30000E94E50DCE010E94E50DCFCF0F931F93CD
:100A4000CF93DF9382E00E94BD0263E471E08DEA00
:100A500092E00E9465038BE290E00E94190FEC0186
:100A6000009751F04F969983888383E08B8F84E0C1
:100A70008C8FCE010E94E607D0938501C09384013C
:100A8000CD2B61F461E571E080E192E00E946503A5
:100A900064E671E080E192E00E94650310E000E00E
:100AA00021E048EC50E067E671E08AEB93E00E94B9
:100AB000370F21E048EC50E060E771E088E994E00E
:100AC0000E94370FDF91CF911F910F910C9442102C
:100AD0001F920F920FB60F9211242F933F934F93B3
:100AE0005F936F937F938F939F93AF93BF93EF9396
:100AF000FF9380E192E00E94E300FF91EF91BF91AC
:100B0000AF919F918F917F916F915F914F913F91A5
:100B10002F910F900FBE0F901F9018951F920F925C
:100B20000FB60F9211242F938F939F93EF93FF9300
:100B3000E0912002F09121028081E0912602F09163
:100B4000270282FD1BC09081809129028F5F8F73E5
:100B500020912A02821741F0E0912902F0E0E05F43
:100B6000FD4F958F80932902FF91EF919F918F9177
:100B70002F910F900FBE0F901F9018958081F4CF8A
:100B80001F920F920FB60F9211242F933F938F93C2
:100B90009F93AF93BF938091AD019091AE01A091CF
:100BA000AF01B091B0013091AC0123E0230F2D379C
:100BB00058F50196A11DB11D2093AC018093AD01A4
:100BC0009093AE01A093AF01B093B0018091A801C2
:100BD0009091A901A091AA01B091AB010196A11D2C
:100BE000B11D8093A8019093A901A093AA01B0938D
:100BF000AB01BF91AF919F918F913F912F910F903A
:100C00000FBE0F901F90189526E8230F0296A11D86
:100C1000B11DD2CFFC01DB010FB6F8940F924091C9
:100C20000D0250910E022D913C9111972F3F3207EA
:100C3000E1F08181928160910F027081761719F045
:100C400048175907C0F4481B590B4217530788F43B
:100C5000241B350B2D933C9380910F028083809150
:100C60000D0290910E029283818380E00F900FBE5F
:100C700008951D921C9281E0F9CF0FB6F8940F925F
:100C800080910D0290910E020F900FBE08958091F9
:100C9000B1018F5F8093B10108950FB6F8940F9260
:100CA000FC01928D0F900FBE81E0911180E00895BC
:100CB000CF93DF939C01FB01DC011196CD91DC9178
:100CC000D383C2838C819D81958384838C819D8114
:100CD000DC0113967C936E9312977D836C8331872E
:100CE0002087F90180818F5F8083DF91CF91089504
:100CF000CF93DF93FC01A085B1858281938124810C
:100D00003581EC013D832C83C481D5819B838A830B
:100D100011968D919C9112978E179F0721F4129630
:100D2000DC93CE931197118610868C9181508C9311
:100D30008C91DF91CF9108950F931F93CF93DF9301
:100D4000DC011596ED91FC91C681D7818E01045F7F
:100D50001F4FC8010E9478068091B101811125C002
:100D60000A501109C8010E9478068E8990910902E3
:100D7000981710F480930902B9E08B9FC0011124E9
:100D8000B8018B519E4F0E945806E0918201F0916C
:100D900083019E898689891760F481E080939E0192
:100DA000DF91CF911F910F910895B8018AEC91E0E6
:100DB000EACF80E0F5CFEF92FF920F931F93CF938E
:100DC000DF93EC010FB6F8940F921E8D7C0181E148
:100DD000E80EF11C01E01116D4F08FEF8E8F0F900A
:100DE0000FBE0FB6F8940F921D8D7E0188E0E80EBD
:100DF000F11C01E01116B4F08FEF8D8F0F900FBE34
:100E0000DF91CF911F910F91FF90EF900895898905
:100E1000882319F3C7010E949C06811100939E014B
:100E20001150D9CF8885882339F3C7010E949C06C9
:100E3000811100939E011150DDCF0F931F93CF932B
:100E4000DF938C01FB0180819181D80113968F3F44
:100E50009807F1F4E801AF81B88512968D919C91C5
:100E6000139793838283EC01FD83EC83B583A48382
:100E70001396FC93EE93129711870087F8018081F7
:100E80008F5F8083DF91CF911F910F910895D901DA
:100E900012962D913C911397E9014881598184174D
:100EA0009507A8F7DACFFC01738362839187808767
:100EB0004617570790F0421B530B848595854817BA
:100EC0005907C8F4BF016E5F7F4F8091A4019091D4
:100ED000A5010E941D0780E008954217530718F4EA
:100EE0006217730740F4BF016E5F7F4F8091A601C8
:100EF0009091A701EECF81E00895FF920F931F9389
:100F0000CF93DF93EC01F62E00910D0210910E02AB
:100F1000809182019091830102960E947806CF3FD2
:100F2000DC0789F4FF2079F06091820170918301E0
:100F30006E5F7F4F88EB91E0DF91CF911F910F9112
:100F4000FF900C945806C00FD11FE0918201F091E0
:100F50008301D383C2836091820170918301C017A2
:100F6000D10768F48091B4019091B5016E5F7F4F15
:100F7000DF91CF911F910F91FF900C941D078091ED
:100F8000B6019091B7016E5F7F4F0E941D0780915F
:100F9000A0019091A101C817D90720F4D093A10115
:100FA000C093A001DF91CF911F910F91FF90089501
:100FB000FC010396928381832FEF3FEF34832383D9
:100FC000968385839087878310820895CF93DF93DC
:100FD000EC010FB6F8940F92888199812B8D4C8D7E
:100FE000BC01249F600D711D11247D836C831A8EBA
:100FF0009B838A832150330B429FB001439F700D26
:101000001124860F971F9F838E838FEF8D8F8E8F76
:10101000CE0108960E94D807CE0141960E94D807BB
:101020000F900FBE81E0DF91CF9108950F920FB620
:10103000F8940F921F9211242F923F924F925F9239
:101040006F927F928F929F92AF92BF92CF92DF92D8
:10105000EF92FF920F931F932F933F934F935F93C2
:101060006F937F938F939F93AF93BF93CF93DF93B0
:10107000EF93FF93A0918201B09183010DB60D9281
:101080000EB60D928091B101882321F081E080930A
:101090009E015FC010929E01A0918201B0918301D8
:1010A000E0918201F09183012D913C918789908D8F
:1010B00082179307A8F0809182019091830180911B
:1010C000820190918301259A2D9A2FEF87EA91E66C
:1010D000215080409040E1F700C000001D9AF5CFFC
:1010E0002091090289E001C02150422F50E0849FE5
:1010F000F001859FF00D1124EB51FE4F9081992353
:1011000099F3A181B28112960D90BC91A02DB2836A
:10111000A183289FC001112488519E4FA817B907A9
:1011200029F412968D919C919283818389E0849F0A
:10113000F001859FF00D1124EB51FE4F0180F281EB
:10114000E02D868197819093830180938201209383
:101150000902A0918201B0918301CD91CDBFDD91B3
:10116000DEBFFF91EF91DF91CF91BF91AF919F9142
:101170008F917F916F915F914F913F912F911F912F
:101180000F91FF90EF90DF90CF90BF90AF909F9026
:101190008F907F906F905F904F903F902F901F9017
:1011A0000F900FBE0F9008957F928F929F92AF92F3
:1011B000BF92CF92DF92EF92FF920F931F93CF9344
:1011C000DF930FB6F8940F928091B1018150809314
:1011D000B1018091B101882389F080E00F900FBEAA
:1011E000DF91CF911F910F91FF90EF90DF90CF9003
:1011F000BF90AF909F908F907F90089580910C0248
:10120000882359F3D0E0C0E029E0F22EEE24E394E5
:1012100029C0E091CF01F091D001C681D781CE01E4
:101220000C960E9478068E010E5F1F4FC8010E9427
:1012300078068E8990910902981710F4809309021C
:101240008F9DC0011124B8018B519E4F0E945806FA
:10125000E0918201F09183019E898689981710F0B0
:10126000E0929E018091CA018111D3CFCD2B11F064
:101270000E940602E0909C01F0909D01E114F104AF
:1012800009F4AFC089E0A82E77247394CC24CA94C3
:10129000DC2C8091B101811192C0C0910D02D091DE
:1012A0000E022196D0930E02C0930D022097B9F43E
:1012B0008091B6019091B7012091B4013091B501B0
:1012C0003093B7012093B6019093B5018093B40198
:1012D00080910F028F5F80930F020E94060280911F
:1012E000A0019091A101B12CC817D90708F05BC0EB
:1012F000E0918201F0918301E689AE9EF001112414
:10130000EB51FE4F8081823010F0BB24B39480916A
:101310009E01811103C0BB2009F45AC070929E0146
:1013200057C0E091B601F091B7010580F681E02D3C
:1013300006811781D80112968D919C91C817D90703
:1013400028F49093A1018093A001D2CF4801B2E08C
:101350008B0E911CC4010E947806F801848995893E
:10136000892B21F0C8010C960E947806D801569668
:101370008C9190910902981710F4809309028A9D2C
:10138000C0011124B4018B519E4F0E945806E09178
:101390008201F0918301D80156969C918689981715
:1013A00010F0BB24B394E091B601F091B7018081B5
:1013B0008111B7CFD092A101C092A00199CF8091A5
:1013C0009C0190919D01019690939D0180939C01B9
:1013D000B1E0EB1AF10809F05CCF10929D01109278
:1013E0009C0180919E01882309F4F7CE0E94160883
:1013F00081E0F4CEAF92BF92CF92DF92EF92FF9254
:101400000F931F93CF93DF9300D000D01F92CDB7DF
:10141000DEB78C016B011D821C8280E0580191E1D6
:10142000A90EB11C0FB6F8940F92F801F28CFF20B0
:10143000C9F1448D4423B1F050E086819781840F37
:10144000951F97838683248135818217930720F027
:101450008081918197838683F80166817781C601B7
:101460000E94A514FA94F801F28E8085882339F041
:10147000C80108960E949C0681110E9416080F90D0
:101480000FBE81E00F900F900F900F900F90DF91A3
:10149000CF911F910F91FF90EF90DF90CF90BF9071
:1014A000AF9008952C813D81232B21F40F900FBE26
:1014B00080E0E8CF811109C080910F02898380917B
:1014C0000D0290910E029B838A830F900FBE0E94A3
:1014D00047060FB6F8940F92F801858D8F3F09F4F7
:1014E000158EF801868D8F3F09F4168E0F900FBE72
:1014F000BE016C5F7F4FCE0101960E940A068111EA
:1015000025C0C8010E944D068823D1F0EC80FD80E3
:101510006091820170918301645F7F4FC5010E94D9
:101520001D0761E0C7010E947D07C8010E94DB061C
:101530000E94D408811102C00E94160881E072CF77
:10154000C8010E94DB060E94D408F8CFC8010E949F
:10155000DB060E94D408C8010E944D06882371F35F
:10156000A7CFAF92BF92CF92DF92EF92FF920F93ED
:101570001F93CF93DF9300D000D01F92CDB7DEB77B
:101580008C017B015D834C8380E0680128E0C20E02
:10159000D11C0FB6F8940F92F801228D938D291764
:1015A00008F078C0D28C448D41115AC0808191815D
:1015B000892B11F080E009C0E480F580E114F1048A
:1015C00021F580E0F80115821482D394F801D28EBF
:1015D0009189992321F0C80141960E949C068111AE
:1015E0000E9416080F900FBE81E00F900F900F9091
:1015F0000F900F90DF91CF911F910F91FF90EF907F
:10160000DF90CF90BF90AF900895F70182A18150F5
:1016100082A3268991A12917A1F28111D2CF570166
:10162000F2E0AF0EB11CC5010E947806F70181A15E
:10163000868B24E030E0281B310935872487909180
:101640000902981710F480930902F9E08F9FC001F6
:101650001124B5018B519E4F0E94580681E0B2CFF4
:1016600050E0B701828193810E94A514F801848D16
:1016700022813381820F932F911D93838283248152
:1016800035818217930708F495CF808191819383E8
:10169000828390CF2C813D81232B21F40F900FBEAC
:1016A00080E0A3CF811109C080910F0289838091CE
:1016B0000D0290910E029B838A830F900FBE0E94B1
:1016C00047060FB6F8940F92F801858D8F3F09F405
:1016D000158EF801868D8F3F09F4168E0F900FBE80
:1016E000BE016C5F7F4FCE0101960E940A068111F8
:1016F0002AC00FB6F8940F92F801928D838D0F9047
:101700000FBE98131AC0AC80BD80609182017091A9
:101710008301645F7F4FC6010E941D0761E0C50120
:101720000E947D07C8010E94DB060E94D408811137
:1017300002C00E94160881E02CCFC8010E94DB067F
:101740000E94D408F8CFC8010E94DB060E94D4088A
:10175000A7CFCF93DF9300D000D01F92CDB7DEB7D5
:101760009C018091B2019091B3010097C9F0198258
:101770007B836A833D832C8320910B0250E040E001
:10178000BE016F5F7F4F21112091B1010E94B10A0C
:101790000F900F900F900F900F90DF91CF910895C1
:1017A00080E0F6CFEF92FF920F931F93CF93DF93DA
:1017B000E091A601F091A7018081811113C0809171
:1017C000A4019091A5019093A7018093A601F093A5
:1017D000A501E093A401DF91CF911F910F91FF909C
:1017E000EF9008950580F681E02D00811181C6817A
:1017F000D7817E0182E0E80EF11CC7010E947806C5
:10180000E889F989CE0109958A8982FFD1CF8C8533
:101810009D85800F911F0817190760F49B838A83A9
:10182000D987C887B7018091A6019091A7010E942E
:101830001D07BECFB801CE010E94A90BB9CF0F92F0
:101840000FB6F8940F921F9211242F923F924F924D
:101850005F926F927F928F929F92AF92BF92CF9240
:10186000DF92EF92FF920F931F932F933F934F932B
:101870005F936F937F938F939F93AF93BF93CF9318
:10188000DF93EF93FF93A0918201B09183010DB696
:101890000D920EB60D9213BE8091B1018111F6C06A
:1018A00080910D0290910E02019690930E0280930A
:1018B0000D02009799F52091B6013091B701409142
:1018C000B4015091B5015093B7014093B6013093E4
:1018D000B5012093B40120910F022F5F20930F02D6
:1018E000E091B601F091B7012081211107C02FEFDF
:1018F0003FEF3093A1012093A00110C0E091B60109
:10190000F091B7010580F681E02D0680F781E02D8A
:10191000228133813093A1012093A0012091A00165
:101920003091A1018217930710F420E09BC020E0C2
:1019300019E0E091B601F091B7013081311107C093
:101940008FEF9FEF9093A1018093A0018BC0E09156
:10195000B601F091B7010580F681E02D0680F78190
:10196000E02D428153818417950728F45093A101FB
:101970004093A00177C0AF014E5F5F4FA285B38552
:1019800064817581E680F780EB01FD82EC82C6817F
:10199000D7817B836A8311966D917C91129746174C
:1019A000570721F41296DC93CE9311971386128673
:1019B0003C9131503C933C91A489B5891097F9F042
:1019C00066857785E088F188EB01FD82EC82C0892D
:1019D000D1897B836A831196ED90FC901297BF01A9
:1019E000645F7F4FE616F70621F41296DC93CE93E0
:1019F0001197158A148A3C9131503C933C91A689E9
:101A0000309109023A1710F4A09309021A9FD001ED
:101A10001124BD016B517E4F7B01DB011196CD91ED
:101A2000DC91D583C4836C817D81778366836C81EF
:101A30007D81DB0113965C934E9312975D834C83FB
:101A4000F386E286E70138813F5F3883A091820107
:101A5000B0918301468956963C91431708F469CFAB
:101A600021E067CFE0918201F0918301E689D9E01E
:101A7000ED9FF0011124EB51FE4F8081823008F080
:101A800021E080919E0181110EC00AC080919C01CD
:101A900090919D01019690939D0180939C016AC055
:101AA000222309F467C08091B101882321F081E0ED
:101AB00080939E015FC010929E01A0918201B0911F
:101AC0008301E0918201F09183012D913C918789FE
:101AD000908D82179307A8F08091820190918301E5
:101AE0008091820190918301259A2D9A2FEF67EAC8
:101AF00071E6215060407040E1F700C000001D9A7F
:101B0000F5CF2091090289E001C02150422F50E019
:101B1000849FF001859FF00D1124EB51FE4F9081C1
:101B2000992399F3A181B28112960D90BC91A02DB9
:101B3000B283A183289FC001112488519E4FA8170A
:101B4000B90729F412968D919C919283818389E043
:101B5000849FF001859FF00D1124EB51FE4F018011
:101B6000F281E02D86819781909383018093820199
:101B700020930902A0918201B0918301CD91CDBF44
:101B8000DD91DEBFFF91EF91DF91CF91BF91AF91DA
:101B90009F918F917F916F915F914F913F912F9185
:101BA0001F910F91FF90EF90DF90CF90BF90AF907B
:101BB0009F908F907F906F905F904F903F902F906D
:101BC0001F900F900FBE0F900895CF93DF93009753
:101BD00051F0EC010E944706CE010E942A12DF91CB
:101BE000CF910C94D408DF91CF910895CF93DF93D8
:101BF00000D000D01F92CDB7DEB7E091A601F091E2
:101C0000A701F08010E000E0FF2029F00580F681B8
:101C1000E02D008111810E9447060E943D066C0163
:101C20008091A2019091A301C816D90608F049C07D
:101C30000E94D20BD092A301C092A2010E94D408AC
:101C4000BE016F5F7F4F8091B2019091B3010E94FE
:101C5000FA09882391F2898187FDF2CF0C811D81D9
:101C6000D8011A968D919C91892B21F0C80102967A
:101C70000E9478060E943D067C018091A20190910D
:101C8000A301E816F90610F40E94D20BF092A3010A
:101C9000E092A201E981EA3098F60E2E000CFF0BCB
:101CA000E95AF14FD80152968C910C949F14DB0E97
:101CB000DB0EDB0E140FFF0E0E0FDB0EDB0E140F10
:101CC000FF0ED092A301C092A201FF2099F1C0168D
:101CD000D106C0F10E94D408E091A601F091A701BD
:101CE0000580F681E02DE680F780C70102960E940C
:101CF0007806D70152968C91529782FF17C01C9696
:101D00006D917C91600F711F9801A601C7010E941F
:101D10005307882321F0B801C7010E94A90BD701FE
:101D20005096ED91FC91C70109958ACF8E7FF701FE
:101D3000828BF5CFE091A401F091A5018081BB24B5
:101D4000B3948111B12CE090B201F090B3010FB6C1
:101D5000F8940F92F701858D8F3F09F4158ED70106
:101D60005E968C915E978F3F11F45E961C920F9059
:101D70000FBEF701828D811114C0609182017091B4
:101D80008301645F7F4FC70141960E945806C801D6
:101D90008C199D09BB2011F08FEF9FEF6B2D0E94D6
:101DA0007D07C7010E94DB060E94D408811148CF3D
:101DB0000E94160845CF8160F801828B2A813B8101
:101DC00064857585620F731FA701C8010E945307C0
:101DD000882309F435CFD8015096ED91FC91C801C4
:101DE0000995F801828982FF2BCF6A817B818485E6
:101DF0009585680F791FC8010E94A90B21CF8160CA
:101E0000F801828B6A817B81758764876E0D7F1DE7
:101E10009701A701C8010E94530712CF81FD04C09A
:101E2000C8010E94E50D0CCF8E7FD80152968C938D
:101E300007CFCF93DF93EC010E944706CE010E94AB
:101E40008E11EC010E94D408209769F4259A2D9AEE
:101E50002FEF80E792E0215080409040E1F700C0F2
:101E600000001D9AF5CFCE01DF91CF9108957F92AA
:101E70008F929F92AF92BF92CF92DF92EF92FF929A
:101E80000F931F93CF93DF93982EA92E762E872E34
:101E90007A01B22ECA010E94190F6C01892B09F434
:101EA000D0C088E290E00E94190FEC01892B09F460
:101EB000C5C0D88ECF8AA70165EA70E0C6010E942E
:101EC000AE1421E0E21AF108EF89F88DEE0DFF1D46
:101ED000672D782DCE0149969B01285F3F4FDB018E
:101EE0004D91BD01DC014D93CD01AB014150510934
:101EF000DA014C91442319F06217730781F718A295
:101F0000BE8AB9A21AA21B861A861D8A1C8AD98784
:101F1000C88784E090E08B1991099D878C87DB8BC3
:101F2000CA8B1BA21CA21DA21EA21FA29082DF01AF
:101F30001197AC9211971C92119780E88C9311978E
:101F40001C9257971C9211971C92B397F983E883C0
:101F50000115110519F0F801D183C0830FB6F8946B
:101F60000F9280910C028F5F80930C02809182010E
:101F700090918301892B09F073C0D0938301C093A2
:101F8000820180910C02813081F585EE91E00E9402
:101F9000D8078EEE91E00E94D80787EF91E00E946B
:101FA000D80780E092E00E94D8078CED91E00E9473
:101FB000D80783ED91E00E94D8078AEC91E00E9457
:101FC000D80781EC91E00E94D80788EB91E00E944D
:101FD000D8078CED91E09093B7018093B60183ED23
:101FE00091E09093B5018093B40180910A028F5FD4
:101FF00080930A028E8990910902981710F48093B9
:102000000902F9E08F9FC0011124BE016E5F7F4F6E
:102010008B519E4F0E9458060F900FBE80910B026D
:10202000882351F0E0918201F091830196898E8995
:10203000981710F40E94160881E004C0C6010E949F
:10204000E50D8FEFDF91CF911F910F91FF90EF90F2
:10205000DF90CF90BF90AF909F908F907F9008952A
:1020600080910B028111C1CFE0918201F091830137
:102070009E898689981708F4B8CFD0938301C093BE
:102080008201B3CF0F931F93CF93DF930AE911E03F
:1020900020E040EC50E066E371E08BEE94E00E94BB
:1020A000370F813009F08CC00FB6F8940F928091F1
:1020B000B2019091B301892B49F58FE891E00E941C
:1020C000D80786E891E00E94D8078FE891E09093C6
:1020D000A7018093A60186E891E09093A5018093E3
:1020E000A40181E590E00E94190FEC01009751F0E6
:1020F0004F96998388838AE08B8F85E08C8FCE0101
:102100000E94E607D093B301C093B2010F900FBEB7
:102110008091B2019091B301892B09F451C008E973
:1021200011E023E045E550E06BE371E086EF9DE0D0
:102130000E94370F813009F043C0F8942FEF3FEF32
:102140003093A1012093A00180930B0210920E0204
:1021500010920D02A89588E190EC0FB6F894A8951E
:10216000809360000FBE90936000A0918201B091B7
:102170008301CD91CDBFDD91DEBFFF91EF91DF9166
:10218000CF91BF91AF919F918F917F916F915F910F
:102190004F913F912F911F910F91FF90EF90DF9002
:1021A000CF90BF90AF909F908F907F906F905F90F7
:1021B0004F903F902F901F900F900FBE0F9008955B
:1021C000DF91CF911F910F9108950E941F0C1895D8
:1021D000E0E1F2E01382128288EE93E0A0E0B0E04A
:1021E00084839583A683B7838AE091E0918380837B
:1021F00085EC90E09587848784EC90E097878687CC
:1022000080EC90E0918B808B81EC90E0938B828BC3
:1022100082EC90E0958B848B86EC90E0978B868B9C
:10222000118E128E138E148EEDEAF2E0138212825A
:102230008CE191E0918380838CE084838FEF8583B0
:102240008BE0868385E0878384E0808783E08187D5
:1022500082E082871386148615861686178681E0AB
:102260000C94BD02789484B5826084BD84B581608D
:1022700084BD85B5826085BD85B5816085BD809151
:102280006E00816080936E001092810080918100C9
:1022900082608093810080918100816080938100C1
:1022A000809180008160809380008091B100846083
:1022B0008093B1008091B00081608093B0008091E4
:1022C0007A00846080937A0080917A0082608093A3
:1022D0007A0080917A00816080937A0080917A0000
:1022E000806880937A001092C1002091040130919F
:1022F00005018FEF98E0821B930B9093010180936F
:1023000000010E941E050E9442100E941E05C0E0AE
:10231000D0E02097F1F30E947C01FBCF0F931F9335
:10232000CF93DF938230910510F482E090E0E0914A
:10233000C702F091C80230E020E0B0E0A0E03097A2
:1023400099F42115310509F44AC0281B390B2430B2
:102350003105D8F58A819B816115710589F1FB01F1
:1023600093838283FE0111C04081518102811381D8
:1023700048175907E0F04817590799F4109761F08A
:1023800012960C93129713961C933296CF01DF91FD
:10239000CF911F910F9108950093C7021093C80227
:1023A000F4CF2115310551F04217530738F0A90138
:1023B000DB019A01BD01DF01F801C1CFEF01F9CFC7
:1023C0009093C8028093C702CDCFFE01E20FF31FA6
:1023D000819391932250310939832883D7CF20915B
:1023E000C5023091C602232B41F4209102013091A5
:1023F00003013093C6022093C50220910001309161
:1024000001012115310541F42DB73EB7409104017A
:1024100050910501241B350BE091C502F091C602D5
:10242000E217F307A0F42E1B3F0B2817390778F0AB
:10243000AC014E5F5F4F2417350748F04E0F5F1F0A
:102440005093C6024093C502819391939FCFF0E0D1
:10245000E0E09CCFCF93DF930097E9F0FC01329747
:1024600013821282A091C702B091C802ED0130E040
:1024700020E01097A1F420813181820F931F2091D9
:10248000C5023091C6022817390709F061C0F093E0
:10249000C602E093C502DF91CF910895EA01CE17FD
:1024A000DF07E8F54A815B819E0141155105B1F7CF
:1024B000E901FB83EA8349915991C40FD51FEC17B9
:1024C000FD0761F4808191810296840F951FE901D7
:1024D00099838883828193819B838A83F0E0E0E003
:1024E00012968D919C9113970097B9F52D913C917F
:1024F0001197CD010296820F931F2091C502309152
:10250000C6022817390739F6309751F51092C802DC
:102510001092C702B093C602A093C502BCCFD3836A
:10252000C28340815181840F951FC817D90761F478
:102530004E5F5F4F88819981480F591F51834083B7
:102540008A819B81938382832115310509F0B0CF65
:10255000F093C802E093C7029ECFFD01DC01C0CF1B
:1025600013821282D7CF5058BB27AA270E94CB12C2
:102570000C94CC130E94BE1338F00E94C51320F0B7
:1025800039F49F3F19F426F40C94BB130EF4E09534
:10259000E7FB0C94B513E92F0E94DD1358F3BA172B
:1025A000620773078407950720F079F4A6F50C9469
:1025B000FF130EF4E0950B2EBA2FA02D0B01B901DD
:1025C00090010C01CA01A0011124FF27591B99F0A9
:1025D000593F50F4503E68F11A16F040A22F232FB5
:1025E000342F4427585FF3CF469537952795A79505
:1025F000F0405395C9F77EF41F16BA0B620B730BAC
:10260000840BBAF09150A1F0FF0FBB1F661F771F1C
:10261000881FC2F70EC0BA0F621F731F841F48F4D1
:10262000879577956795B795F7959E3F08F0B0CF5A
:102630009395880F08F09927EE0F97958795089541
:102640000E94911308F481E008950E94E51388F038
:102650009F5798F0B92F9927B751B0F0E1F0660F66
:10266000771F881F991F1AF0BA95C9F714C0B130A7
:1026700091F00E94FF13B1E008950C94FF13672FAF
:10268000782F8827B85F39F0B93FCCF386957795D6
:102690006795B395D9F73EF49095809570956195BF
:1026A0007F4F8F4F9F4F0895E89409C097FB3EF4EA
:1026B00090958095709561957F4F8F4F9F4F99238F
:1026C000A9F0F92F96E9BB279395F695879577950D
:1026D0006795B795F111F8CFFAF4BB0F11F460FFCD
:1026E0001BC06F5F7F4F8F4F9F4F16C0882311F025
:1026F00096E911C0772321F09EE8872F762F05C039
:10270000662371F096E8862F70E060E02AF09A95D3
:10271000660F771F881FDAF7880F9695879597F9C8
:102720000895990F0008550FAA0BE0E8FEEF161662
:102730001706E807F907C0F012161306E407F507B5
:1027400098F0621B730B840B950B39F40A2661F029
:10275000232B242B252B21F408950A2609F4A140CC
:10276000A6958FEF811D811D089597F99F6780E8D9
:1027700070E060E008959FEF80EC089500240A94D3
:102780001616170618060906089500240A9412164C
:102790001306140605060895092E0394000C11F47F
:1027A000882352F0BB0F40F4BF2B11F460FF04C02C
:1027B0006F5F7F4F8F4F9F4F089557FD9058440F85
:1027C000551F59F05F3F71F04795880F97FB991F90
:1027D00061F09F3F79F0879508951216130614064D
:1027E000551FF2CF4695F1DF08C0161617061806DA
:1027F000991FF1CF86957105610508940895E894B5
:10280000BB2766277727CB0197F908950E9491137C
:1028100008F48FEF08950E941E140C94CC130E94AC
:10282000BE1338F00E94C51320F0952311F00C94CC
:10283000B5130C94BB1311240C9400140E94DD13E7
:1028400070F3959FC1F3950F50E0551F629FF00103
:10285000729FBB27F00DB11D639FAA27F00DB11D1C
:10286000AA1F649F6627B00DA11D661F829F2227A5
:10287000B00DA11D621F739FB00DA11D621F839F2C
:10288000A00D611D221F749F3327A00D611D231F02
:10289000849F600D211D822F762F6A2F11249F5750
:1028A00050409AF0F1F088234AF0EE0FFF1FBB1F53
:1028B000661F771F881F91505040A9F79E3F510512
:1028C00080F00C94B5130C9400145F3FE4F3983E31
:1028D000D4F3869577956795B795F795E7959F5FBC
:1028E000C1F7FE2B880F911D9695879597F908954E
:1028F0000E949113880B990B0895A1E21A2EAA1B2E
:10290000BB1BFD010DC0AA1FBB1FEE1FFF1FA2179F
:10291000B307E407F50720F0A21BB30BE40BF50B9C
:10292000661F771F881F991F1A9469F76095709525
:10293000809590959B01AC01BD01CF010895EE0FEC
:10294000FF1F0590F491E02D0994FB01DC0102C00A
:1029500001900D9241505040D8F70895DC0101C01C
:0E2960006D9341505040E0F70895F894FFCF7A
:10296E000000C90280000000000005018901A600D8
:10297E005201D700B500C900000000005F038901B5
:10298E000302020274656D703A006E616E00696E2C
:10299E0066006F76660049444C4500546D722053B4
:1029AE00766300506C616E742D6D6F6E69746F720C
:1029BE000043616E277420637265617465207175C2
:1029CE00657565000D0A004C4344205441534B007D
:1029DE0054454D5045524154555245205441534B48
:0229EE000000E7
:00000001FF
