:100000000C9462000C948A000C948A000C948A0070
:100010000C948A000C948A000C94D1130C948A00DE
:100020000C948A000C948A000C948A000C948A0028
:100030000C948A000C948A000C948A000C948A0018
:100040000C94AA080C948A000C9478080C9452081A
:100050000C948A000C948A000C948A000C948A00F8
:100060000C948A000C948A000000000024002700F1
:100070002A0000000000250028002B0000000000DE
:1000800023002600290004040404040404040202DA
:100090000202020203030303030301020408102007
:1000A0004080010204081020010204081020000012
:1000B0000008000201000003040700000000000027
:1000C0000000D41311241FBECFEFD8E0DEBFCDBF98
:1000D00012E0A0E0B1E0EAE2F0E302C005900D9288
:1000E000A430B107D9F723E0A4E0B2E001C01D922B
:1000F000A335B207E1F710E0C2E6D0E004C02197D3
:10010000FE010E94FD17C136D107C9F70E941E14D7
:100110000C9413180C940000DC01ED91FC910190FB
:10012000F081E02D0994AF92BF92CF92DF92EF92CF
:10013000FF920F931F93CF93DF936C017B018B0191
:10014000040F151FEB015E01AE18BF08C017D107E1
:1001500059F06991D601ED91FC910190F081E02D6B
:10016000C6010995892B79F7C501DF91CF911F91C0
:100170000F91FF90EF90DF90CF90BF90AF900895D8
:10018000FC01538D448D252F30E0842F90E0821B9D
:10019000930B541710F0CF96089501970895FC0122
:1001A000918D828D981761F0A28DAE0FBF2FB11D7A
:1001B0005D968C91928D9F5F9F73928F90E00895D2
:1001C0008FEF9FEF0895FC01918D828D981731F08C
:1001D000828DE80FF11D858D90E008958FEF9FEFE0
:1001E0000895FC01918D228D892F90E0805C9F4FB6
:1001F000821B91098F73992708958AE992E00E94E2
:10020000F10021E0892B09F420E0822F08950E945B
:10021000FD0081110C940000089580E090E0892B8E
:1002200011F00C9407010895FC01A48DA80FB92FBB
:10023000B11DA35ABF4F2C91848D90E001968F730E
:100240009927848FA689B7892C93A089B1898C912D
:10025000837080648C93938D848D981306C002887C
:10026000F389E02D80818F7D80830895EF92FF9246
:100270000F931F93CF93DF93EC0181E0888F9B8DC9
:100280008C8D98131AC0E889F989808185FF15C083
:100290009FB7F894EE89FF896083E889F9898081A6
:1002A0008370806480839FBF81E090E0DF91CF9175
:1002B0001F910F91FF90EF900895F62E0B8D10E097
:1002C0000F5F1F4F0F731127E02E8C8D8E110CC006
:1002D0000FB607FCFACFE889F989808185FFF5CF51
:1002E000CE010E941401F1CFEB8DEC0FFD2FF11D1B
:1002F000E35AFF4FF0829FB7F8940B8FEA89FB898E
:1003000080818062CFCFCF93DF93EC01888D8823EB
:10031000B9F0AA89BB89E889F9898C9185FD03C068
:10032000808186FD0DC00FB607FCF7CF8C9185FF4D
:10033000F2CF808185FFEDCFCE010E941401E9CF7D
:10034000DF91CF910895833081F028F4813099F0C6
:100350008230A9F008958730A9F08830C9F0843040
:10036000B1F4809180008F7D03C0809180008F77F1
:1003700080938000089584B58F7784BD089584B5F7
:100380008F7DFBCF8091B0008F778093B000089570
:100390008091B0008F7DF9CFCF93DF93282F30E08D
:1003A000F901E255FF4F8491F901E656FF4FD491D0
:1003B000F901EA57FF4FC491CC23A1F081110E94AB
:1003C000A301EC2FF0E0EE0FFF1FE458FF4FA591C3
:1003D000B491EC91ED2381E090E009F480E0DF91AD
:1003E000CF91089580E090E0FACF1F93CF93DF93F1
:1003F000282F30E0F901E255FF4F8491F901E656CC
:10040000FF4FD491F901EA57FF4FC491CC23A9F0D3
:10041000162F81110E94A301EC2FF0E0EE0FFF1FB9
:10042000EE58FF4FA591B4918FB7F894EC9111114C
:1004300008C0D095DE23DC938FBFDF91CF911F9151
:100440000895DE2BF8CFCF93DF9390E0FC01E656C2
:10045000FF4F24918A579F4FFC0184918823D1F04C
:1004600090E0880F991FFC01E859FF4FA591B491C6
:10047000FC01EE58FF4FC591D49161110EC09FB79A
:10048000F8948C91E22FE0958E238C932881E223BF
:10049000E8839FBFDF91CF9108958FB7F894EC91D7
:1004A000E22BEC938FBFF6CF3FB7F89480913702E1
:1004B00090913802A0913902B0913A0226B5A89BDA
:1004C00005C02F3F19F00196A11DB11D3FBFBA2FE6
:1004D000A92F982F8827BC01CD01620F711D811DA6
:1004E000911D42E0660F771F881F991F4A95D1F72B
:1004F00008958F929F92AF92BF92CF92DF92EF9228
:10050000FF924B015C010E9454026B017C010E942E
:1005100054026C197D098E099F09683E734081055C
:100520009105A8F321E0821A9108A108B10888EE8C
:10053000C80E83E0D81EE11CF11C81149104A104B3
:10054000B10429F7FF90EF90DF90CF90BF90AF906C
:100550009F908F900895089590E080E00895E09135
:100560004302F09144028081811107C08FEF9FEF19
:1005700090932B0280932A020895E0914302F09118
:1005800044020580F681E02D0680F781E02D82810E
:100590009381EECFCF93DF93EC0160E08E810E94D8
:1005A000F50161E08E810E94F50160E08E810E947C
:1005B000F5018BE891E00197F1F7DF91CF91089574
:1005C000CF92DF92EF92FF920F931F93CF93DF931F
:1005D0006C017C0187E0E80EF11CD0E0C0E0062F42
:1005E00010E0B8010C2E02C0759567950A94E2F7E9
:1005F0006170F70181917F010E94F5012196C4305D
:10060000D10579F7C601DF91CF911F910F91FF902E
:10061000EF90DF90CF900C94CA02CF92DF92EF92CE
:10062000FF920F931F93CF93DF93EC01F62E642F6D
:100630008C810E94F5018D818F3F19F060E00E944E
:10064000F5010F2D10E08F8584FF25C06E0187E036
:10065000C80ED11CF12CE12CB8010E2C02C07595EE
:1006600067950A94E2F76170F60181916F010E942B
:10067000F501FFEFEF1AFF0A88E0E816F10461F7D1
:10068000CE01DF91CF911F910F91FF90EF90DF90FE
:10069000CF900C94CA02B80184E0759567958A954D
:1006A000E1F7CE010E94E0026F2DCE01DF91CF91E4
:1006B0001F910F91FF90EF90DF90CF900C94E0028C
:1006C00040E0682F87E393E00C940D0390914A0378
:1006D000691710F06FEF690FE62FF0E0E95CFC4F4F
:1006E0009489890F80680C946003CF93DF938130E5
:1006F00029F09091460398609093460380934A03B3
:1007000010924B0380E480934C0380E180934D036F
:1007100080E580934E0361E080913B030E942302B9
:1007200080913C038F3F19F061E00E94230261E059
:1007300080913D030E942302C7E3D3E09E0127532B
:1007400033408091460384FD0BC084E090E0219605
:100750002817390744F461E08E810E942302EECF0E
:1007600088E090E0F4CF8BE39DE00197F1F760E043
:1007700080913B030E94F50160E080913D030E945F
:10078000F50180913C038F3F19F060E00E94F50174
:100790008091460384FD39C063E087E393E00E94C3
:1007A000E002CBE4D6E4CE010197F1F763E087E302
:1007B00093E00E94E0022197F1F763E087E393E082
:1007C0000E94E00283E592E00197F1F762E087E39F
:1007D00093E00E94E0028091460380620E946003E1
:1007E00084E0809347038CE00E94600381E00E94D4
:1007F00060038BE39FE10197F1F782E08093480368
:1008000086E0DF91CF910C94600380620E946003C8
:100810008BE496E40197F1F78091460380620E9491
:10082000600383E592E00197F1F7809146038062CF
:100830000E946003D0CF41E00E940D0381E090E070
:100840000895FB0101900020E9F73197AF01461BA5
:10085000570BDC01ED91FC910280F381E02D0994AE
:100860008F929F92AF92BF92EF92FF920F931F933E
:10087000CF93DF93CDB7DEB7A1970FB6F894DEBF65
:100880000FBECDBF7C01FA01CB0119A2223008F4C2
:100890002AE08E010F5D1F4F822E912CB12CA12CCE
:1008A000BF01A50194010E94DB17F901CA016A305A
:1008B0000CF5605DD8016E938D01232B242B252B25
:1008C00079F790E080E0109721F0BD01C7010E9408
:1008D0002104A1960FB6F894DEBF0FBECDBFDF9105
:1008E000CF911F910F91FF90EF90BF90AF909F908D
:1008F0008F900895695CDECFCF92DF92EF92FF92E6
:100900000F931F93CF93DF9377FF1DC06A017B0185
:10091000EC016DE20E948C008C0144275527BA013E
:100920004C195D096E097F092AE0CE010E9430044E
:10093000800F911FDF91CF911F910F91FF90EF904A
:10094000DF90CF9008952AE0DF91CF911F910F9112
:10095000FF90EF90DF90CF900C943004CF93DF9313
:10096000BC018AE992E00E942104EC0164E271E09A
:100970008AE992E00E9421048C0F9D1FDF91CF91A4
:1009800008952F923F924F925F926F927F928F9233
:100990009F92AF92BF92CF92DF92EF92FF921F93FE
:1009A000CF93DF93EC016A017B01722EAB019601BC
:1009B000CB01B6010E94D61767E271E0811126C013
:1009C00046015701E894B7F82FEF3FEF4FE75FE795
:1009D000C501B4010E94D61781110CC02FEF3FEF63
:1009E0004FE75FE7C501B4010E940C166BE271E0AE
:1009F000181664F02FEF3FEF4FE75FE4C701B60131
:100A00000E9464171816B4F46FE271E0CE01DF9112
:100A1000CF911F91FF90EF90DF90CF90BF90AF905C
:100A20009F908F907F906F905F904F903F902F900E
:100A30000C9421042FEF3FEF4FE75FECC701B601A5
:100A40000E940C1687FDE0CF20E030E0A901C7012D
:100A5000B6010E940C16312C212C87FF09C06DE2D3
:100A6000CE010E948C001C01F7FAF094F7F8F09484
:100A700010E060E070E080E09FE3711641F020E05C
:100A800030E040E251E40E9411161F5FF6CFA7014B
:100A900096010E94A0152B013C010E9483164B0178
:100AA0005C012AE0BC01A401CE010E9430047C015B
:100AB000E20CF31C1123C1F1C501B4010E94B2166E
:100AC0009B01AC01C301B2010E949F154B015C0167
:100AD0006EE2CE010E948C00E80EF91E115020F14A
:100AE00020E030E040E251E4C501B4010E94691702
:100AF0002B013C010E9483164B01B12CA12C2AE052
:100B0000B501A401CE010E943004E80EF91EC50112
:100B1000B4010E94B2169B01AC01C301B2010E9454
:100B20009F154B015C01DACFC701DF91CF911F9177
:100B3000FF90EF90DF90CF90BF90AF909F908F90FD
:100B40007F906F905F904F903F902F900895CF933C
:100B5000DF93CDB7DEB72B970FB6F894DEBF0FBE8D
:100B6000CDBF80E4B82E01E010E0B0927C0080910F
:100B70007A00806480937A0080917A0086FDFCCFB1
:100B80008091780060917900762F682F072E000CF5
:100B9000880B990B0E94B4166B017C01C0920A026B
:100BA000D0920B02E0920C02F0920D0220E030E0B5
:100BB000A9010E940C16882309F452C020E030E0FD
:100BC00040EA5BE3C701B6010E9469179B01AC01D3
:100BD00060E070E08AE793E40E94111620E030E0C4
:100BE00048E452E40E949F156B017C0163E371E0CD
:100BF0008AE992E00E94210440910A0250910B027E
:100C000060910C0270910D0222E08AE992E00E944C
:100C1000C10466E471E08AE992E00E94210422E0C6
:100C2000B701A6018AE992E00E94C10464E271E082
:100C30008AE992E00E9421041A830983CB82DC8234
:100C4000ED82FE824FEF5FEFBE016F5F7F4F8091BD
:100C50000E0290910F020E94E40C0E94000B85CFBF
:100C6000C12CD12C7601C2CFCF93DF93CDB7DEB7A5
:100C70002B970FB6F894DEBF0FBECDBF60E080E0CB
:100C80000E94660381E00E9460038BE39FE101976D
:100C9000F1F74FEF5FEFBE016F5F7F4F80910E0264
:100CA00090910F020E94520E8130B1F56EE471E016
:100CB0008AE992E00E94210489819A81009779F55E
:100CC00080E691E00E94AE0464E671E087E393E081
:100CD0000E94210460E08AE00E9466034C815D81ED
:100CE0006E817F8187E393E00E947C0461E080E075
:100CF0000E9466036EE671E087E393E00E942104A0
:100D000061E08EE00E946603488559856A857B858F
:100D100087E393E00E947C040E94000BBACF019706
:100D2000D9F78CE791E00E94AE0462E080E00E9477
:100D3000660368E471E087E393E00E94210462E0C7
:100D400086E00E9466034B815C816D817E8122E09A
:100D500087E393E00E94C104DFCFCF93DF93CDB749
:100D6000DEB764970FB6F894DEBF0FBECDBF222466
:100D70002394312C1C861D861E861F86188A61E0EE
:100D800086E00E94230260E086E00E94F50162E1B5
:100D900070E080E090E00E94790261E086E00E94CD
:100DA000F5018BE990E00197F1F760E086E00E94A1
:100DB000230201E117E286E00E94CC01892BD9F4DD
:100DC00001501109C1F70EEF1FEF60E871E08AE9E9
:100DD00092E00E942104A801110F660B770B8AE9AB
:100DE00092E00E947C0464E271E08AE992E00E9451
:100DF000210480E07BC001E117E286E00E94CC0183
:100E0000019721F401501109C1F7DDCF08E210E08C
:100E100037E0D32EC12C21E1E22E27E2F22E86E02C
:100E20000E94CC01892B29F421E0E21AF108B9F7DC
:100E3000CACF0E9454022B013C0191E1E92E97E2B6
:100E4000F92E86E00E94CC01019729F431E0E31AE3
:100E5000F108B9F7B8CF0E945402641975098609E0
:100E60009709693271058105910578F0ECE0F0E0B1
:100E7000EC0FFD1FEC0DF11D808191010D2C01C0C7
:100E8000220F0A94EAF7822B8083D11052C0C394B8
:100E900087E0D82E0150110909F0BDCF8C85282F8D
:100EA00030E030930702209306029E85292F30E020
:100EB0003093090220930802382F390F28890FEF49
:100EC0001FEF321382CF292F30E050E040E0298B12
:100ED0003A8B4B8B5C8B882E912CB12CA12C64E629
:100EE00070E080E090E00E94790281E01A8219822D
:100EF0008B8329893A894B895C892C833D834E8376
:100F00005F8388869986AA86BB86882379F04FEF0F
:100F10005FEFBE016F5F7F4F80910E0290910F02D5
:100F20000E94E40C8BE991E00E94AE040E94000B49
:100F300021CFDA94AFCF00E010E080912902811137
:100F40000CC080917202823010F00E94000B0115DB
:100F5000110599F30E940701F0CF0FB6F8940F9294
:100F6000E0915302F0915402C681D781CE010296DE
:100F70000E94620980919902815080939902809128
:100F800029028150809329020F900FBE8F89988D7E
:100F90000E94CF10CE010E94CF10CFCF0F931F938E
:100FA000CF93DF93E091AA02F091AB0282E08083BD
:100FB000E091A602F091A7021082E091A802F091C0
:100FC000A9028FEC80831092B202E091AE02F09100
:100FD000AF0286E08083E091AC02F091AD028081A7
:100FE00080618083E091AC02F091AD0280818860E5
:100FF0008083E091AC02F091AD02808180688083B3
:10100000E091AC02F091AD0280818F7D808384E01D
:101010000E9475036DEB71E087E393E00E94210469
:1010200060E087E00E94230280E490E00E940512C5
:10103000EC01009751F04F969983888383E08B8F62
:101040008BE08C8FCE010E94D00AD0930F02C09308
:101050000E02CD2B21F48BEC91E00E94AE0410E047
:1010600000E021E048EC50E066EE71E084E396E0B9
:101070000E94231223E048EC50E06FEE71E08DEA0D
:1010800096E00E94231223E048EC50E06AEF71E002
:1010900087EA95E00E942312DF91CF911F910F9173
:1010A0000C942E131F920F920FB60F9211242F93B0
:1010B0003F934F935F936F937F938F939F93AF93E0
:1010C000BF93EF93FF938AE992E00E941401FF918E
:1010D000EF91BF91AF919F918F917F916F915F91B0
:1010E0004F913F912F910F900FBE0F901F90189529
:1010F0001F920F920FB60F9211242F938F939F93ED
:10110000EF93FF93E091AA02F091AB028081E0910E
:10111000B002F091B10282FD1BC090818091B302B8
:101120008F5F8F732091B402821741F0E091B30278
:10113000F0E0E656FD4F958F8093B302FF91EF915B
:101140009F918F912F910F900FBE0F901F90189528
:101150008081F4CF1F920F920FB60F9211242F931C
:101160003F938F939F93AF93BF938091330290915E
:101170003402A0913502B09136023091320223E060
:10118000230F2D3758F50196A11DB11D2093320272
:101190008093330290933402A0933502B0933602C9
:1011A0008091370290913802A0913902B0913A02B1
:1011B0000196A11DB11D8093370290933802A09330
:1011C0003902B0933A02BF91AF919F918F913F91B5
:1011D0002F910F900FBE0F901F90189526E8230FA8
:1011E0000296A11DB11DD2CFFC01DB010FB6F89410
:1011F0000F9240913E0250913F022D913C911197E8
:101200002F3F3207E1F0818192816091400270812D
:10121000761719F048175907C0F4481B590B4217A5
:10122000530788F4241B350B2D933C938091400287
:10123000808380913E0290913F029283818380E07F
:101240000F900FBE08951D921C9281E0F9CF0FB64A
:10125000F8940F9280913E0290913F020F900FBE42
:10126000089580913B028F5F80933B0208950FB6F3
:10127000F8940F92FC01928D0F900FBE81E09111B6
:1012800080E00895CF93DF939C01FB01DC01119670
:10129000CD91DC91D383C2838C819D81958384839E
:1012A0008C819D81DC0113967C936E9312977D83D4
:1012B0006C8331872087F90180818F5F8083DF9184
:1012C000CF910895CF93DF93FC01A085B1858281F2
:1012D000938124813581EC013D832C83C481D581A8
:1012E0009B838A8311968D919C9112978E179F07ED
:1012F00021F41296DC93CE931197118610868C916F
:1013000081508C938C91DF91CF9108950F931F930F
:10131000CF93DF93DC011596ED91FC91C681D781C7
:101320008E01045F1F4FC8010E94620980913B0239
:10133000811125C00A501109C8010E9462098E89D5
:1013400090919602981710F480939602B9E08B9FC3
:10135000C0011124B8018E589D4F0E944209E091AE
:101360000402F09105029E898689891760F481E064
:1013700080932802DF91CF911F910F910895B801BA
:1013800087E592E0EACF80E0F5CFEF92FF920F93EE
:101390001F93CF93DF93EC010FB6F8940F921E8D3D
:1013A0007C0181E1E80EF11C01E01116D4F08FEF11
:1013B0008E8F0F900FBE0FB6F8940F921D8D7E0189
:1013C00088E0E80EF11C01E01116B4F08FEF8D8F6C
:1013D0000F900FBEDF91CF911F910F91FF90EF9073
:1013E00008958989882319F3C7010E94860981110C
:1013F000009328021150D9CF8885882339F3C7017B
:101400000E9486098111009328021150DDCF0F93AD
:101410001F93CF93DF938C01FB0180819181D801D1
:1014200013968F3F9807F1F4E801AF81B8851296C3
:101430008D919C91139793838283EC01FD83EC83C0
:10144000B583A4831396FC93EE93129711870087BC
:10145000F80180818F5F8083DF91CF911F910F9181
:101460000895D90112962D913C911397E901488175
:10147000598184179507A8F7DACFFC01738362833B
:10148000918780874617570790F0421B530B84853E
:10149000958548175907C8F4BF016E5F7F4F80914B
:1014A0002E0290912F020E94070A80E008954217B1
:1014B000530718F46217730740F4BF016E5F7F4F44
:1014C0008091300290913102EECF81E00895FF9239
:1014D0000F931F93CF93DF93EC01F62E00913E0202
:1014E00010913F02809104029091050202960E94A1
:1014F0006209CF3FDC0789F4FF2079F06091040294
:10150000709105026E5F7F4F85E492E0DF91CF918D
:101510001F910F91FF900C944209C00FD11FE091D1
:101520000402F0910502D383C2836091040270919A
:101530000502C017D10768F48091410290914202E0
:101540006E5F7F4FDF91CF911F910F91FF900C94B1
:10155000070A80914302909144026E5F7F4F0E9480
:10156000070A80912A0290912B02C817D90720F40C
:10157000D0932B02C0932A02DF91CF911F910F913C
:10158000FF900895FC010396928381832FEF3FEF34
:10159000348323839683858390878783108208957D
:1015A000CF93DF93EC010FB6F8940F928881998165
:1015B0002B8D4C8DBC01249F600D711D11247D83EA
:1015C0006C831A8E9B838A832150330B429FB00118
:1015D000439F700D1124860F971F9F838E838FEF7B
:1015E0008D8F8E8FCE0108960E94C20ACE01419641
:1015F0000E94C20A0F900FBE81E0DF91CF91089543
:101600000F920FB6F8940F921F9211242F923F92CF
:101610004F925F926F927F928F929F92AF92BF9202
:10162000CF92DF92EF92FF920F931F932F933F93EE
:101630004F935F936F937F938F939F93AF93BF93DA
:10164000CF93DF93EF93FF93A0910402B091050233
:101650000DB60D920EB60D9280913B02882321F0BB
:1016600081E0809328025FC010922802A0910402BA
:10167000B0910502E0910402F09105022D913C9198
:101680008789908D82179307A8F08091040290912A
:1016900005028091040290910502259A2D9A2FEF60
:1016A00087EA91E6215080409040E1F700C00000B9
:1016B0001D9AF5CF2091960289E001C02150422F5A
:1016C00050E0849FF001859FF00D1124EE58FD4FEE
:1016D0009081992399F3A181B28112960D90BC91CA
:1016E000A02DB283A183289FC00111248B589D4F48
:1016F000A817B90729F412968D919C919283818342
:1017000089E0849FF001859FF00D1124EE58FD4F74
:101710000180F281E02D868197819093050280936C
:10172000040220939602A0910402B0910502CD918B
:10173000CDBFDD91DEBFFF91EF91DF91CF91BF91E2
:10174000AF919F918F917F916F915F914F913F9159
:101750002F911F910F91FF90EF90DF90CF90BF904E
:10176000AF909F908F907F906F905F904F903F9041
:101770002F901F900F900FBE0F9008957F928F9221
:101780009F92AF92BF92CF92DF92EF92FF920F9310
:101790001F93CF93DF930FB6F8940F9280913B0283
:1017A000815080933B0280913B02882389F080E046
:1017B0000F900FBEDF91CF911F910F91FF90EF908F
:1017C000DF90CF90BF90AF909F908F907F900895C3
:1017D00080919902882359F3D0E0C0E029E0F22EED
:1017E000EE24E39429C0E0915C02F0915D02C68191
:1017F000D781CE010C960E9462098E010E5F1F4FA9
:10180000C8010E9462098E8990919602981710F47F
:10181000809396028F9DC0011124B8018E589D4F70
:101820000E944209E0910402F09105029E89868996
:10183000981710F0E0922802809157028111D3CFBF
:10184000CD2B11F00E94AF02E0902602F09027020B
:10185000E114F10409F4AFC089E0A82E7724739451
:10186000CC24CA94DC2C80913B02811192C0C0919F
:101870003E02D0913F022196D0933F02C0933E0298
:101880002097B9F480914302909144022091410243
:1018900030914202309344022093430290934202DB
:1018A00080934102809140028F5F809340020E94AA
:1018B000AF0280912A0290912B02B12CC817D90750
:1018C00008F05BC0E0910402F0910502E689AE9E4B
:1018D000F0011124EE58FD4F8081823010F0BB24BE
:1018E000B39480912802811103C0BB2009F45AC02F
:1018F0007092280257C0E0914302F09144020580A3
:10190000F681E02D06811781D80112968D919C9168
:10191000C817D90728F490932B0280932A02D2CFBC
:101920004801B2E08B0E911CC4010E946209F801CB
:1019300084899589892B21F0C8010C960E9462093F
:10194000D80156968C9190919602981710F4809336
:1019500096028A9DC0011124B4018E589D4F0E94A9
:101960004209E0910402F0910502D80156969C913B
:101970008689981710F0BB24B394E0914302F0914C
:10198000440280818111B7CFD0922B02C0922A02EB
:1019900099CF809126029091270201969093270279
:1019A00080932602B1E0EB1AF10809F05CCF1092A7
:1019B00027021092260280912802882309F4F7CE8C
:1019C0000E94000B81E0F4CEAF92BF92CF92DF92E3
:1019D000EF92FF920F931F93CF93DF9300D000D02D
:1019E0001F92CDB7DEB78C017B015D834C8380E015
:1019F000680128E0C20ED11C0FB6F8940F92F801CE
:101A0000228D938D291708F078C0D28C448D411116
:101A10005AC080819181892B11F080E009C0E48057
:101A2000F580E114F10421F580E0F80115821482BB
:101A3000D394F801D28E9189992321F0C80141965F
:101A40000E94860981110E94000B0F900FBE81E059
:101A50000F900F900F900F900F90DF91CF911F91EB
:101A60000F91FF90EF90DF90CF90BF90AF900895CF
:101A7000F70182A1815082A3268991A12917A1F2A1
:101A80008111D2CF5701F2E0AF0EB11CC5010E9407
:101A90006209F70181A1868B24E030E0281B31091F
:101AA0003587248790919602981710F480939602B8
:101AB000F9E08F9FC0011124B5018E589D4F0E94FF
:101AC000420981E0B2CF50E0B701828193810E9448
:101AD0000318F801848D22813381820F932F911D89
:101AE00093838283248135818217930708F495CFED
:101AF000808191819383828390CF2C813D81232BA0
:101B000021F40F900FBE80E0A3CF811109C0809116
:101B10004002898380913E0290913F029B838A8399
:101B20000F900FBE0E9431090FB6F8940F92F80182
:101B3000858D8F3F09F4158EF801868D8F3F09F44E
:101B4000168E0F900FBEBE016C5F7F4FCE010196C7
:101B50000E94F40881112AC00FB6F8940F92F80180
:101B6000928D838D0F900FBE98131AC0AC80BD80EC
:101B70006091040270910502645F7F4FC6010E946C
:101B8000070A61E0C5010E94670AC8010E94C509F1
:101B90000E94BE0B811102C00E94000B81E02CCF7D
:101BA000C8010E94C5090E94BE0BF8CFC8010E945F
:101BB000C5090E94BE0BA7CFCF93DF9300D000D002
:101BC0001F92CDB7DEB79C0180913C0290913D02FF
:101BD0000097C9F019827B836A833D832C8320910F
:101BE000980250E040E0BE016F5F7F4F21112091CD
:101BF0003B020E94E40C0F900F900F900F900F90FB
:101C0000DF91CF91089580E0F6CFEF92FF920F938E
:101C10001F93CF93DF93E0913002F09131028081E6
:101C2000811113C080912E0290912F029093310266
:101C300080933002F0932F02E0932E02DF91CF9138
:101C40001F910F91FF90EF9008950580F681E02D90
:101C500000811181C681D7817E0182E0E80EF11CEE
:101C6000C7010E946209E889F989CE0109958A892C
:101C700082FFD1CF8C859D85800F911F0817190792
:101C800060F49B838A83D987C887B701809130022B
:101C9000909131020E94070ABECFB801CE010E9486
:101CA000DC0DB9CFAF92BF92CF92DF92EF92FF924D
:101CB0000F931F93CF93DF9300D000D01F92CDB727
:101CC000DEB78C016B015D834C8380E0580191E1AC
:101CD000A90EB11C0FB6F8940F92F801F28CFF20F8
:101CE000C9F1448D4423B1F050E086819781840F7F
:101CF000951F97838683248135818217930720F06F
:101D00008081918197838683F80166817781C601FE
:101D10000E940318FA94F801F28E8085882339F026
:101D2000C80108960E94860981110E94000B0F903D
:101D30000FBE81E00F900F900F900F900F90DF91EA
:101D4000CF911F910F91FF90EF90DF90CF90BF90B8
:101D5000AF9008952C813D81232B21F40F900FBE6D
:101D600080E0E8CF811109C0809140028983809191
:101D70003E0290913F029B838A830F900FBE0E9488
:101D800031090FB6F8940F92F801858D8F3F09F451
:101D9000158EF801868D8F3F09F4168E0F900FBEB9
:101DA000BE016C5F7F4FCE0101960E94F408811145
:101DB00025C0C8010E9437098823D1F0EC80FD803E
:101DC0006091040270910502645F7F4FC5010E941B
:101DD000070A61E0C7010E94670AC8010E94C5099D
:101DE0000E94BE0B811102C00E94000B81E072CFE5
:101DF000C8010E94C5090E94BE0BF8CFC8010E940D
:101E0000C5090E94BE0BC8010E943709882371F3DF
:101E1000A7CF0F920FB6F8940F921F9211242F9212
:101E20003F924F925F926F927F928F929F92AF926A
:101E3000BF92CF92DF92EF92FF920F931F932F9357
:101E40003F934F935F936F937F938F939F93AF9342
:101E5000BF93CF93DF93EF93FF93A0910402B091D0
:101E600005020DB60D920EB60D9213BE80913B0287
:101E70008111F6C080913E0290913F0201969093AD
:101E80003F0280933E02009799F5209143023091E2
:101E900044024091410250914202509344024093C7
:101EA00043023093420220934102209140022F5F6F
:101EB00020934002E0914302F091440220812111DD
:101EC00007C02FEF3FEF30932B0220932A0210C060
:101ED000E0914302F09144020580F681E02D0680F6
:101EE000F781E02D2281338130932B0220932A0247
:101EF00020912A0230912B028217930710F420E0E0
:101F00009BC020E019E0E0914302F091440230814F
:101F1000311107C08FEF9FEF90932B0280932A021D
:101F20008BC0E0914302F09144020580F681E02DE0
:101F30000680F781E02D428153818417950728F4AC
:101F400050932B0240932A0277C0AF014E5F5F4F40
:101F5000A285B38564817581E680F780EB01FD82FF
:101F6000EC82C681D7817B836A8311966D917C91C7
:101F700012974617570721F41296DC93CE931197C8
:101F8000138612863C9131503C933C91A489B589CB
:101F90001097F9F066857785E088F188EB01FD827E
:101FA000EC82C089D1897B836A831196ED90FC9085
:101FB0001297BF01645F7F4FE616F70621F4129671
:101FC000DC93CE931197158A148A3C9131503C933F
:101FD0003C91A689309196023A1710F4A09396028C
:101FE0001A9FD0011124BD016E587D4F7B01DB018A
:101FF0001196CD91DC91D583C4836C817D817783EB
:1020000066836C817D81DB0113965C934E931297FE
:102010005D834C83F386E286E70138813F5F388336
:10202000A0910402B0910502468956963C9143174F
:1020300008F469CF21E067CFE0910402F091050236
:10204000E689D9E0ED9FF0011124EE58FD4F808123
:10205000823008F021E08091280281110EC00AC070
:1020600080912602909127020196909327028093F7
:1020700026026AC0222309F467C080913B028823AC
:1020800021F081E0809328025FC010922802A09185
:102090000402B0910502E0910402F09105022D9135
:1020A0003C918789908D82179307A8F08091040254
:1020B000909105028091040290910502259A2D9A33
:1020C0002FEF67EA71E6215060407040E1F700C0F1
:1020D00000001D9AF5CF2091960289E001C02150A1
:1020E000422F50E0849FF001859FF00D1124EE589F
:1020F000FD4F9081992399F3A181B28112960D90A1
:10210000BC91A02DB283A183289FC00111248B58BC
:102110009D4FA817B90729F412968D919C9192832F
:10212000818389E0849FF001859FF00D1124EE5892
:10213000FD4F0180F281E02D868197819093050209
:102140008093040220939602A0910402B0910502AC
:10215000CD91CDBFDD91DEBFFF91EF91DF91CF91AA
:10216000BF91AF919F918F917F916F915F914F91AF
:102170003F912F911F910F91FF90EF90DF90CF90A3
:10218000BF90AF909F908F907F906F905F904F9097
:102190003F902F901F900F900FBE0F900895CF93F8
:1021A000DF93009751F0EC010E943109CE010E94AB
:1021B0001615DF91CF910C94BE0BDF91CF9108954E
:1021C000CF93DF9300D000D01F92CDB7DEB7E09160
:1021D0003002F0913102F08010E000E0FF2029F0A1
:1021E0000580F681E02D008111810E9431090E9455
:1021F00027096C0180912C0290912D02C816D906F6
:1022000008F04BC00E94050ED0922D02C0922C0205
:102210000E94BE0B50E040E0BE016F5F7F4F809197
:102220003C0290913D020E94520E882381F28981E6
:1022300087FDF0CF0C811D81D8011A968D919C915C
:10224000892B21F0C80102960E9462090E94270989
:102250007C0180912C0290912D02E816F90610F471
:102260000E94050EF0922D02E0922C02E981EA30E4
:1022700088F60E2E000CFF0BED5BFE4ED801529639
:102280008C910C94FD17C711C711C7110012EB11E7
:10229000FA11C711C7110012EB11D0922D02C09292
:1022A0002C02FF2099F1C016D106C0F10E94BE0B8E
:1022B000E0913002F09131020580F681E02DE68058
:1022C000F780C70102960E946209D70152968C914D
:1022D000529782FF17C01C966D917C91600F711F01
:1022E0009801A601C7010E943D0A882321F0B80188
:1022F000C7010E94DC0DD7015096ED91FC91C701FA
:10230000099588CF8E7FF701828BF5CFE0912E0261
:10231000F0912F028081BB24B3948111B12CE09005
:102320003C02F0903D020FB6F8940F92F701858DB4
:102330008F3F09F4158ED7015E968C915E978F3F83
:1023400011F45E961C920F900FBEF701828D8111E1
:1023500014C06091040270910502645F7F4FC70151
:1023600041960E944209C8018C199D09BB2011F0B9
:102370008FEF9FEF6B2D0E94670AC7010E94C5096E
:102380000E94BE0B811146CF0E94000B43CF81609B
:10239000F801828B2A813B8164857585620F731FEA
:1023A000A701C8010E943D0A882309F433CFD80150
:1023B0005096ED91FC91C8010995F801828982FF40
:1023C00029CF6A817B8184859585680F791FC80133
:1023D0000E94DC0D1FCF8160F801828B6A817B81B6
:1023E000758764876E0D7F1D9701A701C8010E9444
:1023F0003D0A10CF81FD04C0C8010E94CF100ACF52
:102400008E7FD80152968C9305CFCF93DF93EC014A
:102410000E943109CE010E947A14EC010E94BE0B89
:10242000209769F4259A2D9A2FEF80E792E02150AA
:1024300080409040E1F700C000001D9AF5CFCE012A
:10244000DF91CF9108957F928F929F92AF92BF922A
:10245000CF92DF92EF92FF920F931F93CF93DF9370
:10246000982EA92E762E872E7A01B22ECA010E94AE
:1024700005126C01892B09F4D0C088E290E00E941B
:102480000512EC01892B09F4C5C0D88ECF8AA701AB
:1024900065EA70E0C6010E940C1821E0E21AF1081A
:1024A000EF89F88DEE0DFF1D672D782DCE01499631
:1024B0009B01285F3F4FDB014D91BD01DC014D9336
:1024C000CD01AB0141505109DA014C91442319F07F
:1024D0006217730781F718A2BE8AB9A21AA21B86D7
:1024E0001A861D8A1C8AD987C88784E090E08B19D8
:1024F00091099D878C87DB8BCA8B1BA21CA21DA216
:102500001EA21FA29082DF011197AC9211971C921C
:10251000119780E88C9311971C9257971C921197F2
:102520001C92B397F983E8830115110519F0F8019E
:10253000D183C0830FB6F8940F92809199028F5F78
:10254000809399028091040290910502892B09F0F1
:1025500073C0D0930502C093040280919902813028
:1025600081F582E792E00E94C20A8BE792E00E9426
:10257000C20A84E892E00E94C20A8DE892E00E94BA
:10258000C20A89E692E00E94C20A80E692E00E94B6
:10259000C20A87E592E00E94C20A8EE492E00E949D
:1025A000C20A85E492E00E94C20A89E692E0909312
:1025B00044028093430280E692E09093420280932B
:1025C0004102809197028F5F809397028E8990914C
:1025D0009602981710F480939602F9E08F9FC0013D
:1025E0001124BE016E5F7F4F8E589D4F0E9442099D
:1025F0000F900FBE80919802882351F0E091040261
:10260000F091050296898E89981710F40E94000BAC
:1026100081E004C0C6010E94CF108FEFDF91CF91FF
:102620001F910F91FF90EF90DF90CF90BF90AF90F0
:102630009F908F907F900895809198028111C1CFD3
:10264000E0910402F09105029E898689981708F4AA
:10265000B8CFD0930502C0930402B3CF0F931F935A
:10266000CF93DF9304E212E020E040EC50E060EB17
:1026700071E08BE997E00E942312813009F08CC051
:102680000FB6F8940F9280913C0290913D02892BF5
:1026900049F589E192E00E94C20A80E192E00E943D
:1026A000C20A89E192E0909331028093300280E186
:1026B00092E090932F0280932E0281E590E00E9499
:1026C0000512EC01009751F04F96998388838AE0B8
:1026D0008B8F85E08C8FCE010E94D00AD0933D0273
:1026E000C0933C020F900FBE80913C0290913D023E
:1026F000892B09F451C002E212E023E045E550E0E5
:1027000065EB71E080EE90E10E942312813009F0C8
:1027100043C0F8942FEF3FEF30932B0220932A020F
:102720008093980210923F0210923E02A89588E191
:1027300090EC0FB6F894A895809360000FBE90932C
:102740006000A0910402B0910502CD91CDBFDD9152
:10275000DEBFFF91EF91DF91CF91BF91AF919F913C
:102760008F917F916F915F914F913F912F911F9129
:102770000F91FF90EF90DF90CF90BF90AF909F9020
:102780008F907F906F905F904F903F902F901F9011
:102790000F900FBE0F900895DF91CF911F910F9171
:1027A00008950E94090F1895EAE9F2E01382128257
:1027B00088EE93E0A0E0B0E084839583A683B7839E
:1027C0008AE091E09183808385EC90E0958784870F
:1027D00084EC90E09787868780EC90E0918B808BEB
:1027E00081EC90E0938B828B82EC90E0958B848BD4
:1027F00086EC90E0978B868B118E128E138E148E42
:10280000E7E3F3E0138212828CE191E0918380830D
:102810008CE084838FEF85838BE0868385E08783DC
:1028200084E0808783E0818782E082871386148634
:1028300015861686178681E00C947503789484B506
:10284000826084BD84B5816084BD85B5826085BDAC
:1028500085B5816085BD80916E00816080936E003A
:10286000109281008091810082608093810080912C
:1028700081008160809381008091800081608093DD
:1028800080008091B10084608093B1008091B0009D
:1028900081608093B00080917A00846080937A0098
:1028A00080917A00826080937A0080917A008160C2
:1028B00080937A0080917A00806880937A001092E9
:1028C000C10020910401309105018FEF98E0821B37
:1028D000930B90930101809300010E94CE070E9408
:1028E0002E130E94CE07C0E0D0E02097F1F30E94A3
:1028F0000701FBCF0F931F93CF93DF938230910596
:1029000010F482E090E0E0915103F091520330E046
:1029100020E0B0E0A0E0309799F42115310509F4EA
:102920004AC0281B390B24303105D8F58A819B8198
:102930006115710589F1FB0193838283FE0111C04A
:10294000408151810281138148175907E0F04817EF
:10295000590799F4109761F012960C9312971396F9
:102960001C933296CF01DF91CF911F910F91089563
:102970000093510310935203F4CF2115310551F008
:102980004217530738F0A901DB019A01BD01DF01AD
:10299000F801C1CFEF01F9CF909352038093510317
:1029A000CDCFFE01E20FF31F8193919322503109A5
:1029B00039832883D7CF20914F0330915003232BA5
:1029C00041F4209102013091030130935003209390
:1029D0004F0320910001309101012115310541F48F
:1029E0002DB73EB74091040150910501241B350BD2
:1029F000E0914F03F0915003E217F307A0F42E1B70
:102A00003F0B2817390778F0AC014E5F5F4F241752
:102A1000350748F04E0F5F1F5093500340934F030C
:102A2000819391939FCFF0E0E0E09CCFCF93DF9331
:102A30000097E9F0FC01329713821282A0915103B2
:102A4000B0915203ED0130E020E01097A1F4208115
:102A50003181820F931F20914F033091500328172B
:102A6000390709F061C0F0935003E0934F03DF9101
:102A7000CF910895EA01CE17DF07E8F54A815B811F
:102A80009E0141155105B1F7E901FB83EA834991A4
:102A90005991C40FD51FEC17FD0761F48081918116
:102AA0000296840F951FE90199838883828193811F
:102AB0009B838A83F0E0E0E012968D919C911397BE
:102AC0000097B9F52D913C911197CD010296820F97
:102AD000931F20914F03309150032817390739F67F
:102AE000309751F51092520310925103B093500356
:102AF000A0934F03BCCFD383C28340815181840F05
:102B0000951FC817D90761F44E5F5F4F888199817F
:102B1000480F591F518340838A819B81938382830D
:102B20002115310509F0B0CFF0935203E093510322
:102B30009ECFFD01DC01C0CF13821282D7CF505847
:102B4000BB27AA270E94B7150C942A170E941C17AE
:102B500038F00E94231720F039F49F3F19F426F42F
:102B60000C9419170EF4E095E7FB0C941317E92F5A
:102B70000E943B1758F3BA1762077307840795073B
:102B800020F079F4A6F50C945D170EF4E0950B2E69
:102B9000BA2FA02D0B01B90190010C01CA01A001AF
:102BA0001124FF27591B99F0593F50F4503E68F10A
:102BB0001A16F040A22F232F342F4427585FF3CF4B
:102BC000469537952795A795F0405395C9F77EF41C
:102BD0001F16BA0B620B730B840BBAF09150A1F065
:102BE000FF0FBB1F661F771F881FC2F70EC0BA0FEB
:102BF000621F731F841F48F4879577956795B79573
:102C0000F7959E3F08F0B0CF9395880F08F099276D
:102C1000EE0F9795879508950E94EF1608F481E0CE
:102C200008950E9425160C942A170E94231758F025
:102C30000E941C1740F029F45F3F29F00C941317F1
:102C400051110C945E170C9419170E943B1768F3EE
:102C50009923B1F3552391F3951B550BBB27AA2755
:102C600062177307840738F09F5F5F4F220F331F8F
:102C7000441FAA1FA9F335D00E2E3AF0E0E832D057
:102C800091505040E695001CCAF72BD0FE2F29D05A
:102C9000660F771F881FBB1F261737074807AB072C
:102CA000B0E809F0BB0B802DBF01FF2793585F4FA1
:102CB0003AF09E3F510578F00C9413170C945E1770
:102CC0005F3FE4F3983ED4F3869577956795B79583
:102CD000F7959F5FC9F7880F911D9695879597F98E
:102CE0000895E1E0660F771F881FBB1F6217730707
:102CF0008407BA0720F0621B730B840BBA0BEE1F1C
:102D000088F7E09508950E94431788F09F5798F040
:102D1000B92F9927B751B0F0E1F0660F771F881FE0
:102D2000991F1AF0BA95C9F714C0B13091F00E94FA
:102D30005D17B1E008950C945D17672F782F8827F1
:102D4000B85F39F0B93FCCF3869577956795B39521
:102D5000D9F73EF490958095709561957F4F8F4F90
:102D60009F4F0895E89409C097FB3EF49095809595
:102D7000709561957F4F8F4F9F4F9923A9F0F92F41
:102D800096E9BB279395F695879577956795B795BF
:102D9000F111F8CFFAF4BB0F11F460FF1BC06F5FA5
:102DA0007F4F8F4F9F4F16C0882311F096E911C0B7
:102DB000772321F09EE8872F762F05C0662371F0D8
:102DC00096E8862F70E060E02AF09A95660F771FEC
:102DD000881FDAF7880F9695879597F90895990FC8
:102DE0000008550FAA0BE0E8FEEF16161706E807D5
:102DF000F907C0F012161306E407F50798F0621BF6
:102E0000730B840B950B39F40A2661F0232B242BCA
:102E1000252B21F408950A2609F4A140A6958FEFE9
:102E2000811D811D089597F99F6780E870E060E03B
:102E300008959FEF80EC089500240A941616170653
:102E400018060906089500240A941216130614069B
:102E500005060895092E0394000C11F4882352F0FE
:102E6000BB0F40F4BF2B11F460FF04C06F5F7F4FB6
:102E70008F4F9F4F089557FD9058440F551F59F09D
:102E80005F3F71F04795880F97FB991F61F09F3F57
:102E900079F087950895121613061406551FF2CF80
:102EA0004695F1DF08C0161617061806991FF1CFD0
:102EB00086957105610508940895E894BB276627F7
:102EC0007727CB0197F908950E94EF1608F48FEF4A
:102ED00008950E947C170C942A170E941C1738F042
:102EE0000E94231720F0952311F00C9413170C94D3
:102EF000191711240C945E170E943B1770F3959FCD
:102F0000C1F3950F50E0551F629FF001729FBB27E0
:102F1000F00DB11D639FAA27F00DB11DAA1F649F7C
:102F20006627B00DA11D661F829F2227B00DA11D2F
:102F3000621F739FB00DA11D621F839FA00D611DB5
:102F4000221F749F3327A00D611D231F849F600DD6
:102F5000211D822F762F6A2F11249F5750409AF0FF
:102F6000F1F088234AF0EE0FFF1FBB1F661F771F8B
:102F7000881F91505040A9F79E3F510580F00C9456
:102F800013170C945E175F3FE4F3983ED4F38695D5
:102F900077956795B795F795E7959F5FC1F7FE2BF6
:102FA000880F911D9695879597F908950E94EF16C1
:102FB000880B990B0895A1E21A2EAA1BBB1BFD01D9
:102FC0000DC0AA1FBB1FEE1FFF1FA217B307E40708
:102FD000F50720F0A21BB30BE40BF50B661F771F60
:102FE000881F991F1A9469F7609570958095909540
:102FF0009B01AC01BD01CF010895EE0FFF1F0590AD
:10300000F491E02D0994FB01DC0102C001900D92C6
:1030100041505040D8F70895DC0101C06D934150F4
:0A3020005040E0F70895F894FFCF48
:10302A000000530380000000000036019300C00036
:10303A008301F100CF00E300000000001B049300AD
:10304A00AC02AB020D0A006E616E00696E66006F1B
:10305A007666005B494E464F5D204C4452207C20E8
:10306A007261773A20007C206C75783A20005B49BF
:10307A004E46305D2072656365697665643A200064
:10308A004448540074656D702843293A20006875D5
:10309A006D69646974792825293A20004C445200E4
:1030AA005B4552524F525D205265616420646874D8
:1030BA003131206572726F723A20005B494E464F79
:1030CA005D2044485420646174612073656E740005
:1030DA0049444C4500546D722053766300506C612C
:1030EA006E742D6D6F6E69746F72005B4552524F2C
:1030FA00525D2043616E2774206372656174652096
:10310A007175657565004C4344205441534B004426
:10311A0048543131205441534B004C4452205441BD
:04312A00534B000003
:107E0000112484B714BE81FFF0D085E080938100F7
:107E100082E08093C00088E18093C10086E0809377
:107E2000C20080E18093C4008EE0C9D0259A86E02C
:107E300020E33CEF91E0309385002093840096BBD3
:107E4000B09BFECF1D9AA8958150A9F7CC24DD24C4
:107E500088248394B5E0AB2EA1E19A2EF3E0BF2EE7
:107E6000A2D0813461F49FD0082FAFD0023811F036
:107E7000013811F484E001C083E08DD089C08234E0
:107E800011F484E103C0853419F485E0A6D080C0E4
:107E9000853579F488D0E82EFF2485D0082F10E0AE
:107EA000102F00270E291F29000F111F8ED06801E7
:107EB0006FC0863521F484E090D080E0DECF843638
:107EC00009F040C070D06FD0082F6DD080E0C81688
:107ED00080E7D80618F4F601B7BEE895C0E0D1E017
:107EE00062D089930C17E1F7F0E0CF16F0E7DF06D8
:107EF00018F0F601B7BEE89568D007B600FCFDCFD4
:107F0000A601A0E0B1E02C9130E011968C91119780
:107F100090E0982F8827822B932B1296FA010C0160
:107F200087BEE89511244E5F5F4FF1E0A038BF0790
:107F300051F7F601A7BEE89507B600FCFDCF97BE46
:107F4000E89526C08437B1F42ED02DD0F82E2BD052
:107F50003CD0F601EF2C8F010F5F1F4F84911BD097
:107F6000EA94F801C1F70894C11CD11CFA94CF0C13
:107F7000D11C0EC0853739F428D08EE10CD085E9AC
:107F80000AD08FE07ACF813511F488E018D01DD067
:107F900080E101D065CF982F8091C00085FFFCCF94
:107FA0009093C60008958091C00087FFFCCF809118
:107FB000C00084FD01C0A8958091C6000895E0E648
:107FC000F0E098E1908380830895EDDF803219F02E
:107FD00088E0F5DFFFCF84E1DECF1F93182FE3DFCA
:107FE0001150E9F7F2DF1F91089580E0E8DFEE27F6
:047FF000FF270994CA
:027FFE00040479
:0400000300007E007B
:00000001FF
