:100000000C9462000C948A000C948A000C948A0070
:100010000C948A000C948A000C94E1160C948A00CB
:100020000C948A000C948A000C948A000C948A0028
:100030000C948A000C948A000C948A000C948A0018
:100040000C94BA0B0C948A000C94880B0C94620BE1
:100050000C948A000C948A000C948A000C948A00F8
:100060000C948A000C948A000000000024002700F1
:100070002A0000000000250028002B0000000000DE
:1000800023002600290004040404040404040202DA
:100090000202020203030303030301020408102007
:1000A0004080010204081020010204081020000012
:1000B0000008000201000003040700000000000027
:1000C0000000E41611241FBECFEFD8E0DEBFCDBF85
:1000D00013E0A0E0B1E0E0E4F8E302C005900D9287
:1000E000AA38B107D9F724E0AAE8B3E001C01D920D
:1000F000AB3DB207E1F710E0C2E6D0E004C02197C3
:10010000FE010E94441BC136D107C9F70E942E1779
:100110000C941E1C0C940000DC01ED91FC910190EC
:10012000F081E02D0994AF92BF92CF92DF92EF92CF
:10013000FF920F931F93CF93DF936C017B018B0191
:10014000040F151FEB015E01AE18BF08C017D107E1
:1001500059F06991D601ED91FC910190F081E02D6B
:10016000C6010995892B79F7C501DF91CF911F91C0
:100170000F91FF90EF90DF90CF90BF90AF900895D8
:10018000FC01538D448D252F30E0842F90E0821B9D
:10019000930B541710F0CF96089501970895FC0122
:1001A000918D828D981761F0A28DAE0FBF2FB11D7A
:1001B0005D968C91928D9F5F9F73928F90E00895D2
:1001C0008FEF9FEF0895FC01918D828D981731F08C
:1001D000828DE80FF11D858D90E008958FEF9FEFE0
:1001E0000895FC01918D228D892F90E0805C9F4FB6
:1001F000821B91098F739927089582E294E00E94EF
:10020000F10021E0892B09F420E0822F08950E945B
:10021000FD0081110C940000089580E090E0892B8E
:1002200011F00C9407010895FC01A48DA80FB92FBB
:10023000B11DA35ABF4F2C91848D90E001968F730E
:100240009927848FA689B7892C93A089B1898C912D
:10025000837080648C93938D848D981306C002887C
:10026000F389E02D80818F7D80830895EF92FF9246
:100270000F931F93CF93DF93EC0181E0888F9B8DC9
:100280008C8D98131AC0E889F989808185FF15C083
:100290009FB7F894EE89FF896083E889F9898081A6
:1002A0008370806480839FBF81E090E0DF91CF9175
:1002B0001F910F91FF90EF900895F62E0B8D10E097
:1002C0000F5F1F4F0F731127E02E8C8D8E110CC006
:1002D0000FB607FCFACFE889F989808185FFF5CF51
:1002E000CE010E941401F1CFEB8DEC0FFD2FF11D1B
:1002F000E35AFF4FF0829FB7F8940B8FEA89FB898E
:1003000080818062CFCFCF93DF93EC01888D8823EB
:10031000B9F0AA89BB89E889F9898C9185FD03C068
:10032000808186FD0DC00FB607FCF7CF8C9185FF4D
:10033000F2CF808185FFEDCFCE010E941401E9CF7D
:10034000DF91CF910895833081F028F4813099F0C6
:100350008230A9F008958730A9F08830C9F0843040
:10036000B1F4809180008F7D03C0809180008F77F1
:1003700080938000089584B58F7784BD089584B5F7
:100380008F7DFBCF8091B0008F778093B000089570
:100390008091B0008F7DF9CFCF93DF93282F30E08D
:1003A000F901E255FF4F8491F901E656FF4FD491D0
:1003B000F901EA57FF4FC491CC23A1F081110E94AB
:1003C000A301EC2FF0E0EE0FFF1FE458FF4FA591C3
:1003D000B491EC91ED2381E090E009F480E0DF91AD
:1003E000CF91089580E090E0FACF1F93CF93DF93F1
:1003F000282F30E0F901E255FF4F8491F901E656CC
:10040000FF4FD491F901EA57FF4FC491CC23A9F0D3
:10041000162F81110E94A301EC2FF0E0EE0FFF1FB9
:10042000EE58FF4FA591B4918FB7F894EC9111114C
:1004300008C0D095DE23DC938FBFDF91CF911F9151
:100440000895DE2BF8CFCF93DF9390E0FC01E656C2
:10045000FF4F24918A579F4FFC0184918823D1F04C
:1004600090E0880F991FFC01E859FF4FA591B491C6
:10047000FC01EE58FF4FC591D49161110EC09FB79A
:10048000F8948C91E22FE0958E238C932881E223BF
:10049000E8839FBFDF91CF9108958FB7F894EC91D7
:1004A000E22BEC938FBFF6CF3FB7F8948091BF0358
:1004B0009091C003A091C103B091C20326B5A89B3F
:1004C00005C02F3F19F00196A11DB11D3FBFBA2FE6
:1004D000A92F982F8827BC01CD01620F711D811DA6
:1004E000911D42E0660F771F881F991F4A95D1F72B
:1004F00008958F929F92AF92BF92CF92DF92EF9228
:10050000FF924B015C010E9454026B017C010E942E
:1005100054026C197D098E099F09683E734081055C
:100520009105A8F321E0821A9108A108B10888EE8C
:10053000C80E83E0D81EE11CF11C81149104A104B3
:10054000B10429F7FF90EF90DF90CF90BF90AF906C
:100550009F908F900895089590E080E00895E09135
:10056000C803F091C9038081811107C08FEF9FEF0D
:100570009093B3038093B2030895E091C803F09180
:10058000C9030580F681E02D0680F781E02D828188
:100590009381EECFCF93DF93EC0160E08E810E94D8
:1005A000F50161E08E810E94F50160E08E810E947C
:1005B000F5018BE891E00197F1F7DF91CF91089574
:1005C000CF92DF92EF92FF920F931F93CF93DF931F
:1005D0006C017C0187E0E80EF11CD0E0C0E0062F42
:1005E00010E0B8010C2E02C0759567950A94E2F7E9
:1005F0006170F70181917F010E94F5012196C4305D
:10060000D10579F7C601DF91CF911F910F91FF902E
:10061000EF90DF90CF900C94CA02CF92DF92EF92CE
:10062000FF920F931F93CF93DF93EC01F62E642F6D
:100630008C810E94F5018D818F3F19F060E00E944E
:10064000F5010F2D10E08F8584FF25C06E0187E036
:10065000C80ED11CF12CE12CB8010E2C02C07595EE
:1006600067950A94E2F76170F60181916F010E942B
:10067000F501FFEFEF1AFF0A88E0E816F10461F7D1
:10068000CE01DF91CF911F910F91FF90EF90DF90FE
:10069000CF900C94CA02B80184E0759567958A954D
:1006A000E1F7CE010E94E0026F2DCE01DF91CF91E4
:1006B0001F910F91FF90EF90DF90CF900C94E0028C
:1006C00040E0682F8FEB94E00C940D039091D204DE
:1006D000691710F06FEF690FE62FF0E0E154FB4F60
:1006E0009489890F80680C946003CF93DF938130E5
:1006F00029F09091CE0498609093CE048093D20418
:100700001092D30480E48093D40480E18093D504D4
:1007100080E58093D60461E08091C3040E942302A7
:100720008091C4048F3F19F061E00E94230261E0D0
:100730008091C5040E942302CFEBD4E09E012F5B81
:1007400034408091CE0484FD0BC084E090E021967B
:100750002817390744F461E08E810E942302EECF0E
:1007600088E090E0F4CF8BE39DE00197F1F760E043
:100770008091C3040E94F50160E08091C5040E944D
:10078000F5018091C4048F3F19F060E00E94F501EB
:100790008091CE0484FD39C063E08FEB94E00E9429
:1007A000E002CBE4D6E4CE010197F1F763E08FEBF2
:1007B00094E00E94E0022197F1F763E08FEB94E070
:1007C0000E94E00283E592E00197F1F762E08FEB8F
:1007D00094E00E94E0028091CE0480620E94600357
:1007E00084E08093CF048CE00E94600381E00E944B
:1007F00060038BE39FE10197F1F782E08093D004DF
:1008000086E0DF91CF910C94600380620E946003C8
:100810008BE496E40197F1F78091CE0480620E9408
:10082000600383E592E00197F1F78091CE04806246
:100830000E946003D0CF41E00E940D0381E090E070
:100840000895FC0180819181009711F00C94261885
:100850000895FB0101900020E9F73197AF01461B95
:10086000570BDC01ED91FC910280F381E02D09949E
:100870008F929F92AF92BF92EF92FF920F931F932E
:10088000CF93DF93CDB7DEB7A1970FB6F894DEBF55
:100890000FBECDBF7C01FA01CB0119A2223008F4B2
:1008A0002AE08E010F5D1F4F822E912CB12CA12CBE
:1008B000BF01A50194010E94221BF901CA016A30FF
:1008C0000CF5605DD8016E938D01232B242B252B15
:1008D00079F790E080E0109721F0BD01C7010E94F8
:1008E0002904A1960FB6F894DEBF0FBECDBFDF91ED
:1008F000CF911F910F91FF90EF90BF90AF909F907D
:100900008F900895695CDECFCF92DF92EF92FF92D5
:100910000F931F93CF93DF9377FF1DC06A017B0175
:10092000EC016DE20E948C008C0144275527BA012E
:100930004C195D096E097F092AE0CE010E94380436
:10094000800F911FDF91CF911F910F91FF90EF903A
:10095000DF90CF9008952AE0DF91CF911F910F9102
:10096000FF90EF90DF90CF900C943804CF93DF93FB
:10097000AC01990F660B770B82E294E00E9484042D
:10098000EC0164E271E082E294E00E9429048C0FA1
:100990009D1FDF91CF910895CF93DF93BC0182E239
:1009A00094E00E942904EC0164E271E082E294E0A8
:1009B0000E9429048C0F9D1FDF91CF9108952F92E3
:1009C0003F924F925F926F927F928F929F92AF92DF
:1009D000BF92CF92DF92EF92FF921F93CF93DF935C
:1009E000EC016A017B01722EAB019601CB01B601CD
:1009F0000E941D1B67E271E0811126C0460157016C
:100A0000E894B7F82FEF3FEF4FE75FE7C501B40178
:100A10000E941D1B81110CC02FEF3FEF4FE75FE7D6
:100A2000C501B4010E94AF186BE271E0181664F0C2
:100A30002FEF3FEF4FE75FE4C701B6010E94181B9D
:100A40001816B4F46FE271E0CE01DF91CF911F91DF
:100A5000FF90EF90DF90CF90BF90AF909F908F90DE
:100A60007F906F905F904F903F902F900C9429044F
:100A70002FEF3FEF4FE75FECC701B6010E94AF18C1
:100A800087FDE0CF20E030E0A901C701B6010E9458
:100A9000AF18312C212C87FF09C06DE2CE010E94D6
:100AA0008C001C01F7FAF094F7F8F09410E060E085
:100AB00070E080E09FE3711641F020E030E040E21A
:100AC00051E40E94771A1F5FF6CFA70196010E949A
:100AD0000B1A2B013C010E94E91A4B015C012AE030
:100AE000BC01A401CE010E9438047C01E20CF31C7D
:100AF0001123C1F1C501B4010E94B4189B01AC01DE
:100B0000C301B2010E940A1A4B015C016EE2CE01E0
:100B10000E948C00E80EF91E115020F120E030E018
:100B200040E251E4C501B4010E9415192B013C01BA
:100B30000E94E91A4B01B12CA12C2AE0B501A401B5
:100B4000CE010E943804E80EF91EC501B4010E94CE
:100B5000B4189B01AC01C301B2010E940A1A4B01F7
:100B60005C01DACFC701DF91CF911F91FF90EF9029
:100B7000DF90CF90BF90AF909F908F907F906F90BD
:100B80005F904F903F902F9008950C942904CF933D
:100B9000DF9300D0CDB7DEB763E371E082E294E08B
:100BA0000E94C5052091D7043091D804CE0101964A
:100BB0002115310569F48B5D94409A83898389817D
:100BC0009A810E94B6040F900F90DF91CF91089503
:100BD000821B930BE091D904F091DA0430E020E01D
:100BE000309751F02E5F3F4F40815181240F351FC8
:100BF0000280F381E02DF4CF820F931FDECFCF93DD
:100C0000DF93EC016130B1F468E471E082E294E0DA
:100C10000E94C5054C815D816881798182E294E002
:100C20000E94930088E591E00E94CC04DF91CF916F
:100C30000C94C7058EE591E06F3FB1F381E991E037
:100C4000F3CFEF92FF920F931F93CF93DF93EC01BB
:100C50007B01198218821B821A821D821C82FB0171
:100C600001900020E9F731978F01061B170BB8019F
:100C70006F5F7F4F90E080E00E944A1B0097B9F0C1
:100C8000998388831B830A832C813D81232B11F454
:100C9000FC0110821D830C83B70188819981DF914B
:100CA000CF911F910F91FF90EF900C94171C8881AA
:100CB0009981009711F00E942618198218821D82CE
:100CC0001C821B821A82DF91CF911F910F91FF909E
:100CD000EF90089500E010E08091B10381110CC005
:100CE0008091FD03823010F00E94F10D0115110575
:100CF00099F30E940701F0CF0FB6F8940F92E0919C
:100D0000D803F091D903C681D781CE0102960E9403
:100D1000720C8091F90381508093F9038091B103A3
:100D200081508093B1030F900FBE8F89988D0E94E0
:100D30003711CE010E943711CFCF7F928F929F92B1
:100D4000AF92BF92CF92DF92EF92FF920F931F93D9
:100D5000CF93DF9300D000D000D01F92CDB7DEB785
:100D60009F838E8383EB91E00E94CC0400919603D5
:100D7000109197038FEF9FEF9D838C83D12C90E090
:100D8000580121E1A20EB11C89E0782E24E0822EC8
:100D9000912C0FB6F8940F92D8015A968C915A97CD
:100DA000882309F453C081505A968C935A978D9199
:100DB0009C91892BA1F480918A0390918B03892BBC
:100DC00039F0E0918A03F0918B0382A18F5F82A3B7
:100DD00080918A0390918B03F80195838483D801D5
:100DE00018968C91882339F0C80108960E94960CB9
:100DF00081110E94F10D0F900FBE4FEF5FEFBE010A
:100E00006A5F7F4F80919403909195030E94D50F64
:100E100050E040E070E060E080919603909197038D
:100E20000E94D50F27960FB6F894DEBF0FBECDBF38
:100E3000DF91CF911F910F91FF90EF90DF90CF90B6
:100E4000BF90AF909F908F907F9008952C813D81AF
:100E5000232B89F2911109C08091FC038983809131
:100E6000FA039091FB039B838A830F900FBE0E942D
:100E7000410C0FB6F8940F92F801858D8F3F09F45D
:100E8000158ED8015E968C915E978F3F11F45E9619
:100E90001C920F900FBEBE016C5F7F4FCE0101967A
:100EA0000E94040C81118AC0C8010E94470C88234B
:100EB00009F47EC0F80180819181892B09F052C02C
:100EC0000FB6F8940F92E480F580E114F10409F470
:100ED0006DC0F7018689E0918A03F0918B039689B2
:100EE000891708F057C0D7011C962D913C911D978A
:100EF00037FD0CC0E0918A03F0918B039689940131
:100F0000291B31091D963C932E931C97879DC00188
:100F1000112483509C4FF701228533852817390708
:100F200089F56701F2E0CF0ED11CC6010E94720C58
:100F3000E0918A03F0918B038689D70156968C93B2
:100F400090912104981710F480932104879DC0018B
:100F50001124B60183509C4F0E94520CDD24D3947F
:100F60000F900FBE6C817D81C5010E94D20DC8011A
:100F70000E94D50C0E94AF0E811102C00E94F10D9B
:100F800091E007CFE0918A03F0918B038689F70106
:100F9000868BE4CFE0918A03F0918B03DD24D39418
:100FA000D70191969C9186899817D0F2D12CD8CFF1
:100FB000C8010E94D50C0E94AF0EE2CFC8010E946A
:100FC000D50C0E94AF0EC8010E94470C8823C1F2C5
:100FD000DD2009F412CF0FB6F8940F92F801818941
:100FE000882309F458C00688F789E02D908184E0B1
:100FF000891BD80114960D911C910115110509F456
:10100000FACEF80191A1981708F4982FD8015696B6
:101010008C915697981709F4EECE92962C91929750
:10102000213009F0E8CE56969C9356971C962D9148
:101030003C911D9737FD08C024E030E0291B3109A1
:101040001D963C932E931C97B9E08B9FC0011124F1
:1010500083509C4FF801228533852817390709F002
:10106000CACE7801F2E0EF0EF11CC7010E94720CAB
:10107000D80156968C9190912104981710F4809382
:101080002104B9E08B9FC0011124B70183509C4F0C
:101090000E94520CB0CE80E0ACCFCF93DF93CDB79F
:1010A000DEB72B970FB6F894DEBF0FBECDBF82E040
:1010B000E82EF12C8EEC91E00E94CC0487E00E9497
:1010C000CC018C016EED71E082E294E00E94C505D6
:1010D000C8010E94B604FA82E9821C830B83CE0108
:1010E00001960E949D0683EF91E00E94CC040E942D
:1010F000F10DE0CFCF93DF93CDB7DEB72B970FB6CF
:10110000F894DEBF0FBECDBF80E4B82E01E010E042
:1011100088E092E00E94CC04B0927C0080917A003A
:10112000806480937A0080917A0086FDFCCF809164
:10113000780060917900762F682F072E000C880BBD
:10114000990B0E94B6186B017C01C0929003D0925B
:101150009103E0929203F092930320E030E0A90122
:101160000E94AF18882309F44FC020E030E040EA25
:101170005BE3C701B6010E9415199B01AC0160E059
:1011800070E08AE793E40E94771A20E030E048E4B8
:1011900052E40E940A1A6B017C0168E172E082E26B
:1011A00094E00E94C5054091900350919103609195
:1011B00092037091930322E082E294E00E94DF04A4
:1011C0006BE272E082E294E00E94C50522E0B70182
:1011D000A60182E294E00E94DF0464E271E082E210
:1011E00094E00E9429041A830983CB82DC82ED8279
:1011F000FE82CE0101960E949D0683E392E00E944A
:10120000CC040E94F10D84CFC12CD12C7601C5CF26
:10121000CF93DF93CDB7DEB72B970FB6F894DEBF31
:101220000FBECDBF60E080E00E94660381E00E94B7
:1012300060038BE39FE10197F1F788E492E00E945D
:10124000CC044FEF5FEFBE016F5F7F4F809194033F
:10125000909195030E9448118130B1F568E572E0E4
:1012600082E294E00E94C50589819A81009779F510
:101270008AE692E00E94CC046EE672E08FEB94E086
:101280000E94C50560E08AE00E9466034C815D8192
:101290006E817F818FEB94E00E94840461E080E0A6
:1012A0000E94660368E772E08FEB94E00E94C50538
:1012B00061E08EE00E946603488559856A857B85DA
:1012C0008FEB94E00E9484040E94F10DB6CF019749
:1012D000D9F786E892E00E94CC0462E080E00E94A8
:1012E00066036DE272E08FEB94E00E94C50562E058
:1012F00086E00E9466034B815C816D817E8122E0E5
:101300008FEB94E00E94DF04DFCFCF93DF93CDB764
:10131000DEB764970FB6F894DEBF0FBECDBF2224B0
:101320002394312C8AE892E00E94CC041C861D860E
:101330001E861F86188A61E086E00E94230260E014
:1013400086E00E94F50162E170E080E090E00E949A
:10135000790261E086E00E94F5018BE990E0019757
:10136000F1F760E086E00E94230201E117E286E0E7
:101370000E94CC01892B81F401501109C1F70EEFB5
:101380001FEF6AE972E082E294E00E94C505C8019D
:101390000E94B60480E07BC001E117E286E00E9473
:1013A000CC01019721F401501109C1F7E8CF08E2FF
:1013B00010E037E0D32EC12C21E1E22E27E2F22EFD
:1013C00086E00E94CC01892B29F421E0E21AF10881
:1013D000B9F7D5CF0E9454022B013C0191E1E92ECF
:1013E00097E2F92E86E00E94CC01019729F431E0C2
:1013F000E31AF108B9F7C3CF0E94540264197509C2
:1014000086099709693271058105910578F0ECE04C
:10141000F0E0EC0FFD1FEC0DF11D808191010D2C12
:1014200001C0220F0A94EAF7822B8083D1104BC0AF
:10143000C39487E0D82E0150110909F0BDCF8C85E7
:10144000282F30E030938D0320938C039E85292F25
:1014500030E030938F0320938E03382F390F288983
:101460000FEF1FEF32138DCF292F30E050E040E017
:10147000298B3A8B4B8B5C8B882E912CB12CA12C19
:1014800064E670E080E090E00E94790281E01A82D8
:1014900019828B8329893A894B895C892C833D8306
:1014A0004E835F8388869986AA86BB86882341F00F
:1014B000CE0101960E949D0685EB92E00E94CC042D
:1014C0000E94F10D2FCFDA94B6CF0F931F93CF93D5
:1014D000DF9300D000D000D0CDB7DEB7E09132046A
:1014E000F091330482E08083E0912E04F0912F0488
:1014F0001082E0913004F09131048FEC80831092DF
:101500003A04E0913604F091370486E08083E0915C
:101510003404F0913504808180618083E09134044B
:10152000F0913504808188608083E0913404F091EB
:101530003504808180688083E0913404F091350423
:1015400080818F7D808384E00E94750367ED72E067
:101550008FEB94E00E94C50560E087E00E942302C3
:1015600060E081E00E94FC148C01009761F0FC01B6
:101570001582148211821082168250E040E070E0E1
:1015800060E00E94D50F1093970300939603012B00
:1015900021F485EE92E00E94CC0480E093E00E946A
:1015A000CC046BE082E00E94FC149093950380933E
:1015B0009403892B21F485E193E00E94CC0480E31D
:1015C00093E00E94CC0410E000E023E048EC50E0FF
:1015D0006FE472E088E099E00E944415182F65E4FA
:1015E00073E0CE0101960E942106612FCE01019683
:1015F0000E94FF05CE0101960E94210410E000E048
:1016000023E048EC50E069E473E085E899E00E944B
:101610004415182F64E573E0CE0101960E9421065F
:10162000612FCE0101960E94FF05CE0101960E9416
:10163000210410E000E023E048EC50E06AE573E0AC
:101640008DE498E00E944415182F68E673E0CE01FF
:1016500001960E942106612FCE0101960E94FF058E
:10166000CE0101960E94210410E000E023E048EC46
:1016700050E06FE072E08AE798E00E944415182F6E
:1016800066E872E0CE0101960E942106612FCE012C
:1016900001960E94FF05CE0101960E9421040E943E
:1016A0004F160E94C7058DE693E00E94CC04269653
:1016B0000FB6F894DEBF0FBECDBFDF91CF911F9163
:1016C0000F9108951F920F920FB60F9211242F932E
:1016D0003F934F935F936F937F938F939F93AF93BA
:1016E000BF93EF93FF9382E294E00E941401FF9175
:1016F000EF91BF91AF919F918F917F916F915F918A
:101700004F913F912F910F900FBE0F901F90189502
:101710001F920F920FB60F9211242F938F939F93C6
:10172000EF93FF93E0913204F09133048081E091D4
:101730003804F091390482FD1BC0908180913B04F4
:101740008F5F8F7320913C04821741F0E0913B043E
:10175000F0E0EE5DFB4F958F80933B04FF91EF919E
:101760009F918F912F910F900FBE0F901F90189502
:101770008081F4CF1F920F920FB60F9211242F93F6
:101780003F938F939F93AF93BF938091BB039091AF
:10179000BC03A091BD03B091BE033091BA0323E016
:1017A000230F2D3758F50196A11DB11D2093BA03C3
:1017B0008093BB039093BC03A093BD03B093BE037F
:1017C0008091BF039091C003A091C103B091C20367
:1017D0000196A11DB11D8093BF039093C003A093F8
:1017E000C103B093C203BF91AF919F918F913F917D
:1017F0002F910F900FBE0F901F90189526E8230F82
:101800000296A11DB11DD2CFFC01DB010FB6F894E9
:101810000F924091FA035091FB032D913C91119747
:101820002F3F3207E1F0818192816091FC0370814A
:10183000761719F048175907C0F4481B590B42177F
:10184000530788F4241B350B2D933C938091FC03A4
:1018500080838091FA039091FB039283818380E0DF
:101860000F900FBE08951D921C9281E0F9CF0FB624
:10187000F8940F928091FA039091FB030F900FBEA2
:1018800008958091C3038F5F8093C30308950FB6BB
:10189000F8940F92FC01928D0F900FBE81E0911190
:1018A00080E00895CF93DF939C01FB01DC0111964A
:1018B000CD91DC91D383C2838C819D819583848378
:1018C0008C819D81DC0113967C936E9312977D83AE
:1018D0006C8331872087F90180818F5F8083DF915E
:1018E000CF910895CF93DF93FC01A085B1858281CC
:1018F000938124813581EC013D832C83C481D58182
:101900009B838A8311968D919C9112978E179F07C6
:1019100021F41296DC93CE931197118610868C9148
:1019200081508C938C91DF91CF9108950F931F93E9
:10193000CF93DF93DC011596ED91FC91C681D781A1
:101940008E01045F1F4FC8010E94720C8091C30377
:10195000811125C00A501109C8010E94720C8E899C
:1019600090912104981710F480932104B9E08B9F83
:10197000C0011124B80183509C4F0E94520CE09189
:101980008A03F0918B039E898689891760F481E030
:101990008093B003DF91CF911F910F910895B8010B
:1019A0008CED93E0EACF80E0F5CFEF92FF920F93BA
:1019B0001F93CF93DF93EC010FB6F8940F921E8D17
:1019C0007C0181E1E80EF11C01E01116D4F08FEFEB
:1019D0008E8F0F900FBE0FB6F8940F921D8D7E0163
:1019E00088E0E80EF11C01E01116B4F08FEF8D8F46
:1019F0000F900FBEDF91CF911F910F91FF90EF904D
:101A000008958989882319F3C7010E94960C8111D2
:101A10000093B0031150D9CF8885882339F3C701CB
:101A20000E94960C81110093B0031150DDCF0F93EB
:101A30001F93CF93DF938C01FB0180819181D801AB
:101A400013968F3F9807F1F4E801AF81B88512969D
:101A50008D919C91139793838283EC01FD83EC839A
:101A6000B583A4831396FC93EE9312971187008796
:101A7000F80180818F5F8083DF91CF911F910F915B
:101A80000895D90112962D913C911397E90148814F
:101A9000598184179507A8F7DACFFC017383628315
:101AA000918780874617570790F0421B530B848518
:101AB000958548175907C8F4BF016E5F7F4F809125
:101AC000B6039091B7030E94170D80E00895421766
:101AD000530718F46217730740F4BF016E5F7F4F1E
:101AE0008091B8039091B903EECF81E00895FF9201
:101AF0000F931F93CF93DF93EC01F62E0091FA031F
:101B00001091FB0380918A0390918B0302960E94AF
:101B1000720CCF3FDC0789F4FF2079F060918A03D3
:101B200070918B036E5F7F4F8AEC93E0DF91CF91D2
:101B30001F910F91FF900C94520CC00FD11FE09198
:101B40008A03F0918B03D383C28360918A037091DF
:101B50008B03C017D10768F48091C6039091C70327
:101B60006E5F7F4FDF91CF911F910F91FF900C948B
:101B7000170D8091C8039091C9036E5F7F4F0E943B
:101B8000170D8091B2039091B303C817D90720F4C1
:101B9000D093B303C093B203DF91CF911F910F9104
:101BA000FF900895CF93DF93EB0160918A037091CA
:101BB0008B03645F7F4F0E94170D61E0CE01DF91C0
:101BC000CF910C94770DFC010396928381832FEFC4
:101BD0003FEF3483238396838583908787831082A6
:101BE00008950F920FB6F8940F921F9211242F921E
:101BF0003F924F925F926F927F928F929F92AF929D
:101C0000BF92CF92DF92EF92FF920F931F932F9389
:101C10003F934F935F936F937F938F939F93AF9374
:101C2000BF93CF93DF93EF93FF93A0918A03B0917B
:101C30008B030DB60D920EB60D928091C3038823CF
:101C400021F081E08093B0035FC01092B003A091B7
:101C50008A03B0918B03E0918A03F0918B032D915D
:101C60003C918789908D82179307A8F080918A0311
:101C700090918B0380918A0390918B03259A2D9AE2
:101C80002FEF87EA91E6215080409040E1F700C0B5
:101C900000001D9AF5CF2091210489E001C0215058
:101CA000422F50E0849FF001859FF00D1124E350F6
:101CB000FC4F9081992399F3A181B28112960D90E6
:101CC000BC91A02DB283A183289FC0011124805014
:101CD0009C4FA817B90729F412968D919C91928375
:101CE000818389E0849FF001859FF00D1124E350EA
:101CF000FC4F0180F281E02D8681978190938B03C8
:101D000080938A0320932104A0918A03B0918B03CE
:101D1000CD91CDBFDD91DEBFFF91EF91DF91CF91EE
:101D2000BF91AF919F918F917F916F915F914F91F3
:101D30003F912F911F910F91FF90EF90DF90CF90E7
:101D4000BF90AF909F908F907F906F905F904F90DB
:101D50003F902F901F900F900FBE0F9008957F928D
:101D60008F929F92AF92BF92CF92DF92EF92FF92AB
:101D70000F931F93CF93DF930FB6F8940F92809138
:101D8000C30381508093C3038091C303882389F0E8
:101D900080E00F900FBEDF91CF911F910F91FF90C8
:101DA000EF90DF90CF90BF90AF909F908F907F90FB
:101DB00008958091F903882359F3D0E0C0E029E029
:101DC000F22EEE24E39429C0E091E103F091E203C6
:101DD000C681D781CE010C960E94720C8E010E5FD7
:101DE0001F4FC8010E94720C8E8990912104981790
:101DF00010F4809321048F9DC0011124B8018350F9
:101E00009C4F0E94520CE0918A03F0918B039E89B3
:101E10008689981710F0E092B0038091DC0381115D
:101E2000D3CFCD2B11F00E94AF02E090AE03F09023
:101E3000AF03E114F10409F4AFC089E0A82E7724C0
:101E40007394CC24CA94DC2C8091C303811192C07A
:101E5000C091FA03D091FB032196D093FB03C0936A
:101E6000FA032097B9F48091C8039091C903209197
:101E7000C6033091C7033093C9032093C8039093DE
:101E8000C7038093C6038091FC038F5F8093FC039C
:101E90000E94AF028091B2039091B303B12CC81796
:101EA000D90708F05BC0E0918A03F0918B03E689C3
:101EB000AE9EF0011124E350FC4F8081823010F07F
:101EC000BB24B3948091B003811103C0BB2009F4FB
:101ED0005AC07092B00357C0E091C803F091C90393
:101EE0000580F681E02D06811781D80112968D912B
:101EF0009C91C817D90728F49093B3038093B20339
:101F0000D2CF4801B2E08B0E911CC4010E94720C2A
:101F1000F80184899589892B21F0C8010C960E94CB
:101F2000720CD80156968C9190912104981710F458
:101F3000809321048A9DC0011124B40183509C4FD9
:101F40000E94520CE0918A03F0918B03D8015696BF
:101F50009C918689981710F0BB24B394E091C80334
:101F6000F091C90380818111B7CFD092B303C092A1
:101F7000B20399CF8091AE039091AF0301969093F5
:101F8000AF038093AE03B1E0EB1AF10809F05CCF28
:101F90001092AF031092AE038091B003882309F42E
:101FA000F7CE0E94F10D81E0F4CEAF92BF92DF92A6
:101FB000EF92FF920F931F93CF93DF9300D000D047
:101FC0001F92CDB7DEB78C017B015D834C8380E02F
:101FD000580128E0A20EB11C0FB6F8940F92F80138
:101FE000228D938D291708F077C0D28C448D411132
:101FF00059C080819181892B11F080E009C0E48073
:10200000F580E114F10419F580E0F80115821482DD
:10201000D394F801D28E9189992321F0C801419679
:102020000E94960C81110E94F10D0F900FBE81E06D
:102030000F900F900F900F900F90DF91CF911F9105
:102040000F91FF90EF90DF90BF90AF900895F70150
:1020500082A1815082A3268991A12917A9F2811119
:10206000D3CF5701F2E0AF0EB11CC5010E94720C34
:10207000F70181A1868B24E030E0281B31093587E8
:10208000248790912104981710F480932104F9E09B
:102090008F9FC0011124B50183509C4F0E94520CA8
:1020A00081E0B3CF50E0B701828193810E94071C89
:1020B000F801848D22813381820F932F911D9383A8
:1020C0008283248135818217930708F496CF80811B
:1020D00091819383828391CF2C813D81232B21F4A5
:1020E0000F900FBE80E0A4CF811109C08091FC0346
:1020F00089838091FA039091FB039B838A830F90DD
:102100000FBE0E94410C0FB6F8940F92F801858D16
:102110008F3F09F4158EF801868D8F3F09F4168ED6
:102120000F900FBEBE016C5F7F4FCE0101960E94E3
:10213000040C811120C00FB6F8940F92F801928D13
:10214000838D0F900FBE981310C06C817D81C501E7
:102150000E94D20DC8010E94D50C0E94AF0E8111C1
:1021600002C00E94F10D81E037CFC8010E94D50C5A
:102170000E94AF0EF8CFC8010E94D50C0E94AF0E8E
:10218000B1CFCF93DF9300D000D01F92CDB7DEB791
:102190009C018091C4039091C5030097C9F01982F6
:1021A0007B836A833D832C832091F80350E040E0D9
:1021B000BE016F5F7F4F21112091C3030E94D50F95
:1021C0000F900F900F900F900F90DF91CF91089587
:1021D00080E0F6CFEF92FF920F931F93CF93DF93A0
:1021E000E091B803F091B9038081811113C080910F
:1021F000B6039091B7039093B9038093B803F0931B
:10220000B703E093B603DF91CF911F910F91FF9039
:10221000EF9008950580F681E02D00811181C6813F
:10222000D7817E0182E0E80EF11CC7010E94720C8A
:10223000E889F989CE0109958A8982FFD1CF8C85F9
:102240009D85800F911F0817190760F49B838A836F
:10225000D987C887B7018091B8039091B9030E94CC
:10226000170DBECFB801CE010E94C110B9CFCF93D8
:10227000DF93009751F0EC010E94410CCE010E94C7
:102280002618DF91CF910C94AF0EDF91CF91089576
:10229000AF92BF92CF92DF92FF920F931F93CF9393
:1022A000DF9300D000D01F92CDB7DEB78C016B0159
:1022B0005D834C8380E0580191E1A90EB11C0FB6FB
:1022C000F8940F92F801F28CFF20C1F1448D442361
:1022D000B1F050E086819781840F951F97838683A4
:1022E000248135818217930720F080819181978323
:1022F0008683F80166817781C6010E94071CFA94E3
:10230000F801F28E8085882339F0C80108960E9472
:10231000960C81110E94F10D0F900FBE81E00F907D
:102320000F900F900F900F90DF91CF911F910F9111
:10233000FF90DF90CF90BF90AF9008952C813D81AA
:10234000232B21F40F900FBE80E0E9CF811109C04B
:102350008091FC0389838091FA039091FB039B8316
:102360008A830F900FBE0E94410C0FB6F8940F9213
:10237000F801858D8F3F09F4158EF801868D8F3F0A
:1023800009F4168E0F900FBEBE016C5F7F4FCE0119
:1023900001960E94040C81111BC0C8010E94470CC9
:1023A000882381F06C817D81C5010E94D20DC80116
:1023B0000E94D50C0E94AF0E811102C00E94F10D47
:1023C00081E07DCFC8010E94D50C0E94AF0EF8CFEE
:1023D000C8010E94D50C0E94AF0EC8010E94470C94
:1023E000882371F3B1CFCF93DF9300D000D01F9239
:1023F000CDB7DEB7E091B803F091B903F08010E0FB
:1024000000E0FF2029F00580F681E02D0081118198
:102410000E94410C0E94370C6C018091B403909192
:10242000B503C816D90608F04BC00E94EA10D09236
:10243000B503C092B4030E94AF0E50E040E0BE016D
:102440006F5F7F4F8091C4039091C5030E94481134
:10245000882381F2898187FDF0CF0C811D81D8010D
:102460001A968D919C91892B21F0C80102960E94A9
:10247000720C0E94370C7C018091B4039091B503DB
:10248000E816F90610F40E94EA10F092B503E09203
:10249000B403E981EA3088F60E2E000CFF0BEA5AED
:1024A000FD4ED80152968C910C94441BDA12DA122C
:1024B000DA121313FE120D13DA12DA121313FE12CC
:1024C000D092B503C092B403FF2099F1C016D10693
:1024D000C0F10E94AF0EE091B803F091B9030580FE
:1024E000F681E02DE680F780C70102960E94720C0B
:1024F000D70152968C91529782FF17C01C966D910E
:102500007C91600F711F9801A601C7010E944D0DBB
:10251000882321F0B801C7010E94C110D70150964D
:10252000ED91FC91C701099588CF8E7FF701828BD1
:10253000F5CFE091B603F091B7038081BB24B3944B
:102540008111B12CE090C403F090C5030FB6F8944C
:102550000F92F701858D8F3F09F4158ED7015E9696
:102560008C915E978F3F11F45E961C920F900FBE78
:10257000F701828D811114C060918A0370918B03E1
:10258000645F7F4FC70141960E94520CC8018C19AD
:102590009D09BB2011F08FEF9FEF6B2D0E94770DEF
:1025A000C7010E94D50C0E94AF0E811146CF0E9438
:1025B000F10D43CF8160F801828B2A813B816485D4
:1025C0007585620F731FA701C8010E944D0D8823F6
:1025D00009F433CFD8015096ED91FC91C8010995CB
:1025E000F801828982FF29CF6A817B818485958564
:1025F000680F791FC8010E94C1101FCF8160F801C8
:10260000828B6A817B81758764876E0D7F1D970140
:10261000A701C8010E944D0D10CF81FD04C0C80163
:102620000E9437110ACF8E7FD80152968C9305CF26
:102630000F920FB6F8940F921F9211242F923F928F
:102640004F925F926F927F928F929F92AF92BF92C2
:10265000CF92DF92EF92FF920F931F932F933F93AE
:102660004F935F936F937F938F939F93AF93BF939A
:10267000CF93DF93EF93FF93A0918A03B0918B03E5
:102680000DB60D920EB60D9213BE8091C30381114B
:10269000F6C08091FA039091FB0301969093FB039F
:1026A0008093FA03009799F52091C8033091C903EC
:1026B0004091C6035091C7035093C9034093C80388
:1026C0003093C7032093C6032091FC032F5F209310
:1026D000FC03E091C803F091C9032081211107C0D8
:1026E0002FEF3FEF3093B3032093B20310C0E0917C
:1026F000C803F091C9030580F681E02D0680F781BB
:10270000E02D228133813093B3032093B2032091D3
:10271000B2033091B3038217930710F420E09BC0FB
:1027200020E019E0E091C803F091C9033081311134
:1027300007C08FEF9FEF9093B3038093B2038BC0DA
:10274000E091C803F091C9030580F681E02D068071
:10275000F781E02D428153818417950728F4509327
:10276000B3034093B20377C0AF014E5F5F4FA285C2
:10277000B38564817581E680F780EB01FD82EC8290
:10278000C681D7817B836A8311966D917C91129764
:102790004617570721F41296DC93CE9311971386B0
:1027A00012863C9131503C933C91A489B589109795
:1027B000F9F066857785E088F188EB01FD82EC828F
:1027C000C089D1897B836A831196ED90FC90129722
:1027D000BF01645F7F4FE616F70621F41296DC9383
:1027E000CE931197158A148A3C9131503C933C91B9
:1027F000A689309121043A1710F4A09321041A9F5E
:10280000D0011124BD0163507C4F7B01DB01119687
:10281000CD91DC91D583C4836C817D817783668380
:102820006C817D81DB0113965C934E9312975D83DF
:102830004C83F386E286E70138813F5F3883A091BD
:102840008A03B0918B03468956963C91431708F44E
:1028500069CF21E067CFE0918A03F0918B03E6898D
:10286000D9E0ED9FF0011124E350FC4F80818230CC
:1028700008F021E08091B00381110EC00AC0809160
:10288000AE039091AF0301969093AF038093AE0394
:102890006AC0222309F467C08091C303882321F012
:1028A00081E08093B0035FC01092B003A0918A03CF
:1028B000B0918B03E0918A03F0918B032D913C91B1
:1028C0008789908D82179307A8F080918A03909151
:1028D0008B0380918A0390918B03259A2D9A2FEF79
:1028E00067EA71E6215060407040E1F700C00000E7
:1028F0001D9AF5CF2091210489E001C02150422F7B
:1029000050E0849FF001859FF00D1124E350FC4FAF
:102910009081992399F3A181B28112960D90BC9177
:10292000A02DB283A183289FC001112480509C4F09
:10293000A817B90729F412968D919C9192838183EF
:1029400089E0849FF001859FF00D1124E350FC4F36
:102950000180F281E02D8681978190938B03809393
:102960008A0320932104A0918A03B0918B03CD9117
:10297000CDBFDD91DEBFFF91EF91DF91CF91BF9190
:10298000AF919F918F917F916F915F914F913F9107
:102990002F911F910F91FF90EF90DF90CF90BF90FC
:1029A000AF909F908F907F906F905F904F903F90EF
:1029B0002F901F900F900FBE0F900895CF93DF932D
:1029C000EC010E94410CCE010E948A17EC010E948A
:1029D000AF0E209769F4259A2D9A2FEF80E792E0A9
:1029E000215080409040E1F700C000001D9AF5CFD3
:1029F000CE01DF91CF9108950F931F93CF93DF9373
:102A0000082F162F869FC00111244F960E94DE14B6
:102A1000EC01009779F1111133C0998388830B8FF2
:102A20001C8F0FB6F8940F92888199812B8D4C8D55
:102A3000BC01249F600D711D11247D836C831A8E4F
:102A40009B838A832150330B429FB001439F700DBB
:102A50001124860F971F9F838E838FEF8D8F8E8F0C
:102A6000CE0108960E94E30DCE0141960E94E30D2F
:102A70000F900FBECE01DF91CF911F910F9108955E
:102A80004F9699838883CBCF7F928F929F92AF92FC
:102A9000BF92CF92DF92EF92FF920F931F93CF934B
:102AA000DF93982EA92E762E872E7A01B22ECA0198
:102AB0000E94DE146C01892B09F4D0C088E290E0FA
:102AC0000E94DE14EC01892B09F4C5C0D88ECF8A90
:102AD000A70165EA70E0C6010E94101C21E0E21A1D
:102AE000F108EF89F88DEE0DFF1D672D782DCE01D1
:102AF00049969B01285F3F4FDB014D91BD01DC01F1
:102B00004D93CD01AB0141505109DA014C91442361
:102B100019F06217730781F718A2BE8AB9A21AA228
:102B20001B861A861D8A1C8AD987C88784E090E094
:102B30008B1991099D878C87DB8BCA8B1BA21CA2EA
:102B40001DA21EA21FA29082DF011197AC921197C5
:102B50001C92119780E88C9311971C9257971C92A6
:102B600011971C92B397F983E8830115110519F0A9
:102B7000F801D183C0830FB6F8940F928091F903C6
:102B80008F5F8093F90380918A0390918B03892B47
:102B900009F073C0D0938B03C0938A038091F9032B
:102BA000813081F58DEF93E00E94E30D86E094E0A3
:102BB0000E94E30D8FE094E00E94E30D88E194E031
:102BC0000E94E30D8EEE93E00E94E30D85EE93E00C
:102BD0000E94E30D8CED93E00E94E30D83ED93E002
:102BE0000E94E30D8AEC93E00E94E30D8EEE93E0E9
:102BF0009093C9038093C80385EE93E09093C70335
:102C00008093C6038091F7038F5F8093F7038E89CB
:102C100090912104981710F480932104F9E08F9F7C
:102C2000C0011124BE016E5F7F4F83509C4F0E94F4
:102C3000520C0F900FBE8091F803882351F0E09161
:102C40008A03F0918B0396898E89981710F40E945D
:102C5000F10D81E004C0C6010E9437118FEFDF91B2
:102C6000CF911F910F91FF90EF90DF90CF90BF9089
:102C7000AF909F908F907F9008958091F80381117D
:102C8000C1CFE0918A03F0918B039E8986899817C2
:102C900008F4B8CFD0938B03C0938A03B3CF0F93BC
:102CA0001F930CEA13E020E040EC50E06AEC72E085
:102CB0008AE696E00E944415813009F07FC00FB685
:102CC000F8940F928091C4039091C503892BE1F48D
:102CD00081EA93E00E94E30D88E993E00E94E30D0E
:102CE00081EA93E09093B9038093B80388E993E075
:102CF0009093B7038093B60365E08AE00E94FC14CA
:102D00009093C5038093C4030F900FBE8091C403BA
:102D10009091C503892B09F451C00AEA13E023E01E
:102D200045E550E06FEC72E083EF91E10E944415BD
:102D3000813009F043C0F8942FEF3FEF3093B30395
:102D40002093B2038093F8031092FB031092FA03CE
:102D5000A89588E190EC0FB6F894A8958093600050
:102D60000FBE90936000A0918A03B0918B03CD9128
:102D7000CDBFDD91DEBFFF91EF91DF91CF91BF918C
:102D8000AF919F918F917F916F915F914F913F9103
:102D90002F911F910F91FF90EF90DF90CF90BF90F8
:102DA000AF909F908F907F906F905F904F903F90EB
:102DB0002F901F900F900FBE0F9008951F910F91AD
:102DC00008950E9418131895E2E2F4E0138212822B
:102DD00088EE93E0A0E0B0E084839583A683B78378
:102DE0008AE091E09183808385EC90E095878487E9
:102DF00084EC90E09787868780EC90E0918B808BC5
:102E000081EC90E0938B828B82EC90E0958B848BAD
:102E100086EC90E0978B868B118E128E138E148E1B
:102E2000EFEBF4E0138212828CE191E091838083D6
:102E30008CE084838FEF85838BE0868385E08783B6
:102E400084E0808783E0818782E08287138614860E
:102E500015861686178681E00C947503789484B5E0
:102E6000826084BD84B5816084BD85B5826085BD86
:102E700085B5816085BD80916E00816080936E0014
:102E80001092810080918100826080938100809106
:102E900081008160809381008091800081608093B7
:102EA00080008091B10084608093B1008091B00077
:102EB00081608093B00080917A00846080937A0072
:102EC00080917A00826080937A0080917A0081609C
:102ED00080937A0080917A00806880937A001092C3
:102EE000C10020910401309105018FEF98E0821B11
:102EF000930B90930101809300010E94650A0E9448
:102F00004F160E94650AC0E0D0E02097F1F30E94BE
:102F10000701FBCF0F931F93CF93DF93823091056F
:102F200010F482E090E0E091D904F091DA0430E00E
:102F300020E0B0E0A0E0309799F42115310509F4C4
:102F40004AC0281B390B24303105D8F58A819B8172
:102F50006115710589F1FB0193838283FE0111C024
:102F6000408151810281138148175907E0F04817C9
:102F7000590799F4109761F012960C9312971396D3
:102F80001C933296CF01DF91CF911F910F9108953D
:102F90000093D9041093DA04F4CF2115310551F0D0
:102FA0004217530738F0A901DB019A01BD01DF0187
:102FB000F801C1CFEF01F9CF9093DA048093D904DF
:102FC000CDCFFE01E20FF31F81939193225031097F
:102FD00039832883D7CF2091D7043091D804232B6D
:102FE00041F420910201309103013093D8042093E1
:102FF000D70420910001309101012115310541F4E0
:103000002DB73EB74091040150910501241B350BAB
:10301000E091D704F091D804E217F307A0F42E1B37
:103020003F0B2817390778F0AC014E5F5F4F24172C
:10303000350748F04E0F5F1F5093D8044093D704D4
:10304000819391939FCFF0E0E0E09CCFCF93DF930B
:103050000097E9F0FC01329713821282A091D90403
:10306000B091DA04ED0130E020E01097A1F4208166
:103070003181820F931F2091D7043091D8042817F3
:10308000390709F061C0F093D804E093D704DF91C9
:10309000CF910895EA01CE17DF07E8F54A815B81F9
:1030A0009E0141155105B1F7E901FB83EA8349917E
:1030B0005991C40FD51FEC17FD0761F480819181F0
:1030C0000296840F951FE9019983888382819381F9
:1030D0009B838A83F0E0E0E012968D919C91139798
:1030E0000097B9F52D913C911197CD010296820F71
:1030F000931F2091D7043091D8042817390739F647
:10310000309751F51092DA041092D904B093D80494
:10311000A093D704BCCFD383C28340815181840F55
:10312000951FC817D90761F44E5F5F4F8881998159
:10313000480F591F518340838A819B8193838283E7
:103140002115310509F0B0CFF093DA04E093D904EA
:103150009ECFFD01DC01C0CF13821282D7CF0E9427
:10316000F11808F481E00895E89409C097FB3EF453
:1031700090958095709561957F4F8F4F9F4F9923C4
:10318000A9F0F92F96E9BB279395F6958795779542
:103190006795B795F111F8CFFAF4BB0F11F460FF02
:1031A0001BC06F5F7F4F8F4F9F4F16C0882311F05A
:1031B00096E911C0772321F09EE8872F762F05C06E
:1031C000662371F096E8862F70E060E02AF09A9509
:1031D000660F771F881FDAF7880F9695879597F9FE
:1031E0000895990F0008550FAA0BE0E8FEEF161698
:1031F0001706E807F907C0F012161306E407F507EB
:1032000098F0621B730B840B950B39F40A2661F05E
:10321000232B242B252B21F408950A2609F4A14001
:10322000A6958FEF811D811D08950E9428190C9489
:1032300099190E948B1938F00E94921920F0952359
:1032400011F00C9482190C94881911240C94CD1946
:103250000E94AA1970F3959FC1F3950F50E0551F76
:10326000629FF001729FBB27F00DB11D639FAA27DB
:10327000F00DB11DAA1F649F6627B00DA11D661F2A
:10328000829F2227B00DA11D621F739FB00DA11D4B
:10329000621F839FA00D611D221F749F3327A00D05
:1032A000611D231F849F600D211D822F762F6A2FA1
:1032B00011249F5750409AF0F1F088234AF0EE0F06
:1032C000FF1FBB1F661F771F881F91505040A9F733
:1032D0009E3F510580F00C9482190C94CD195F3FEC
:1032E000E4F3983ED4F3869577956795B795F7956F
:1032F000E7959F5FC1F7FE2B880F911D96958795E7
:1033000097F9089597F99F6780E870E060E0089565
:103310009FEF80EC089500240A94161617061806ED
:103320000906089500240A941216130614060506C9
:103330000895092E0394000C11F4882352F0BB0F5A
:1033400040F4BF2B11F460FF04C06F5F7F4F8F4FBD
:103350009F4F089557FD9058440F551F59F05F3FF8
:1033600071F04795880F97FB991F61F09F3F79F0A7
:1033700087950895121613061406551FF2CF469529
:10338000F1DF08C0161617061806991FF1CF8695AB
:103390007105610508940895E894BB27662777278F
:1033A000CB0197F908952F923F924F925F926F92BF
:1033B0007F928F929F92AF92BF92CF92DF92EF92C5
:1033C000FF920F931F93CF93DF93CDB7DEB7CA1B46
:1033D000DB0B0FB6F894DEBF0FBECDBF09942A8871
:1033E000398848885F846E847D848C849B84AA8419
:1033F000B984C884DF80EE80FD800C811B81AA81A6
:10340000B981CE0FD11D0FB6F894DEBF0FBECDBF70
:10341000ED0108955058BB27AA270E94221A0C9448
:1034200099190E948B1938F00E94921920F039F4F2
:103430009F3F19F426F40C9488190EF4E095E7FBED
:103440000C948219E92F0E94AA1958F3BA1762073F
:1034500073078407950720F079F4A6F50C94CC192E
:103460000EF4E0950B2EBA2FA02D0B01B90190019F
:103470000C01CA01A0011124FF27591B99F0593FE3
:1034800050F4503E68F11A16F040A22F232F342F2B
:103490004427585FF3CF469537952795A795F04079
:1034A0005395C9F77EF41F16BA0B620B730B840B8E
:1034B000BAF09150A1F0FF0FBB1F661F771F881F46
:1034C000C2F70EC0BA0F621F731F841F48F487959E
:1034D00077956795B795F7959E3F08F0B0CF939590
:1034E000880F08F09927EE0F9795879508950E9409
:1034F0008B1A0C9499190E94921958F00E948B19FA
:1035000040F029F45F3F29F00C94821951110C947A
:10351000CD190C9488190E94AA1968F39923B1F364
:10352000552391F3951B550BBB27AA2762177307E9
:10353000840738F09F5F5F4F220F331F441FAA1F7D
:10354000A9F335D00E2E3AF0E0E832D09150504039
:10355000E695001CCAF72BD0FE2F29D0660F771FE7
:10356000881FBB1F261737074807AB07B0E809F0CD
:10357000BB0B802DBF01FF2793585F4F3AF09E3F52
:10358000510578F00C9482190C94CD195F3FE4F347
:10359000983ED4F3869577956795B795F7959F5F95
:1035A000C9F7880F911D9695879597F90895E1E0E1
:1035B000660F771F881FBB1F621773078407BA0740
:1035C00020F0621B730B840BBA0BEE1F88F7E0959B
:1035D00008950E94B21988F09F5798F0B92F992743
:1035E000B751B0F0E1F0660F771F881F991F1AF0EE
:1035F000BA95C9F714C0B13091F00E94CC19B1E06E
:1036000008950C94CC19672F782F8827B85F39F06C
:10361000B93FCCF3869577956795B395D9F73EF486
:1036200090958095709561957F4F8F4F9F4F08952E
:103630000E94F11808F48FEF08950E94F118880B8A
:10364000990B0895A1E21A2EAA1BBB1BFD010DC008
:10365000AA1FBB1FEE1FFF1FA217B307E407F50742
:1036600020F0A21BB30BE40BF50B661F771F881F1E
:10367000991F1A9469F760957095809590959B01B4
:10368000AC01BD01CF010895EE0FFF1F0590F4912D
:10369000E02D0994B0E0A0E0E0E5FBE10C94D51941
:1036A0008C01009751F4CB010E948A178C01C8014C
:1036B000CDB7DEB7E0E10C94F119FC01E60FF71F7E
:1036C0009C0122503109E217F30708F49DC0D9018B
:1036D000CD91DC911197C617D70798F0C530D10569
:1036E00030F3CE0104978617970708F3C61BD70B54
:1036F0002297C193D1936D937C93CF010E9426189A
:10370000D6CF5B01AC1ABD0A4C018C0E9D1EA09158
:10371000D904B091DA04512C412CF12CE12C1097F2
:1037200031F58091D7049091D8048815990509F056
:103730005CC04616570608F058C080910001909171
:103740000101009741F48DB79EB74091040150915B
:103750000501841B950BE817F90708F055C0F09395
:10376000D804E093D704F90171836083A0CF8D91D1
:103770009C91119712966C90129713967C901397C8
:10378000A815B90559F56C0142E0C40ED11CCA1444
:10379000DB0420F1AC014A195B09DA011296159796
:1037A00080F06282738251834083D9016D937C9350
:1037B000E114F10471F0D7011396FC93EE93129784
:1037C00076CF22968C0F9D1FF90191838083F301A0
:1037D000EFCFF093DA04E093D90469CF4816590685
:1037E00008F42C017D01D3019ACFCB010E948A17E6
:1037F0007C01009749F0AE01B8010E94071CC80186
:103800000E942618870153CF10E000E050CFFB0143
:10381000DC0102C001900D9241505040D8F708954C
:10382000DC0101C06D9341505040E0F70895FB0169
:10383000DC0101900D920020E1F70895F894FFCF8C
:103840000000DB0480000000000036019300C0008F
:103850008301F100CF00E300000000001B0493008F
:10386000AC02AB020D0A006E616E00696E66006FFD
:103870007666005B494E464F5D2066726565206D39
:10388000656D6F72793A20005B494E464F5D20634B
:103890007265617465642000207461736B005B4520
:1038A00052524F525D2043616E27742063726561EE
:1038B0007465205461736B2C206D656D6F72792077
:1038C000616C6C6F636174696F6E206572726F7288
:1038D000005B4552524F525D204372656174652012
:1038E0007461736B20756E6B6E6F776E206572728C
:1038F0006F72005B494E464F5D20547279696E6766
:1039000020746F2073656E642064617461005B498C
:103910004E464F5D204D5139205441534B005B4979
:103920004E464F5D204D51392072656164696E6766
:103930003A20005B494E464F5D204D51392064616D
:1039400074612073656E74005B494E464F5D204C78
:103950004452205441534B005B494E464F5D204C2E
:103960004452207C207261773A20007C206C75786C
:103970003A20005B494E464F5D204C445220646122
:1039800074612073656E74005B494E464F5D204C38
:103990004344205441534B005B494E46305D2072F6
:1039A000656365697665643A20004448540074652F
:1039B0006D702843293A200068756D6964697479CF
:1039C0002825293A20004C4452005B494E464F5D61
:1039D00020444854205441534B005B4552524F52AF
:1039E0005D205265616420646874313120657272B3
:1039F0006F723A20005B494E464F5D204448542088
:103A0000646174612073656E740049444C450054D0
:103A10006D722053766300506C616E742D6D6F6E05
:103A200069746F72005B4552524F525D2043616E64
:103A3000277420637265617465206D757465780004
:103A40005B494E464F5D204D757465782063726505
:103A500061746564005B4552524F525D2043616E54
:103A600027742063726561746520717565756500E2
:103A70005B494E464F5D20517565756520637265E3
:103A800061746564004C434400444854313120540F
:103A900041534B004448543131004D512D3920479A
:103AA0004153205441534B004D512D39005B494E39
:103AB000464F5D205461736B207363686564756C59
:0A3AC0006520737461727465640080
:107E0000112484B714BE81FFF0D085E080938100F7
:107E100082E08093C00088E18093C10086E0809377
:107E2000C20080E18093C4008EE0C9D0259A86E02C
:107E300020E33CEF91E0309385002093840096BBD3
:107E4000B09BFECF1D9AA8958150A9F7CC24DD24C4
:107E500088248394B5E0AB2EA1E19A2EF3E0BF2EE7
:107E6000A2D0813461F49FD0082FAFD0023811F036
:107E7000013811F484E001C083E08DD089C08234E0
:107E800011F484E103C0853419F485E0A6D080C0E4
:107E9000853579F488D0E82EFF2485D0082F10E0AE
:107EA000102F00270E291F29000F111F8ED06801E7
:107EB0006FC0863521F484E090D080E0DECF843638
:107EC00009F040C070D06FD0082F6DD080E0C81688
:107ED00080E7D80618F4F601B7BEE895C0E0D1E017
:107EE00062D089930C17E1F7F0E0CF16F0E7DF06D8
:107EF00018F0F601B7BEE89568D007B600FCFDCFD4
:107F0000A601A0E0B1E02C9130E011968C91119780
:107F100090E0982F8827822B932B1296FA010C0160
:107F200087BEE89511244E5F5F4FF1E0A038BF0790
:107F300051F7F601A7BEE89507B600FCFDCF97BE46
:107F4000E89526C08437B1F42ED02DD0F82E2BD052
:107F50003CD0F601EF2C8F010F5F1F4F84911BD097
:107F6000EA94F801C1F70894C11CD11CFA94CF0C13
:107F7000D11C0EC0853739F428D08EE10CD085E9AC
:107F80000AD08FE07ACF813511F488E018D01DD067
:107F900080E101D065CF982F8091C00085FFFCCF94
:107FA0009093C60008958091C00087FFFCCF809118
:107FB000C00084FD01C0A8958091C6000895E0E648
:107FC000F0E098E1908380830895EDDF803219F02E
:107FD00088E0F5DFFFCF84E1DECF1F93182FE3DFCA
:107FE0001150E9F7F2DF1F91089580E0E8DFEE27F6
:047FF000FF270994CA
:027FFE00040479
:0400000300007E007B
:00000001FF
