:100000000C9408010C9430010C9430010C943001D4
:100010000C9430010C9430010C9446150C94300172
:100020000C9430010C9430010C9430010C9430018C
:100030000C9430010C9430010C9430010C9430017C
:100040000C94180A0C9430010C94E6090C94C00925
:100050000C9430010C9430010C9430010C9430015C
:100060000C9430010C9430015B494E464F5D204D9D
:10007000757465782063726561746564200D005B3A
:100080004552524F525D2043616E27742063726562
:10009000617465206D75746578200D005B494E466E
:1000A0004F5D205175657565206372656174656487
:1000B0000D005B4552524F525D2043616E27742004
:1000C000637265617465207175657565200D005BEF
:1000D000494E464F5D205461736B207363686564BD
:1000E000756C652073746172746564200A005B45E9
:1000F00052524F525D205265616420646874313100
:10010000206572726F723A202564200A005B494EA6
:10011000464F5D20547279696E6720746F20736555
:100120006E6420646174610D005B494E464F5D2032
:1001300066726565206D656D6F72793A2025640D74
:10014000005B4552524F525D2043726561746520D9
:100150007461736B20756E6B6E6F776E2065727253
:100160006F72200D005B4552524F525D2043616E0D
:10017000277420637265617465205461736B2C2051
:100180006D656D6F727920616C6C6F636174696FFE
:100190006E206572726F72200D005B494E464F5D96
:1001A0002063726561746564202573207461736BCC
:1001B000200D0000000000240027002A000000009D
:1001C00000250028002B0000000000230026002945
:1001D00000040404040404040402020202020203F0
:1001E00003030303030102040810204080010204FA
:1001F000081020010204081020000000080002017D
:100200000000030407000000000000000000491582
:1002100011241FBECFEFD8E0DEBFCDBF11E0A0E0BC
:10022000B1E0E8E9F9E302C005900D92A03DB10705
:10023000D9F723E0A0EDB1E001C01D92AB31B207C8
:10024000E1F711E0C8E0D1E004C02197FE010E946F
:100250004619C730D107C9F70E9493150C94CA1CE0
:100260000C940000AF92BF92CF92DF92EF92FF9278
:100270000F931F93CF93DF936C017B018B01040FCE
:10028000151FEB015E01AE18BF08C017D10759F06A
:100290006991D601ED91FC910190F081E02DC601AC
:1002A0000995892B79F7C501DF91CF911F910F91A6
:1002B000FF90EF90DF90CF90BF90AF900895FC013A
:1002C000538D448D252F30E0842F90E0821B930BBB
:1002D000541710F0CF96089501970895FC01918D61
:1002E000828D981761F0A28DAE0FBF2FB11D5D9664
:1002F0008C91928D9F5F9F73928F90E008958FEF06
:100300009FEF0895FC01918D828D981731F0828DB9
:10031000E80FF11D858D90E008958FEF9FEF089510
:10032000FC01918D228D892F90E0805C9F4F821B74
:1003300091098F739927089582E692E00E949001B7
:1003400021E0892B09F420E0822F08950E949C016E
:1003500081110C940000089580E090E0892B11F049
:100360000C94A6010895FC01A48DA80FB92FB11D0E
:10037000A35ABF4F2C91848D90E001968F739927DB
:10038000848FA689B7892C93A089B1898C918370B9
:1003900080648C93938D848D981306C00288F389B2
:1003A000E02D80818F7D80830895EF92FF920F93DF
:1003B0001F93CF93DF93EC0181E0888F9B8D8C8D11
:1003C00098131AC0E889F989808185FF15C09FB705
:1003D000F894EE89FF896083E889F98980818370C8
:1003E000806480839FBF81E090E0DF91CF911F9177
:1003F0000F91FF90EF900895F62E0B8D10E00F5F98
:100400001F4F0F731127E02E8C8D8E110CC00FB66D
:1004100007FCFACFE889F989808185FFF5CFCE0105
:100420000E94B301F1CFEB8DEC0FFD2FF11DE35ACC
:10043000FF4FF0829FB7F8940B8FEA89FB89808188
:100440008062CFCFCF93DF93EC01888D8823B9F002
:10045000AA89BB89E889F9898C9185FD03C08081CF
:1004600086FD0DC00FB607FCF7CF8C9185FFF2CF4C
:10047000808185FFEDCFCE010E94B301E9CFDF91EE
:10048000CF910895833081F028F4813099F0823043
:10049000A9F008958730A9F08830C9F08430B1F40C
:1004A000809180008F7D03C0809180008F77809342
:1004B0008000089584B58F7784BD089584B58F7DBD
:1004C000FBCF8091B0008F778093B000089580912A
:1004D000B0008F7DF9CFCF93DF93282F30E0F90163
:1004E000E750FE4F8491F901EB51FE4FD491F90191
:1004F000EF52FE4FC491CC23A1F081110E94420221
:10050000EC2FF0E0EE0FFF1FE953FE4FA591B491E1
:10051000EC91ED2381E090E009F480E0DF91CF9150
:10052000089580E090E0FACF1F93CF93DF93282FB8
:1005300030E0F901E750FE4F8491F901EB51FE4F95
:10054000D491F901EF52FE4FC491CC23A9F0162F9C
:1005500081110E944202EC2FF0E0EE0FFF1FE354E6
:10056000FE4FA591B4918FB7F894EC91111108C08A
:10057000D095DE23DC938FBFDF91CF911F9108953B
:10058000DE2BF8CFCF93DF9390E0FC01EB51FE4FD1
:1005900024918F529E4FFC0184918823D1F090E0EA
:1005A000880F991FFC01ED54FE4FA591B491FC01F9
:1005B000E354FE4FC591D49161110EC09FB7F894DA
:1005C0008C91E22FE0958E238C932881E223E8839F
:1005D0009FBFDF91CF9108958FB7F894EC91E22BF4
:1005E000EC938FBFF6CF3FB7F8948091FF019091C5
:1005F0000002A0910102B091020226B5A89B05C09D
:100600002F3F19F00196A11DB11D3FBFBA2FA92F91
:10061000982F8827BC01CD01620F711D811D911D8E
:1006200042E0660F771F881F991F4A95D1F70895FA
:100630008F929F92AF92BF92CF92DF92EF92FF92F2
:100640004B015C010E94F3026B017C010E94F302EA
:100650006C197D098E099F09683E734081059105DB
:10066000A8F321E0821A9108A108B10888EEC80E0B
:1006700083E0D81EE11CF11C81149104A104B10493
:1006800029F7FF90EF90DF90CF90BF90AF909F90B1
:100690008F900895089590E080E00895E091080219
:1006A000F09109028081811107C08FEF9FEF909335
:1006B000F3018093F2010895E0910802F09109029C
:1006C0000580F681E02D0680F781E02D82819381FF
:1006D000EECFFB0101900020E9F73197AF01461BF7
:1006E000570BDC01ED91FC910280F381E02D099420
:1006F0008F929F92AF92BF920F931F93CF93DF93EE
:10070000CDB7DEB7A1970FB6F894DEBF0FBECDBF51
:1007100019A2423008F44AE08E010F5D1F4F842E6B
:10072000912CB12CA12CA50194010E942419E62F33
:10073000B901CA01EA3004F5E05DD801EE938D01FC
:10074000232B242B252B79F790E080E0109729F0BC
:10075000BD018FEF92E00E946903A1960FB6F89455
:10076000DEBF0FBECDBFDF91CF911F910F91BF9024
:10077000AF909F908F900895E95CDFCFCF93DF9388
:10078000BC0182E692E00E946903EC0164E271E040
:1007900082E692E00E9469038C0F9D1FDF91CF914A
:1007A0000895EF92FF920F931F93CF93DF93CDB7EE
:1007B000DEB7C058D1090FB6F894DEBF0FBECDBF6B
:1007C00040E850E0C557DF4F68817981CB58D04071
:1007D0008E010F5F1F4FC8010E941417C158DF4FD1
:1007E0001882CF57D040F80101900020E9F77F012F
:1007F000F80101900020E9F7B8016E1B7F0B6058EB
:100800007F4F9E0123573F4FA801C7010E94201A26
:10081000C058DF4F1882C058D040B70182E692E03E
:100820000E946903C058DF4F0FB6F894DEBF0FBEB9
:10083000CDBFDF91CF911F910F91FF90EF90089561
:10084000CF93DF9300D0CDB7DEB72091170330915F
:100850001803CE01019621153105E9F48B5193401F
:100860009A83898389819A819F938F9389E291E00A
:100870009F938F9382E692E09F938F930E94D10380
:100880000F900F900F900F900F900F900F900F9070
:10089000DF91CF910895821B930BE0911903F091A2
:1008A0001A0330E020E0309751F02E5F3F4F408137
:1008B0005181240F351F0280F381E02DF4CF820F88
:1008C000931FCECFCF93DF93EC0160E08E810E9427
:1008D000940261E08E810E94940260E08E810E9409
:1008E00094028BE891E00197F1F7DF91CF910895A1
:1008F000CF92DF92EF92FF920F931F93CF93DF93EC
:100900006C017C0187E0E80EF11CD0E0C0E0062F0E
:1009100010E0B8010C2E02C0759567950A94E2F7B5
:100920006170F70181917F010E9494022196C43089
:10093000D10579F7C601DF91CF911F910F91FF90FB
:10094000EF90DF90CF900C946204CF92DF92EF9201
:10095000FF920F931F93CF93DF93EC01F62E642F3A
:100960008C810E9494028D818F3F19F060E00E947B
:1009700094020F2D10E08F8584FF25C06E0187E063
:10098000C80ED11CF12CE12CB8010E2C02C07595BB
:1009900067950A94E2F76170F60181916F010E94F8
:1009A0009402FFEFEF1AFF0A88E0E816F10461F7FE
:1009B000CE01DF91CF911F910F91FF90EF90DF90CB
:1009C000CF900C946204B80184E0759567958A9580
:1009D000E1F7CE010E9478046F2DCE01DF91CF9117
:1009E0001F910F91FF90EF90DF90CF900C947804BF
:1009F00040E0682F8FEF92E00C94A50490911203D1
:100A0000691710F06FEF690FE62FF0E0E150FD4F2E
:100A10009489890F80680C94F804CF93DF93813018
:100A200029F090910E03986090930E038093120327
:100A30001092130380E48093140380E180931503E4
:100A400080E58093160361E0809103030E94C20257
:100A5000809104038F3F19F061E00E94C20261E0BF
:100A6000809105030E94C202CFEFD2E09E012F5F6A
:100A7000324080910E0384FD0BC084E090E021960B
:100A80002817390744F461E08E810E94C202EECF3C
:100A900088E090E0F4CF8BE39DE00197F1F760E010
:100AA000809103030E94940260E0809105030E94FC
:100AB0009402809104038F3F19F060E00E94940239
:100AC00080910E0384FD39C063E08FEF92E00E94B5
:100AD0007804CBE4D6E4CE010197F1F763E08FEF21
:100AE00092E00E9478042197F1F763E08FEF92E0A3
:100AF0000E94780483E592E00197F1F762E08FEFBE
:100B000092E00E94780480910E0380620E94F804B3
:100B100084E080930F038CE00E94F80481E00E943F
:100B2000F8048BE39FE10197F1F782E080931003D3
:100B300086E0DF91CF910C94F80480620E94F80463
:100B40008BE496E40197F1F780910E0380620E9496
:100B5000F80483E592E00197F1F780910E0380623B
:100B60000E94F804D0CF41E00E94A50481E090E00B
:100B70000895CF92DF92EF92FF926B017C0141E0EA
:100B80006DE28FEF92E00E94A50466277727CB01E4
:100B90006C197D098E099F094AE00E94780301962D
:100BA000FF90EF90DF90CF900895FC0180819181BC
:100BB000009711F00C948B160895EF92FF920F930B
:100BC0001F93CF93DF93EC017B018A018881998188
:100BD000009729F02A813B812417350788F4B80152
:100BE0006F5F7F4F0E944C19009791F09983888323
:100BF0001B830A832C813D81232B11F4FC0110827D
:100C00001D830C83B701888199810E94191A0CC039
:100C100088819981009711F00E948B1619821882A1
:100C20001D821C821B821A82CE01DF91CF911F91FF
:100C30000F91FF90EF9008950F931F93CF93DF9341
:100C400000D000D000D0CDB7DEB76130B1F51A8248
:100C500019821C821B821E821D82FC0160817181AF
:100C60008E010F5F1F4F6115710529F04481558179
:100C7000C8010E94DD051F930F938AE991E09F93BD
:100C80008F9382E692E09F938F930E94D103C801D5
:100C90000E94D5050F900F900F900F900F900F901E
:100CA0000E94200426960FB6F894DEBF0FBECDBF7B
:100CB000DF91CF911F910F91089585E691E06F3FED
:100CC00011F081E491E09F938F9382E692E09F93ED
:100CD0008F930E94D1030F900F900F900F90E0CF51
:100CE00000E010E08091F10181110CC080913D0283
:100CF000823010F00E943E0C0115110599F30E94FC
:100D0000A601F0CF0FB6F8940F92E0911802F0917F
:100D10001902C681D781CE0102960E94D00A809125
:100D200039028150809339028091F1018150809382
:100D3000F1010F900FBE8F89988D0E94900FCE0108
:100D40000E94900FCFCFCF93DF93CDB7DEB72B9715
:100D50000FB6F894DEBF0FBECDBF60E080E00E940A
:100D6000FE0481E00E94F8048BE39FE10197F1F714
:100D700087E291E00E94BE034FEF5FEFBE016F5F1D
:100D80007F4F8091D6019091D7010E94A10F8130B1
:100D9000B1F567E371E082E692E00E946903898120
:100DA0009A81009799F589E491E00E94BE036DE471
:100DB00071E08FEF92E00E94690360E08AE00E9498
:100DC000FE046C817D818E819F8197FF1BC00E94F4
:100DD000B90561E080E00E94FE0467E571E08FEFF5
:100DE00092E00E94690361E08EE00E94FE04688543
:100DF00079858A859B8597FFBEC00E94B9050E94B0
:100E00003E0CB6CF4AE00E947803E3CF0197B9F7D2
:100E100085E691E00E94BE0362E080E00E94FE044D
:100E200069E671E08FEF92E00E94690362E086E07C
:100E30000E94FE04CB80DC80ED80FE80A70196013D
:100E4000C701B6010E941F196FE671E0811126C02B
:100E500046015701E894B7F82FEF3FEF4FE75FE700
:100E6000C501B4010E941F1981110CC02FEF3FEF83
:100E70004FE75FE7C501B4010E94231763E771E004
:100E8000181664F02FEF3FEF4FE75FE4C701B6019C
:100E90000E941A1918163CF467E771E08FEF92E090
:100EA0000E946903ACCF2FEF3FEF4FE75FECC70124
:100EB000B6010E94231787FDEFCF20E030E0A901A3
:100EC000C701B6010E94231787FF0AC041E06DE207
:100ED0008FEF92E00E94A504F7FAF094F7F8F094EF
:100EE0002AE037ED43EA5BE3C701B6010E947F18B1
:100EF0004B015C010E94EB186B017C010E942817DA
:100F00009B01AC01C501B4010E947E184B015C013C
:100F10004AE0C701B6010E94780341E06EE28FEF1C
:100F200092E00E94A50420E030E040E251E4C501D7
:100F3000B4010E9489174B015C010E94EB186B0100
:100F4000F12CE12C4AE0C701B6010E947803C701E9
:100F5000B6010E9428179B01AC01C501B4010E9493
:100F60007E1820E030E040E251E40E9489170E94A0
:100F7000EB1890E080E04AE00E94780340CFCF93E6
:100F8000DF93CDB7DEB766970FB6F894DEBF0FBE1E
:100F9000CDBF32E6232E32E0332E8BE791E00E9464
:100FA000BE031C861D861E861F86188A61E086E0A9
:100FB0000E94C20260E086E00E94940262E170E05A
:100FC00080E090E00E94180361E086E00E949402B5
:100FD0008BE990E00197F1F760E086E00E94C202A1
:100FE00001E117E286E00E946B02892B29F401508F
:100FF0001109C1F78EEF68C001E117E286E00E9497
:101000006B02019721F401501109C1F7F3CF28E2D7
:10101000E22EF12C17E000E091E1C92E97E2D92EE3
:1010200086E00E946B02892B29F421E0C21AD108C4
:10103000B9F7E0CF0E94F3022B013C0181E1C82EF9
:1010400087E2D82E86E00E946B02019729F431E0F6
:10105000C31AD108B9F7CECF0E94F30264197509FB
:1010600086099709693271058105910580F0ECE0E8
:10107000F0E0EC0FFD1FE00FF11D808121E030E07A
:10108000012E01C0220F0A94EAF7822B80831111EE
:101090002EC00F5F17E041E0E41AF10809F0BCCF61
:1010A0008C85282F30E03093D3012093D2019E8588
:1010B000292F30E03093D5012093D401382F390FF8
:1010C00028893217B1F08FEF3FEF3F938F934EEEA9
:1010D00050E05F934F933F922F920E94D1030F9065
:1010E0000F900F900F900F900F9080E015C011504F
:1010F000D2CF292F30E050E040E02B8B3C8B4D8B42
:101100005E8B882E912CB12CA12C64E670E080E0DF
:1011100090E00E94180381E01A8219828B832B8948
:101120003C894D895E892C833D834E835F8388860D
:101130009986AA86BB86882309F141E050E04C0FCE
:101140005D1F5A8B498B8DE091E09F938F933F9267
:101150002F920E94D1034FEF5FEFBE016F5E7F4F72
:101160008091D6019091D7010E94220E8BE891E0E8
:101170000E94BE030F900F900F900F900E943E0CA4
:101180000CCFEF92FF920F931F93CF93DF9300D07A
:1011900000D000D0CDB7DEB702E612E0E0917202D7
:1011A000F091730282E08083E0916E02F0916F0211
:1011B0001082E0917002F09171028FEC80831092A6
:1011C0007A02E0917602F091770286E08083E091E6
:1011D0007402F0917502808180618083E0917402D5
:1011E000F0917502808188608083E0917402F091B3
:1011F0007502808180688083E0917402F0917502AD
:1012000080818F7D80830E94200484E00E940D05F0
:101210006DEA71E08FEF92E00E94690360E087E081
:101220000E94C20260E081E00E946113009709F40D
:10123000A4C0FC011582148211821082168250E033
:1012400040E070E060E00E94220E88E690E09F930C
:101250008F931F930F930E94D1030F900F900F90C5
:101260000F900E9420046BE082E00E946113909333
:10127000D7018093D601892B71F482EB90E09F9384
:101280008F9382E692E09F938F930E94D1030F90F9
:101290000F900F900F908CE990E09F938F9382E6D0
:1012A000E82E82E0F82EFF92EF920E94D1030E9476
:1012B000200410E000E023E048EC50E06EE271E032
:1012C00083EA96E00E94A913182F1A8219821C82C1
:1012D0001B821E821D8243E050E06BEB71E0CE0169
:1012E00001960E94DD05612FCE0101960E941C0629
:1012F000CE0101960E94D50510E000E023E048EC05
:1013000050E06FEB71E08FEB97E00E94A913182F6C
:101310001A8219821C821B821E821D8245E050E0C7
:101320006AEC71E0CE0101960E94DD05612FCE01CD
:1013300001960E941C06CE0101960E94D5050E94CE
:10134000B4140E9420048FEC90E09F938F93FF923F
:10135000EF920E94D1030FB6F894DEBF0FBECDBF4F
:1013600026960FB6F894DEBF0FBECDBFDF91CF91AA
:101370001F910F91FF90EF9008958FE790E067CF56
:101380001F920F920FB60F9211242F933F934F93FA
:101390005F936F937F938F939F93AF93BF93EF93DD
:1013A000FF9382E692E00E94B301FF91EF91BF911B
:1013B000AF919F918F917F916F915F914F913F91ED
:1013C0002F910F900FBE0F901F9018951F920F92A4
:1013D0000FB60F9211242F938F939F93EF93FF9348
:1013E000E0917202F09173028081E0917802F091B5
:1013F000790282FD1BC0908180917B028F5F8F7389
:1014000020917C02821741F0E0917B02F0E0EE59DE
:10141000FD4F958F80937B02FF91EF919F918F916C
:101420002F910F900FBE0F901F9018958081F4CFD1
:101430001F920F920FB60F9211242F933F938F9309
:101440009F93AF93BF938091FB019091FC01A0917A
:10145000FD01B091FE013091FA0123E0230F2D37F9
:1014600058F50196A11DB11D2093FA018093FB014F
:101470009093FC01A093FD01B093FE018091FF01C8
:1014800090910002A0910102B09102020196A11D6B
:10149000B11D8093FF0190930002A0930102B093CD
:1014A0000202BF91AF919F918F913F912F910F9029
:1014B0000FBE0F901F90189526E8230F0296A11DCE
:1014C000B11DD2CFFC01DB010FB6F8940F92409111
:1014D0003A0250913B022D913C9111972F3F3207D8
:1014E000E1F08181928160913C027081761719F060
:1014F00048175907C0F4481B590B4217530788F483
:10150000241B350B2D933C9380913C02808380916A
:101510003A0290913B029283818380E00F900FBE4C
:1015200008951D921C9281E0F9CF0FB6F8940F92A6
:1015300080913A0290913B020F900FBE08958091E6
:1015400003028F5F8093030208950FB6F8940F9201
:10155000FC01928D0F900FBE81E0911180E0089503
:10156000CF93DF939C01FB01DC011196CD91DC91BF
:10157000D383C2838C819D81958384838C819D815B
:10158000DC0113967C936E9312977D836C83318775
:101590002087F90180818F5F8083DF91CF9108954B
:1015A000CF93DF93FC01A085B18582819381248153
:1015B0003581EC013D832C83C481D5819B838A8353
:1015C00011968D919C9112978E179F0721F4129678
:1015D000DC93CE931197118610868C9181508C9359
:1015E0008C91DF91CF9108950F931F93CF93DF9349
:1015F000DC011596ED91FC91C681D7818E01045FC7
:101600001F4FC8010E94D00A80910302811125C09A
:101610000A501109C8010E94D00A8E899091610276
:10162000981710F480936102B9E08B9FC0011124D8
:10163000B801835C9D4F0E94B00AE091D001F09107
:10164000D1019E898689891760F481E08093F00139
:10165000DF91CF911F910F910895B8018CE192E035
:10166000EACF80E0F5CFEF92FF920F931F93CF93D5
:10167000DF93EC010FB6F8940F921E8D7C0181E18F
:10168000E80EF11C01E01116D4F08FEF8E8F0F9051
:101690000FBE0FB6F8940F921D8D7E0188E0E80E04
:1016A000F11C01E01116B4F08FEF8D8F0F900FBE7B
:1016B000DF91CF911F910F91FF90EF90089589894D
:1016C000882319F3C7010E94F40A81110093F001E5
:1016D0001150D9CF8885882339F3C7010E94F40AB5
:1016E00081110093F0011150DDCF0F931F93CF9321
:1016F000DF938C01FB0180819181D80113968F3F8C
:101700009807F1F4E801AF81B88512968D919C910C
:10171000139793838283EC01FD83EC83B583A483C9
:101720001396FC93EE93129711870087F80180813E
:101730008F5F8083DF91CF911F910F910895D90121
:1017400012962D913C911397E90148815981841794
:101750009507A8F7DACFFC017383628391878087AE
:101760004617570790F0421B530B84859585481701
:101770005907C8F4BF016E5F7F4F8091F6019091C9
:10178000F7010E94750B80E008954217530718F483
:101790006217730740F4BF016E5F7F4F8091F801BD
:1017A0009091F901EECF81E00895FF920F931F937E
:1017B000CF93DF93EC01F62E00913A0210913B0299
:1017C0008091D0019091D10102960E94D00ACF3F22
:1017D000DC0789F4FF2079F06091D0017091D1018C
:1017E0006E5F7F4F8AE092E0DF91CF911F910F9162
:1017F000FF900C94B00AC00FD11FE091D001F0917E
:10180000D101D383C2836091D0017091D101C017FF
:10181000D10768F480910602909107026E5F7F4FB6
:10182000DF91CF911F910F91FF900C94750B8091D8
:101830000802909109026E5F7F4F0E94750B8091A4
:10184000F2019091F301C817D90720F4D093F30166
:10185000C093F201DF91CF911F910F91FF900895F6
:10186000FC010396928381832FEF3FEF3483238320
:101870009683858390878783108208950F920FB691
:10188000F8940F921F9211242F923F924F925F92E1
:101890006F927F928F929F92AF92BF92CF92DF9280
:1018A000EF92FF920F931F932F933F934F935F936A
:1018B0006F937F938F939F93AF93BF93CF93DF9358
:1018C000EF93FF93A091D001B091D1010DB60D928D
:1018D0000EB60D9280910302882321F081E080935F
:1018E000F0015FC01092F001A091D001B091D10140
:1018F000E091D001F091D1012D913C918789908D9B
:1019000082179307A8F08091D0019091D101809126
:10191000D0019091D101259A2D9A2FEF87EA91E677
:10192000215080409040E1F700C000001D9AF5CFA3
:101930002091610289E001C02150422F50E0849F34
:10194000F001859FF00D1124E35CFD4F90819923F8
:1019500099F3A181B28112960D90BC91A02DB28312
:10196000A183289FC0011124805C9D4FA817B9074F
:1019700029F412968D919C919283818389E0849FB2
:10198000F001859FF00D1124E35CFD4F0180F28191
:10199000E02D868197819093D1018093D00120938F
:1019A0006102A091D001B091D101CD91CDBFDD9167
:1019B000DEBFFF91EF91DF91CF91BF91AF919F91EA
:1019C0008F917F916F915F914F913F912F911F91D7
:1019D0000F91FF90EF90DF90CF90BF90AF909F90CE
:1019E0008F907F906F905F904F903F902F901F90BF
:1019F0000F900FBE0F9008957F928F929F92AF929B
:101A0000BF92CF92DF92EF92FF920F931F93CF93EB
:101A1000DF930FB6F8940F92809103028150809368
:101A2000030280910302882389F080E00F900FBEAB
:101A3000DF91CF911F910F91FF90EF90DF90CF90AA
:101A4000BF90AF909F908F907F90089580913902C2
:101A5000882359F3D0E0C0E029E0F22EEE24E3948D
:101A600029C0E0912102F0912202C681D781CE01E6
:101A70000C960E94D00A8E010E5F1F4FC8010E9473
:101A8000D00A8E8990916102981710F480936102B8
:101A90008F9DC0011124B801835C9D4F0E94B00A44
:101AA000E091D001F091D1019E898689981710F0BC
:101AB000E092F00180911C028111D3CFCD2B11F067
:101AC0000E944E03E090EE01F090EF01E114F1046A
:101AD00009F4AFC089E0A82E77247394CC24CA946B
:101AE000DC2C80910302811192C0C0913A02D09106
:101AF0003B022196D0933B02C0933A022097B9F45F
:101B0000809108029091090220910602309107020B
:101B100030930902209308029093070280930602F3
:101B200080913C028F5F80933C020E944E03809123
:101B3000F2019091F301B12CC817D90708F05BC0EE
:101B4000E091D001F091D101E689AE9EF00111241F
:101B5000E35CFD4F8081823010F0BB24B394809110
:101B6000F001811103C0BB2009F45AC07092F0014A
:101B700057C0E0910802F09109020580F681E02D3E
:101B800006811781D80112968D919C91C817D907AB
:101B900028F49093F3018093F201D2CF4801B2E090
:101BA0008B0E911CC4010E94D00AF801848995898A
:101BB000892B21F0C8010C960E94D00AD8015696B4
:101BC0008C9190916102981710F4809361028A9D24
:101BD000C0011124B401835C9D4F0E94B00AE091C2
:101BE000D001F091D101D80156969C918689981721
:101BF00010F0BB24B394E0910802F09109028081B7
:101C00008111B7CFD092F301C092F20199CF8091A8
:101C1000EE019091EF0101969093EF018093EE0118
:101C2000B1E0EB1AF10809F05CCF1092EF011092CD
:101C3000EE018091F001882309F4F7CE0E943E0C5A
:101C400081E0F4CEAF92BF92CF92DF92EF92FF92FB
:101C50000F931F93CF93DF9300D000D01F92CDB787
:101C6000DEB78C017B015D834C8380E0680128E056
:101C7000C20ED11C0FB6F8940F92F801228D938DED
:101C8000291708F078C0D28C448D41115AC0808148
:101C90009181892B11F080E009C0E480F580E11486
:101CA000F10421F580E0F80115821482D394F80143
:101CB000D28E9189992321F0C80141960E94F40A9D
:101CC00081110E943E0C0F900FBE81E00F900F908B
:101CD0000F900F900F90DF91CF911F910F91FF9078
:101CE000EF90DF90CF90BF90AF900895F70182A161
:101CF000815082A3268991A12917A1F28111D2CF07
:101D00005701F2E0AF0EB11CC5010E94D00AF701E5
:101D100081A1868B24E030E0281B31093587248798
:101D200090916102981710F480936102F9E08F9FFF
:101D3000C0011124B501835C9D4F0E94B00A81E06F
:101D4000B2CF50E0B701828193810E94091AF80155
:101D5000848D22813381820F932F911D93838283FF
:101D6000248135818217930708F495CF8081918172
:101D70009383828390CF2C813D81232B21F40F907C
:101D80000FBE80E0A3CF811109C080913C028983FE
:101D900080913A0290913B029B838A830F900FBE01
:101DA0000E949F0A0FB6F8940F92F801858D8F3F1D
:101DB00009F4158EF801868D8F3F09F4168E0F9069
:101DC0000FBEBE016C5F7F4FCE0101960E94620A7A
:101DD00081112AC00FB6F8940F92F801928D838D6D
:101DE0000F900FBE98131AC0AC80BD806091D001D7
:101DF0007091D101645F7F4FC6010E94750B61E055
:101E0000C5010E94D50BC8010E94330B0E94FC0C37
:101E1000811102C00E943E0C81E02CCFC8010E94BB
:101E2000330B0E94FC0CF8CFC8010E94330B0E94B8
:101E3000FC0CA7CFCF93DF9300D000D01F92CDB77B
:101E4000DEB79C0180910402909105020097C9F0D1
:101E500019827B836A833D832C832091380250E072
:101E600040E0BE016F5F7F4F2111209103020E946D
:101E7000220E0F900F900F900F900F90DF91CF9147
:101E8000089580E0F6CFEF92FF920F931F93CF93C8
:101E9000DF93E091F801F091F9018081811113C085
:101EA0008091F6019091F7019093F9018093F801E8
:101EB000F093F701E093F601DF91CF911F910F911D
:101EC000FF90EF9008950580F681E02D008111814B
:101ED000C681D7817E0182E0E80EF11CC7010E9415
:101EE000D00AE889F989CE0109958A8982FFD1CF84
:101EF0008C859D85800F911F0817190760F49B83BF
:101F00008A83D987C887B7018091F8019091F90138
:101F10000E94750BBECFB801CE010E941A0FB9CF37
:101F2000CF93DF93009751F0EC010E949F0ACE01FE
:101F30000E948B16DF91CF910C94FC0CDF91CF9116
:101F40000895AF92BF92CF92DF92EF92FF920F93DC
:101F50001F93CF93DF9300D000D01F92CDB7DEB791
:101F60008C016B015D834C8380E0580191E1A90EE7
:101F7000B11C0FB6F8940F92F801F28CFF20C9F152
:101F8000448D4423B1F050E086819781840F951FE2
:101F900097838683248135818217930720F080817F
:101FA000918197838683F80166817781C6010E94BB
:101FB000091AFA94F801F28E8085882339F0C80155
:101FC00008960E94F40A81110E943E0C0F900FBEE9
:101FD00081E00F900F900F900F900F90DF91CF91B5
:101FE0001F910F91FF90EF90DF90CF90BF90AF9037
:101FF00008952C813D81232B21F40F900FBE80E0AA
:10200000E8CF811109C080913C02898380913A0216
:1020100090913B029B838A830F900FBE0E949F0A80
:102020000FB6F8940F92F801858D8F3F09F4158E45
:10203000F801868D8F3F09F4168E0F900FBEBE01FA
:102040006C5F7F4FCE0101960E94620A811125C00C
:10205000C8010E94A50A8823D1F0EC80FD80609120
:10206000D0017091D101645F7F4FC5010E94750B53
:1020700061E0C7010E94D50BC8010E94330B0E948A
:10208000FC0C811102C00E943E0C81E072CFC8019D
:102090000E94330B0E94FC0CF8CFC8010E94330B46
:1020A0000E94FC0CC8010E94A50A882371F3A7CFE7
:1020B000CF93DF9300D000D01F92CDB7DEB7E09171
:1020C000F801F091F901F08010E000E0FF2029F024
:1020D0000580F681E02D008111810E949F0A0E94F7
:1020E000950A6C018091F4019091F501C816D9060A
:1020F00008F04BC00E94430FD092F501C092F4014A
:102100000E94FC0C50E040E0BE016F5F7F4F809169
:102110000402909105020E94A10F882381F2898117
:1021200087FDF0CF0C811D81D8011A968D919C916D
:10213000892B21F0C80102960E94D00A0E94950ABC
:102140007C018091F4019091F501E816F90610F4F4
:102150000E94430FF092F501E092F401E981EA3028
:1021600088F60E2E000CFF0BE554FF4ED801529658
:102170008C910C9446193F113F113F117811631156
:1021800072113F113F1178116311D092F501C09285
:10219000F401FF2099F1C016D106C0F10E94FC0C99
:1021A000E091F801F091F9010580F681E02DE680DB
:1021B000F780C70102960E94D00AD70152968C91EF
:1021C000529782FF17C01C966D917C91600F711F12
:1021D0009801A601C7010E94AB0B882321F0B8012A
:1021E000C7010E941A0FD7015096ED91FC91C701CB
:1021F000099588CF8E7FF701828BF5CFE091F601AC
:10220000F091F7018081BB24B3948111B12CE0904F
:102210000402F09005020FB6F8940F92F701858D35
:102220008F3F09F4158ED7015E968C915E978F3F94
:1022300011F45E961C920F900FBEF701828D8111F2
:1022400014C06091D0017091D101645F7F4FC701CC
:1022500041960E94B00AC8018C199D09BB2011F05B
:102260008FEF9FEF6B2D0E94D50BC7010E94330BA0
:102270000E94FC0C811146CF0E943E0C43CF81602E
:10228000F801828B2A813B8164857585620F731FFB
:10229000A701C8010E94AB0B882309F433CFD801F2
:1022A0005096ED91FC91C8010995F801828982FF51
:1022B00029CF6A817B8184859585680F791FC80144
:1022C0000E941A0F1FCF8160F801828B6A817B8187
:1022D000758764876E0D7F1D9701A701C8010E9455
:1022E000AB0B10CF81FD04C0C8010E94900F0ACF34
:1022F0008E7FD80152968C9305CF0F920FB6F8942B
:102300000F921F9211242F923F924F925F926F92E1
:102310007F928F929F92AF92BF92CF92DF92EF9275
:10232000FF920F931F932F933F934F935F936F935E
:102330007F938F939F93AF93BF93CF93DF93EF934D
:10234000FF93A091D001B091D1010DB60D920EB6C0
:102350000D9213BE809103028111F6C080913A0262
:1023600090913B02019690933B0280933A02009732
:1023700099F520910802309109024091060250918E
:1023800007025093090240930802309307022093FA
:10239000060220913C022F5F20933C02E09108024C
:1023A000F09109022081211107C02FEF3FEF3093F8
:1023B000F3012093F20110C0E0910802F0910902AC
:1023C0000580F681E02D0680F781E02D22813381A2
:1023D0003093F3012093F2012091F2013091F30147
:1023E0008217930710F420E09BC020E019E0E091F1
:1023F0000802F09109023081311107C08FEF9FEF81
:102400009093F3018093F2018BC0E0910802F09168
:1024100009020580F681E02D0680F781E02D4281DA
:1024200053818417950728F45093F3014093F201E8
:1024300077C0AF014E5F5F4FA285B3856481758120
:10244000E680F780EB01FD82EC82C681D7817B8339
:102450006A8311966D917C9112974617570721F464
:102460001296DC93CE931197138612863C913150CD
:102470003C933C91A489B5891097F9F066857785DE
:10248000E088F188EB01FD82EC82C089D1897B83F1
:102490006A831196ED90FC901297BF01645F7F4FA5
:1024A000E616F70621F41296DC93CE931197158A5F
:1024B000148A3C9131503C933C91A6893091610241
:1024C0003A1710F4A09361021A9FD0011124BD01A4
:1024D000635C7D4F7B01DB011196CD91DC91D5834F
:1024E000C4836C817D81778366836C817D81DB0110
:1024F00013965C934E9312975D834C83F386E2862A
:10250000E70138813F5F3883A091D001B091D101BC
:10251000468956963C91431708F469CF21E067CF6E
:10252000E091D001F091D101E689D9E0ED9FF00171
:102530001124E35CFD4F8081823008F021E080911E
:10254000F00181110EC00AC08091EE019091EF015F
:1025500001969093EF018093EE016AC0222309F463
:1025600067C080910302882321F081E08093F0010D
:102570005FC01092F001A091D001B091D101E09123
:10258000D001F091D1012D913C918789908D8217D6
:102590009307A8F08091D0019091D1018091D00152
:1025A0009091D101259A2D9A2FEF67EA71E621507B
:1025B00060407040E1F700C000001D9AF5CF209107
:1025C000610289E001C02150422F50E0849FF00158
:1025D000859FF00D1124E35CFD4F9081992399F3C1
:1025E000A181B28112960D90BC91A02DB283A183DE
:1025F000289FC0011124805C9D4FA817B90729F4BA
:1026000012968D919C919283818389E0849FF00141
:10261000859FF00D1124E35CFD4F0180F281E02DD8
:10262000868197819093D1018093D001209361029C
:10263000A091D001B091D101CD91CDBFDD91DEBF90
:10264000FF91EF91DF91CF91BF91AF919F918F91CA
:102650007F916F915F914F913F912F911F910F91BA
:10266000FF90EF90DF90CF90BF90AF909F908F90B2
:102670007F906F905F904F903F902F901F900F90A2
:102680000FBE0F900895CF93DF93EC010E949F0A35
:10269000CE010E94EF15EC010E94FC0C209769F41A
:1026A000259A2D9A2FEF80E792E0215080409040AC
:1026B000E1F700C000001D9AF5CFCE01DF91CF9168
:1026C00008950F931F93CF93DF93082F162F869FA4
:1026D000C00111244F960E944313EC01009779F139
:1026E000111133C0998388830B8F1C8F0FB6F89418
:1026F0000F92888199812B8D4C8DBC01249F600D98
:10270000711D11247D836C831A8E9B838A832150D3
:10271000330B429FB001439F700D1124860F971F0A
:102720009F838E838FEF8D8F8E8FCE0108960E94B0
:10273000300CCE0141960E94300C0F900FBECE019E
:10274000DF91CF911F910F9108954F9699838883C0
:10275000CBCF7F928F929F92AF92BF92CF92DF9218
:10276000EF92FF920F931F93CF93DF93982EA92E92
:10277000762E872E7A01B22ECA010E9443136C0175
:10278000892B09F4D0C088E290E00E944313EC0149
:10279000892B09F4C5C0D88ECF8AA70165EA70E0FD
:1027A000C6010E94121A21E0E21AF108EF89F88DA1
:1027B000EE0DFF1D672D782DCE0149969B01285FF8
:1027C0003F4FDB014D91BD01DC014D93CD01AB01CC
:1027D00041505109DA014C91442319F062177307F3
:1027E00081F718A2BE8AB9A21AA21B861A861D8A70
:1027F0001C8AD987C88784E090E08B1991099D874E
:102800008C87DB8BCA8B1BA21CA21DA21EA21FA23F
:102810009082DF011197AC9211971C92119780E87A
:102820008C9311971C9257971C9211971C92B397F7
:10283000F983E8830115110519F0F801D183C083EC
:102840000FB6F8940F92809139028F5F809339020E
:102850008091D0019091D101892B09F073C0D09360
:10286000D101C093D00180913902813081F58DE38F
:1028700092E00E94300C86E492E00E94300C8FE4DB
:1028800092E00E94300C88E592E00E94300C8EE2CB
:1028900092E00E94300C85E292E00E94300C8CE1C4
:1028A00092E00E94300C83E192E00E94300C8AE0BA
:1028B00092E00E94300C8EE292E0909309028093A5
:1028C000080285E292E090930702809306028091CD
:1028D00037028F5F809337028E899091610298173B
:1028E00010F480936102F9E08F9FC0011124BE01B2
:1028F0006E5F7F4F835C9D4F0E94B00A0F900FBEAA
:1029000080913802882351F0E091D001F091D101FB
:1029100096898E89981710F40E943E0C81E004C0BD
:10292000C6010E94900F8FEFDF91CF911F910F9101
:10293000FF90EF90DF90CF90BF90AF909F908F90DF
:102940007F900895809138028111C1CFE091D0012C
:10295000F091D1019E898689981708F4B8CFD09359
:10296000D101C093D001B3CF0F931F930CEE11E0B0
:1029700020E040EC50E060EA71E080E796E00E94E1
:10298000A913813009F07FC00FB6F8940F9280919F
:10299000040290910502892BE1F481EE91E00E94FE
:1029A000300C88ED91E00E94300C81EE91E0909324
:1029B000F9018093F80188ED91E09093F7018093FD
:1029C000F60165E08AE00E9461139093050280930E
:1029D00004020F900FBE8091040290910502892B92
:1029E00009F451C00AEE11E023E045E550E065EA44
:1029F00071E088E590E10E94A913813009F043C09D
:102A0000F8942FEF3FEF3093F3012093F20180937E
:102A1000380210923B0210923A02A89588E190EC9D
:102A20000FB6F894A895809360000FBE9093600055
:102A3000A091D001B091D101CD91CDBFDD91DEBF8C
:102A4000FF91EF91DF91CF91BF91AF919F918F91C6
:102A50007F916F915F914F913F912F911F910F91B6
:102A6000FF90EF90DF90CF90BF90AF909F908F90AE
:102A70007F906F905F904F903F902F901F900F909E
:102A80000FBE0F9008951F910F9108950E947D1120
:102A90001895E2E6F2E01382128288EE93E0A0E05D
:102AA000B0E084839583A683B7838AE091E0918325
:102AB000808385EC90E09587848784EC90E097870D
:102AC000868780EC90E0918B808B81EC90E0938BFB
:102AD000828B82EC90E0958B848B86EC90E0978BD8
:102AE000868B118E128E138E148EEFEFF2E013820E
:102AF00012828CE191E0918380838CE084838FEF5C
:102B000085838BE0868385E0878384E0808783E00C
:102B1000818782E08287138614861586168617863B
:102B200081E00C940D05789484B5826084BD84B5F1
:102B3000816084BD85B5826085BD85B5816085BDB8
:102B400080916E00816080936E0010928100809170
:102B500081008260809381008091810081608093F8
:102B60008100809180008160809380008091B1001D
:102B700084608093B1008091B00081608093B00048
:102B800080917A00846080937A0080917A008260DC
:102B900080937A0080917A00816080937A0080919E
:102BA0007A00806880937A001092C100209104011D
:102BB000309105018FEF98E0821B930B90930101F8
:102BC000809300010E94C1080E94B4140E94C108B1
:102BD000C0E0D0E02097F1F30E94A601FBCF0F9355
:102BE0001F93CF93DF938230910510F482E090E041
:102BF000E0911903F0911A0330E020E0B0E0A0E08A
:102C0000309799F42115310509F44AC0281B390B76
:102C100024303105D8F58A819B816115710589F1D0
:102C2000FB0193838283FE0111C0408151810281A7
:102C3000138148175907E0F04817590799F410977E
:102C400061F012960C93129713961C933296CF0153
:102C5000DF91CF911F910F91089500931903109365
:102C60001A03F4CF2115310551F04217530738F0FC
:102C7000A901DB019A01BD01DF01F801C1CFEF011C
:102C8000F9CF90931A0380931903CDCFFE01E20F81
:102C9000F31F819391932250310939832883D7CF31
:102CA0002091170330911803232B41F42091020146
:102CB00030910301309318032093170320910001F2
:102CC000309101012115310541F42DB73EB74091F6
:102CD000040150910501241B350BE0911703F0917D
:102CE0001803E217F307A0F42E1B3F0B2817390730
:102CF00078F0AC014E5F5F4F2417350748F04E0F58
:102D00005F1F5093180340931703819391939FCFB4
:102D1000F0E0E0E09CCFCF93DF930097E9F0FC0177
:102D2000329713821282A0911903B0911A03ED0118
:102D300030E020E01097A1F420813181820F931FB1
:102D400020911703309118032817390709F061C043
:102D5000F0931803E0931703DF91CF910895EA01F0
:102D6000CE17DF07E8F54A815B819E0141155105C9
:102D7000B1F7E901FB83EA8349915991C40FD51F4B
:102D8000EC17FD0761F4808191810296840F951FF5
:102D9000E90199838883828193819B838A83F0E010
:102DA000E0E012968D919C9113970097B9F52D91C3
:102DB0003C911197CD010296820F931F209117032A
:102DC000309118032817390739F6309751F51092CA
:102DD0001A0310921903B0931803A0931703BCCFE2
:102DE000D383C28340815181840F951FC817D907AF
:102DF00061F44E5F5F4F88819981480F591F51835D
:102E000040838A819B81938382832115310509F058
:102E1000B0CFF0931A03E09319039ECFFD01DC01BC
:102E2000C0CF13821282D7CFFB01DC01415050404A
:102E300048F005900D920020C9F701C01D92415045
:102E40005040E0F708950E94651708F481E0089566
:102E5000E89409C097FB3EF4909580957095619534
:102E60007F4F8F4F9F4F9923A9F0F92F96E9BB27EA
:102E70009395F695879577956795B795F111F8CF66
:102E8000FAF4BB0F11F460FF1BC06F5F7F4F8F4FD1
:102E90009F4F16C0882311F096E911C0772321F0C7
:102EA0009EE8872F762F05C0662371F096E8862F5F
:102EB00070E060E02AF09A95660F771F881FDAF7B6
:102EC000880F9695879597F90895990F0008550FE3
:102ED000AA0BE0E8FEEF16161706E807F907C0F0A0
:102EE00012161306E407F50798F0621B730B840BA8
:102EF000950B39F40A2661F0232B242B252B21F482
:102F000008950A2609F4A140A6958FEF811D811D21
:102F100008950E949C170C940D180E94FF1738F01A
:102F20000E94061820F0952311F00C94F6170C94CB
:102F3000FC1711240C9441180E941E1870F3959FE1
:102F4000C1F3950F50E0551F629FF001729FBB27A0
:102F5000F00DB11D639FAA27F00DB11DAA1F649F3C
:102F60006627B00DA11D661F829F2227B00DA11DEF
:102F7000621F739FB00DA11D621F839FA00D611D75
:102F8000221F749F3327A00D611D231F849F600D96
:102F9000211D822F762F6A2F11249F5750409AF0BF
:102FA000F1F088234AF0EE0FFF1FBB1F661F771F4B
:102FB000881F91505040A9F79E3F510580F00C9416
:102FC000F6170C9441185F3FE4F3983ED4F38695CE
:102FD00077956795B795F795E7959F5FC1F7FE2BB6
:102FE000880F911D9695879597F9089597F99F6792
:102FF00080E870E060E008959FEF80EC0895002481
:103000000A941616170618060906089500240A944D
:1030100012161306140605060895092E0394000CD3
:1030200011F4882352F0BB0F40F4BF2B11F460FF62
:1030300004C06F5F7F4F8F4F9F4F089557FD90588B
:10304000440F551F59F05F3F71F04795880F97FB6C
:10305000991F61F09F3F79F0879508951216130626
:103060001406551FF2CF4695F1DF08C01616170655
:103070001806991FF1CF869571056105089408958A
:10308000E894BB2766277727CB0197F908952F92FD
:103090003F924F925F926F927F928F929F92AF92E8
:1030A000BF92CF92DF92EF92FF920F931F93CF9335
:1030B000DF93CDB7DEB7CA1BDB0B0FB6F894DEBFCC
:1030C0000FBECDBF09942A88398848885F846E84F2
:1030D0007D848C849B84AA84B984C884DF80EE803C
:1030E000FD800C811B81AA81B981CE0FD11D0FB645
:1030F000F894DEBF0FBECDBFED0108955058BB2739
:10310000AA270E9496180C940D180E94FF1738F0F9
:103110000E94061820F039F49F3F19F426F40C940D
:10312000FC170EF4E095E7FB0C94F617E92F0E94CC
:103130001E1858F3BA17620773078407950720F023
:1031400079F4A6F50C9440180EF4E0950B2EBA2FE6
:10315000A02D0B01B90190010C01CA01A00111249D
:10316000FF27591B99F0593F50F4503E68F11A1649
:10317000F040A22F232F342F4427585FF3CF4695DA
:1031800037952795A795F0405395C9F77EF41F16FC
:10319000BA0B620B730B840BBAF09150A1F0FF0FC6
:1031A000BB1F661F771F881FC2F70EC0BA0F621FB2
:1031B000731F841F48F4879577956795B795F795A2
:1031C0009E3F08F0B0CF9395880F08F09927EE0F37
:1031D0009795879508950E94261888F09F5798F034
:1031E000B92F9927B751B0F0E1F0660F771F881F0C
:1031F000991F1AF0BA95C9F714C0B13091F00E9426
:103200004018B1E008950C944018672F782F882754
:10321000B85F39F0B93FCCF3869577956795B3954C
:10322000D9F73EF490958095709561957F4F8F4FBB
:103230009F4F08950E94651708F48FEF08950E942C
:103240006517880B990B0895A1E21A2EAA1BBB1BC8
:10325000FD010DC0AA1FBB1FEE1FFF1FA217B30762
:10326000E407F50720F0A21BB30BE40BF50B661F78
:10327000771F881F991F1A9469F76095709580953C
:1032800090959B01AC01BD01CF010895EE0FFF1F8A
:103290000590F491E02D0994B0E0A0E0E2E5F9E1B9
:1032A0000C9449188C01009751F4CB010E94EF1542
:1032B0008C01C801CDB7DEB7E0E10C946518FC01C4
:1032C000E60FF71F9C0122503109E217F30708F4BB
:1032D0009DC0D901CD91DC911197C617D70798F001
:1032E000C530D10530F3CE0104978617970708F350
:1032F000C61BD70B2297C193D1936D937C93CF01BB
:103300000E948B16D6CF5B01AC1ABD0A4C018C0E05
:103310009D1EA0911903B0911A03512C412CF12C40
:10332000E12C109731F580911703909118038815BF
:10333000990509F05CC04616570608F058C0809100
:10334000000190910101009741F48DB79EB7409123
:10335000040150910501841B950BE817F90708F04B
:1033600055C0F0931803E0931703F901718360834C
:10337000A0CF8D919C91119712966C9012971396F5
:103380007C901397A815B90559F56C0142E0C40E5D
:10339000D11CCA14DB0420F1AC014A195B09DA0123
:1033A0001296159780F06282738251834083D9010F
:1033B0006D937C93E114F10471F0D7011396FC93A3
:1033C000EE93129776CF22968C0F9D1FF901918371
:1033D0008083F301EFCFF0931A03E093190369CFD1
:1033E0004816590608F42C017D01D3019ACFCB0170
:1033F0000E94EF157C01009749F0AE01B8010E94D0
:10340000091AC8010E948B16870153CF10E000E013
:1034100050CFFB01DC0102C001900D9241505040A1
:10342000D8F70895DC0101C06D9341505040E0F79A
:103430000895FB01DC0101900D920020E1F7089551
:10344000AEE0B0E0E6E2FAE10C9455188C01FA0126
:1034500086E08C831A83098377FF02C060E070E8FE
:10346000615071097E836D83A901BF01CE01019670
:103470000E944C1A4D815E8157FD0AC02F8138850C
:10348000421753070CF49A01020F131FF801108220
:103490002E96E4E00C947118ABE0B0E0E2E5FAE1BE
:1034A0000C9447187C013B018A01FC0117821682AB
:1034B000838181FFC8C1CE0101965C01F701938130
:1034C000F30193FD859193FF81913F01882309F4D6
:1034D00053C1853239F493FD859193FF81913F016A
:1034E000853229F4B70190E00E943C1CE7CF912C73
:1034F000212C312CFFE1F31538F08B3211F190F4CF
:10350000803209F1833229F137FC3CC020ED280FCD
:103510002A3050F536FE20C08AE0989E200D1124F6
:10352000922E06C08D3291F0803371F7689430F896
:10353000F30193FD859193FF81913F018111DACFD2
:1035400021C0689431F8689432F8F2CF689433F867
:10355000EFCF689434F8ECCFEAE02E9E200D1124D2
:10356000222E689435F8E4CF8E3229F436FC04C15B
:10357000689436F8DDCF8C3619F4689437F8D8CFD4
:103580008836B1F2982F9F7D95549330E0F08336C2
:10359000A1F18337C1F1833509F063C02801F2E05E
:1035A0004F0E511CF801C080D180692D70E036FCAF
:1035B00002C06FEF7FEFC6010E94261C4C01689489
:1035C00037F882010AC00C5F1F4FFFE3F98388249C
:1035D0008394912C6501E89437F833FE2DC0522C6A
:1035E0008114910471F5552009F468CFB70180E288
:1035F00090E00E943C1C5A94F6CFF80180818983A8
:103600000E5F1F4FE4CF2801F2E04F0E511CF8016E
:10361000C080D180692D70E036FC02C06FEF7FEF73
:10362000C6010E94311C4C018201D5CFB70180E256
:1036300090E00E943C1C2A942814190409F0B0F769
:10364000CECFF60137FC859137FE81916F01B7012E
:1036500090E00E943C1C51105A94F1E08F1A91089E
:10366000BFCF843619F0893609F077C0F80137FEEC
:103670006BC060817181828193810C5F1F4FF32D3C
:10368000FF763F2E97FF09C09095809570956195C4
:103690007F4F8F4F9F4F689437F82AE030E0A501A5
:1036A0000E946C1CC82ECA188C2C432C36FE0CC0F1
:1036B000E89440F8C91440F434FE05C032FC03C05D
:1036C000F32DFE7E4F2E892C44FE95C0FE01EC0D9D
:1036D000F11D8081803309F087C0242D297E422E80
:1036E000842D8870582E43FC95C040FE8FC09C2CC2
:1036F000821418F42C0C922C981844FE91C0B70137
:1037000080E390E00E943C1C42FE09C088E790E004
:1037100041FE02C088E590E0B7010E943C1CC9143C
:1037200008F48AC0CA94D12C9FEFC91AD90ACA0CCE
:10373000DB1CF60182916F01B70190E00E943C1CF6
:10374000AC14BD04B1F74FCF60817181072E000C1E
:10375000880B990B0E5F1F4F92CFD32CE894D4F8AF
:103760002AE030E0853739F1232D297FD22E8F369C
:1037700001F148F48835A9F0F701868197812B96ED
:10378000E2E10C946318803749F08837A9F7D4FE3A
:1037900002C06894D2F820E130E00DC06894D4F8FB
:1037A000F6CF34FE03C0822F8660D82E20E132E0AF
:1037B00002C028E030E0F801D7FE0FC060817181BF
:1037C000828193810C5F1F4FA5010E946C1CC82E43
:1037D000CA183D2CE89437F867CF6081718190E07A
:1037E00080E00E5F1F4FF0CF42FC02C0839478CF81
:1037F0008394839475CF842D867809F471CFF6CFA6
:10380000B70180E290E00E943C1C83948214C0F3D4
:10381000512C73CF522C5818821408F46ECFF8CF65
:10382000842D867809F47BCF8BE241FE80E247FC51
:103830008DE2B70190E071CFB70180E390E00E9484
:103840003C1C9A946CCF8FEF9FEF99CFFC010590B1
:10385000615070400110D8F7809590958E0F9F1F92
:103860000895FC016150704001900110D8F78095D7
:1038700090958E0F9F1F08950F931F93CF93DF9303
:10388000182F092FEB018B8181FD09C01FEF0FEF6E
:10389000812F902FDF91CF911F910F91089582FF7B
:1038A00014C02E813F818C819D81281739073CF4FB
:1038B000E881F981CF0101969983888310838E81F5
:1038C0009F8101969F838E83E3CFE885F985812FC1
:1038D0000995892BA1F3DACFFA01AA27283051F1F3
:1038E000203181F1E8946F936E7F6E5F7F4F8F4F31
:1038F0009F4FAF4FB1E03ED0B4E03CD0670F781F90
:10390000891F9A1FA11D680F791F8A1F911DA11D74
:103910006A0F711D811D911DA11D20D009F46894AD
:103920003F912AE0269F11243019305D3193DEF655
:10393000CF010895462F4770405D4193B3E00FD00B
:10394000C9F7F6CF462F4F70405D4A3318F0495DF6
:1039500031FD4052419302D0A9F7EACFB4E0A695D9
:103960009795879577956795BA95C9F700976105FB
:10397000710508959B01AC010A2E06945795479551
:1039800037952795BA95C9F7620F731F841F951F46
:08399000A01D0895F894FFCF7B
:1039980000001B03800000000000D50132015F0118
:1039A800220290016E01820100000000B30532017D
:1039B8004B034A030D0A005B494E464F5D204C43BA
:1039C80044205441534B005B494E46305D2072659C
:1039D8006365697665643A20004448540074656DEF
:1039E800702843293A200068756D696469747928DC
:1039F80025293A20004C4452006C75783A20006E14
:103A0800616E00696E66006F7666005B494E464FD0
:103A18005D20444854205441534B005B494E464F67
:103A28005D2044485420646174612073656E74009D
:103A380049444C4500546D722053766300506C61C4
:103A48006E742D6D6F6E69746F72004C4344004440
:103A580048543131205441534B00444854313100CB
:107E0000112484B714BE81FFF0D085E080938100F7
:107E100082E08093C00088E18093C10086E0809377
:107E2000C20080E18093C4008EE0C9D0259A86E02C
:107E300020E33CEF91E0309385002093840096BBD3
:107E4000B09BFECF1D9AA8958150A9F7CC24DD24C4
:107E500088248394B5E0AB2EA1E19A2EF3E0BF2EE7
:107E6000A2D0813461F49FD0082FAFD0023811F036
:107E7000013811F484E001C083E08DD089C08234E0
:107E800011F484E103C0853419F485E0A6D080C0E4
:107E9000853579F488D0E82EFF2485D0082F10E0AE
:107EA000102F00270E291F29000F111F8ED06801E7
:107EB0006FC0863521F484E090D080E0DECF843638
:107EC00009F040C070D06FD0082F6DD080E0C81688
:107ED00080E7D80618F4F601B7BEE895C0E0D1E017
:107EE00062D089930C17E1F7F0E0CF16F0E7DF06D8
:107EF00018F0F601B7BEE89568D007B600FCFDCFD4
:107F0000A601A0E0B1E02C9130E011968C91119780
:107F100090E0982F8827822B932B1296FA010C0160
:107F200087BEE89511244E5F5F4FF1E0A038BF0790
:107F300051F7F601A7BEE89507B600FCFDCF97BE46
:107F4000E89526C08437B1F42ED02DD0F82E2BD052
:107F50003CD0F601EF2C8F010F5F1F4F84911BD097
:107F6000EA94F801C1F70894C11CD11CFA94CF0C13
:107F7000D11C0EC0853739F428D08EE10CD085E9AC
:107F80000AD08FE07ACF813511F488E018D01DD067
:107F900080E101D065CF982F8091C00085FFFCCF94
:107FA0009093C60008958091C00087FFFCCF809118
:107FB000C00084FD01C0A8958091C6000895E0E648
:107FC000F0E098E1908380830895EDDF803219F02E
:107FD00088E0F5DFFFCF84E1DECF1F93182FE3DFCA
:107FE0001150E9F7F2DF1F91089580E0E8DFEE27F6
:047FF000FF270994CA
:027FFE00040479
:0400000300007E007B
:00000001FF
