:100000000C9402010C942A010C942A010C942A01EC
:100010000C942A010C942A010C94A8170C942A0120
:100020000C942A010C942A010C942A010C942A01A4
:100030000C942A010C942A010C942A010C942A0194
:100040000C94810C0C942A010C944F0C0C94290CE8
:100050000C942A010C942A010C942A010C942A0174
:100060000C942A010C942A015B494E464F5D204DA9
:10007000757465782063726561746564005B4552D0
:10008000524F525D2043616E277420637265617424
:1000900065206D75746578005B494E464F5D205153
:1000A000756575652063726561746564005B4552B2
:1000B000524F525D2043616E2774206372656174F4
:1000C00065207175657565005B494E464F5D20542E
:1000D00061736B207363686564756C65207374610C
:1000E00072746564005B4552524F525D20526561E7
:1000F00064206468743131206572726F723A200036
:100100005B494E464F5D2044485420646174612031
:1001100073656E74005B494E464F5D204448542021
:100120005441534B005B494E464F5D2066726565F6
:10013000206D656D6F72793A20005B4552524F52C7
:100140005D20437265617465207461736B20756E08
:100150006B6E6F776E206572726F72005B455252E4
:100160004F525D2043616E27742063726561746530
:10017000205461736B2C206D656D6F727920616CFA
:100180006C6F636174696F6E206572726F72005B71
:10019000494E464F5D206372656174656420004C72
:1001A0004452004448540000000000240027002A64
:1001B0000000000000250028002B000000000023A4
:1001C00000260029000404040404040404020202BA
:1001D0000202020303030303030102040810204088
:1001E0008001020408102001020408102000000011
:1001F00008000201000003040700000000000000E6
:100200000000AB1711241FBECFEFD8E0DEBFCDBF7B
:1002100012E0A0E0B1E0EEECF9E302C005900D922F
:10022000AA34B107D9F723E0AAE4B2E001C01D92D5
:10023000AB39B207E1F711E0C2E0D1E004C0219789
:10024000FE010E940B1CC130D107C9F70E94F517AF
:100250000C94E51C0C940000DC01ED91FC910190E4
:10026000F081E02D0994AF92BF92CF92DF92EF928E
:10027000FF920F931F93CF93DF936C017B018B0150
:10028000040F151FEB015E01AE18BF08C017D107A0
:1002900059F06991D601ED91FC910190F081E02D2A
:1002A000C6010995892B79F7C501DF91CF911F917F
:1002B0000F91FF90EF90DF90CF90BF90AF90089597
:1002C000FC01538D448D252F30E0842F90E0821B5C
:1002D000930B541710F0CF96089501970895FC01E1
:1002E000918D828D981761F0A28DAE0FBF2FB11D39
:1002F0005D968C91928D9F5F9F73928F90E0089591
:100300008FEF9FEF0895FC01918D828D981731F04A
:10031000828DE80FF11D858D90E008958FEF9FEF9E
:100320000895FC01918D228D892F90E0805C9F4F74
:10033000821B91098F739927089582EE92E00E94A3
:10034000910121E0892B09F420E0822F08950E9479
:100350009D0181110C940000089580E090E0892BAC
:1003600011F00C94A7010895FC01A48DA80FB92FDA
:10037000B11DA35ABF4F2C91848D90E001968F73CD
:100380009927848FA689B7892C93A089B1898C91EC
:10039000837080648C93938D848D981306C002883B
:1003A000F389E02D80818F7D80830895EF92FF9205
:1003B0000F931F93CF93DF93EC0181E0888F9B8D88
:1003C0008C8D98131AC0E889F989808185FF15C042
:1003D0009FB7F894EE89FF896083E889F989808165
:1003E0008370806480839FBF81E090E0DF91CF9134
:1003F0001F910F91FF90EF900895F62E0B8D10E056
:100400000F5F1F4F0F731127E02E8C8D8E110CC0C4
:100410000FB607FCFACFE889F989808185FFF5CF0F
:10042000CE010E94B401F1CFEB8DEC0FFD2FF11D39
:10043000E35AFF4FF0829FB7F8940B8FEA89FB894C
:1004400080818062CFCF0F931F93CF93DF938C0176
:10045000D0E0C0E0F801EC0FFD1F6491662341F08D
:1004600082EE92E00E94D601892B11F02196F2CF04
:10047000CE01DF91CF911F910F910895CF93DF931C
:10048000EC01888D8823B9F0AA89BB89E889F989AC
:100490008C9185FD03C0808186FD0DC00FB607FCE1
:1004A000F7CF8C9185FFF2CF808185FFEDCFCE0114
:1004B0000E94B401E9CFDF91CF910895833081F09C
:1004C00028F4813099F08230A9F008958730A9F09E
:1004D0008830C9F08430B1F4809180008F7D03C0F2
:1004E000809180008F7780938000089584B58F7706
:1004F00084BD089584B58F7DFBCF8091B0008F7748
:100500008093B00008958091B0008F7DF9CFCF9394
:10051000DF93282F30E0F901E351FE4F8491F90178
:10052000E752FE4FD491F901EB53FE4FC491CC2317
:10053000A1F081110E945E02EC2FF0E0EE0FFF1F90
:10054000E554FE4FA591B491EC91ED2381E090E04C
:1005500009F480E0DF91CF91089580E090E0FACF38
:100560001F93CF93DF93282F30E0F901E351FE4F23
:100570008491F901E752FE4FD491F901EB53FE4FFC
:10058000C491CC23A9F0162F81110E945E02EC2F9A
:10059000F0E0EE0FFF1FEF54FE4FA591B4918FB71F
:1005A000F894EC91111108C0D095DE23DC938FBF35
:1005B000DF91CF911F910895DE2BF8CFCF93DF937A
:1005C00090E0FC01E752FE4F24918B539E4FFC01BB
:1005D00084918823D1F090E0880F991FFC01E955A0
:1005E000FE4FA591B491FC01EF54FE4FC591D491FB
:1005F00061110EC09FB7F8948C91E22FE0958E2385
:100600008C932881E223E8839FBFDF91CF910895E7
:100610008FB7F894EC91E22BEC938FBFF6CF3FB7F6
:10062000F89480917F0290918002A0918102B09114
:10063000820226B5A89B05C02F3F19F00196A11D87
:10064000B11D3FBFBA2FA92F982F8827BC01CD011C
:10065000620F711D811D911D42E0660F771F881F7B
:10066000991F4A95D1F708958F929F92AF92BF92AA
:10067000CF92DF92EF92FF924B015C010E940F0339
:100680006B017C010E940F036C197D098E099F0983
:10069000683E734081059105A8F321E0821A910814
:1006A000A108B10888EEC80E83E0D81EE11CF11C39
:1006B00081149104A104B10429F7FF90EF90DF9019
:1006C000CF90BF90AF909F908F900895089590E045
:1006D00080E00895E0918802F09189028081811183
:1006E00007C08FEF9FEF909373028093720208957B
:1006F000E0918802F09189020580F681E02D068064
:10070000F781E02D82819381EECFCF93DF93EC01CF
:1007100060E08E810E94B00261E08E810E94B00292
:1007200060E08E810E94B0028BE891E00197F1F7C2
:10073000DF91CF910895CF92DF92EF92FF920F93C6
:100740001F93CF93DF936C017C0187E0E80EF11CCF
:10075000D0E0C0E0062F10E0B8010C2E02C0759565
:1007600067950A94E2F76170F70181917F010E9419
:10077000B0022196C430D10579F7C601DF91CF913F
:100780001F910F91FF90EF90DF90CF900C94850315
:10079000CF92DF92EF92FF920F931F93CF93DF934D
:1007A000EC01F62E642F8C810E94B0028D818F3F68
:1007B00019F060E00E94B0020F2D10E08F8584FFD9
:1007C00025C06E0187E0C80ED11CF12CE12CB801C8
:1007D0000E2C02C0759567950A94E2F76170F601D8
:1007E00081916F010E94B002FFEFEF1AFF0A88E0CB
:1007F000E816F10461F7CE01DF91CF911F910F91BF
:10080000FF90EF90DF90CF900C948503B80184E0C7
:10081000759567958A95E1F7CE010E949B036F2D30
:10082000CE01DF91CF911F910F91FF90EF90DF905C
:10083000CF900C949B0340E0682F8FE793E00C94DB
:10084000C80390919203691710F06FEF690FE62FBC
:10085000F0E0E158FC4F9489890F80680C941B04E8
:10086000CF93DF93813029F090918E03986090931D
:100870008E03809392031092930380E480939403F9
:1008800080E18093950380E58093960361E08091F9
:1008900083030E94DE02809184038F3F19F061E0A0
:1008A0000E94DE0261E0809185030E94DE02CFE7B4
:1008B000D3E09E012F57334080918E0384FD0BC0FF
:1008C00084E090E021962817390744F461E08E8196
:1008D0000E94DE02EECF88E090E0F4CF8BE39DE053
:1008E0000197F1F760E0809183030E94B00260E01D
:1008F000809185030E94B002809184038F3F19F09C
:1009000060E00E94B00280918E0384FD39C063E0F4
:100910008FE793E00E949B03CBE4D6E4CE010197DE
:10092000F1F763E08FE793E00E949B032197F1F7D3
:1009300063E08FE793E00E949B0383E592E00197D9
:10094000F1F762E08FE793E00E949B0380918E03B2
:1009500080620E941B0484E080938F038CE00E94DD
:100960001B0481E00E941B048BE39FE10197F1F7D8
:1009700082E08093900386E0DF91CF910C941B047A
:1009800080620E941B048BE496E40197F1F780914A
:100990008E0380620E941B0483E592E00197F1F7C9
:1009A00080918E0380620E941B04D0CF41E00E94A0
:1009B000C80381E090E00895FC0180819181009757
:1009C00011F00C94ED180895FB0101900020E9F757
:1009D0003197AF01461B570BDC01ED91FC91028072
:1009E000F381E02D0994CF93DF930E942302EC0161
:1009F00064E271E082EE92E00E94E4048C0F9D1F9D
:100A0000DF91CF9108958F929F92AF92BF92EF9214
:100A1000FF920F931F93CF93DF93CDB7DEB7A197CC
:100A20000FB6F894DEBF0FBECDBF7C01FA01CB013B
:100A300019A2223008F42AE08E010F5D1F4F822E8A
:100A4000912CB12CA12CBF01A50194010E94E91B9E
:100A5000F901CA016A300CF5605DD8016E938D0111
:100A6000232B242B252B79F790E080E0109721F0A1
:100A7000BD01C7010E94E404A1960FB6F894DEBF41
:100A80000FBECDBFDF91CF911F910F91FF90EF90DF
:100A9000BF90AF909F908F900895695CDECFCF920A
:100AA000DF92EF92FF920F931F93CF93DF9377FF25
:100AB0001DC06A017B01EC016DE20E942C018C01DA
:100AC00044275527BA014C195D096E097F092AE0B0
:100AD000CE010E940305800F911FDF91CF911F91DE
:100AE0000F91FF90EF90DF90CF9008952AE0DF9173
:100AF000CF911F910F91FF90EF90DF90CF900C94CA
:100B00000305CF93DF93AC01990F660B770B82EE51
:100B100092E00E944F05EC0164E271E082EE92E007
:100B20000E94E4048C0F9D1FDF91CF910895CF9315
:100B3000DF9300D0CDB7DEB785E291E00E942302BB
:100B40002091970330919803CE010196211531052C
:100B500069F48B5993409A83898389819A810E9491
:100B600081050F900F90DF91CF910895821B930B19
:100B7000E0919903F0919A0330E020E0309751F032
:100B80002E5F3F4F40815181240F351F0280F3813A
:100B9000E02DF4CF820F931FDECFCF93DF93BC0104
:100BA00082EE92E00E94E404EC0164E271E082EEE5
:100BB00092E00E94E4048C0F9D1FDF91CF91089575
:100BC0002F923F924F925F926F927F928F929F925D
:100BD000AF92BF92CF92DF92EF92FF921F93CF938B
:100BE000DF93EC016A017B01722EAB019601CB0110
:100BF000B6010E94E41B67E271E0811126C0460144
:100C00005701E894B7F82FEF3FEF4FE75FE7C501D3
:100C1000B4010E94E41B81110CC02FEF3FEF4FE79E
:100C20005FE7C501B4010E9476196BE271E0181606
:100C300064F02FEF3FEF4FE75FE4C701B6010E947A
:100C4000DF1B1816B4F46FE271E0CE01DF91CF9193
:100C50001F91FF90EF90DF90CF90BF90AF909F904B
:100C60008F907F906F905F904F903F902F900C945B
:100C7000E4042FEF3FEF4FE75FECC701B6010E949E
:100C8000761987FDE0CF20E030E0A901C701B60169
:100C90000E947619312C212C87FF09C06DE2CE010C
:100CA0000E942C011C01F7FAF094F7F8F09410E080
:100CB00060E070E080E09FE3711641F020E030E0FA
:100CC00040E251E40E943E1B1F5FF6CFA701960150
:100CD0000E94D21A2B013C010E94B01B4B015C0107
:100CE0002AE0BC01A401CE010E9403057C01E20CB4
:100CF000F31C1123C1F1C501B4010E947B199B01B2
:100D0000AC01C301B2010E94D11A4B015C016EE239
:100D1000CE010E942C01E80EF91E115020F120E0B6
:100D200030E040E251E4C501B4010E94DC192B011E
:100D30003C010E94B01B4B01B12CA12C2AE0B50153
:100D4000A401CE010E940305E80EF91EC501B401FD
:100D50000E947B199B01AC01C301B2010E94D11A10
:100D60004B015C01DACFC701DF91CF911F91FF905A
:100D7000EF90DF90CF90BF90AF909F908F907F903B
:100D80006F905F904F903F902F900895CF93DF9397
:100D9000EC016130B1F48FE891E00E9423024C81B4
:100DA0005D816881798182EE92E00E94330164E284
:100DB00071E082EE92E00E94E404DF91CF910C9406
:100DC00097058CE591E06F3F11F08AE391E00E9476
:100DD000F304F3CFEF92FF920F931F93CF93DF9320
:100DE000EC017B01198218821B821A821D821C82EF
:100DF000FB0101900020E9F731978F01061B170BCB
:100E0000B8016F5F7F4F90E080E00E94111C009757
:100E1000B9F0998388831B830A832C813D81232B1E
:100E200011F4FC0110821D830C83B7018881998124
:100E3000DF91CF911F910F91FF90EF900C94DE1CEA
:100E400088819981009711F00E94ED18198218820B
:100E50001D821C821B821A82DF91CF911F910F91FC
:100E6000FF90EF90089500E010E0809171028111F1
:100E70000CC08091BD02823010F00E94B80E0115A6
:100E8000110599F30E94A701F0CF0FB6F8940F92C5
:100E9000E0919802F0919902C681D781CE01029625
:100EA0000E94390D8091B90281508093B9028091DE
:100EB00071028150809371020F900FBE8F89988DBF
:100EC0000E94FE11CE010E94FE11CFCF7F928F9221
:100ED0009F92AF92BF92CF92DF92EF92FF920F93C9
:100EE0001F93CF93DF9300D000D000D01F92CDB7D7
:100EF000DEB79F838E8383E391E00E94CD0500914E
:100F00005602109157028FEF9FEF9D838C83D12C57
:100F100090E0580121E1A20EB11C89E0782E24E076
:100F2000822E912C0FB6F8940F92D8015A968C917C
:100F30005A97882309F453C081505A968C935A9734
:100F40008D919C91892BA1F480914A0290914B0242
:100F5000892B39F0E0914A02F0914B0282A18F5F18
:100F600082A380914A0290914B02F8019583848379
:100F7000D80118968C91882339F0C80108960E94F0
:100F80005D0D81110E94B80E0F900FBE4FEF5FEF05
:100F9000BE016A5F7F4F80915402909155020E947A
:100FA0009C1050E040E070E060E08091560290912B
:100FB00057020E949C1027960FB6F894DEBF0FBE12
:100FC000CDBFDF91CF911F910F91FF90EF90DF90F8
:100FD000CF90BF90AF909F908F907F9008952C817D
:100FE0003D81232B89F2911109C08091BC02898334
:100FF0008091BA029091BB029B838A830F900FBEAF
:101000000E94080D0FB6F8940F92F801858D8F3F5E
:1010100009F4158ED8015E968C915E978F3F11F47E
:101020005E961C920F900FBEBE016C5F7F4FCE018B
:1010300001960E94CB0C81118AC0C8010E940E0D3E
:10104000882309F47EC0F80180819181892B09F001
:1010500052C00FB6F8940F92E480F580E114F104C9
:1010600009F46DC0F7018689E0914A02F0914B02C4
:101070009689891708F057C0D7011C962D913C918D
:101080001D9737FD0CC0E0914A02F0914B02968902
:101090009401291B31091D963C932E931C97879D23
:1010A000C001112483549D4FF701228533852817F1
:1010B000390789F56701F2E0CF0ED11CC6010E9405
:1010C000390DE0914A02F0914B028689D70156967C
:1010D0008C939091E102981710F48093E102879D20
:1010E000C0011124B60183549D4F0E94190DDD24C7
:1010F000D3940F900FBE6C817D81C5010E94990E23
:10110000C8010E949C0D0E94760F811102C00E94AE
:10111000B80E91E007CFE0914A02F0914B02868928
:10112000F701868BE4CFE0914A02F0914B02DD2477
:10113000D394D70191969C9186899817D0F2D12C9F
:10114000D8CFC8010E949C0D0E94760FE2CFC80143
:101150000E949C0D0E94760FC8010E940E0D8823EC
:10116000C1F2DD2009F412CF0FB6F8940F92F80106
:101170008189882309F458C00688F789E02D908179
:1011800084E0891BD80114960D911C91011511055D
:1011900009F4FACEF80191A1981708F4982FD80114
:1011A00056968C915697981709F4EECE92962C91FC
:1011B0009297213009F0E8CE56969C9356971C964C
:1011C0002D913C911D9737FD08C024E030E0291B8C
:1011D00031091D963C932E931C97B9E08B9FC0015B
:1011E000112483549D4FF801228533852817390730
:1011F00009F0CACE7801F2E0EF0EF11CC7010E949F
:10120000390DD80156968C919091E102981710F4FF
:101210008093E102B9E08B9FC0011124B701835490
:101220009D4F0E94190DB0CE80E0ACCFCF93DF93DD
:10123000CDB7DEB72B970FB6F894DEBF0FBECDBF8C
:1012400082E0E82EF12C8EE491E00E94CD0587E04B
:101250000E9487028C016EE571E082EE92E00E94AE
:10126000E404C8010E948105FA82E9821C830B8391
:10127000CE0101960E94660783E791E00E94CD05AA
:101280000E94B80EE0CFCF93DF93CDB7DEB72B9798
:101290000FB6F894DEBF0FBECDBF80E4B82E01E0DC
:1012A00010E088E891E00E94CD05B0927C0080912A
:1012B0007A00806480937A0080917A0086FDFCCF6A
:1012C0008091780060917900762F682F072E000CAE
:1012D000880B990B0E947D196B017C01C092500212
:1012E000D0925102E0925202F092530220E030E09C
:1012F000A9010E947619882309F44FC020E030E04C
:1013000040EA5BE3C701B6010E94DC199B01AC0116
:1013100060E070E08AE793E40E943E1B20E030E04A
:1013200048E452E40E94D11A6B017C0168E971E043
:1013300082EE92E00E94E4044091500250915102EA
:10134000609152027091530222E082EE92E00E947C
:10135000E0056BEA71E082EE92E00E94E40422E094
:10136000B701A60182EE92E00E94E00564E271E01E
:1013700082EE92E00E94E4041A830983CB82DC822D
:10138000ED82FE82CE0101960E94660783EB91E01A
:101390000E94CD050E94B80E84CFC12CD12C7601BD
:1013A000C5CFCF93DF93CDB7DEB72B970FB6F894A9
:1013B000DEBF0FBECDBF60E080E00E94210481E06F
:1013C0000E941B048BE39FE10197F1F788EC91E009
:1013D0000E94CD054FEF5FEFBE016F5F7F4F8091A1
:1013E0005402909155020E940F128130B1F568EDC0
:1013F00071E082EE92E00E94E40489819A81009774
:1014000079F583EA91E00E94F3046AEE71E08FE7D8
:1014100093E00E94E40460E08AE00E9421044C8191
:101420005D816E817F818FE793E00E944F0561E0CF
:1014300080E00E94210464EF71E08FE793E00E9456
:10144000E40461E08EE00E942104488559856A85A4
:101450007B858FE793E00E944F050E94B80EB6CFC0
:101460000197D9F78FE991E00E94F30462E080E0F0
:101470000E9421046DEA71E08FE793E00E94E4048A
:1014800062E086E00E9421044B815C816D817E8157
:1014900022E08FE793E00E94E005DFCFCF93DF9358
:1014A000CDB7DEB764970FB6F894DEBF0FBECDBFE1
:1014B00022242394312C85E191E00E94F3041C86C0
:1014C0001D861E861F86188A61E086E00E94DE0265
:1014D00060E086E00E94B00262E170E080E090E0AF
:1014E0000E94340361E086E00E94B0028BE990E044
:1014F0000197F1F760E086E00E94DE0201E117E269
:1015000086E00E948702892B71F401501109C1F70E
:101510000EEF1FEF85EE90E00E942302C8010E94AB
:10152000810580E07BC001E117E286E00E9487022E
:10153000019721F401501109C1F7EACF08E210E048
:1015400037E0D32EC12C21E1E22E27E2F22E86E0F5
:101550000E948702892B29F421E0E21AF108B9F7E9
:10156000D7CF0E940F032B013C0191E1E92E97E2B6
:10157000F92E86E00E948702019729F431E0E31AF0
:10158000F108B9F7C5CF0E940F03641975098609E0
:101590009709693271058105910578F0ECE0F0E07A
:1015A000EC0FFD1FEC0DF11D808191010D2C01C090
:1015B000220F0A94EAF7822B8083D1104BC0C39488
:1015C00087E0D82E0150110909F0BDCF8C85282F56
:1015D00030E030934D0220934C029E85292F30E05D
:1015E00030934F0220934E02382F390F28890FEF86
:1015F0001FEF32138FCF292F30E050E040E0298BCE
:101600003A8B4B8B5C8B882E912CB12CA12C64E6F1
:1016100070E080E090E00E94340381E01A82198239
:101620008B8329893A894B895C892C833D834E833E
:101630005F8388869986AA86BB86882341F0CE017F
:1016400001960E94660780E091E00E94F3040E94E8
:10165000B80E31CFDA94B6CF0F931F93CF93DF93A9
:1016600000D000D000D0CDB7DEB7E091F202F0910B
:10167000F30282E08083E091EE02F091EF021082AB
:10168000E091F002F091F1028FEC80831092FA0267
:10169000E091F602F091F70286E08083E091F40297
:1016A000F091F502808180618083E091F402F091F5
:1016B000F502808188608083E091F402F091F50268
:1016C000808180688083E091F402F091F50280814E
:1016D0008F7D808384E00E9430046FE072E08FE7AA
:1016E00093E00E94E40460E087E00E94DE0260E094
:1016F00081E00E94C3158C01009761F0FC01158206
:10170000148211821082168250E040E070E060E0A6
:101710000E949C101093570200935602012B21F453
:101720008DE790E00E94F30488E690E00E94F304C5
:101730006BE082E00E94C31590935502809354029F
:10174000892B21F48DEA90E00E94F30488E990E06F
:101750000E94F30410E000E023E048EC50E06FEC5E
:1017600071E081ED99E00E940B16182F6DE172E097
:10177000CE0101960E94EA06612FCE0101960E94D9
:10178000C606CE0101960E94DC0410E000E023E0D2
:1017900048EC50E061E272E08EE49AE00E940B16A1
:1017A000182F6CE272E0CE0101960E94EA06612FCA
:1017B000CE0101960E94C606CE0101960E94DC046D
:1017C00010E000E023E048EC50E062E372E086E1E4
:1017D00099E00E940B16182F60E472E0CE0101968A
:1017E0000E94EA06612FCE0101960E94C606CE0134
:1017F00001960E94DC0410E000E023E048EC50E099
:101800006FE871E083E499E00E940B16182F65E4FD
:1018100072E0CE0101960E94EA06612FCE01019688
:101820000E94C606CE0101960E94DC040E94161793
:101830000E94970588EC90E00E94F30426960FB66C
:10184000F894DEBF0FBECDBFDF91CF911F910F91F6
:1018500008951F920F920FB60F9211242F933F936A
:101860004F935F936F937F938F939F93AF93BF93A8
:10187000EF93FF9382EE92E00E94B401FF91EF910B
:10188000BF91AF919F918F917F916F915F914F9198
:101890003F912F910F900FBE0F901F9018951F92A0
:1018A0000F920FB60F9211242F938F939F93EF9364
:1018B000FF93E091F202F091F3028081E091F8024F
:1018C000F091F90282FD1BC090818091FB028F5F35
:1018D0008F732091FC02821741F0E091FB02F0E04F
:1018E000EE51FD4F958F8093FB02FF91EF919F91F9
:1018F0008F912F910F900FBE0F901F9018958081A0
:10190000F4CF1F920F920FB60F9211242F933F9393
:101910008F939F93AF93BF9380917B0290917C02B2
:10192000A0917D02B0917E0230917A0223E0230FD4
:101930002D3758F50196A11DB11D20937A02809391
:101940007B0290937C02A0937D02B0937E028091F3
:101950007F0290918002A0918102B0918202019653
:10196000A11DB11D80937F0290938002A0938102FC
:10197000B0938202BF91AF919F918F913F912F9130
:101980000F900FBE0F901F90189526E8230F029618
:10199000A11DB11DD2CFFC01DB010FB6F8940F924F
:1019A0004091BA025091BB022D913C9111972F3F6B
:1019B0003207E1F0818192816091BC0270817617DB
:1019C00019F048175907C0F4481B590B4217530721
:1019D00088F4241B350B2D933C938091BC028083AB
:1019E0008091BA029091BB029283818380E00F9034
:1019F0000FBE08951D921C9281E0F9CF0FB6F894A6
:101A00000F928091BA029091BB020F900FBE089581
:101A1000809183028F5F8093830208950FB6F894BC
:101A20000F92FC01928D0F900FBE81E0911180E02A
:101A30000895CF93DF939C01FB01DC011196CD91BA
:101A4000DC91D383C2838C819D81958384838C8137
:101A50009D81DC0113967C936E9312977D836C833A
:101A600031872087F90180818F5F8083DF91CF915B
:101A70000895CF93DF93FC01A085B1858281938186
:101A800024813581EC013D832C83C481D5819B83E6
:101A90008A8311968D919C9112978E179F0721F43E
:101AA0001296DC93CE931197118610868C918150FB
:101AB0008C938C91DF91CF9108950F931F93CF93C7
:101AC000DF93DC011596ED91FC91C681D7818E01E3
:101AD000045F1F4FC8010E94390D8091830281115C
:101AE00025C00A501109C8010E94390D8E899091B4
:101AF000E102981710F48093E102B9E08B9FC001D6
:101B00001124B80183549D4F0E94190DE0914A029F
:101B1000F0914B029E898689891760F481E0809359
:101B20007002DF91CF911F910F910895B8018CE958
:101B300092E0EACF80E0F5CFEF92FF920F931F93F0
:101B4000CF93DF93EC010FB6F8940F921E8D7C01BA
:101B500081E1E80EF11C01E01116D4F08FEF8E8FB9
:101B60000F900FBE0FB6F8940F921D8D7E0188E086
:101B7000E80EF11C01E01116B4F08FEF8D8F0F907D
:101B80000FBEDF91CF911F910F91FF90EF900895BD
:101B90008989882319F3C7010E945D0D8111009383
:101BA00070021150D9CF8885882339F3C7010E946C
:101BB0005D0D8111009370021150DDCF0F931F93C3
:101BC000CF93DF938C01FB0180819181D801139623
:101BD0008F3F9807F1F4E801AF81B88512968D9197
:101BE0009C91139793838283EC01FD83EC83B583EF
:101BF000A4831396FC93EE93129711870087F80144
:101C000080818F5F8083DF91CF911F910F91089525
:101C1000D90112962D913C911397E9014881598180
:101C200084179507A8F7DACFFC0173836283918745
:101C300080874617570790F0421B530B8485958584
:101C400048175907C8F4BF016E5F7F4F8091760235
:101C5000909177020E94DE0D80E0089542175307AD
:101C600018F46217730740F4BF016E5F7F4F8091D5
:101C7000780290917902EECF81E00895FF920F9360
:101C80001F93CF93DF93EC01F62E0091BA021091CF
:101C9000BB0280914A0290914B0202960E94390D3C
:101CA000CF3FDC0789F4FF2079F060914A02709100
:101CB0004B026E5F7F4F8AE892E0DF91CF911F91D8
:101CC0000F91FF900C94190DC00FD11FE0914A02A3
:101CD000F0914B02D383C28360914A0270914B0210
:101CE000C017D10768F480918602909187026E5FD9
:101CF0007F4FDF91CF911F910F91FF900C94DE0DDC
:101D000080918802909189026E5F7F4F0E94DE0D64
:101D10008091720290917302C817D90720F4D09372
:101D20007302C0937202DF91CF911F910F91FF90C8
:101D30000895CF93DF93EB0160914A0270914B02BB
:101D4000645F7F4F0E94DE0D61E0CE01DF91CF9195
:101D50000C943E0EFC010396928381832FEF3FEF9C
:101D600034832383968385839087878310820895A5
:101D70000F920FB6F8940F921F9211242F923F9258
:101D80004F925F926F927F928F929F92AF92BF928B
:101D9000CF92DF92EF92FF920F931F932F933F9377
:101DA0004F935F936F937F938F939F93AF93BF9363
:101DB000CF93DF93EF93FF93A0914A02B0914B0230
:101DC0000DB60D920EB60D9280918302882321F0FC
:101DD00081E0809370025FC010927002A0914A026D
:101DE000B0914B02E0914A02F0914B022D913C914F
:101DF0008789908D82179307A8F080914A0290916D
:101E00004B0280914A0290914B02259A2D9A2FEF16
:101E100087EA91E6215080409040E1F700C0000041
:101E20001D9AF5CF2091E10289E001C02150422F97
:101E300050E0849FF001859FF00D1124E354FD4F85
:101E40009081992399F3A181B28112960D90BC9152
:101E5000A02DB283A183289FC001112480549D4FDF
:101E6000A817B90729F412968D919C9192838183CA
:101E700089E0849FF001859FF00D1124E354FD4F0C
:101E80000180F281E02D8681978190934B028093AF
:101E90004A022093E102A0914A02B0914B02CD91F7
:101EA000CDBFDD91DEBFFF91EF91DF91CF91BF916B
:101EB000AF919F918F917F916F915F914F913F91E2
:101EC0002F911F910F91FF90EF90DF90CF90BF90D7
:101ED000AF909F908F907F906F905F904F903F90CA
:101EE0002F901F900F900FBE0F9008957F928F92AA
:101EF0009F92AF92BF92CF92DF92EF92FF920F9399
:101F00001F93CF93DF930FB6F8940F9280918302C3
:101F100081508093830280918302882389F080E03E
:101F20000F900FBEDF91CF911F910F91FF90EF9017
:101F3000DF90CF90BF90AF909F908F907F9008954B
:101F40008091B902882359F3D0E0C0E029E0F22E55
:101F5000EE24E39429C0E091A102F091A202C6818F
:101F6000D781CE010C960E94390D8E010E5F1F4F56
:101F7000C8010E94390D8E899091E102981710F4E2
:101F80008093E1028F9DC0011124B80183549D4FBD
:101F90000E94190DE0914A02F0914B029E898689B8
:101FA000981710F0E092700280919C028111D3CFBB
:101FB000CD2B11F00E946A03E0906E02F0906F0248
:101FC000E114F10409F4AFC089E0A82E77247394DA
:101FD000CC24CA94DC2C80918302811192C0C091E0
:101FE000BA02D091BB022196D093BB02C093BA0231
:101FF0002097B9F4809188029091890220918602FD
:10200000309187023093890220938802909387024F
:10201000809386028091BC028F5F8093BC020E94F5
:102020006A038091720290917302B12CC817D9078C
:1020300008F05BC0E0914A02F0914B02E689AE9E47
:10204000F0011124E354FD4F8081823010F0BB2455
:10205000B39480917002811103C0BB2009F45AC06F
:102060007092700257C0E0918802F0918902058059
:10207000F681E02D06811781D80112968D919C91F1
:10208000C817D90728F49093730280937202D2CFB5
:102090004801B2E08B0E911CC4010E94390DF80179
:1020A00084899589892B21F0C8010C960E94390DED
:1020B000D80156968C919091E102981710F4809374
:1020C000E1028A9DC0011124B40183549D4F0E94F6
:1020D000190DE0914A02F0914B02D80156969C915D
:1020E0008689981710F0BB24B394E0918802F09190
:1020F000890280818111B7CFD0927302C09272029F
:1021000099CF80916E0290916F02019690936F0229
:1021100080936E02B1E0EB1AF10809F05CCF1092E7
:102120006F0210926E0280917002882309F4F7CE3C
:102130000E94B80E81E0F4CEAF92BF92DF92EF9290
:10214000FF920F931F93CF93DF9300D000D01F9285
:10215000CDB7DEB78C017B015D834C8380E05801F5
:1021600028E0A20EB11C0FB6F8940F92F801228D50
:10217000938D291708F077C0D28C448D411159C036
:1021800080819181892B11F080E009C0E480F58085
:10219000E114F10419F580E0F80115821482D3945A
:1021A000F801D28E9189992321F0C80141960E94AD
:1021B0005D0D81110E94B80E0F900FBE81E00F904F
:1021C0000F900F900F900F90DF91CF911F910F9173
:1021D000FF90EF90DF90BF90AF900895F70182A13C
:1021E000815082A3268991A12917A9F28111D3CF09
:1021F0005701F2E0AF0EB11CC5010E94390DF70185
:1022000081A1868B24E030E0281B310935872487A3
:102210009091E102981710F48093E102F9E08F9F0A
:10222000C0011124B50183549D4F0E94190D81E016
:10223000B3CF50E0B701828193810E94CE1CF80198
:10224000848D22813381820F932F911D938382830A
:10225000248135818217930708F496CF808191817C
:102260009383828391CF2C813D81232B21F40F9086
:102270000FBE80E0A4CF811109C08091BC02898388
:102280008091BA029091BB029B838A830F900FBE0C
:102290000E94080D0FB6F8940F92F801858D8F3FBC
:1022A00009F4158EF801868D8F3F09F4168E0F9074
:1022B0000FBEBE016C5F7F4FCE0101960E94CB0C1A
:1022C000811120C00FB6F8940F92F801928D838D82
:1022D0000F900FBE981310C06C817D81C5010E94C4
:1022E000990EC8010E949C0D0E94760F811102C0B8
:1022F0000E94B80E81E037CFC8010E949C0D0E9459
:10230000760FF8CFC8010E949C0D0E94760FB1CFC6
:10231000CF93DF9300D000D01F92CDB7DEB79C01E2
:1023200080918402909185020097C9F019827B8385
:102330006A833D832C832091B80250E040E0BE01C7
:102340006F5F7F4F2111209183020E949C100F909C
:102350000F900F900F900F90DF91CF91089580E034
:10236000F6CFEF92FF920F931F93CF93DF93E091FD
:102370007802F09179028081811113C080917602F8
:10238000909177029093790280937802F09377028C
:10239000E0937602DF91CF911F910F91FF90EF9024
:1023A00008950580F681E02D00811181C681D781D5
:1023B0007E0182E0E80EF11CC7010E94390DE88918
:1023C000F989CE0109958A8982FFD1CF8C859D85B7
:1023D000800F911F0817190760F49B838A83D987A0
:1023E000C887B70180917802909179020E94DE0D32
:1023F000BECFB801CE010E948811B9CFCF93DF9331
:10240000009751F0EC010E94080DCE010E94ED18DA
:10241000DF91CF910C94760FDF91CF910895AF9219
:10242000BF92CF92DF92FF920F931F93CF93DF93D0
:1024300000D000D01F92CDB7DEB78C016B015D8359
:102440004C8380E0580191E1A90EB11C0FB6F894BD
:102450000F92F801F28CFF20C1F1448D4423B1F0BA
:1024600050E086819781840F951F9783868324810E
:1024700035818217930720F080819181978386832D
:10248000F80166817781C6010E94CE1CFA94F8019A
:10249000F28E8085882339F0C80108960E945D0D70
:1024A00081110E94B80E0F900FBE81E00F900F9027
:1024B0000F900F900F90DF91CF911F910F91FF9090
:1024C000DF90CF90BF90AF9008952C813D81232B5A
:1024D00021F40F900FBE80E0E9CF811109C08091F7
:1024E000BC0289838091BA029091BB029B838A834C
:1024F0000F900FBE0E94080D0FB6F8940F92F801CE
:10250000858D8F3F09F4158EF801868D8F3F09F474
:10251000168E0F900FBEBE016C5F7F4FCE010196ED
:102520000E94CB0C81111BC0C8010E940E0D882394
:1025300081F06C817D81C5010E94990EC8010E94C5
:102540009C0D0E94760F811102C00E94B80E81E09E
:102550007DCFC8010E949C0D0E94760FF8CFC80164
:102560000E949C0D0E94760FC8010E940E0D8823C8
:1025700071F3B1CFCF93DF9300D000D01F92CDB7CE
:10258000DEB7E0917802F0917902F08010E000E08F
:10259000FF2029F00580F681E02D008111810E9445
:1025A000080D0E94FE0C6C018091740290917502DE
:1025B000C816D90608F04BC00E94B111D09275021E
:1025C000C09274020E94760F50E040E0BE016F5F3F
:1025D0007F4F80918402909185020E940F12882380
:1025E00081F2898187FDF0CF0C811D81D8011A9677
:1025F0008D919C91892B21F0C80102960E94390D82
:102600000E94FE0C7C018091740290917502E81684
:10261000F90610F40E94B111F0927502E092740272
:10262000E981EA3088F60E2E000CFF0BE35EFC4ECB
:10263000D80152968C910C940B1CA113A113A113D9
:10264000DA13C513D413A113A113DA13C513D0924F
:102650007502C0927402FF2099F1C016D106C0F134
:102660000E94760FE0917802F09179020580F68160
:10267000E02DE680F780C70102960E94390DD70150
:1026800052968C91529782FF17C01C966D917C9147
:10269000600F711F9801A601C7010E94140E8823C4
:1026A00021F0B801C7010E948811D7015096ED9121
:1026B000FC91C701099588CF8E7FF701828BF5CFFA
:1026C000E0917602F09177028081BB24B39481116E
:1026D000B12CE0908402F09085020FB6F8940F922E
:1026E000F701858D8F3F09F4158ED7015E968C9189
:1026F0005E978F3F11F45E961C920F900FBEF7010C
:10270000828D811114C060914A0270914B02645F06
:102710007F4FC70141960E94190DC8018C199D0970
:10272000BB2011F08FEF9FEF6B2D0E943E0EC70173
:102730000E949C0D0E94760F811146CF0E94B80E18
:1027400043CF8160F801828B2A813B816485758546
:10275000620F731FA701C8010E94140E882309F499
:1027600033CFD8015096ED91FC91C8010995F8013D
:10277000828982FF29CF6A817B8184859585680F54
:10278000791FC8010E9488111FCF8160F801828BD8
:102790006A817B81758764876E0D7F1D9701A70114
:1027A000C8010E94140E10CF81FD04C0C8010E9410
:1027B000FE110ACF8E7FD80152968C9305CF0F92CF
:1027C0000FB6F8940F921F9211242F923F924F92BE
:1027D0005F926F927F928F929F92AF92BF92CF92B1
:1027E000DF92EF92FF920F931F932F933F934F939C
:1027F0005F936F937F938F939F93AF93BF93CF9389
:10280000DF93EF93FF93A0914A02B0914B020DB674
:102810000D920EB60D9213BE809183028111F6C007
:102820008091BA029091BB0201969093BB02809373
:10283000BA02009799F5209188023091890240915F
:102840008602509187025093890240938802309308
:102850008702209386022091BC022F5F2093BC0246
:10286000E0918802F09189022081211107C02FEFA9
:102870003FEF309373022093720210C0E091880200
:10288000F09189020580F681E02D0680F781E02D28
:10289000228133813093730220937202209172025D
:1028A000309173028217930710F420E09BC020E060
:1028B00019E0E0918802F09189023081311107C05E
:1028C0008FEF9FEF90937302809372028BC0E09121
:1028D0008802F09189020580F681E02D0680F7815B
:1028E000E02D428153818417950728F45093730299
:1028F0004093720277C0AF014E5F5F4FA285B385F0
:1029000064817581E680F780EB01FD82EC82C681EF
:10291000D7817B836A8311966D917C9112974617BC
:10292000570721F41296DC93CE93119713861286E3
:102930003C9131503C933C91A489B5891097F9F0B2
:1029400066857785E088F188EB01FD82EC82C0899D
:10295000D1897B836A831196ED90FC901297BF0119
:10296000645F7F4FE616F70621F41296DC93CE9350
:102970001197158A148A3C9131503C933C91A68959
:102980003091E1023A1710F4A093E1021A9FD001AE
:102990001124BD0163547D4F7B01DB011196CD9164
:1029A000DC91D583C4836C817D81778366836C8160
:1029B0007D81DB0113965C934E9312975D834C836C
:1029C000F386E286E70138813F5F3883A0914A02AF
:1029D000B0914B02468956963C91431708F469CF53
:1029E00021E067CFE0914A02F0914B02E689D9E0FD
:1029F000ED9FF0011124E354FD4F8081823008F0F7
:102A000021E08091700281110EC00AC080916E0297
:102A100090916F02019690936F0280936E026AC04C
:102A2000222309F467C080918302882321F081E08A
:102A3000809370025FC010927002A0914A02B09120
:102A40004B02E0914A02F0914B022D913C91878913
:102A5000908D82179307A8F080914A0290914B02C3
:102A600080914A0290914B02259A2D9A2FEF67EAA6
:102A700071E6215060407040E1F700C000001D9AEF
:102A8000F5CF2091E10289E001C02150422F50E0B2
:102A9000849FF001859FF00D1124E354FD4F908138
:102AA000992399F3A181B28112960D90BC91A02D2A
:102AB000B283A183289FC001112480549D4FA81781
:102AC000B90729F412968D919C919283818389E0B4
:102AD000849FF001859FF00D1124E354FD4F018088
:102AE000F281E02D8681978190934B0280934A0278
:102AF0002093E102A0914A02B0914B02CD91CDBF4B
:102B0000DD91DEBFFF91EF91DF91CF91BF91AF914A
:102B10009F918F917F916F915F914F913F912F91F5
:102B20001F910F91FF90EF90DF90CF90BF90AF90EB
:102B30009F908F907F906F905F904F903F902F90DD
:102B40001F900F900FBE0F900895CF93DF93EC016D
:102B50000E94080DCE010E945118EC010E94760FD0
:102B6000209769F4259A2D9A2FEF80E792E0215063
:102B700080409040E1F700C000001D9AF5CFCE01E3
:102B8000DF91CF9108950F931F93CF93DF93082F79
:102B9000162F869FC00111244F960E94A515EC01A7
:102BA000009779F1111133C0998388830B8F1C8FA3
:102BB0000FB6F8940F92888199812B8D4C8DBC01B2
:102BC000249F600D711D11247D836C831A8E9B835D
:102BD0008A832150330B429FB001439F700D112413
:102BE000860F971F9F838E838FEF8D8F8E8FCE01E1
:102BF00008960E94AA0ECE0141960E94AA0E0F903E
:102C00000FBECE01DF91CF911F910F9108954F9686
:102C100099838883CBCF7F928F929F92AF92BF92FE
:102C2000CF92DF92EF92FF920F931F93CF93DF9398
:102C3000982EA92E762E872E7A01B22ECA010E94D6
:102C4000A5156C01892B09F4D0C088E290E00E94A0
:102C5000A515EC01892B09F4C5C0D88ECF8AA70130
:102C600065EA70E0C6010E94D71C21E0E21AF10873
:102C7000EF89F88DEE0DFF1D672D782DCE01499659
:102C80009B01285F3F4FDB014D91BD01DC014D935E
:102C9000CD01AB0141505109DA014C91442319F0A7
:102CA0006217730781F718A2BE8AB9A21AA21B86FF
:102CB0001A861D8A1C8AD987C88784E090E08B1900
:102CC00091099D878C87DB8BCA8B1BA21CA21DA23E
:102CD0001EA21FA29082DF011197AC9211971C9245
:102CE000119780E88C9311971C9257971C9211971B
:102CF0001C92B397F983E8830115110519F0F801C7
:102D0000D183C0830FB6F8940F928091B9028F5F80
:102D10008093B90280914A0290914B02892B09F06D
:102D200073C0D0934B02C0934A028091B9028130A4
:102D300081F58DEB92E00E94AA0E86EC92E00E9453
:102D4000AA0E8FEC92E00E94AA0E88ED92E00E94FB
:102D5000AA0E8EEA92E00E94AA0E85EA92E00E94F4
:102D6000AA0E8CE992E00E94AA0E83E992E00E94EA
:102D7000AA0E8AE892E00E94AA0E8EEA92E0909350
:102D800089028093880285EA92E09093870280937B
:102D900086028091B7028F5F8093B7028E899091EF
:102DA000E102981710F48093E102F9E08F9FC001CF
:102DB0001124BE016E5F7F4F83549D4F0E94190DF9
:102DC0000F900FBE8091B802882351F0E0914A0223
:102DD000F0914B0296898E89981710F40E94B80ED4
:102DE00081E004C0C6010E94FE118FEFDF91CF91F8
:102DF0001F910F91FF90EF90DF90CF90BF90AF9019
:102E00009F908F907F9008958091B8028111C1CFDB
:102E1000E0914A02F0914B029E898689981708F446
:102E2000B8CFD0934B02C0934A02B3CF0F931F93F6
:102E30000CE612E020E040EC50E062E072E083E358
:102E400097E00E940B16813009F07FC00FB6F8940E
:102E50000F928091840290918502892BE1F481E6A2
:102E600092E00E94AA0E88E592E00E94AA0E81E6F6
:102E700092E0909379028093780288E592E09093B3
:102E800077028093760265E08AE00E94C3159093F2
:102E90008502809384020F900FBE809184029091EE
:102EA0008502892B09F451C00AE612E023E045E5CA
:102EB00050E067E072E08AEB92E10E940B168130ED
:102EC00009F043C0F8942FEF3FEF30937302209343
:102ED00072028093B8021092BB021092BA02A895B7
:102EE00088E190EC0FB6F894A895809360000FBE2F
:102EF00090936000A0914A02B0914B02CD91CDBF5A
:102F0000DD91DEBFFF91EF91DF91CF91BF91AF9146
:102F10009F918F917F916F915F914F913F912F91F1
:102F20001F910F91FF90EF90DF90CF90BF90AF90E7
:102F30009F908F907F906F905F904F903F902F90D9
:102F40001F900F900FBE0F9008951F910F9108953D
:102F50000E94DF131895E2EEF2E01382128288EEEF
:102F600093E0A0E0B0E084839583A683B7838AE0F2
:102F700091E09183808385EC90E09587848784EC51
:102F800090E09787868780EC90E0918B808B81EC36
:102F900090E0938B828B82EC90E0958B848B86EC17
:102FA00090E0978B868B118E128E138E148EEFE726
:102FB000F3E0138212828CE191E0918380838CE0B4
:102FC00084838FEF85838BE0868385E0878384E02D
:102FD000808783E0818782E0828713861486158646
:102FE0001686178681E00C943004789484B582604C
:102FF00084BD84B5816084BD85B5826085BD85B59D
:10300000816085BD80916E00816080936E0010921A
:103010008100809181008260809381008091810095
:103020008160809381008091800081608093800026
:103030008091B10084608093B1008091B000816084
:103040008093B00080917A00846080937A008091B0
:103050007A00826080937A0080917A008160809308
:103060007A0080917A00806880937A001092C10083
:1030700020910401309105018FEF98E0821B930BA2
:1030800090930101809300010E942C0B0E9416175F
:103090000E942C0BC0E0D0E02097F1F30E94A70122
:1030A000FBCF0F931F93CF93DF938230910510F4E2
:1030B00082E090E0E0919903F0919A0330E020E003
:1030C000B0E0A0E0309799F42115310509F44AC029
:1030D000281B390B24303105D8F58A819B81611575
:1030E000710589F1FB0193838283FE0111C0408148
:1030F00051810281138148175907E0F04817590799
:1031000099F4109761F012960C93129713961C93F2
:103110003296CF01DF91CF911F910F9108950093C7
:10312000990310939A03F4CF2115310551F04217FA
:10313000530738F0A901DB019A01BD01DF01F80155
:10314000C1CFEF01F9CF90939A0380939903CDCF2C
:10315000FE01E20FF31F81939193225031093983CD
:103160002883D7CF2091970330919803232B41F4E4
:10317000209102013091030130939803209397032B
:1031800020910001309101012115310541F42DB745
:103190003EB74091040150910501241B350BE0918D
:1031A0009703F0919803E217F307A0F42E1B3F0B4F
:1031B0002817390778F0AC014E5F5F4F24173507A9
:1031C00048F04E0F5F1F50939803409397038193ED
:1031D00091939FCFF0E0E0E09CCFCF93DF930097F7
:1031E000E9F0FC01329713821282A0919903B09109
:1031F0009A03ED0130E020E01097A1F420813181A5
:10320000820F931F20919703309198032817390755
:1032100009F061C0F0939803E0939703DF91CF9199
:103220000895EA01CE17DF07E8F54A815B819E0128
:1032300041155105B1F7E901FB83EA8349915991A1
:10324000C40FD51FEC17FD0761F4808191810296B0
:10325000840F951FE90199838883828193819B83E1
:103260008A83F0E0E0E012968D919C91139700978D
:10327000B9F52D913C911197CD010296820F931FC4
:1032800020919703309198032817390739F6309722
:1032900051F510929A0310929903B0939803A0935A
:1032A0009703BCCFD383C28340815181840F951F84
:1032B000C817D90761F44E5F5F4F88819981480F25
:1032C000591F518340838A819B8193838283211577
:1032D000310509F0B0CFF0939A03E09399039ECFA4
:1032E000FD01DC01C0CF13821282D7CF0E94B81932
:1032F00008F481E00895E89409C097FB3EF49095A6
:103300008095709561957F4F8F4F9F4F9923A9F0BE
:10331000F92F96E9BB279395F6958795779567954D
:10332000B795F111F8CFFAF4BB0F11F460FF1BC091
:103330006F5F7F4F8F4F9F4F16C0882311F096E924
:1033400011C0772321F09EE8872F762F05C06623D2
:1033500071F096E8862F70E060E02AF09A95660F8B
:10336000771F881FDAF7880F9695879597F9089544
:10337000990F0008550FAA0BE0E8FEEF1616170686
:10338000E807F907C0F012161306E407F50798F0EE
:10339000621B730B840B950B39F40A2661F0232B07
:1033A000242B252B21F408950A2609F4A140A69583
:1033B0008FEF811D811D08950E94EF190C94601AF2
:1033C0000E94521A38F00E94591A20F0952311F0E9
:1033D0000C94491A0C944F1A11240C94941A0E94BC
:1033E000711A70F3959FC1F3950F50E0551F629FBE
:1033F000F001729FBB27F00DB11D639FAA27F00D4E
:10340000B11DAA1F649F6627B00DA11D661F829F74
:103410002227B00DA11D621F739FB00DA11D621F59
:10342000839FA00D611D221F749F3327A00D611D76
:10343000231F849F600D211D822F762F6A2F112458
:103440009F5750409AF0F1F088234AF0EE0FFF1F8B
:10345000BB1F661F771F881F91505040A9F79E3FE2
:10346000510580F00C94491A0C94941A5F3FE4F3D0
:10347000983ED4F3869577956795B795F795E79538
:103480009F5FC1F7FE2B880F911D9695879597F941
:10349000089597F99F6780E870E060E008959FEFD6
:1034A00080EC089500240A941616170618060906DB
:1034B000089500240A9412161306140605060895AA
:1034C000092E0394000C11F4882352F0BB0F40F432
:1034D000BF2B11F460FF04C06F5F7F4F8F4F9F4F72
:1034E000089557FD9058440F551F59F05F3F71F0F4
:1034F0004795880F97FB991F61F09F3F79F087955B
:103500000895121613061406551FF2CF4695F1DFE3
:1035100008C0161617061806991FF1CF8695710573
:10352000610508940895E894BB2766277727CB01A7
:1035300097F908952F923F924F925F926F927F92E8
:103540008F929F92AF92BF92CF92DF92EF92FF92B3
:103550000F931F93CF93DF93CDB7DEB7CA1BDB0B5F
:103560000FB6F894DEBF0FBECDBF09942A88398804
:1035700048885F846E847D848C849B84AA84B9840B
:10358000C884DF80EE80FD800C811B81AA81B98117
:10359000CE0FD11D0FB6F894DEBF0FBECDBFED012B
:1035A00008955058BB27AA270E94E91A0C94601A64
:1035B0000E94521A38F00E94591A20F039F49F3FA5
:1035C00019F426F40C944F1A0EF4E095E7FB0C94D2
:1035D000491AE92F0E94711A58F3BA176207730744
:1035E0008407950720F079F4A6F50C94931A0EF44D
:1035F000E0950B2EBA2FA02D0B01B90190010C0103
:10360000CA01A0011124FF27591B99F0593F50F41A
:10361000503E68F11A16F040A22F232F342F442772
:10362000585FF3CF469537952795A795F04053956A
:10363000C9F77EF41F16BA0B620B730B840BBAF03A
:103640009150A1F0FF0FBB1F661F771F881FC2F7A5
:103650000EC0BA0F621F731F841F48F487957795B9
:103660006795B795F7959E3F08F0B0CF9395880F73
:1036700008F09927EE0F9795879508950E94521BA1
:103680000C94601A0E94591A58F00E94521A40F085
:1036900029F45F3F29F00C94491A51110C94941AA3
:1036A0000C944F1A0E94711A68F39923B1F35523B1
:1036B00091F3951B550BBB27AA2762177307840745
:1036C00038F09F5F5F4F220F331F441FAA1FA9F3DB
:1036D00035D00E2E3AF0E0E832D091505040E695C9
:1036E000001CCAF72BD0FE2F29D0660F771F881F2A
:1036F000BB1F261737074807AB07B0E809F0BB0B1D
:10370000802DBF01FF2793585F4F3AF09E3F510530
:1037100078F00C94491A0C94941A5F3FE4F3983EA5
:10372000D4F3869577956795B795F7959F5FC9F719
:10373000880F911D9695879597F90895E1E0660F9A
:10374000771F881FBB1F621773078407BA0720F013
:10375000621B730B840BBA0BEE1F88F7E09508957C
:103760000E94791A88F09F5798F0B92F9927B7517E
:10377000B0F0E1F0660F771F881F991F1AF0BA9515
:10378000C9F714C0B13091F00E94931AB1E00895C6
:103790000C94931A672F782F8827B85F39F0B93FB8
:1037A000CCF3869577956795B395D9F73EF49095C8
:1037B0008095709561957F4F8F4F9F4F08950E9420
:1037C000B81908F48FEF08950E94B819880B990B67
:1037D0000895A1E21A2EAA1BBB1BFD010DC0AA1F52
:1037E000BB1FEE1FFF1FA217B307E407F50720F06A
:1037F000A21BB30BE40BF50B661F771F881F991FE5
:103800001A9469F760957095809590959B01AC012D
:10381000BD01CF010895EE0FFF1F0590F491E02D3B
:103820000994B0E0A0E0E7E1FCE10C949C1A8C0163
:10383000009751F4CB010E9451188C01C801CDB7FB
:10384000DEB7E0E10C94B81AFC01E60FF71F9C010B
:1038500022503109E217F30708F49DC0D901CD9138
:10386000DC911197C617D70798F0C530D10530F312
:10387000CE0104978617970708F3C61BD70B22972C
:10388000C193D1936D937C93CF010E94ED18D6CF55
:103890005B01AC1ABD0A4C018C0E9D1EA0919903D0
:1038A000B0919A03512C412CF12CE12C109731F559
:1038B00080919703909198038815990509F05CC051
:1038C0004616570608F058C08091000190910101FA
:1038D000009741F48DB79EB74091040150910501C6
:1038E000841B950BE817F90708F055C0F09398036F
:1038F000E0939703F90171836083A0CF8D919C9130
:10390000119712966C90129713967C901397A815A6
:10391000B90559F56C0142E0C40ED11CCA14DB0490
:1039200020F1AC014A195B09DA011296159780F073
:103930006282738251834083D9016D937C93E11439
:10394000F10471F0D7011396FC93EE93129776CFA2
:1039500022968C0F9D1FF90191838083F301EFCF95
:10396000F0939A03E093990369CF4816590608F437
:103970002C017D01D3019ACFCB010E9451187C010B
:10398000009749F0AE01B8010E94CE1CC8010E9408
:10399000ED18870153CF10E000E050CFFB01DC01B0
:1039A00002C001900D9241505040D8F70895DC01BB
:1039B00001C06D9341505040E0F70895FB01DC01D8
:0E39C00001900D920020E1F70895F894FFCFDA
:1039CE0000009B03800000000000D601330160015F
:1039DE003E0291016F01830100000000D604330105
:1039EE00670366030D0A006E616E00696E66006FF6
:1039FE007666005B494E464F5D20547279696E675C
:103A0E0020746F2073656E642064617461005B497D
:103A1E004E464F5D204D5139205441534B005B496A
:103A2E004E464F5D204D51392072656164696E6757
:103A3E003A20005B494E464F5D204D51392064615E
:103A4E0074612073656E74005B494E464F5D204C69
:103A5E004452205441534B005B494E464F5D204C1F
:103A6E004452207C207261773A20007C206C75785D
:103A7E003A20005B494E464F5D204C445220646113
:103A8E0074612073656E74005B494E464F5D204C29
:103A9E004344205441534B005B494E46305D2072E7
:103AAE00656365697665643A200074656D702843B8
:103ABE00293A200068756D69646974792825293A58
:103ACE00200049444C4500546D72205376630050DB
:103ADE006C616E742D6D6F6E69746F72004C434421
:103AEE00004448543131205441534B004448543122
:103AFE0031004D512D3920474153205441534B0035
:0A3B0E004D512D39004C44520000C7
:107E0000112484B714BE81FFF0D085E080938100F7
:107E100082E08093C00088E18093C10086E0809377
:107E2000C20080E18093C4008EE0C9D0259A86E02C
:107E300020E33CEF91E0309385002093840096BBD3
:107E4000B09BFECF1D9AA8958150A9F7CC24DD24C4
:107E500088248394B5E0AB2EA1E19A2EF3E0BF2EE7
:107E6000A2D0813461F49FD0082FAFD0023811F036
:107E7000013811F484E001C083E08DD089C08234E0
:107E800011F484E103C0853419F485E0A6D080C0E4
:107E9000853579F488D0E82EFF2485D0082F10E0AE
:107EA000102F00270E291F29000F111F8ED06801E7
:107EB0006FC0863521F484E090D080E0DECF843638
:107EC00009F040C070D06FD0082F6DD080E0C81688
:107ED00080E7D80618F4F601B7BEE895C0E0D1E017
:107EE00062D089930C17E1F7F0E0CF16F0E7DF06D8
:107EF00018F0F601B7BEE89568D007B600FCFDCFD4
:107F0000A601A0E0B1E02C9130E011968C91119780
:107F100090E0982F8827822B932B1296FA010C0160
:107F200087BEE89511244E5F5F4FF1E0A038BF0790
:107F300051F7F601A7BEE89507B600FCFDCF97BE46
:107F4000E89526C08437B1F42ED02DD0F82E2BD052
:107F50003CD0F601EF2C8F010F5F1F4F84911BD097
:107F6000EA94F801C1F70894C11CD11CFA94CF0C13
:107F7000D11C0EC0853739F428D08EE10CD085E9AC
:107F80000AD08FE07ACF813511F488E018D01DD067
:107F900080E101D065CF982F8091C00085FFFCCF94
:107FA0009093C60008958091C00087FFFCCF809118
:107FB000C00084FD01C0A8958091C6000895E0E648
:107FC000F0E098E1908380830895EDDF803219F02E
:107FD00088E0F5DFFFCF84E1DECF1F93182FE3DFCA
:107FE0001150E9F7F2DF1F91089580E0E8DFEE27F6
:047FF000FF270994CA
:027FFE00040479
:0400000300007E007B
:00000001FF
