:1000000006C3000035C3000033C3000031C3000045
:100010002FC300002DC300002BC3000029C3000024
:1000200027C3000025C3000023C3000021C3000034
:100030000C940C181DC300001BC3000019C3000062
:1000400017C300000C943F0E13C3000011C300003F
:100050000FC300000DC300000BC300000C946D0D16
:1000600007C300000C94370D0C940D0D01C3000064
:10007000FFC20000FDC20000FBC20000F9C2000088
:100080000C94110EF5C20000F3C20000F1C2000092
:10009000EFC20000EDC20000EBC20000E9C20000A8
:1000A000E7C20000E5C200000C94E40DE1C20000CC
:1000B000DFC20000DDC20000DBC200000C94B70DFF
:1000C000D7C20000D5C20000D3C20000D1C20000D8
:1000D000CFC20000CDC20000CBC20000C9C20000E8
:1000E000C7C20000517565756520637265617465EE
:1000F00064005B494E464F5D200043616E277420CB
:10010000637265617465207175657565005B455244
:10011000525D200054696D6572207461736B2073A9
:10012000746172746564005B494E464F5D20000047
:100130000020002300260029002C002F00320000A0
:100140000100000301060109015265616420646831
:10015000743131206572726F72005B4552525D20BE
:1001600000547279696E6720746F2073656E642025
:1001700064617461005B494E464F5D200068756D97
:1001800069646974793A005B494E464F5D2000749A
:10019000656D703A005B494E464F5D2000667265A2
:1001A00065206D656D6F72793A20005B494E464F50
:1001B0005D2000437265617465207461736B207506
:1001C0006E6B6E6F776E206572726F72005B455258
:1001D000525D200043616E2774206372656174650F
:1001E000205461736B2C206D656D6F727920616C8A
:1001F0006C6F636174696F6E206572726F72005B01
:100200004552525D20006372656174656420005B35
:10021000494E464F5D20004C4452005B494E464FCC
:100220005D2000444854005B494E464F5D20004C21
:100230004344205441534B005B494E464F5D2000E0
:10024000466C7573696E672074686520706C616EAA
:1002500074005B494E464F5D2000000021002400E1
:1002600027002A002D0030003300010100000401A6
:1002700007010A0100002200250028002B002E00A3
:100280003100340002010000050108010B010505E1
:100290000505070508080808020202020A0A0808FC
:1002A000040404040101010101010101030303032A
:1002B00003030303040707070C0C0C0C0C0C0C0CB9
:1002C0000202020206060606060606060B0B0B0BCA
:1002D0000B0B0B0B010210202008081020401020EF
:1002E00040800201020108040201010204081020FA
:1002F00040808040201008040201800402018040F8
:100300002010080402010804020101020408102060
:100310004080010204081020408000000A0B0209FE
:100320000C0D0E080703040100000000000000008F
:1003300000000000000000000000000000000000BD
:10034000000000000000121110000000000000007A
:10035000000000000000000000000000000000009D
:1003600080919F02811108C080910503823010F0B6
:100370000E94D21009D3F4CF0FB6F8940F92E091F7
:10038000E602F091E702C681D781CE0102960E9473
:10039000DB0E80912C03815080932C0380919F026F
:1003A000815080939F020F900FBE8F89988D0E947D
:1003B000C713CE010E94C713D3CFCF93DF9300D0D2
:1003C0001F921F92CDB7DEB7E091AD02F091AE0261
:1003D000F08010E000E0FF2029F00580F681E02D9C
:1003E000008111810E94AA0E0E94A00E6C018091D2
:1003F000A9029091AA02C816D90608F04DC00E9421
:100400007C13D092AA02C092A9020E94981150E0D7
:1004100040E0BE016F5F7F4F8091CF029091D0028C
:100420000E94D513882381F2898187FDF0CF0C814A
:100430001D81D8011A968D919C91892B21F0C801BC
:1004400002960E94DB0E0E94A00E7C018091A90200
:100450009091AA02E816F90610F40E947C13F0921B
:10046000AA02E092A902E981EA3088F60E2E000C79
:10047000FF0BD80152969C918827EE5BFD4F8F4F62
:100480000C94961CC702C702C7020103EC02FB02D0
:10049000C702C7020103EC02D092AA02C092A902CD
:1004A000FF20A1F1C016D106C8F10E949811E09179
:1004B000AD02F091AE020580F681E02DE680F78076
:1004C000C70102960E94DB0ED70152968C9152977B
:1004D00082FF18C01C966D917C91600F711F98016E
:1004E000A601C7010E94B10F882329F0A80160E08E
:1004F000C7010E945413D7015096ED91FC91C7019A
:10050000199585CF8E7FF701828BF5CFE091AB02F5
:10051000F091AC028081BB24B3948111B12CE090A6
:10052000CF02F090D0020FB6F8940F92F701858DAC
:100530008F3F09F4158ED7015E968C915E978F3FA1
:1005400011F45E961C920F900FBEF701828D8111FF
:1005500014C060918C0270918D02645F7F4FC7015F
:1005600041960E94BB0EC8018C199D09BB2011F059
:100570008FEF9FEF6B2D0E94DA0FC7010E943B0F98
:100580000E949811811143CF0E94D21040CF9160F8
:10059000F801928B2A813B8164857585620F731FF8
:1005A000A701C8010E94B10F882309F430CFD801F8
:1005B0005096ED91FC91C8011995F801828982FF4E
:1005C00026CF4A815B8184859585480F591F60E05D
:1005D000C8010E9454131BCF9160F801928B6A816D
:1005E0007B81758764876E0D7F1D9701A701C80108
:1005F0000E94B10F0CCF91FD04C0C8010E94C71327
:1006000006CF9E7FD80152969C9301CF0E181124DD
:100610001FBECFEFD1E2DEBFCDBF00E00CBF12E0C6
:10062000A0E0B2E0E6E2FBE300E00BBF02C007900F
:100630000D92AC38B107D9F724E0ACE8B2E001C0C4
:100640001D92A639B207E1F713E0C7E0D3E000E05E
:1006500006C021970109802FFE010E94961CC6301A
:10066000D10780E00807A9F70E94D2180C94911DC9
:10067000C7CC8F929F92AF92BF92FF920F931F931E
:10068000CF93DF938F3F980709F461C0853B9105B5
:1006900011F484EB90E0F0905B042FE22F1508F446
:1006A0004CC020915D0408E512E0021B110927FDF2
:1006B0001395000F111F000F111F20915C04C8E853
:1006C000D0E0C21BD10927FDD395CC0FDD1FCC0F85
:1006D000DD1F4E010D2E000CAA08BB089801012E4B
:1006E000000C440B550B281939094A095B09DC0138
:1006F0000E94BA1B24EB30E040E050E00E94941BC3
:10070000820E931EA41EB51E8C169D062CF0E801C9
:10071000801691060CF4E4012297CC0FDD1F2FB751
:10072000F8948F2D90E0FC01EE0FFF1FE80FF91FEA
:10073000E653FC4FD283C1832FBFDF91CF911F912E
:100740000F91FF90BF90AF909F908F90089590E091
:1007500080E0A1CFAF92BF92CF92DF92EF92FF9253
:100760000F931F93CF93DF936C017B018B01040FD9
:10077000151FEB015E01AE18BF08C017D10759F075
:100780006991D601ED91FC910190F081E02DC601B7
:100790001995892B79F7C501DF91CF911F910F91A1
:1007A000FF90EF90DF90CF90BF90AF900895FC0145
:1007B000538D448D252F30E0842F90E0821B930BC6
:1007C000541710F0CF96089501970895FC01918D6C
:1007D000828D981761F0A28DAE0FBF2FB11D5D966F
:1007E0008C91928D9F5F9F73928F90E008958FEF11
:1007F0009FEF0895FC01918D828D981731F0828DC5
:10080000E80FF11D858D90E008958FEF9FEF08951B
:10081000FC01918D228D892F90E0805C9F4F821B7F
:1008200091098F73992708958DE293E0F1DF21E01C
:10083000892B09F420E0822F0895FC01A48DA80FD4
:10084000B92FB11DA35ABF4F2C91848D90E0019612
:100850008F739927848FA689B7892C93A089B18932
:100860008C91837080648C93938D848D981306C0D3
:100870000288F389E02D80818F7D80830895EF9237
:10088000FF920F931F93CF93DF93EC0181E0888F4A
:100890009B8D8C8D98131AC0E889F989808185FF1A
:1008A00015C09FB7F894EE89FF896083E889F989BC
:1008B00080818370806480839FBF81E090E0DF91BE
:1008C000CF911F910F91FF90EF900895F62E0B8D11
:1008D00010E00F5F1F4F0F731127E02E8C8D8E11CC
:1008E0000BC00FB607FCFACFE889F989808185FF34
:1008F000F5CFCE01A2DFF2CFEB8DEC0FFD2FF11D76
:10090000E35AFF4FF0829FB7F8940B8FEA89FB8977
:1009100080818062D0CF0F931F93CF93DF938C01A0
:10092000D0E0C0E0F801EC0FFD1F6491662339F0C0
:100930008DE293E0A4DF892B11F02196F3CFCE0155
:10094000DF91CF911F910F910895CF93DF93EC0129
:10095000888D8823B1F0AA89BB89E889F9898C91AF
:1009600085FD03C0808186FD0CC00FB607FCF7CF64
:100970008C9185FFF2CF808185FFEDCFCE015DDFC9
:10098000EACFDF91CF91089580E090E0892B21F0AC
:100990004BDF81110E94000080E090E0892B49F03C
:1009A00080E090E0892B29F00E94000081110E94D4
:1009B000000080E090E0892B49F080E090E0892BF6
:1009C00029F00E94000081110E94000080E090E068
:1009D000892B49F080E090E0892B29F00E940000EB
:1009E00081110C9400000895282F30E0F901E65E93
:1009F000FC4F9491F901EC52FD4F449122573D4F29
:100A0000F9012491222309F435C0992311F1915061
:100A10009231F8F4E92FF0E08827EE5EFA4F8F4F1D
:100A20000C94961C4305470524053B053F05290505
:100A30004A05500554055A055E05620568056C05B2
:100A40002905700576057A05809180008F7780935F
:100A50008000E22FF0E0EE0FFF1FEC58FD4FA59154
:100A6000B4918FB7F894EC91611148C040954E2332
:100A70004C938FBF0895809180008F7DE8CF809147
:100A80008000877FE4CF84B58F7784BDE2CF84B5C3
:100A90008F7DFBCF8091B0008F778093B000D9CF4E
:100AA0008091B0008F7DF9CF809190008F778093F7
:100AB0009000CFCF809190008F7DF9CF80919000F2
:100AC000877FF5CF8091A0008F778093A000C1CF62
:100AD0008091A0008F7DF9CF8091A000877FF5CF16
:100AE000809120018F7780932001B3CF80912001E6
:100AF0008F7DF9CF80912001877FF5CF4E2BB8CF26
:100B0000CF93DF9390E0FC01EC52FD4F249182578C
:100B10009D4FFC0184918823D1F090E0880F991FAC
:100B2000FC01E65AFD4FA591B491FC01EC58FD4F34
:100B3000C591D49161110EC09FB7F8948C91E22FAA
:100B4000E0958E238C932881E223E8839FBFDF9179
:100B5000CF9108958FB7F894EC91E22BEC938FBF6F
:100B6000F6CF3FB7F8948091CA029091CB02A09142
:100B7000CC02B091CD0226B5A89B05C02F3F19F03D
:100B80000196A11DB11D3FBFBA2FA92F982F88270D
:100B9000BC01CD01620F711D811D911D42E0660FE8
:100BA000771F881F991F4A95D1F708958F929F92BA
:100BB000AF92BF92CF92DF92EF92FF926B017C01D6
:100BC000D0DF4B015C01C114D104E104F104B1F0A8
:100BD000C8DF681979098A099B09683E7340810555
:100BE000910588F321E0C21AD108E108F10888EEE6
:100BF000880E83E0981EA11CB11CE5CFFF90EF90FA
:100C0000DF90CF90BF90AF909F908F900895AF925C
:100C1000BF92CF92DF92EF92FF920F931F93CF93E9
:100C2000DF936B017A01EC01CF53DD4F28813CE06B
:100C3000389F8001399F100D1124A0905A04B12CC7
:100C400027FF1FC0FB011182108288818F5F88837C
:100C500088819801280F311D87FD3A95F6012A15E4
:100C60003B051CF488818C30BCF180819181049615
:100C700080349C4908F471C0F6018081918104960A
:100C80006EC088819801280F311D87FD3A952A157D
:100C90003B05DCF68881A801480F511D87FD5A9558
:100CA000FA01EE0FFF1FE40FF51FE653FC4F8081A2
:100CB00086FFCBCF8881F801E80FF11D87FDFA95FB
:100CC000CF01EE0FFF1FE80FF91FE653FC4F8081A5
:100CD00060E08F7389DEB9CF808191812881A8017E
:100CE000420F511D27FD5A959A01FA01EE0FFF1F81
:100CF000E20FF31FE653FC4F21813281820F931FD5
:100D0000F7019183808388819801280F311D87FD29
:100D10003A95F901EE0FFF1FE20FF31FE653FC4F68
:100D2000808186FF21C08881080F111D87FD1A95DB
:100D3000F801EE0FFF1FE00FF11FE653FC4F80811B
:100D400061E08F73DF91CF911F910F91FF90EF9032
:100D5000DF90CF90BF90AF9047CE80E49CE9F70141
:100D6000918380838FEF8883DF91CF911F910F91C3
:100D7000FF90EF90DF90CF90BF90AF9008950895CF
:100D800090E080E00895E091D602F091D702808152
:100D9000811107C08FEF9FEF9093A8028093A70265
:100DA0000895E091D602F091D7020580F681E02DFA
:100DB0000680F781E02D82819381EECFCF93DF9380
:100DC000EC0160E08E8110DE61E08E810DDE60E07E
:100DD0008E810ADE8BE891E00197F1F7DF91CF91E8
:100DE0000895CF92DF92EF92FF920F931F93CF93CC
:100DF000DF936C017C0187E0E80EF11CD0E0C0E0DD
:100E0000062F10E0B8010C2E02C0759567950A9464
:100E1000E2F76170F70181917F01E6DD2196C43030
:100E2000D10581F7C601DF91CF911F910F91FF90FE
:100E3000EF90DF90CF90C2CFCF92DF92EF92FF92F0
:100E40000F931F93CF93DF93EC01F62E642F8C81C9
:100E5000CBDD8D818F3F11F060E0C6DD0F2D10E0FE
:100E60008F8584FF23C06E0187E0C80ED11CF12C52
:100E7000E12CB8010E2C02C0759567950A94E2F733
:100E80006170F60181916F01AFDDFFEFEF1AFF0A8C
:100E900088E0E816F10469F7CE01DF91CF911F9148
:100EA0000F91FF90EF90DF90CF9088CFB80184E052
:100EB000759567958A95E1F7CE0193DF6F2DCE0189
:100EC000DF91CF911F910F91FF90EF90DF90CF9026
:100ED00088CF40E0682F8EE594E0AECF909171040A
:100EE000691710F06FEF690FE62FF0E0E25AFB4F41
:100EF0009489890F8068EDCFCF93DF93813029F0FB
:100F000090916D04986090936D0480937104109299
:100F1000720480E48093730480E18093740480E51C
:100F20008093750461E080916204EADD809163043E
:100F30008F3F11F061E0E4DD61E080916404E0DD69
:100F4000CEE5D4E09E012E55344080916D0484FDA1
:100F50000AC084E090E02196281739073CF461E04C
:100F60008E81CEDDEFCF88E090E0F5CF8BE39DE082
:100F70000197F1F760E08091620436DD60E08091D6
:100F8000640432DD809163048F3F11F060E02CDD5A
:100F900080916D0484FD31C063E08EE594E021DF33
:100FA000CBE4D6E4CE010197F1F763E08EE594E05F
:100FB00018DF2197F1F763E08EE594E012DF83E517
:100FC00092E00197F1F762E08EE594E00ADF80910C
:100FD0006D0480627EDF84E080936E048CE079DFB4
:100FE00081E077DF8BE39FE10197F1F782E0809367
:100FF0006F0486E0DF91CF916CCF80626ADF8BE473
:1010000096E40197F1F780916D04806262DF83E5D9
:1010100092E00197F1F780916D0480625ADFD7CF9B
:1010200041E00ADF81E090E00895EF92FF920F9394
:101030001F93CF93DF93EC017B018A018881998113
:10104000009729F02A813B812417350788F4B801DD
:101050006F5F7F4F0E949E1C009791F09983888359
:101060001B830A832C813D81232B11F4FC01108208
:101070001D830C83B701888199810E948A1D0CC051
:1010800088819981009711F00E94F21919821882C3
:101090001D821C821B821A82CE01DF91CF911F918B
:1010A0000F91FF90EF900895FB0101900020E9F768
:1010B0003197AF01461B570BDC01ED91FC9102808B
:1010C000F381E02D1994CF93DF9325DCEC0164E2EA
:1010D00072E08DE293E0E8DF8C0F9D1FDF91CF91EE
:1010E0000895CF93DF9382E592E015DC80E492E0EF
:1010F000EADFD0E0C0E0CE01BCDA6FE070E080E073
:1011000090E054DD2196C53BD105A9F7C4EBD0E0B2
:10111000CE01AFDA6FE070E080E090E047DD21972C
:10112000B8F7DF91CF9108958F929F92AF92BF92BF
:10113000EF92FF920F931F93CF93DF93CDB7DEB75C
:10114000A1970FB6F894DEBF0FBECDBF7C01FA01A8
:10115000CB0119A2223008F42AE08E010F5D1F4F47
:10116000822E912CB12CA12CBF01A50194010E94CB
:10117000C01BF901CA016A3004F5605DD8016E93A5
:101180008D01232B242B252B79F790E080E01097FD
:1011900019F0BD01C70188DFA1960FB6F894DEBF34
:1011A0000FBECDBFDF91CF911F910F91FF90EF90B8
:1011B000BF90AF909F908F900895695CDFCFCF92E2
:1011C000DF92EF92FF920F931F93CF93DF9377FFFE
:1011D00020C06A017B01EC01E881F9810190F08176
:1011E000E02D6DE219958C0144275527BA014C1961
:1011F0005D096E097F092AE0CE0196DF800F911FFD
:10120000DF91CF911F910F91FF90EF90DF90CF90E2
:1012100008952AE0DF91CF911F910F91FF90EF90F9
:10122000DF90CF9081CFCF93DF931F921F92CDB7E6
:10123000DEB78BEA91E06FDB8DE991E06CDB20910A
:10124000920430919304CE01019621153105B9F431
:10125000865994409A83898349815A81052E000CCE
:10126000660B770B8DE293E0AADF64E272E08DE219
:1012700093E01ADF0F900F90DF91CF910895821BBA
:10128000930BE0919404F091950430E020E03097C6
:1012900051F02E5F3F4F40815181240F351F028056
:1012A000F381E02DF4CF820F931FD4CFCF93DF9340
:1012B000EC016130A9F48FE092E02DDB86E092E052
:1012C0002ADB4C815D81688179818DE293E042DA8D
:1012D00064E272E08DE293E0E7DEDF91CF91A3CF8D
:1012E0006F3F39F48FEF91E016DB84ED91E0EBDE98
:1012F000F4CF8DEC91E00FDB83EB91E0F8CFCF934F
:10130000DF9300D000D000D01F921F92CDB7DEB780
:1013100081E0DFDD8BE39FE10197F1F788E392E065
:10132000FADA8FE292E0CFDE4FEF5FEFBE016F5F40
:101330007F4F80919D0290919E020E94D513813033
:1013400071F589819A81009769F587E292E0E3DA85
:1013500083E292E0B8DE60E080E0C0DD67E272E048
:101360008EE594E0A1DE60E08AE0B8DD4C815D812D
:101370006E817F818EE594E022DF61E080E0AEDD6A
:1013800061E372E08EE594E08FDE61E08EE0A6DD41
:10139000488559856A857B858EE594E010DF0E943B
:1013A000B712BCCF0197D9F78BE192E0B4DA87E1AD
:1013B00092E089DE62E080E091DD6FE372E08EE52D
:1013C00094E072DE62E086E089DDCB80DC80ED8037
:1013D000FE80A7019601C701B6010E94861C65E444
:1013E00072E0811126C046015701E894B7F82FEF4B
:1013F0003FEF4FE75FE7C501B4010E94861C8111F2
:101400000CC02FEF3FEF4FE75FE7C501B4010E942B
:101410007B1A69E472E0181664F02FEF3FEF4FE794
:101420005FE4C701B6010E94821C181634F46DE413
:1014300072E08EE594E038DEB2CF2FEF3FEF4FE75A
:101440005FECC701B6010E947B1A87FDF0CF20E058
:1014500030E0A901C701B6010E947B1A87FF09C0CD
:1014600041E06DE28EE594E0E7DCF7FAF094F7F8FE
:10147000F0942AE037ED43EA5BE3C701B6010E942E
:10148000F21B4B015C010E94561C6B017C010E9407
:101490007F1A9B01AC01C501B4010E94F11B4B01F5
:1014A0005C012AE0B701A6018EE594E03DDE41E053
:1014B0006EE28EE594E0C0DC20E030E040E251E4F2
:1014C000C501B4010E94E01A4B015C010E94561C48
:1014D0006B01F12CE12C2AE0B701A6018EE594E026
:1014E00023DEC701B6010E947F1A9B01AC01C50132
:1014F000B4010E94F11B20E030E040E251E40E9480
:10150000E01A0E94561CAB0170E060E02AE08EE514
:1015100094E00ADE44CFCF93DF9300D000D000D018
:101520001F921F92CDB7DEB79AED292E92E0392E89
:10153000412C20EC522E29E7622E24EC722EF10170
:10154000D490E4E9F2E08491E82FF0E0EE0FFF1F81
:10155000E15DFE4FE590F49010929802109299028E
:1015600010929A0210929B0210929C0261E086E017
:10157000C7DA60E086E038DA62E170E080E090E0AF
:1015800015DB61E086E030DA8BE990E00197F1F756
:1015900060E086E0B5DA80E991E0F70120812D2155
:1015A000C9F40197D1F74092900250929102609253
:1015B000920270929302409294025092950260922D
:1015C0009602709297028AE591E0A5D989E491E0AC
:1015D0007ADDA8C080E991E0F70120812D2119F082
:1015E0000197D1F7E0CF08E210E8C12C80E991E043
:1015F000F70120812D2119F40197D1F7D4CFB1DA69
:101600004B015C0180E991E0F70120812D2119F067
:101610000197D1F7C8CFA5DA681979098A099B091A
:10162000693271058105910538F0EC2DF0E0E05745
:10163000FD4F8085812B8087169511F4C39410E8A7
:101640000150A1F661E086E05BDA61E086E0CCD98A
:1016500010919802C12ED12CF12CE12CC701B601BA
:101660000E947F1A6093900270939102809392027D
:101670009093930200919A02802E912CB12CA12C70
:10168000C501B4010E947F1A609394027093950281
:101690008093960290939702100F80919C021813EA
:1016A00092CF64EF71E080E090E080DA85E991E02C
:1016B00032D98FE891E02FD9B501A4018DE293E0F2
:1016C0007EDD64E272E08DE293E0EEDC87E891E09B
:1016D00022D98DE791E01FD9B701A6018DE293E0F1
:1016E0006EDD64E272E08DE293E0DEDC1A82198244
:1016F00081E08B838C829D82AE82BF82C886D98630
:10170000EA86FB8685E791E006D981E691E0DBDC9D
:101710004FEF5FEFBE016F5F7F4F80919D02909111
:101720009E022FD724D73ED50ACF0F931F93CF9376
:10173000DF9300D000D0CDB7DEB7E0913D03F0914C
:101740003E0382E08083E0913903F0913A031082F6
:10175000E0913B03F0913C038FEC808310924503B2
:10176000E0914103F091420386E08083E0913F03E2
:10177000F0914003808180618083E0913F03F0918C
:101780004003808188608083E0913F03F0914003B3
:10179000808180688083E0913F03F09140038081E5
:1017A0008F7D808384E0A8DB6EE572E08EE594E0B7
:1017B0007BDC8DE890E00E944B168C01009751F085
:1017C0004F96F801918380838AE0838F8BE0848F2A
:1017D000C80155D410939E0200939D02012B31F451
:1017E0008DE091E098D88AEF90E06DDC82EF90E098
:1017F00092D884EE90E067DC16DD80919D02909196
:101800009E02892B09F446C010E000E022E040E887
:1018100050E06CE672E08FE799E00E946616182FA0
:101820001A8219821C821B821E821D8248E050E0AF
:101830006CE672E0CE010196F8DB612FCE010196D5
:1018400035DD89819A81009711F00E94F21910E02C
:1018500000E021E040E850E065E772E08BE89AE0C4
:101860000E946616182F1A8219821C821B821E8201
:101870001D824AE050E065E772E0CE010196D5DBBB
:10188000612FCE01019612DD89819A81009711F0B6
:101890000E94F2190E949E1783E190E00E944B166D
:1018A0008C010097C1F0FC01128A0E94691780E840
:1018B00092E0F801918380838EE390E0958784879E
:1018C0001786168681E798E0918B808B13861286A7
:1018D00082898460828B10938F0200938E0201159F
:1018E000110579F02DD2AC0161E0C801DDD681305F
:1018F00041F487E291E00FD884E191E0E4DB0E94BB
:101900009E1780915B04803308F050C061E089E04D
:10191000F7D880915B04282F30E0F901EE0FFF1F0C
:10192000E20FF31FE653FC4F9081907C9960908307
:1019300010925C0410925D042CE0622F0E948A1CBD
:10194000829FB001112430E020E0AB01420F531F11
:10195000FA01EE0FFF1FE40FF51FE653FC4F9081D5
:1019600096FD16C02F5F3F4F2C30310571F7813047
:1019700041F51092800082E08093810010928500F2
:1019800010928400B19A80916F00826080936F0002
:10199000E0915B048E2F90E0FC01EE0FFF1FE80F3B
:1019A000F91FE653FC4F80818064808326960FB632
:1019B000F894DEBF0FBECDBFDF91CF911F910F9185
:1019C0000895823061F410929000809391001092FB
:1019D00095001092940088BB80937100D9CF83301A
:1019E00069F41092A00082E08093A1001092A500FB
:1019F0001092A40089BB80937200CACF8111C8CF16
:101A00001092200182E08093210110922501109212
:101A100024018ABB80937300BBCF1F920F920FB635
:101A20000F9211240BB60F922F933F934F935F9316
:101A30006F937F938F939F93AF93BF93EF93FF9396
:101A40008DE293E00E941D04FF91EF91BF91AF9151
:101A50009F918F917F916F915F914F913F912F91C6
:101A60000F900BBE0F900FBE0F901F9018951F92F6
:101A70000F920FB60F9211240BB60F922F938F93E4
:101A80009F93EF93FF93E0913D03F0913E0380819C
:101A9000E0914303F091440382FD1DC09081809149
:101AA00046038F5F8F7320914703821741F0E091C7
:101AB0004603F0E0E35DFC4F958F80934603FF9172
:101AC000EF919F918F912F910F900BBE0F900FBEB2
:101AD0000F901F9018958081F2CF1F920F920FB632
:101AE0000F9211242F933F938F939F93AF93BF93A4
:101AF0008091C6029091C702A091C802B091C9021C
:101B00003091C50223E0230F2D3758F50196A11D12
:101B1000B11D2093C5028093C6029093C702A09383
:101B2000C802B093C9028091CA029091CB02A091E1
:101B3000CC02B091CD020196A11DB11D8093CA02C5
:101B40009093CB02A093CC02B093CD02BF91AF9102
:101B50009F918F913F912F910F900FBE0F901F90EB
:101B6000189526E8230F0296A11DB11DD2CF1F9212
:101B70000F920FB60F9211240BB60F922F933F9333
:101B80004F935F936F937F938F939F93AF93BF9385
:101B9000EF93FF9348E251E064E271E090E080E06F
:101BA00036D8FF91EF91BF91AF919F918F917F9127
:101BB0006F915F914F913F912F910F900BBE0F90BE
:101BC0000FBE0F901F9018951F920F920FB60F9295
:101BD00011240BB60F922F933F934F935F936F9304
:101BE0007F938F939F93AF93BF93EF93FF9348EAB5
:101BF00050E064EA70E083E090E009D8FF91EF9153
:101C0000BF91AF919F918F917F916F915F914F9114
:101C10003F912F910F900BBE0F900FBE0F901F9012
:101C200018951F920F920FB60F9211240BB60F92B8
:101C30002F933F934F935F936F937F938F939F93D4
:101C4000AF93BF93EF93FF9348E950E064E970E0EE
:101C500082E090E00E940706FF91EF91BF91AF9163
:101C60009F918F917F916F915F914F913F912F91B4
:101C70000F900BBE0F900FBE0F901F9018951F92E4
:101C80000F920FB60F9211240BB60F922F933F9322
:101C90004F935F936F937F938F939F93AF93BF9374
:101CA000EF93FF9348E850E064E870E081E090E053
:101CB0000E940706FF91EF91BF91AF919F918F9185
:101CC0007F916F915F914F913F912F910F900BBE3C
:101CD0000F900FBE0F901F901895FC01DB010FB6FF
:101CE000F8940F924091D1025091D2022D913C91E3
:101CF00011972F3F3207E1F0818192816091D302E9
:101D00007081761719F048175907C0F4481B590B12
:101D10004217530788F4241B350B2D933C93809175
:101D2000D30280838091D1029091D20292838183E9
:101D300080E00F900FBE08951D921C9281E0F9CFB4
:101D40000FB6F8940F928091D1029091D2020F9029
:101D50000FBE08958091CE028F5F8093CE020895CA
:101D60000FB6F8940F92FC01928D0F900FBE81E098
:101D7000911180E00895CF93DF939C01FB01DC017A
:101D80001196CD91DC91D383C2838C819D81958303
:101D900084838C819D81DC0113967C936E931297D2
:101DA0007D836C8331872087F90180818F5F8083F9
:101DB000DF91CF910895CF93DF93FC01A085B1858A
:101DC0008281938124813581EC013D832C83C48100
:101DD000D5819B838A8311968D919C9112978E1742
:101DE0009F0721F41296DC93CE93119711861086EB
:101DF0008C9181508C938C91DF91CF9108950F93AA
:101E00001F93CF93DF93DC011596ED91FC91C68172
:101E1000D7818E01045F1F4FC801CDDF8091CE02B4
:101E2000811123C00A501109C801C5DF8E89909124
:101E30002903981710F480932903B9E08B9FC00100
:101E40001124B8018B5F9C4F96DFE0918C02F091DA
:101E50008D029E898689891760F481E08093A602AD
:101E6000DF91CF911F910F910895B8018AEE92E012
:101E7000EBCF80E0F5CFEF92FF920F931F93CF93BC
:101E8000DF93EC010FB6F8940F921E8D7C0181E177
:101E9000E80EF11C01E01116D4F08FEF8E8F0F9039
:101EA0000FBE0FB6F8940F921D8D7E0188E0E80EEC
:101EB000F11C01E01116ACF08FEF8D8F0F900FBE6B
:101EC000DF91CF911F910F91FF90EF900895898935
:101ED000882319F3C70193DF81110093A6021150E3
:101EE000DACF8885882341F3C70189DF8111009308
:101EF000A6021150DFCF0F931F93CF93DF938C0176
:101F0000FB0180819181D80113968F3F9807F1F4EE
:101F1000E801AF81B88512968D919C9113979383B8
:101F20008283EC01FD83EC83B583A4831396FC9339
:101F3000EE93129711870087F80180818F5F80836D
:101F4000DF91CF911F910F910895D90112962D9194
:101F50003C911397E9014881598184179507A8F7A7
:101F6000DACFFC0173836283918780874617570716
:101F700088F0421B530B8485958548175907C0F498
:101F8000BF016E5F7F4F8091AB029091AC02B3DFD7
:101F900080E008954217530718F46217730740F45E
:101FA000BF016E5F7F4F8091AD029091AE02EFCF87
:101FB00081E00895FF920F931F93CF93DF93EC017D
:101FC000F62E0091D1021091D20280918C02909154
:101FD0008D020296F0DECF3FDC0781F4FF2071F026
:101FE00060918C0270918D026E5F7F4F88ED92E060
:101FF000DF91CF911F910F91FF90BDCEC00FD11FE8
:10200000E0918C02F0918D02D383C28360918C02A7
:1020100070918D02C017D10760F48091D402909125
:10202000D5026E5F7F4FDF91CF911F910F91FF908F
:1020300062CF8091D6029091D7026E5F7F4F5BDFB7
:102040008091A7029091A802C817D90720F4D093D5
:10205000A802C093A702DF91CF911F910F91FF902B
:102060000895FC010396928381832FEF3FEF348321
:102070002383968385839087878310820895CF93E7
:10208000DF93EC010FB6F8940F92888199812B8D24
:102090004C8DBC01249F600D711D11247D836C83C8
:1020A0001A8E9B838A832150330B429FB001439F3A
:1020B000700D1124860F971F9F838E838FEF8D8F56
:1020C0008E8FCE010896CDDFCE014196CADF0F90EC
:1020D0000FBE81E0DF91CF910895CF92DF92FF9202
:1020E0000F931F93CF93DF93EC01FA8C4C8D41112A
:1020F00041C088819981892B11F080E008C00C8152
:102100001D810115110569F480E01D821C82F39484
:10211000FA8EDF91CF911F910F91FF90DF90CF90BA
:102120000895F80182A1815082A3268991A12917DF
:1021300059F38111E9CF6801F2E0CF0ED11CC6013D
:102140003ADEF80181A1868B24E030E0281B3109BA
:102150003587248790912903981710F480932903D9
:10216000F9E08F9FC0011124B6018B5F9C4F03DE05
:1021700081E0CBCF50E08A819B810E947A1D8C8DBB
:102180002A813B81820F932F911D9B838A832C810F
:102190003D818217930708F4B0CF888199819B8392
:1021A0008A83ABCF0F920FB6F8940F920BB60F92B3
:1021B0000CB60F921F9211242F923F924F925F9272
:1021C0006F927F928F929F92AF92BF92CF92DF9247
:1021D000EF92FF920F931F932F933F934F935F9331
:1021E0006F937F938F939F93AF93BF93CF93DF931F
:1021F000EF93FF93A0918C02B0918D020DB60D92DA
:102200000EB60D928091CE02882321F081E080935A
:10221000A6025FC01092A602A0918C02B0918D021E
:10222000E0918C02F0918D022D913C918789908DE7
:1022300082179307A8F080918C0290918D02809173
:102240008C0290918D02279A2F9A2FEF87EA91E6C0
:10225000215080409040E1F700C000001F9AF5CF68
:102260002091290389E001C02150422F50E0849F32
:10227000F001859FF00D1124EB5FFC4F90819923B5
:1022800099F3A181B28112960D90BC91A02DB283D9
:10229000A183289FC0011124885F9C4FA817B9070C
:1022A00029F412968D919C919283818389E0849F79
:1022B000F001859FF00D1124EB5FFC4F0180F2814E
:1022C000E02D8681978190938D0280938C022093DC
:1022D0002903A0918C02B0918D02CD91CDBFDD91EB
:1022E000DEBFFF91EF91DF91CF91BF91AF919F91B1
:1022F0008F917F916F915F914F913F912F911F919E
:102300000F91FF90EF90DF90CF90BF90AF909F9094
:102310008F907F906F905F904F903F902F901F9085
:102320000F900CBE0F900BBE0F900FBE0F90089534
:102330007F928F929F92AF92BF92CF92DF92EF9255
:10234000FF920F931F93CF93DF930FB6F8940F92E2
:102350008091CE0281508093CE028091CE0288235C
:1023600089F080E00F900FBEDF91CF911F910F9108
:10237000FF90EF90DF90CF90BF90AF909F908F90A5
:102380007F90089580912C03882359F3D0E0C0E01A
:1023900029E0F22EEE24E39426C0E091EF02F091C2
:1023A000F002C681D781CE010C9605DD8E010E5F4D
:1023B0001F4FC80100DD8E8990912903981710F4F2
:1023C000809329038F9DC0011124B8018B5F9C4F1E
:1023D000D2DCE0918C02F0918D029E89868998175B
:1023E00010F0E092A6028091EA028111D6CFCD2BA7
:1023F00011F00E94C306E090A402F090A502E1143F
:10240000F10409F4ACC089E0A82E77247394CC249D
:10241000CA94DC2C8091CE0281118FC0C091D10270
:10242000D091D2022196D093D202C093D1022097AC
:10243000B9F48091D6029091D7022091D4023091C4
:10244000D5023093D7022093D6029093D502809381
:10245000D4028091D3028F5F8093D3020E94C3067F
:102460008091A7029091A802B12CC817D90708F053
:1024700058C0E0918C02F0918D02E689AE9EF00189
:102480001124EB5FFC4F8081823010F0BB24B394A9
:102490008091A602811103C0BB2009F457C070923D
:1024A000A60254C0E091D602F091D7020580F681D1
:1024B000E02D06811781D80112968D919C91C81745
:1024C000D90728F49093A8028093A702D2CF48019D
:1024D000B2E08B0E911CC4016EDCF80184899589F1
:1024E000892B19F0C8010C9666DCD80156968C91A0
:1024F00090912903981710F4809329038A9DC001B5
:102500001124B4018B5F9C4F36DCE0918C02F0917A
:102510008D02D80156969C918689981710F0BB249D
:10252000B394E091D602F091D70280818111BACFA5
:10253000D092A802C092A7029CCF8091A402909151
:10254000A50201969093A5028093A402B1E0EB1A34
:10255000F10809F05FCF1092A5021092A4028091B9
:10256000A602882309F4FDCE1DDE81E0FBCEF2DB5E
:1025700060E08FE190E01EDDDBDE811101C012CE54
:102580000895AF92BF92CF92DF92EF92FF920F9396
:102590001F93CF93DF9300D01F921F92CDB7DEB76A
:1025A0008C017B015D834C8380E0680198E0C90E5B
:1025B000D11C0FB6F8940F92F801228D938D291734
:1025C000F8F4B701C80189DDF8019189992319F060
:1025D000C801419614DC8111E5DD0F900FBE81E04A
:1025E0000F900F900F900F900F90DF91CF911F9150
:1025F0000F91FF90EF90DF90CF90BF90AF90089534
:102600002C813D81232B21F40F900FBE80E0E8CF79
:10261000811109C08091D30289838091D102909168
:10262000D2029B838A830F900FBE94DB0FB6F8947F
:102630000F92F801858D8F3F09F4158EF801868D74
:102640008F3F09F4168E0F900FBEBE016C5F7F4F57
:10265000CE01019642DB811123C00FB6F8940F9290
:10266000F801928D838D0F900FBE981315C0AC802A
:10267000BD8060918C0270918D02645F7F4FC601B6
:102680003ADC61E0C50196DCC801F5DB51DE811161
:1026900001C088DD81E08DCFC801EDDB49DEFACFD6
:1026A000C801E9DB45DEB2CFCF93DF9300D01F92A4
:1026B0001F92CDB7DEB79C018091CF029091D002DE
:1026C0000097C1F069835B834A833D832C8320910B
:1026D0002B0350E040E0BE016F5F7F4F211120913E
:1026E000CE024FDF0F900F900F900F900F90DF9161
:1026F000CF91089580E0F6CFEF92FF920F931F9352
:10270000CF93DF93E091AD02F091AE028081811111
:1027100013C08091AB029091AC029093AE02809373
:10272000AD02F093AC02E093AB02DF91CF911F9129
:102730000F91FF90EF9008950580F681E02D0081C4
:102740001181C681D7817E0182E0E80EF11CC701AC
:1027500032DBE889F989CE0119958A8982FFD2CFC7
:102760008C859D85800F911F0817190758F49B834E
:102770008A83D987C887B7018091AD029091AE0254
:10278000BADBC0CFA80160E0CE018EDFBBCFCF9314
:10279000DF93009739F0EC01DDDACE0123D6DF912B
:1027A000CF91C6CDDF91CF910895AF92BF92CF92D6
:1027B000DF92EF92FF920F931F93CF93DF9300D09E
:1027C0001F921F92CDB7DEB78C016B015D834C83E6
:1027D00080E0580191E1A90EB11C0FB6F8940F9258
:1027E000F801F28CFF20B9F1448D4423B1F050E0A0
:1027F00086819781840F951F9783868324813581F5
:102800008217930720F08081918197838683F80156
:1028100066817781C6010E947A1DFA94F801F28ED2
:102820008085882329F0C8010896E9DA8111BADC8D
:102830000F900FBE81E00F900F900F900F900F90B0
:10284000DF91CF911F910F91FF90EF90DF90CF908C
:10285000BF90AF9008952C813D81232B21F40F90E0
:102860000FBE80E0E8CF811109C08091D302898337
:102870008091D1029091D2029B838A830F900FBEE8
:1028800069DA0FB6F8940F92F801858D8F3F09F43D
:10289000158EF801868D8F3F09F4168E0F900FBEAE
:1028A000BE016C5F7F4FCE01019617DA81111DC00A
:1028B000C80156DA8823A9F0EC80FD8060918C0273
:1028C00070918D02645F7F4FC50115DB61E0C70128
:1028D00071DBC801D0DA2CDD811101C063DC81E03D
:1028E0007CCFC801C8DA24DDFACFC801C4DA20DD04
:1028F000C80136DA882399F3B4CF0F920FB6F89453
:102900000F920BB60F920CB60F921F9211242F92BA
:102910003F924F925F926F927F928F929F92AF926F
:10292000BF92CF92DF92EF92FF920F931F932F935C
:102930003F934F935F936F937F938F939F93AF9347
:10294000BF93CF93DF93EF93FF93A0918C02B0914D
:102950008D020DB60D920EB60D9213BE8091CE0271
:102960008111F6C08091D1029091D202019690938C
:10297000D2028093D102009799F52091D60230912E
:10298000D7024091D4025091D5025093D702409380
:10299000D6023093D5022093D4022091D3022F5F28
:1029A0002093D302E091D602F091D7022081211129
:1029B00007C02FEF3FEF3093A8022093A70210C06B
:1029C000E091D602F091D7020580F681E02D0680D5
:1029D000F781E02D228133813093A8022093A70252
:1029E0002091A7023091A8028217930710F420E0EB
:1029F0009BC020E019E0E091D602F091D70230812F
:102A0000311107C08FEF9FEF9093A8028093A70228
:102A10008BC0E091D602F091D7020580F681E02DBF
:102A20000680F781E02D428153818417950728F4B1
:102A30005093A8024093A70277C0AF014E5F5F4F4B
:102A4000A285B38564817581E680F780EB01FD8204
:102A5000EC82C681D7817B836A8311966D917C91CC
:102A600012974617570721F41296DC93CE931197CD
:102A7000138612863C9131503C933C91A489B589D0
:102A80001097F9F066857785E088F188EB01FD8283
:102A9000EC82C089D1897B836A831196ED90FC908A
:102AA0001297BF01645F7F4FE616F70621F4129676
:102AB000DC93CE931197158A148A3C9131503C9344
:102AC0003C91A689309129033A1710F4A093290369
:102AD0001A9FD0011124BD016B5F7C4F7B01DB018C
:102AE0001196CD91DC91D583C4836C817D817783F0
:102AF00066836C817D81DB0113965C934E93129704
:102B00005D834C83F386E286E70138813F5F38833B
:102B1000A0918C02B0918D02468956963C91431744
:102B200008F469CF21E067CFE0918C02F0918D022B
:102B3000E689D9E0ED9FF0011124EB5FFC4F808125
:102B4000823008F021E08091A60281110EC00AC0F7
:102B50008091A4029091A50201969093A502809382
:102B6000A4026AC0222309F467C08091CE028823A0
:102B700021F081E08093A6025FC01092A602A0918E
:102B80008C02B0918D02E0918C02F0918D022D911A
:102B90003C918789908D82179307A8F080918C02D1
:102BA00090918D0280918C0290918D02279A2F9A9C
:102BB0002FEF67EA71E6215060407040E1F700C0F6
:102BC00000001F9AF5CF2091290389E001C0215010
:102BD000422F50E0849FF001859FF00D1124EB5FA0
:102BE000FC4F9081992399F3A181B28112960D90A7
:102BF000BC91A02DB283A183289FC0011124885FBE
:102C00009C4FA817B90729F412968D919C91928335
:102C1000818389E0849FF001859FF00D1124EB5F93
:102C2000FC4F0180F281E02D8681978190938D0287
:102C300080938C0220932903A0918C02B0918D0285
:102C4000CD91CDBFDD91DEBFFF91EF91DF91CF91AF
:102C5000BF91AF919F918F917F916F915F914F91B4
:102C60003F912F911F910F91FF90EF90DF90CF90A8
:102C7000BF90AF909F908F907F906F905F904F909C
:102C80003F902F901F900F900CBE0F900BBE0F9097
:102C90000FBE0F900895CF93DF93EC015BD8CE0168
:102CA00005D3EC0145DB209769F4279A2F9A2FEF83
:102CB00080E792E0215080409040E1F700C00000A2
:102CC0001F9AF5CFCE01DF91CF9108957F928F9219
:102CD0009F92AF92BF92CF92DF92EF92FF920F93AB
:102CE0001F93CF93DF93982EA92E762E872E7A01ED
:102CF000B22ECA01D0DF6C01892B09F4C9C088E269
:102D000090E0C9DFEC01892B09F4C0C0D88ECF8ACE
:102D1000A70165EA70E0C601F6D621E0E21AF108E3
:102D2000EF89F88DEE0DFF1D672D782DCE014996A8
:102D30009B01285F3F4FDB014D91BD01DC014D93AD
:102D4000CD01AB0141505109DA014C91442319F0F6
:102D50006217730781F718A2BE8AB9A21AA21B864E
:102D60001A861D8A1C8AD987C88784E090E08B194F
:102D700091099D878C87DB8BCA8B1BA21CA21DA28D
:102D80001EA21FA29082DF011197AC9211971C9294
:102D900011971C92119780E88C9311971C921197B0
:102DA0001C9211971C9257971C9211971C92B697E0
:102DB000F983E8830115110519F0F801D183C08367
:102DC0000FB6F8940F9280912C038F5F80932C03A1
:102DD00080918C0290918D02892B09F068C0D0936C
:102DE0008D02C0938C0280912C03813039F585E0EF
:102DF00093E037D98EE093E034D987E193E031D97D
:102E000080E293E02ED98CEF92E02BD983EF92E011
:102E100028D98AEE92E025D981EE92E022D988ED78
:102E200092E01FD98CEF92E09093D7028093D60264
:102E300083EF92E09093D5028093D40280912A038D
:102E40008F5F80932A038E8990912903981710F43D
:102E500080932903F9E08F9FC0011124BE016E5FAA
:102E60007F4F8B5F9C4F0E94BB0E0F900FBE8091D7
:102E70002B03882349F0E0918C02F0918D02968912
:102E80008E89981708F48ED981E003C0C6017FDCD3
:102E90008FEFDF91CF911F910F91FF90EF90DF9017
:102EA000CF90BF90AF909F908F907F90089580912A
:102EB0002B038111C3CFE0918C02F0918D029E898A
:102EC0008689981708F4BACFD0938D02C0938C02EC
:102ED000B5CFCF93DF930FB6F8940F928091CF02C6
:102EE0009091D002892B29F588EB92E0BAD88FEA2D
:102EF00092E0B7D888EB92E09093AE028093AD0257
:102F00008FEA92E09093AC028093AB0281E590E06F
:102F1000C2DEEC01009749F04F96998388838AE0DE
:102F20008B8F85E08C8FCE01AAD8D093D002C0932E
:102F3000CF020F900FBEDF91CF9108950F931F9393
:102F400002EA12E020E040EC50E061E572E080EB44
:102F500091E0BCDE813009F05CC0BBDF8091CF0224
:102F60009091D002892B09F454C000EA12E023E0CA
:102F700045E550E066E572E08DED91E0A7DE813039
:102F800009F047C0F8942FEF3FEF3093A802209349
:102F9000A70280932B031092D2021092D102A8951F
:102FA00088E190EC0FB6F894A895809360000FBE6E
:102FB00090936000A0918C02B0918D02CD91CDBF15
:102FC000DD91DEBFFF91EF91DF91CF91BF91AF9186
:102FD0009F918F917F916F915F914F913F912F9131
:102FE0001F910F91FF90EF90DF90CF90BF90AF9027
:102FF0009F908F907F906F905F904F903F902F9019
:103000001F900F900CBE0F900BBE0F900FBE0F9035
:1030100008951F910F91089570DC1895CF93109229
:10302000300310922F0388EE93E0A0E0B0E080938D
:10303000310390933203A0933303B09334038AE0B7
:1030400092E090932E0380932D0385EC90E0909373
:103050003A038093390384EC90E090933C0380938F
:103060003B0380EC90E090933E0380933D0381EC22
:1030700090E09093400380933F0382EC90E0909324
:1030800042038093410386EC90E090934403809345
:103090004303109246031092470310924803109284
:1030A00049031092900410928F04109291048FE8BB
:1030B00094E09093770480937604109279041092B0
:1030C000780410927B0410927A0410927C0410927F
:1030D0007D0410927E0410927F041092800410925E
:1030E000810410928204109283041092840410923E
:1030F000850410928604109287041092890410921D
:10310000880410928B0410928A0410928C041092FE
:103110008E0410928D0410926104109260048CE170
:1031200092E090935F0480935E048CE0809362044D
:10313000CFEFC09363048BE08093640485E08093B9
:10314000650484E08093660483E08093670482E0F2
:10315000809368041092690410926A0410926B04C0
:1031600010926C0410926D0481E00E947C078091A3
:103170005A048033A0F491E0980F90935A048093FE
:103180005B0490E0FC01EE0FFF1FE80FF91FE65310
:10319000FC4F88EB9BE092838183CF910895C0938D
:1031A0005B04FBCF789484B5826084BD84B5816074
:1031B00084BD85B5826085BD85B5816085BD809102
:1031C0006E00816080936E0010928100809181007A
:1031D0008260809381008091810081608093810072
:1031E000809180008160809380008091B100846034
:1031F0008093B1008091B00081608093B000809195
:103200009100826080939100809191008160809311
:103210009100809190008160809390008091A10046
:1032200082608093A1008091A10081608093A100C1
:103230008091A00081608093A00080912101826034
:1032400080932101809121018160809321018091EF
:10325000200181608093200180917A0084608093B6
:103260007A0080917A00826080937A0080917A005F
:10327000816080937A0080917A00806880937A00E0
:103280001092C10020910402309105028FEF91E26B
:10329000821B930B90930102809300020E94950B76
:1032A0004DDE0E94950B0E94C404FDCF0F931F9327
:1032B000CF93DF938230910510F482E090E0E091AB
:1032C0009404F091950430E020E0B0E0A0E0309765
:1032D00099F42115310509F44AC0281B390B243013
:1032E0003105D8F58A819B816115710589F1FB0152
:1032F00093838283FE0111C0408151810281138139
:1033000048175907E0F04817590799F4109761F0EA
:1033100012960C93129713961C933296CF01DF915D
:10332000CF911F910F9108950093940410939504E9
:10333000F4CF2115310551F04217530738F0A90198
:10334000DB019A01BD01DF01F801C1CFEF01F9CF27
:103350009093950480939404CDCFFE01E20FF31F68
:10336000819391932250310939832883D7CF2091BB
:10337000920430919304232B41F420910202309166
:103380000302309393042093920420910002309121
:1033900001022115310541F42DB73EB740910402D9
:1033A00050910502241B350BE0919204F091930497
:1033B000E217F307A0F42E1B3F0B2817390778F00C
:1033C000AC014E5F5F4F2417350748F04E0F5F1F6B
:1033D0005093930440939204819391939FCFF0E094
:1033E000E0E09CCFCF93DF930097E9F0FC013297A8
:1033F00013821282A0919404B0919504ED0130E003
:1034000020E01097A1F420813181820F931F209139
:103410009204309193042817390709F061C0F093A2
:103420009304E0939204DF91CF910895EA01CE17BF
:10343000DF07E8F54A815B819E0141155105B1F72F
:10344000E901FB83EA8349915991C40FD51FEC1719
:10345000FD0761F4808191810296840F951FE90137
:1034600099838883828193819B838A83F0E0E0E063
:1034700012968D919C9113970097B9F52D913C91DF
:103480001197CD010296820F931F209192043091E3
:1034900093042817390739F6309751F5109295049F
:1034A00010929404B0939304A0939204BCCFD3835E
:1034B000C28340815181840F951FC817D90761F4D9
:1034C0004E5F5F4F88819981480F591F5183408318
:1034D0008A819B81938382832115310509F0B0CFC6
:1034E000F0939504E09394049ECFFD01DC01C0CFDE
:1034F00013821282D7CF40D008F481E00895E89477
:1035000009C097FB3EF490958095709561957F4F2B
:103510008F4F9F4F9923A9F0F92F96E9BB279395D9
:10352000F695879577956795B795F111F8CFFAF4E9
:10353000BB0F11F460FF1BC06F5F7F4F8F4F9F4F1A
:1035400016C0882311F096E911C0772321F09EE878
:10355000872F762F05C0662371F096E8862F70E0DE
:1035600060E02AF09A95660F771F881FDAF7880FB8
:103570009695879597F90895990F0008550FAA0B0E
:10358000E0E8FEEF16161706E807F907C0F0121676
:103590001306E407F50798F0621B730B840B950B79
:1035A00039F40A2661F0232B242B252B21F40895CE
:1035B0000A2609F4A140A6958FEF811D811D08956B
:1035C0000BD078C069D028F06ED018F0952309F0A0
:1035D0005AC05FC01124A2C07ED0A0F3959FD1F342
:1035E000950F50E0551F629FF001729FBB27F00DB1
:1035F000B11D639FAA27F00DB11DAA1F649F662706
:10360000B00DA11D661F829F2227B00DA11D621F54
:10361000739FB00DA11D621F839FA00D611D221F0E
:10362000749F3327A00D611D231F849F600D211DF2
:10363000822F762F6A2F11249F5750408AF0E1F095
:1036400088234AF0EE0FFF1FBB1F661F771F881FDE
:1036500091505040A9F79E3F510570F014C05EC0D4
:103660005F3FECF3983EDCF3869577956795B795C9
:10367000F795E7959F5FC1F7FE2B880F911D9695F3
:10368000879597F9089597F99F6780E870E060E063
:1036900008959FEF80EC089500240A9416161706EB
:1036A00018060906089500240A9412161306140633
:1036B00005060895092E0394000C11F4882352F096
:1036C000BB0F40F4BF2B11F460FF04C06F5F7F4F4E
:1036D0008F4F9F4F089557FD9058440F551F59F035
:1036E0005F3F71F04795880F97FB991F61F09F3FEF
:1036F00079F087950895121613061406551FF2CF18
:103700004695F1DF08C0161617061806991FF1CF67
:1037100086957105610508940895E894BB2766278E
:103720007727CB0197F90895052E97FB16F400949F
:103730000FD057FD05D024D007FC02D046F408C0B6
:1037400050954095309521953F4F4F4F5F4F0895CD
:1037500090958095709561957F4F8F4F9F4F0895FD
:1037600031D0A59F900DB49F900DA49F800D911D09
:1037700011240895B7FFF4CFF3DF821B930B089554
:10378000A1E21A2EAA1BBB1BFD010DC0AA1FBB1F65
:10379000EE1FFF1FA217B307E407F50720F0A21BD7
:1037A000B30BE40BF50B661F771F881F991F1A9444
:1037B00069F760957095809590959B01AC01BD016E
:1037C000CF010895A29FB001B39FC001A39F700DC8
:1037D000811D1124911DB29F700D811D1124911D19
:1037E00008955058BB27AA270ED064CF55DF30F07C
:1037F0005ADF20F031F49F3F11F41EF44ACF0EF44B
:10380000E095E7FB40CFE92F66DF80F3BA17620748
:1038100073078407950718F071F49EF57ECF0EF4B8
:10382000E0950B2EBA2FA02D0B01B90190010C01D0
:10383000CA01A0011124FF27591B99F0593F50F4E8
:10384000503E68F11A16F040A22F232F342F442740
:10385000585FF3CF469537952795A795F040539538
:10386000C9F77EF41F16BA0B620B730B840BBAF008
:103870009150A1F0FF0FBB1F661F771F881FC2F773
:103880000EC0BA0F621F731F841F48F48795779587
:103890006795B795F7959E3F08F0B3CF9395880F3E
:1038A00008F09927EE0F9795879508951CDF88F00B
:1038B0009F5790F0B92F9927B751A0F0D1F0660F1C
:1038C000771F881F991F1AF0BA95C9F712C0B13037
:1038D00081F023DFB1E0089520CF672F782F88276C
:1038E000B85F39F0B93FCCF3869577956795B39576
:1038F000D9F73EF490958095709561957F4F8F4FE5
:103900009F4F089539DE08F48FEF089535DE880B58
:10391000990B0895991B79E004C0991F961708F038
:10392000961B881F7A95C9F780950895EE0FFF1FA3
:10393000881F8BBF0790F691E02D19944F925F92EC
:103940006F927F928F929F92AF92BF92CF92DF92AF
:10395000EF92FF920F931F93CF93DF938C01009709
:1039600091F4CB01DF91CF911F910F91FF90EF90D8
:10397000DF90CF90BF90AF909F908F907F906F908F
:103980005F904F9093CCFC01E60FF71F9C012250F3
:103990003109E217F30708F4AAC0D901CD91DC91EF
:1039A0001197C617D70718F1C530D10570F0CE01B1
:1039B00004978617970748F0C61BD70B2297C19329
:1039C000D1936D937C93CF010DDDC801DF91CF9131
:1039D0001F910F91FF90EF90DF90CF90BF90AF902D
:1039E0009F908F907F906F905F904F9008955B01B4
:1039F000AC1ABD0A4C018C0E9D1EA0919404B0918E
:103A00009504512C412CF12CE12C109731F580912B
:103A10009204909193048815990509F05CC04616AC
:103A2000570608F058C0809100029091010200975B
:103A300041F48DB79EB74091040250910502841B5A
:103A4000950BE817F90708F052C0F0939304E09340
:103A50009204F90171836083B8CF8D919C91119785
:103A600012966C90129713967C901397A815B9052F
:103A700059F56C0142E0C40ED11CCA14DB0420F1DC
:103A8000AC014A195B09DA011296159780F062823F
:103A9000738251834083D9016D937C93E114F104C7
:103AA00071F0D7011396FC93EE9312978ECF229666
:103AB0008C0F9D1FF90191838083F301EFCFF09369
:103AC0009504E093940481CF4816590608F42C011C
:103AD0007D01D3019ACFCB01E9DB7C01009739F05E
:103AE000AE01B80107D0C8017DDC87016ECF10E0C0
:103AF00000E06BCFFB01DC0102C001900D92415050
:103B00005040D8F70895DC0101C06D9341505040FA
:103B1000E0F70895FB01DC0101900D920020E1F730
:063B20000895F894FFCFA8
:103B2600000096048000000000003F04AA03D703AB
:103B3600A5040804E603FA03000000001008AA031F
:103B4600C006BF060D0A0074656D702843293A2029
:103B56000068756D69646974792825293A20006CB6
:103B660075783A20006E616E00696E66006F766643
:103B76000049444C4500546D722053766300506CE6
:103B8600616E742D6D6F6E69746F72006C63645F25
:103B96007461736B0064687431315F7461736B00B8
:0C3BA600466C75736854696D6572000010
:00000001FF
