:100000000C94DA000C9402010C9402010C9402018D
:100010000C9402010C9402010C945A1F0C940201DE
:100020000C9402010C9402010C9402010C94B31381
:100030000C9402010C9402010C9402010C94020134
:100040000C9469130C9402010C9437130C94111343
:100050000C9402010C9402010C9402010C94020114
:100060000C9402010C940201626C6E6B696E660066
:1000700076657200302E362E3100682D626561740F
:1000800000313000627566662D696E0032353600CB
:100090006465760041726475696E6F20556E6F00FD
:1000A0006370750041546D65676133323850006389
:1000B0006F6E0053747265616D006275696C6400E7
:1000C0004A756E20323320323032302031333A35A7
:1000D000333A303400000000000000240027002ADA
:1000E0000000000000250028002B00000000002375
:1000F000002600290004040404040404040202028B
:100100000202020303030303030102040810204058
:1001100080010204081020010204081020000000E1
:1001200008000201000003040700000000000000B6
:100130000073017301730173017301730173017320
:10014000017301730173017301730173017301730F
:1001500001730173017301730173017301730173FF
:1001600001730173017301730173017301730173EF
:10017000017201720172018C1272017201720172BC
:1001800001720172017201720172017201720172D7
:1001900001720172017201720172017201720172C7
:1001A00001720172017201720172017201720172B7
:1001B00001005D1F11241FBECFEFD8E0DEBFCDBF11
:1001C00012E0A0E0B1E0EEE3FBE402C005900D9286
:1001D000A23CB107D9F724E0A2ECB2E001C01D9225
:1001E000AB35B207E1F710E0CAEDD0E004C02197CB
:1001F000FE010E94AB24C93DD107C9F70E9421200E
:100200000C949D250C9400008F929F92AF92BF9208
:10021000FF920F931F93CF93DF93F09020042BE076
:100220002F1508F455C02091220408E512E0021BA6
:10023000110927FD1395000F111F000F111F2091A9
:100240002104C8E8D0E0C21BD10927FDD395CC0F0B
:10025000DD1FCC0FDD1F4E010D2E000CAA08BB08C0
:10026000DC01853B910514F0A4EBB0E0B7FF02C0C0
:10027000B0E0A0E09801012E000C440B550B2819AA
:1002800039094A095B090E94892324EB30E040E0E8
:1002900050E00E945F23820E931EA41EB51E8C1692
:1002A0009D062CF0E801801691060CF4E4012297DB
:1002B000CC0FDD1F2FB7F8948F2D90E0FC01EE0FCF
:1002C000FF1FE80FF91FE550FC4FD283C1832FBFFA
:1002D000DF91CF911F910F91FF90BF90AF909F90B2
:1002E0008F90089508950895AF92BF92CF92DF92B4
:1002F000EF92FF920F931F93CF93DF936C017B01DB
:100300008B01040F151FEB015E01AE18BF08C0176B
:10031000D10759F06991D601ED91FC910190F081DE
:10032000E02DC6010995892B79F7C501DF91CF91A1
:100330001F910F91FF90EF90DF90CF90BF90AF9003
:100340000895FC01538D448D252F30E0842F90E0DB
:10035000821B930B541710F0CF96089501970895C0
:10036000FC01918D828D981761F0A28DAE0FBF2F89
:10037000B11D5D968C91928D9F5F9F73928F90E0DF
:1003800008958FEF9FEF0895FC01918D828D98174E
:1003900031F0828DE80FF11D858D90E008958FEF8B
:1003A0009FEF0895FC01918D228D892F90E0805C54
:1003B0009F4F821B91098F73992708958EE593E0D3
:1003C0000E94D20121E0892B09F420E0822F0895B8
:1003D0000E94DE0181110C940000089580E090E0FD
:1003E000892B11F00C94E8010895FC01A48DA80F4D
:1003F000B92FB11DA35ABF4F2C91848D90E0019667
:100400008F739927848FA689B7892C93A089B18986
:100410008C91837080648C93938D848D981306C027
:100420000288F389E02D80818F7D80830895EF928B
:10043000FF920F931F93CF93DF93EC0181E0888F9E
:100440009B8D8C8D98131AC0E889F989808185FF6E
:1004500015C09FB7F894EE89FF896083E889F98910
:1004600080818370806480839FBF81E090E0DF9112
:10047000CF911F910F91FF90EF900895F62E0B8D65
:1004800010E00F5F1F4F0F731127E02E8C8D8E1120
:100490000CC00FB607FCFACFE889F989808185FF87
:1004A000F5CFCE010E94F501F1CFEB8DEC0FFD2FC2
:1004B000F11DE35AFF4FF0829FB7F8940B8FEA8942
:1004C000FB8980818062CFCFCF93DF93EC01888D51
:1004D0008823B9F0AA89BB89E889F9898C9185FDBF
:1004E00003C0808186FD0DC00FB607FCF7CF8C914D
:1004F00085FFF2CF808185FFEDCFCE010E94F5010F
:10050000E9CFDF91CF910895833081F028F48130D5
:1005100099F08230A9F008958730A9F08830C9F0A9
:100520008430B1F4809180008F7D03C08091800081
:100530008F7780938000089584B58F7784BD089568
:1005400084B58F7DFBCF8091B0008F778093B00012
:1005500008958091B0008F7DF9CF1F93CF93DF93E3
:10056000282F30E0F901E35EFE4F8491F901E75F47
:10057000FE4FD491F901EB50FF4FC491CC23A9F069
:10058000162F81110E948402EC2FF0E0EE0FFF1F66
:10059000EF51FF4FA591B4918FB7F894EC911111E1
:1005A00008C0D095DE23DC938FBFDF91CF911F91E0
:1005B0000895DE2BF8CFCF93DF9390E0FC01E75F47
:1005C000FE4F24918B509F4FFC0184918823C9F0EA
:1005D00090E0880F991FFC01E952FF4FA591B4915B
:1005E000FC01EF51FF4FC591D49161110DC09FB730
:1005F000F8948C91209582238C93888128232883DA
:100600009FBFDF91CF910895623051F49FB7F89466
:100610003C91822F809583238C93E8812E2BEFCF02
:100620008FB7F894EC912E2B2C938FBFEACF3FB766
:10063000F8948091FB029091FC02A091FD02B09190
:10064000FE0226B5A89B05C02F3F19F00196A11DFB
:10065000B11D3FBFBA2FA92F982F8827BC01CD010C
:10066000620F711D811D911D42E0660F771F881F6B
:10067000991F4A95D1F708958F929F92AF92BF929A
:10068000CF92DF92EF92FF926B017C010E941703E1
:100690004B015C01C114D104E104F104B9F00E94E2
:1006A0001703681979098A099B09683E7340810517
:1006B000910580F321E0C21AD108E108F10888EE23
:1006C000880E83E0981EA11CB11CE4CFFF90EF9030
:1006D000DF90CF90BF90AF909F908F9008952FB7ED
:1006E000F8946091F7027091F8028091F90290916C
:1006F000FA022FBF089590E080E00895E09104038E
:10070000F09105038081811107C08FEF9FEF9093D7
:10071000EE028093ED020895E0910403F091050349
:100720000580F681E02D0680F781E02D828193819E
:10073000EECF8F929F92AF92BF92CF92DF92EF92C5
:10074000FF920F931F93CF93DF936C017B018B017B
:10075000040F151F0E946F034B015C01E701C017D6
:10076000D107C8F40E946F03681979098A099B09A7
:10077000683B7B408105910570F4D6018D919C9179
:10078000DC01ED91FC910284F385E02D099597FD44
:10079000E6CF8993E4CFCE018E199F09DF91CF91E7
:1007A0001F910F91FF90EF90DF90CF90BF90AF908F
:1007B0009F908F9008950895FC0101900020E9F723
:1007C0003197AF01481B590BBC0183E294E00C94B4
:1007D00074018F929F92AF92BF920F931F93CF930A
:1007E000DF93CDB7DEB7A1970FB6F894DEBF0FBE8B
:1007F000CDBF19A2423008F44AE08E010F5D1F4FB1
:10080000842E912CB12CA12CA50194010E94C82307
:10081000E62FB901CA01EA30F4F4E05DD801EE93A5
:100820008D01232B242B252B79F790E080E0109766
:1008300019F0CD010E94DC03A1960FB6F894DEBF3B
:100840000FBECDBFDF91CF911F910F91BF90AF90A1
:100850009F908F900895E95CE1CFDC01ED91FC91D0
:100860001197309761F012962D913C911397E217F2
:10087000F30728F401900020E9F7ED93FC93089525
:10088000FC0180819181009739F0228133818217A8
:10089000930710F40C94A62190E080E00895CF9384
:1008A000DF93EC0160E08E810E94AD0261E08E81F9
:1008B0000E94AD0260E08E810E94AD028BE891E063
:1008C0000197F1F7DF91CF910895CF92DF92EF92E8
:1008D000FF920F931F93CF93DF936C017C0187E00E
:1008E000E80EF11CD0E0C0E0062F10E0B8010C2E9D
:1008F00002C0759567950A94E2F76170F7018191DE
:100900007F010E94AD022196C430D10579F7C6015E
:10091000DF91CF911F910F91FF90EF90DF90CF90DB
:100920000C944F04CF92DF92EF92FF920F931F939C
:10093000CF93DF93EC01F62E642F8C810E94AD02E1
:100940008D818F3F19F060E00E94AD020F2D10E005
:100950008F8584FF25C06E0187E0C80ED11CF12C65
:10096000E12CB8010E2C02C0759567950A94E2F748
:100970006170F60181916F010E94AD02FFEFEF1AE5
:10098000FF0A88E0E816F10461F7CE01DF91CF910C
:100990001F910F91FF90EF90DF90CF900C944F0438
:1009A000B80184E0759567958A95E1F7CE010E94BC
:1009B00065046F2DCE01DF91CF911F910F91FF90B4
:1009C000EF90DF90CF900C94650440E0682F83E2B5
:1009D00094E00C949204CF93DF93813029F09091AE
:1009E0003204986090933204809336041092370456
:1009F00080E48093380480E18093390480E580931B
:100A00003A0461E0809127040E94DB02809128046F
:100A10008F3F19F061E00E94DB0261E080912904C0
:100A20000E94DB02C3E2D4E09E0123523440809155
:100A3000320484FD0BC084E090E02196281739072A
:100A400044F461E08E810E94DB02EECF88E090E00A
:100A5000F4CF8BE39DE00197F1F760E080912704EC
:100A60000E94AD0260E0809129040E94AD02809155
:100A700028048F3F19F060E00E94AD02809132049B
:100A800084FD39C063E083E294E00E946504CBE416
:100A9000D6E4CE010197F1F763E083E294E00E948F
:100AA00065042197F1F763E083E294E00E94650416
:100AB00083E592E00197F1F762E083E294E00E941F
:100AC00065048091320480620E94E50484E0809392
:100AD00033048CE00E94E50481E00E94E5048BE38E
:100AE0009FE10197F1F782E08093340486E0DF9183
:100AF000CF910C94E50480620E94E5048BE496E4B7
:100B00000197F1F78091320480620E94E50483E549
:100B100092E00197F1F78091320480620E94E5042F
:100B2000D0CF90913604691710F06FEF690FE62F60
:100B3000F0E0ED5DFB4F9489890F80680C94E5042B
:100B400041E00E94920481E090E00895CF92DF920C
:100B5000EF92FF926B017C0141E06DE283E294E051
:100B60000E94920466277727CB016C197D098E09B4
:100B70009F094AE00E94E9030196FF90EF90DF9001
:100B8000CF9008950F931F93CF93DF93EC01FB0158
:100B900001900020E9F78F01061B170B8A819B81CA
:100BA000A801480F591F2C813D812417350768F093
:100BB00028813981A801820F931F0E946E254A81E6
:100BC0005B81400F511F5B834A83DF91CF911F915F
:100BD0000F910895FC0180819181009711F00C9490
:100BE0001D210895EF92FF920F931F93CF93DF93F0
:100BF000EC017B018A0188819981009729F02A8183
:100C00003B812417350788F4B8016F5F7F4F0E943E
:100C1000B124009791F0998388831B830A832C81E8
:100C20003D81232B11F4FC0110821D830C83B7013D
:100C3000888199810E9487250CC0888199810097BD
:100C400011F00E941D21198218821D821C821B82B4
:100C50001A82CE01DF91CF911F910F91FF90EF90FB
:100C60000895FC011182108213821282158214826F
:100C7000FB0101900020E9F73197AF01461B570BAC
:100C80000C94F2050F931F93CF93DF93CDB7DEB78C
:100C900062970FB6F894DEBF0FBECDBF8C01CB01BB
:100CA0004AE0BE016F5F7F4F0E94CD21BE016F5FA2
:100CB0007F4FC8010E94C20562960FB6F894DEBF4E
:100CC0000FBECDBFDF91CF911F910F9108953F923D
:100CD0004F925F926F927F928F929F92AF92BF924C
:100CE000CF92DF92EF92FF920F931F93CF93DF93F8
:100CF000CDB7DEB7A3970FB6F894DEBF0FBECDBF5A
:100D00006C012DB73EB73BA32AA360E070E0CB0196
:100D10000E943C03D60157968D919C915897B12C17
:100D2000029709F489C356968C9156978F5F569611
:100D30008C93569754962D913C915597232B19F0EF
:100D4000BB24B39472C38330D8F7ED91FC918281B8
:100D5000882309F44FC3FE0131964F0150E1452E1F
:100D6000512CD601ED91FC9180819181DC01ED91B6
:100D7000FC910084F185E02D0995181619060CF0F8
:100D800039C345E050E0BE01695E7F4FF6018081C6
:100D900091810E949903009721F3059709F04AC0B9
:100DA000888D998D982789279827998F888F0A8D04
:100DB0001B8D1027012710271B8F0A8F892BD1F13C
:100DC0008F89811142C00E946F03D60116966D93E0
:100DD0007D938D939C93199757962D913C9158979D
:100DE0004A8D5B8D232B61F5288D398D213031059E
:100DF00039F549305105C1F0483C510519F04430EE
:100E00005105C1F4F60166877787808B918B21E0CD
:100E100030E0308F278BC6010E94150C60E070E037
:100E2000CB010E943C039DCF83E090E058969C93B9
:100E30008E935797D601ED91FC911282B12CF5C299
:100E40004530510509F08DCFF5CFF60180819181B4
:100E50000130F1E01F0740F0D60158961C921E9217
:100E60005797FC0112827DCFADB6BEB698012F5FB9
:100E70003F4F4DB75EB7421B530B0FB6F8945EBFA2
:100E80000FBE4DBFADB7BEB711967D01A801BD0124
:100E90000E9499038017910709F069C0EA8DFB8DC4
:100EA000EE0DFF1D10820E946F03F60166837783AB
:100EB000808791878F89813109F48CC248F586300B
:100EC000D1F08F3009F484C0823041F5D6015796B5
:100ED0008D919C915897892B71F4E1E0F0E0589640
:100EE000FC93EE935797C6010E94150C60E070E0EA
:100EF000CB010E943C03488D598DF12CE12C08EC6C
:100F000010E030E020E060E0C6010E940E0B13C04C
:100F10008D31E1F260F4843109F45AC0D60158965B
:100F20001C921E925797ED91FC91128204C0893257
:100F300041F0873399F70FB6F894BEBE0FBEADBE31
:100F400010CF84819581892B39F480E290E00E9452
:100F50008120F601958384838A8D9B8D8E0D9F1D44
:100F6000FA82E9829C838B83E816F90630F00FB68B
:100F7000F894BEBE0FBEADBE5DCF40E250E0B701FB
:100F8000D60114968D919C910E948E25C4010E94D9
:100F90002D04D601ED91FC911197128258961C9266
:100FA0001E9257970E946F03DC01CB018858934132
:100FB000A109B109F60182879387A487B587868343
:100FC0009783A087B18786879787A08BB18BB3CF94
:100FD000888D998DD60155969C938E935497EA8D62
:100FE000FB8DF9A3E8A33F016E0C7F1CFD8EEC8EF8
:100FF0007F8E6E8EE614F70408F081C1D7010D9143
:101000001C91CE014C960E942D04FC01808191819F
:101010008615970508F073C18C8D9D8DDC012C9190
:10102000213409F063C001960E94A6214EE0342EBF
:10103000380E06970CF45FC00637B2E71B0709F4B9
:101040005EC108F0DAC20136F2E71F0709F4C0C238
:10105000043622E7120709F05EC033243A949A8AD4
:10106000898A1C8A1B8A5E8A4D8A60E671E0CE01FD
:1010700041960E94C205032D10E0B801CE014196B1
:101080000E944206F801E35EFE4F8491F801E75F9B
:10109000FE4FF4900B501F4FF801049160E070E098
:1010A000002389F081110E948402E02FF0E0EE0F0E
:1010B000FF1FE551FF4FA591B491EC91FE2261E035
:1010C00070E009F460E0CE0141960E9442060B896F
:1010D0001C890150110929893A89F12CE12C50E031
:1010E00040E064E1C6010E940E0B09C1CE014C969E
:1010F0000E944004382E0637B2E71B0709F422C1CC
:10110000D0F40136F2E71F0709F4A8C0043622E73D
:10111000120709F4A4CF00371D4609F464C0D601B4
:1011200054964D915C91F12CE12C02E010E030E0FE
:1011300020E060E0D7CF043647E7140709F473C016
:10114000063757E7150709F416C10136174739F76F
:10115000CE014C960E942D04DC018D919C91861548
:10116000970508F0CCC061E0832D0E94DB02CE0120
:101170004C960E9440048C0161E0832D0E94DB02AA
:101180000115110509F465C00F3F110509F092C062
:1011900061E060C0CE014C960E944004F82ECE0162
:1011A0004C960E942D040C8D1D8D62E571E0C801E6
:1011B0000E947E2560E0892B79F065E571E0C80129
:1011C0000E947E25892B39F069E571E0C8010E94F3
:1011D0007E25892BE9F461E08F2D0E94DB02CE0190
:1011E0004C960E942D048C8D9D8D8615970508F0D8
:1011F00086C0DC012C91213469F601960E94A6215B
:101200003EE0F32EF80E069754F2FF24FA94C7CF6F
:101210006DE571E0C8010E947E25892B01F762E02F
:10122000DBCF33243A94CE014C960E942D04DC018E
:101230008D919C918615970508F061C061E0832D22
:101240000E94DB02CE014C960E94400461E0892B93
:1012500009F460E0832D0E94AD0251C09A8A898A08
:101260001C8A1B8A5E8A4D8A63E671E0CE01419634
:101270000E94C205632D70E0CE0141960E94420695
:10128000BDE0B31510F4E2EF3E0E832D877080644D
:1012900080937C0080917A00806480937A008091B2
:1012A0007A0086FDFCCF8091780060917900762FDE
:1012B000682F09CFE32DF0E0E35EFE4FE491E330C9
:1012C00039F148F4E130B9F0E230E9F000381105C5
:1012D0000CF05ECFBECFE73029F1E83059F1E430B1
:1012E000A9F78091800080628093800010938B002A
:1012F00000938A0004C084B5806884BD07BDF601F0
:10130000158A148A18CE84B5806284BD08BDF7CFD3
:101310008091800080688093800010938900009302
:101320008800EDCF8091B00080688093B00000937A
:10133000B300E5CF8091B00080628093B00000934D
:10134000B400DDCF3982BFE1B315C8F2E32DF0E080
:10135000EE0FFF1FEF5CFE4F2591349121153105F3
:1013600071F2E1E023373E0751F2C401F90109951A
:10137000C6CF33243A94CE014C960E942D042C8D76
:101380003D8DC9018E199F0948A159A1481B590BD0
:101390003A8329835C834B835E834D83398A5FE183
:1013A000531508F4ACCFE32DF0E0EE0FFF1FEF581C
:1013B000FE4F259134912115310509F4A0CF81E02C
:1013C0002237380709F49BCFB401CE014196F901C9
:1013D000099595CF8A8D9B8D8E0D9F1DFA82E9828E
:1013E0009C838B83E816F90608F0A5CDC4010E9402
:1013F0002D04A1CD0E946F032B013C01F601008159
:101400001181D8011296BC9012978789908D8130F6
:10141000910509F088C0B1102FC046865786608AB2
:10142000718A108E178A12961C92D60156968C914C
:101430005697815056968C938B2DAAA1BBA10FB6BF
:10144000F894BEBF0FBEADBFA3960FB6F894DEBF33
:101450000FBECDBFDF91CF911F910F91FF90EF9005
:10146000DF90CF90BF90AF909F908F907F906F90C4
:101470005F904F903F90089586819781A085B185B8
:10148000A3019201281B390B4A0B5B0BDA01C9013E
:1014900089333AE49307A105B10530F0108E178A1D
:1014A000D80112961C92CACC81319742A105B10590
:1014B00098F4F60182859385A485B585A3019201F0
:1014C000281B390B4A0B5B0BDA01C90181319742AA
:1014D000A105B10508F434CCF60186859785A0896D
:1014E000B189A3019201281B390B4A0B5B0BDA016E
:1014F000C901893B9B40A105B10508F421CCF12C21
:10150000E12C10E000E030E020E050E040E066E058
:10151000C6010E940E0BD6011E964D925D926D92F1
:101520007C92519782CF892B09F00ACC86859785CA
:10153000A089B189481A590A6A0A7B0ABB2079F046
:10154000F9EB4F16FBE05F066104710408F4F8CB79
:10155000D80112961C92F601108E178A6FCCF9E80A
:101560004F16F3E15F066104710408F4E9CBD8017A
:101570008D919C91DC01ED91FC910680F781E02D2D
:10158000099581E0F801828381E090E0D6015396CD
:101590009C938E93529712962D913C91F901019054
:1015A0000020E9F731978F01021B130BF12CE12C7E
:1015B00041E050E06DE1C6010E940E0BF60182850C
:1015C0009385A485B58586879787A08BB18BB8CB8B
:1015D0009A8A898A1C8A1B8A5E8A4D8A63E671E030
:1015E000CE0141960E94C2056FEF70E0CE01419698
:1015F0000E94420633243A9446CE043647E7140745
:1016000009F40FCE063757E7150709F4B2CE0136B5
:10161000174709F084CD33243A949ACD2F923F9204
:101620004F925F927F928F929F92AF92BF92CF9292
:10163000DF92EF92FF920F931F93CF93DF9300D02F
:1016400000D01F92CDB7DEB77C01762E6A0159011A
:10165000DC01ED91FC918281882309F4AFC0862FD3
:101660008D7F09F4DDC0B6E06B1709F4D9C0EDE158
:101670006E1709F4D5C0D70157968D919C910197AB
:1016800009F09CC0452B81F4F701C488D588C114AA
:10169000D10451F482899389019609F4A6C0938BF1
:1016A000828BF701C288D38884EF870D8930B0F52B
:1016B000D7011A964D915D916D917C911D9716966B
:1016C0008D919D910D90BC91A02D84179507A60733
:1016D000B70710F4DB01CA011C012D01E2E42E0E54
:1016E000311C411C511C0E946F03A2019101261B59
:1016F000370B480B590BDA01C901B7FD7BC0C70195
:101700000E9467060E946F03A2019101261B370BFE
:10171000480B590BDA01C901B7FFF1CF4801B5E019
:101720008B0E911CA114B10419F485E0882E912C24
:101730007982DC24CD24DC24DB82CA82902F812FA5
:101740009D838C83D701ED91FC9180819181DC0197
:10175000ED91FC910280F381E02D45E050E0BE0167
:101760006F5F7F4F099560E070E0CB010E943C0302
:10177000772009F448C00115110509F444C0D701C8
:10178000ED91FC9180819181DC01ED91FC910280D1
:10179000F381E02DA801B50109950B5F1F4F60E0B3
:1017A00070E0CB010E943C038016910679F1F701AD
:1017B000108E178A0190F081E02D12820F900F9009
:1017C0000F900F900F90DF91CF911F910F91FF908D
:1017D000EF90DF90CF90BF90AF909F908F907F90D1
:1017E0005F904F903F902F90089581E090E0938B11
:1017F000828B57CFD70156968C9181118FCFC7011D
:101800000E9467068BCF05E010E0CECF0E946F03E9
:10181000D7011A966D937D938D939C931D97CECF90
:10182000C114D10409F07ACF2FCFCF92DF92EF927B
:10183000FF920F931F93CF93DF93CDB7DEB7C55AB7
:10184000D1090FB6F894DEBF0FBECDBF6C0145E6DF
:1018500050E060E770E0CE0101960E94C421CE0105
:101860008A599F4F7C0105E610E09E012F5F3F4F94
:1018700050E040E061E1C6010E940E0BCB55DF4F06
:101880000FB6F894DEBF0FBECDBFDF91CF911F9191
:101890000F91FF90EF90DF90CF90089500E010E05F
:1018A0008091EC02811110C080913903823010F0D8
:1018B0000E947B168BE394E00E94670601151105D8
:1018C00079F30E94E801ECCF0FB6F8940F92E09103
:1018D0001403F0911503C681D781CE0102960E94B0
:1018E000DD14809135038150809335038091EC02A3
:1018F00081508093EC020F900FBE8F89988D0E94CB
:10190000DB19CE010E94DB19CBCFCF92DF92EF9291
:10191000FF920F931F93CF93DF93CDB7DEB7C85AD3
:10192000D1090FB6F894DEBF0FBECDBF8C016A019E
:101930007B01CE010196CD55DF4F99838883C35A31
:10194000D040CB55DF4F19821882C55AD04080E86D
:1019500090E0C955DF4F99838883C75AD04066E627
:1019600071E0CE018D559F4F0E94C205B801CE0196
:101970008D559F4F0E9442062AE0AE014F575F4FA0
:10198000C701B6010E94D821BE016F577F4FCE011B
:101990008D559F4F0E94C205CB55DF4F088119819D
:1019A000C55AD04001501109CD55DF4F28813981EA
:1019B000C35AD040F12CE12C50E040E064E18BE3CD
:1019C00094E00E940E0BC855DF4F0FB6F894DEBFAF
:1019D0000FBECDBFDF91CF911F910F91FF90EF9080
:1019E000DF90CF900895EF92FF920F931F93CF93C4
:1019F000DF93CDB7DEB7C658D1090FB6F894DEBF76
:101A00000FBECDBF8C01CE010196CF57DF4F99831A
:101A10008883C158D040CD57DF4F19821882C358F0
:101A2000D04080E890E0CB57DF4F99838883C5583A
:101A3000D04066E671E0CE018F579F4F0E94C205ED
:101A400070E060E0CE018F579F4F0E944206B801C0
:101A5000CE018F579F4F0E94C205CD57DF4F08819F
:101A60001981C358D04001501109CF57DF4F288149
:101A70003981C158D040F12CE12C50E040E064E1C4
:101A80008BE394E00E940E0BCA57DF4F0FB6F89419
:101A9000DEBF0FBECDBFDF91CF911F910F91FF90A1
:101AA000EF90089589E691E00E94F30C82E791E0BF
:101AB0000E94F30C84E891E00E94F30CD0E0C0E0B7
:101AC000CE010E9404016AE070E080E090E00E9494
:101AD0003C032A96CE3BD10599F7C4EBD0E0CE016A
:101AE0000E94040169E670E080E090E00E943C03FF
:101AF0002A97C63F8FEFD80791F70E945F18D2CF81
:101B0000CF93DF93CDB7DEB72B970FB6F894DEBF38
:101B10000FBECDBF89E691E00E94F30C86E891E00C
:101B20000E94F30C84E891E00E94F30C4AE050E03C
:101B3000BE016F5F7F4F8091D1029091D2020E94CF
:101B4000EC198130C1F589819A810097D9F589E630
:101B500091E00E94F30C8FE891E00E94F30C84E87E
:101B600091E00E94F30C60E080E00E94910583E91F
:101B700091E00E94DC0360E08AE00E9491056C81A4
:101B80007D818E819F8197FF19C00E94A60561E02B
:101B900080E00E9491058DE991E00E94DC0361E004
:101BA0008EE00E949105688579858A859B8597FFDF
:101BB000C5C00E94A6050E945F18ACCF4AE00E94F3
:101BC000E903E5CF019709F0BDC089E691E00E94E5
:101BD000F30C8BEA91E00E94F30C84E891E00E9400
:101BE000F30C62E080E00E9491058FEA91E00E9490
:101BF000DC0362E086E00E949105CB80DC80ED8012
:101C0000FE80A7019601C701B6010E949A2488238D
:101C100029F085EB91E00E94DC03CDCF460157010E
:101C2000E894B7F82FEF3FEF4FE75FE7C501B40146
:101C30000E949A2481110DC02FEF3FEF4FE75FE71D
:101C4000C501B4010E943B2218161CF489EB91E0F7
:101C5000E2CF2FEF3FEF4FE75FE4C701B6010E94ED
:101C6000952418161CF48DEB91E0D5CF2FEF3FEFA4
:101C70004FE75FECC701B6010E943B2287FDF3CF1F
:101C800020E030E0A901C701B6010E943B2287FF96
:101C90000AC041E06DE283E294E00E949204F7FA08
:101CA000F094F7F8F0942AE037ED43EA5BE3C701DC
:101CB000B6010E94FA234B015C010E9466246B016D
:101CC0007C010E9440229B01AC01C501B4010E942D
:101CD000F9234B015C014AE0C701B6010E94E90308
:101CE00041E06EE283E294E00E94920420E030E062
:101CF00040E251E4C501B4010E94A1224B015C0104
:101D00000E9466246B01F12CE12C4AE0C701B60168
:101D10000E94E903C701B6010E9440229B01AC0169
:101D2000C501B4010E94F92320E030E040E251E413
:101D30000E94A1220E94662490E080E04AE00E9476
:101D4000E90339CF81EC91E00E94F30C8DEC91E036
:101D50000E94F30C84E891E00E94F30C2CCFCF9307
:101D6000DF93CDB7DEB72B970FB6F894DEBF0FBE6B
:101D7000CDBF412C40EC542E49E7642E44EC742E28
:101D8000EFE0F1E00491EBEFF0E08491E82FF0E078
:101D9000EE0FFF1FE551FF4FE590F4901092CC023B
:101DA0001092CD021092CE021092CF021092D00269
:101DB00061E086E00E94DB0260E086E00E94AD0206
:101DC00062E170E080E090E00E943C0361E086E028
:101DD0000E94AD028BE990E00197F1F760E086E0A8
:101DE0000E94DB0280E991E0F7012081202349F580
:101DF0000197D1F74092C4025092C5026092C60288
:101E00007092C7024092C8025092C9026092CA0200
:101E10007092CB0288ED91E00E94F30C80EE91E08D
:101E20000E94F30C84E891E00E94F30C8AE0982E63
:101E3000A12CB12CF12C9AE0392E00E010E0812C7D
:101E40007AC080E991E0F7012081202319F0019701
:101E5000D1F7D0CF28E2D22E10E8C12C80E991E052
:101E6000F7012081202319F40197D1F7C3CF0E94F5
:101E700017034B015C0180E991E0F70120812023E9
:101E800019F00197D1F7B6CF0E94170368197909A5
:101E90008A099B09693271058105910538F0EC2D9D
:101EA000F0E0EC53FD4F8085812B8087169511F46F
:101EB000C39410E8DA94D110D1CF61E086E00E949B
:101EC000DB0261E086E00E94AD021091CC02C12EDF
:101ED000D12CF12CE12CC701B6010E944022609365
:101EE000C4027093C5028093C6029093C70200910A
:101EF000CE02802E912CB12CA12CC501B4010E94E0
:101F000040226093C8027093C9028093CA029093E2
:101F1000CB02100F8091D00218137CCF302E092DE8
:101F20001A2D8B2C9C2CAD2CBE2C64EF71E080E024
:101F300090E00E943C03432D502F612F782D84E0C8
:101F400090E00E94850C492D5A2D6B2D7F2D85E048
:101F500090E00E94850C89E691E00E94F30C81EFED
:101F600091E00E94F30C432D502F612F782D90E0CB
:101F700080E00E94850C84E891E00E94F30C89E6E1
:101F800091E00E94F30C87EF91E00E94F30C492D41
:101F90005A2D6B2D7F2D90E080E00E94850C84E807
:101FA00091E00E94F30C1A82198281E08B833C82BB
:101FB0000D831E838F829886A986BA86FB8689E662
:101FC00091E00E94F30C81E092E00E94F30C84E81F
:101FD00091E00E94F30C4FEF5FEFBE016F5F7F4F08
:101FE0008091D1029091D2020E946D1889E691E011
:101FF0000E94F30C85E192E00E94F30C84E891E0EA
:102000000E94F30C0E945F180E947B16B9CEEF92DB
:10201000FF920F931F93CF93DF93CDB7DEB7C259D3
:10202000D1090FB6F894DEBF0FBECDBF8C01613071
:1020300009F0CCC089E691E00E94F30C8FE192E0B8
:102040000E94F30CC357DF4F19821882CD58D0403D
:10205000C157DF4F19821882CF58D040CF56DF4F7B
:1020600019821882C159D040F801608171816115CF
:10207000710539F044815581CE0183579F4F0E94ED
:10208000F205CE010196C957DF4F99838883C7585F
:10209000D040C757DF4F19821882C958D04080E816
:1020A00090E0C557DF4F99838883CB58D04066E6D0
:1020B00071E0CE0189579F4F0E94C20570E060E039
:1020C000CE0189579F4F0E944206CF57DF4F19829A
:1020D0001882C158D040CD57DF4F19821882C3589B
:1020E000D040CB57DF4F19821882C558D040C35714
:1020F000DF4F68817981CD58D0406115710559F065
:10210000CF56DF4F48815981C159D040CE018F57FA
:102110009F4F0E94F205CF57DF4F68817981C158E8
:10212000D0406115710509F04BC0C957DF4FE881F8
:10213000F981C758D040C757DF4F88819981C95866
:10214000D0409C012F5F3F4FC757DF4F3983288313
:10215000C958D040E80FF91F1082CE018F579F4F0A
:102160000E94EA05C757DF4F08811981C958D0403E
:1021700001501109C957DF4F28813981C758D04014
:10218000F12CE12C50E040E064E18BE394E00E940C
:102190000E0BCE0183579F4F0E94EA0584E891E021
:1021A0000E94F30CCE56DF4F0FB6F894DEBF0FBE81
:1021B000CDBFDF91CF911F910F91FF90EF900895C8
:1021C000CE0189579F4F0E94C205C7CF88ED91E08D
:1021D0006F3F39F40E94F30C88E292E00E94F30C06
:1021E000DDCF0E94F30C83E592E0F8CFCF92DF922F
:1021F000EF92FF920F931F93CF93DF9300D000D005
:1022000000D0CDB7DEB7E0916E03F0916F0382E0AE
:102210008083E0916A03F0916B031082E0916C037C
:10222000F0916D038FEC808310927603E09172033E
:10223000F091730386E08083E0917003F091710365
:10224000808180618083E0917003F09171038081CF
:1022500088608083E0917003F091710380818068D1
:102260008083E0917003F091710380818F7D808382
:1022700084E00E94EB048DE692E00E94DC0380E0A3
:1022800091E090933E0480933D040E946F03DC0133
:10229000CB0188589341A109B109809345049093DB
:1022A0004604A0934704B09348048093410490935C
:1022B0004204A0934304B093440480934904909350
:1022C0004A04A0934B04B0934C04E0913B04F0917A
:1022D0003C048EE593E091838083E0913B04F09190
:1022E0003C04128210925304109252040E946F0315
:1022F0006B017C018091520490915304019781F00D
:102300000E946F036C197D098E099F096832734220
:102310008105910528F48BE394E00E946706EACFDB
:1023200080915204909153040197B9F681E00E9484
:10233000E5048BE39FE10197F1F7809120048C3055
:1023400008F051C061E089E00E94DB028091200426
:10235000282F30E0F901EE0FFF1FE20FF31FE550C9
:10236000FC4F9081907C9960908310922104109290
:1023700022042CE0622F0E949F24829FB00111242E
:1023800030E020E0AB01420F531FFA01EE0FFF1FB8
:10239000E40FF51FE550FC4F908196FD16C02F5FAE
:1023A0003F4F2C30310571F781110FC01092800022
:1023B00082E0809381001092850010928400B19A8F
:1023C00080916F00826080936F00E09120048E2FD7
:1023D00090E0FC01EE0FFF1FE80FF91FE550FC4FE6
:1023E0008081806480838DE890E00E948E1D8C0146
:1023F000009759F04F96F801918380838AE0838F8C
:102400008BE0848FC8010E944B161093D202009378
:10241000D102012B61F488ED91E00E94F30C8BE76F
:1024200092E00E94F30C84E891E00E94F30C89E6AC
:1024300091E00E94F30C8EE892E00E94F30C84E895
:1024400091E00E94F30C8091D1029091D202892BED
:1024500009F451C010E000E022E040E850E06CE9EF
:1024600072E080E89DE00E94AC1D182F6CE972E0DC
:10247000CE0101960E943106612FCE0101960E9485
:102480000710CE0101960E94EA0510E000E021E06D
:1024900040E850E065EA72E08FEA9EE00E94AC1DE1
:1024A000182F65EA72E0CE0101960E943106612F75
:1024B000CE0101960E940710CE0101960E94EA0506
:1024C00010E000E023E040E850E060EB72E082E5DD
:1024D0009DE00E94AC1D182F60EB72E0CE010196CA
:1024E0000E943106612FCE0101960E940710CE0195
:1024F00001960E94EA050E94B71E26960FB6F89430
:10250000DEBF0FBECDBFDF91CF911F910F91FF9026
:10251000EF90DF90CF900895EF92FF920F931F936B
:10252000CF93DF93CDB7DEB7C658D1090FB6F89475
:10253000DEBF0FBECDBFFB01808191810E94A6212D
:10254000019709F060C010E000E0C8010E9404019A
:102550006AE070E080E090E00E943C03065F1F4F5D
:102560000E3B110591F704EB10E0C8010E94040135
:1025700069E670E080E090E00E943C030A50110997
:10258000063FFFEF1F0789F78BE394E00E94670681
:10259000CE010196CF57DF4F99838883C158D04031
:1025A000CD57DF4F19821882C358D04080E890E0A1
:1025B000CB57DF4F99838883C558D0406FEB72E0CB
:1025C000CE018F579F4F0E94C20563E070E0CE019D
:1025D0008F579F4F0E944206CD57DF4F08811981C8
:1025E000C358D04001501109CF57DF4F288139819E
:1025F000C158D040F12CE12C50E040E060E18BE389
:1026000094E00E940E0BCA57DF4F0FB6F894DEBF5E
:102610000FBECDBFDF91CF911F910F91FF90EF9033
:1026200008951F920F920FB60F9211242F933F938C
:102630004F935F936F937F938F939F93AF93BF93CA
:10264000EF93FF938EE593E00E94F501FF91EF91E8
:10265000BF91AF919F918F917F916F915F914F91BA
:102660003F912F910F900FBE0F901F9018951F92C2
:102670000F920FB60F9211242F938F939F93EF9386
:10268000FF93E0916E03F0916F038081E0917403FA
:10269000F091750382FD1BC09081809177038F5F5D
:1026A0008F7320917803821741F0E0917703F0E077
:1026B000E25AFC4F958F80937703FF91EF919F91A2
:1026C0008F912F910F900FBE0F901F9018958081C2
:1026D000F4CF1F920F920FB60F9211242F933F93B6
:1026E0008F939F93AF93BF938091F7029091F802DD
:1026F000A091F902B091FA023091F60223E0230F83
:102700002D3758F50196A11DB11D2093F602809337
:10271000F7029093F802A093F902B093FA02809125
:10272000FB029091FC02A091FD02B091FE02019685
:10273000A11DB11D8093FB029093FC02A093FD02AA
:10274000B093FE02BF91AF919F918F913F912F91D6
:102750000F900FBE0F901F90189526E8230F02963A
:10276000A11DB11DD2CF1F920F920FB60F9211244F
:102770002F933F934F935F936F937F938F939F9389
:10278000AF93BF93CF93DF93EF93FF938091F502C5
:10279000C0911F04D0E087FF24C0109285001092E2
:1027A00084008091F5028F5F8093F5028091F5029D
:1027B000082E000C990B8C179D0724F48091F502CC
:1027C0008C30C4F18091840090918500049680340F
:1027D0009C4908F47AC08091840090918500049609
:1027E00076C08091F502082E000C990B8C179D077E
:1027F000C4F6E091F5028E2FEE0F990BFC01EE0F5F
:10280000FF1FE80FF91FE550FC4F808186FFC9CFFD
:10281000E091F5028E2FEE0F990BFC01EE0FFF1FDA
:10282000E80FF91FE550FC4F808160E08F730E9434
:10283000AD02B7CF2091840030918500E091F50280
:102840008E2FEE0F990BFC01EE0FFF1FE80FF91F03
:10285000E550FC4F81819281820F931F90938900F4
:1028600080938800E091F5028E2FEE0F990BFC010A
:10287000EE0FFF1FE80FF91FE550FC4F808186FF28
:1028800011C0E091F5028E2FEE0F990BFC01EE0FB7
:10289000FF1FE80FF91FE550FC4F808161E08F7347
:1028A0000E94AD02FF91EF91DF91CF91BF91AF9167
:1028B0009F918F917F916F915F914F913F912F9158
:1028C0000F900FBE0F901F90189580E49CE9909395
:1028D0008900809388008FEF8093F502E3CFFC019D
:1028E000DB010FB6F8940F924091360350913703F5
:1028F0002D913C9111972F3F3207E1F08181928118
:10290000609138037081761719F048175907C0F4A1
:10291000481B590B4217530788F4241B350B2D9382
:102920003C938091380380838091360390913703E4
:102930009283818380E00F900FBE08951D921C92B8
:1029400081E0F9CF0FB6F8940F9280913603909101
:1029500037030F900FBE08958091FF028F5F809321
:10296000FF0208950FB6F8940F92FC01928D0F901C
:102970000FBE81E0911180E00895CF93DF939C0119
:10298000FB01DC011196CD91DC91D383C2838C8154
:102990009D81958384838C819D81DC0113967C933A
:1029A0006E9312977D836C8331872087F901808134
:1029B0008F5F8083DF91CF910895CF93DF93FC01E8
:1029C000A085B1858281938124813581EC013D838D
:1029D0002C83C481D5819B838A8311968D919C9190
:1029E00012978E179F0721F41296DC93CE931197BE
:1029F000118610868C9181508C938C91DF91CF91B0
:102A000008950F931F93CF93DF93DC011596ED91FB
:102A1000FC91C681D7818E01045F1F4FC8010E94BF
:102A2000DD148091FF02811125C00A501109C801EF
:102A30000E94DD148E8990915D03981710F48093A5
:102A40005D03B9E08B9FC0011124B801875C9C4FE6
:102A50000E94BD14E091C202F091C3029E89868952
:102A6000891760F481E08093EB02DF91CF911F9191
:102A70000F910895B80188E193E0EACF80E0F5CFA7
:102A8000EF92FF920F931F93CF93DF93EC010FB65A
:102A9000F8940F921E8D7C0181E1E80EF11C01E09B
:102AA0001116D4F08FEF8E8F0F900FBE0FB6F894E3
:102AB0000F921D8D7E0188E0E80EF11C01E01116D9
:102AC000B4F08FEF8D8F0F900FBEDF91CF911F91DC
:102AD0000F91FF90EF9008958989882319F3C7011A
:102AE0000E94011581110093EB021150D9CF888506
:102AF000882339F3C7010E94011581110093EB026D
:102B00001150DDCF0F931F93CF93DF938C01FB0107
:102B100080819181D80113968F3F9807F1F4E801E5
:102B2000AF81B88512968D919C9113979383828380
:102B3000EC01FD83EC83B583A4831396FC93EE93A1
:102B4000129711870087F80180818F5F8083DF9162
:102B5000CF911F910F910895D90112962D913C911B
:102B60001397E9014881598184179507A8F7DACFAF
:102B7000FC0173836283918780874617570790F023
:102B8000421B530B8485958548175907C8F4BF012C
:102B90006E5F7F4F8091F1029091F2020E94821548
:102BA00080E008954217530718F46217730740F442
:102BB000BF016E5F7F4F8091F3029091F402EECFE0
:102BC00081E00895FF920F931F93CF93DF93EC0161
:102BD000F62E00913603109137038091C202909136
:102BE000C30202960E94DD14CF3FDC0789F4FF2068
:102BF00079F06091C2027091C3026E5F7F4F86E0F0
:102C000093E0DF91CF911F910F91FF900C94BD1431
:102C1000C00FD11FE091C202F091C302D383C283DF
:102C20006091C2027091C302C017D10768F480910D
:102C30000203909103036E5F7F4FDF91CF911F914D
:102C40000F91FF900C9482158091040390910503DD
:102C50006E5F7F4F0E9482158091ED029091EE028F
:102C6000C817D90720F4D093EE02C093ED02DF918C
:102C7000CF911F910F91FF900895FC0103969283CD
:102C800081832FEF3FEF348323839683858390875F
:102C9000878310820895CF93DF93EC010FB6F894E9
:102CA0000F92888199812B8D4C8DBC01249F600DE2
:102CB000711D11247D836C831A8E9B838A8321501E
:102CC000330B429FB001439F700D1124860F971F55
:102CD0009F838E838FEF8D8F8E8FCE0108960E94FB
:102CE0003D16CE0141960E943D160F900FBE81E029
:102CF000DF91CF9108950F920FB6F8940F921F9223
:102D000011242F923F924F925F926F927F928F92F7
:102D10009F92AF92BF92CF92DF92EF92FF920F936A
:102D20001F932F933F934F935F936F937F938F9353
:102D30009F93AF93BF93CF93DF93EF93FF93A091B4
:102D4000C202B091C3020DB60D920EB60D928091E3
:102D5000FF02882321F081E08093EB025FC0109294
:102D6000EB02A091C202B091C302E091C202F091C5
:102D7000C3022D913C918789908D82179307A8F00B
:102D80008091C2029091C3028091C2029091C302CD
:102D9000259A2D9A2FEF87EA91E6215080409040A6
:102DA000E1F700C000001D9AF5CF20915D0389E096
:102DB00001C02150422F50E0849FF001859FF00D0B
:102DC0001124E75CFC4F9081992399F3A181B28192
:102DD00012960D90BC91A02DB283A183289FC001B3
:102DE0001124845C9C4FA817B90729F412968D9181
:102DF0009C919283818389E0849FF001859FF00DEF
:102E00001124E75CFC4F0180F281E02D86819781DF
:102E10009093C3028093C20220935D03A091C202EB
:102E2000B091C302CD91CDBFDD91DEBFFF91EF9197
:102E3000DF91CF91BF91AF919F918F917F916F91D2
:102E40005F914F913F912F911F910F91FF90EF90C4
:102E5000DF90CF90BF90AF909F908F907F906F90BA
:102E60005F904F903F902F901F900F900FBE0F904C
:102E700008957F928F929F92AF92BF92CF92DF92EE
:102E8000EF92FF920F931F93CF93DF930FB6F894B7
:102E90000F928091FF0281508093FF028091FF0288
:102EA000882389F080E00F900FBEDF91CF911F91B2
:102EB0000F91FF90EF90DF90CF90BF90AF909F90D9
:102EC0008F907F90089580913503882359F3D0E047
:102ED000C0E029E0F22EEE24E39429C0E0911D0326
:102EE000F0911E03C681D781CE010C960E94DD149D
:102EF0008E010E5F1F4FC8010E94DD148E899091D4
:102F00005D03981710F480935D038F9DC001112419
:102F1000B801875C9C4F0E94BD14E091C202F09101
:102F2000C3029E898689981710F0E092EB02809187
:102F300018038111D3CFCD2B11F00E947E03E090B6
:102F4000E902F090EA02E114F10409F4AFC089E06B
:102F5000A82E77247394CC24CA94DC2C8091FF0291
:102F6000811192C0C0913603D09137032196D0933E
:102F70003703C09336032097B9F4809104039091EE
:102F8000050320910203309103033093050320933E
:102F900004039093030380930203809138038F5FAF
:102FA000809338030E947E038091ED029091EE029F
:102FB000B12CC817D90708F05BC0E091C202F091AC
:102FC000C302E689AE9EF0011124E75CFC4F8081CC
:102FD000823010F0BB24B3948091EB02811103C0C6
:102FE000BB2009F45AC07092EB0257C0E091040371
:102FF000F09105030580F681E02D06811781D80147
:1030000012968D919C91C817D90728F49093EE02DF
:103010008093ED02D2CF4801B2E08B0E911CC40127
:103020000E94DD14F80184899589892B21F0C8015B
:103030000C960E94DD14D80156968C9190915D03F8
:10304000981710F480935D038A9DC0011124B40188
:10305000875C9C4F0E94BD14E091C202F091C302B4
:10306000D80156969C918689981710F0BB24B3948A
:10307000E0910403F091050380818111B7CFD092D4
:10308000EE02C092ED0299CF8091E9029091EA029E
:1030900001969093EA028093E902B1E0EB1AF108FD
:1030A00009F05CCF1092EA021092E9028091EB02E3
:1030B000882309F4F7CE0E947B1681E0F4CE0E94AB
:1030C000AC1460E08FE190E00E94E2150E94391795
:1030D000811102C00E947B160895AF92BF92CF92D9
:1030E000DF92EF92FF920F931F93CF93DF9300D065
:1030F00000D01F92CDB7DEB78C017B015D834C837E
:1031000080E0680128E0C20ED11C0FB6F8940F923F
:10311000F801228D938D291708F078C0D28C448D48
:1031200041115AC080819181892B11F080E009C042
:10313000E480F580E114F10421F580E0F8011582C6
:103140001482D394F801D28E9189992321F0C80179
:1031500041960E94011581110E947B160F900FBEAF
:1031600081E00F900F900F900F900F90DF91CF9113
:103170001F910F91FF90EF90DF90CF90BF90AF9095
:103180000895F70182A1815082A3268991A1291770
:10319000A1F28111D2CF5701F2E0AF0EB11CC501EF
:1031A0000E94DD14F70181A1868B24E030E0281B0A
:1031B00031093587248790915D03981710F4809327
:1031C0005D03F9E08F9FC0011124B501875C9C4F1E
:1031D0000E94BD1481E0B2CF50E0B701828193819B
:1031E0000E946E25F801848D22813381820F932FF6
:1031F000911D93838283248135818217930708F47C
:1032000095CF808191819383828390CF2C813D8162
:10321000232B21F40F900FBE80E0A3CF811109C0B2
:1032200080913803898380913603909137039B8383
:103230008A830F900FBE0E94AC140FB6F8940F92C1
:10324000F801858D8F3F09F4158EF801868D8F3F2B
:1032500009F4168E0F900FBEBE016C5F7F4FCE013A
:1032600001960E946F1481112AC00FB6F8940F9234
:10327000F801928D838D0F900FBE98131AC0AC8009
:10328000BD806091C2027091C302645F7F4FC6012E
:103290000E94821561E0C5010E94E215C8010E94EA
:1032A00040150E943917811102C00E947B1681E0EF
:1032B0002CCFC8010E9440150E943917F8CFC801D1
:1032C0000E9440150E943917A7CFCF93DF9300D0FB
:1032D00000D01F92CDB7DEB79C0180910003909182
:1032E00001030097C9F019827B836A833D832C8395
:1032F0002091340350E040E0BE016F5F7F4F211109
:103300002091FF020E946D180F900F900F900F9068
:103310000F90DF91CF91089580E0F6CFEF92FF926A
:103320000F931F93CF93DF93E091F302F091F40298
:103330008081811113C08091F1029091F2029093EB
:10334000F4028093F302F093F202E093F102DF9132
:10335000CF911F910F91FF90EF9008950580F68116
:10336000E02D00811181C681D7817E0182E0E80EC7
:10337000F11CC7010E94DD14E889F989CE01099585
:103380008A8982FFD1CF8C859D85800F911F081778
:10339000190760F49B838A83D987C887B701809116
:1033A000F3029091F4020E948215BECFB801CE01C3
:1033B0000E946519B9CFCF93DF93009751F0EC01CC
:1033C0000E94AC14CE010E941D21DF91CF910C947C
:1033D0003917DF91CF910895AF92BF92CF92DF92CC
:1033E000EF92FF920F931F93CF93DF9300D000D003
:1033F0001F92CDB7DEB78C016B015D834C8380E0FB
:10340000580191E1A90EB11C0FB6F8940F92F80182
:10341000F28CFF20C9F1448D4423B1F050E0868145
:103420009781840F951F9783868324813581821726
:10343000930720F08081918197838683F8016681CC
:103440007781C6010E946E25FA94F801F28E80857C
:10345000882339F0C80108960E94011581110E9445
:103460007B160F900FBE81E00F900F900F900F9082
:103470000F90DF91CF911F910F91FF90EF90DF9010
:10348000CF90BF90AF9008952C813D81232B21F4E4
:103490000F900FBE80E0E8CF811109C08091380302
:1034A000898380913603909137039B838A830F90A1
:1034B0000FBE0E94AC140FB6F8940F92F801858DE0
:1034C0008F3F09F4158EF801868D8F3F09F4168E13
:1034D0000F900FBEBE016C5F7F4FCE0101960E9420
:1034E0006F14811125C0C8010E94B2148823D1F045
:1034F000EC80FD806091C2027091C302645F7F4FD7
:10350000C5010E94821561E0C7010E94E215C80151
:103510000E9440150E943917811102C00E947B163B
:1035200081E072CFC8010E9440150E943917F8CF80
:10353000C8010E9440150E943917C8010E94B214A8
:10354000882371F3A7CFCF93DF9300D000D01F92D1
:10355000CDB7DEB7E091F302F091F402F08010E015
:1035600000E0FF2029F00580F681E02D0081118127
:103570000E94AC140E94A2146C018091EF02909101
:10358000F002C816D90608F04BC00E948E19D092DE
:10359000F002C092EF020E94391750E040E0BE01F5
:1035A0006F5F7F4F80910003909101030E94EC199F
:1035B000882381F2898187FDF0CF0C811D81D8019C
:1035C0001A968D919C91892B21F0C80102960E9438
:1035D000DD140E94A2147C018091EF029091F00210
:1035E000E816F90610F40E948E19F092F002E092AB
:1035F000EF02E981EA3088F60E2E000CFF0BEA5F3D
:10360000F44ED80152968C910C94AB248A1B8A1BE1
:103610008A1BC31BAE1BBD1B8A1B8A1BC31BAE1B95
:10362000D092F002C092EF02FF2099F1C016D106AD
:10363000C0F10E943917E091F302F091F402058085
:10364000F681E02DE680F780C70102960E94DD1426
:10365000D70152968C91529782FF17C01C966D919C
:103660007C91600F711F9801A601C7010E94B815D7
:10367000882321F0B801C7010E946519D70150962F
:10368000ED91FC91C701099588CF8E7FF701828B60
:10369000F5CFE091F102F091F2028081BB24B39466
:1036A0008111B12CE0900003F09001030FB6F89463
:1036B0000F92F701858D8F3F09F4158ED7015E9625
:1036C0008C915E978F3F11F45E961C920F900FBE07
:1036D000F701828D811114C06091C2027091C30202
:1036E000645F7F4FC70141960E94BD14C8018C19C9
:1036F0009D09BB2011F08FEF9FEF6B2D0E94E2150B
:10370000C7010E9440150E943917811146CF0E94BF
:103710007B1643CF8160F801828B2A813B816485CF
:103720007585620F731FA701C8010E94B815882311
:1037300009F433CFD8015096ED91FC91C801099559
:10374000F801828982FF29CF6A817B8184859585F2
:10375000680F791FC8010E9465191FCF8160F801A9
:10376000828B6A817B81758764876E0D7F1D9701CF
:10377000A701C8010E94B81510CF81FD04C0C8017F
:103780000E94DB190ACF8E7FD80152968C9305CF09
:103790000F920FB6F8940F921F9211242F923F921E
:1037A0004F925F926F927F928F929F92AF92BF9251
:1037B000CF92DF92EF92FF920F931F932F933F933D
:1037C0004F935F936F937F938F939F93AF93BF9329
:1037D000CF93DF93EF93FF93A091C202B091C30206
:1037E0000DB60D920EB60D9213BE8091FF0281119F
:1037F000F6C080913603909137030196909337037A
:1038000080933603009799F52091040330910503C6
:103810004091020350910303509305034093040326
:103820003093030320930203209138032F5F2093EA
:103830003803E0910403F09105032081211107C0B2
:103840002FEF3FEF3093EE022093ED0210C0E09196
:103850000403F09105030580F681E02D0680F781D1
:10386000E02D228133813093EE022093ED022091EE
:10387000ED023091EE028217930710F420E09BC016
:1038800020E019E0E0910403F0910503308131114B
:1038900007C08FEF9FEF9093EE028093ED028BC0F5
:1038A000E0910403F09105030580F681E02D068088
:1038B000F781E02D428153818417950728F45093B6
:1038C000EE024093ED0277C0AF014E5F5F4FA285DD
:1038D000B38564817581E680F780EB01FD82EC821F
:1038E000C681D7817B836A8311966D917C911297F3
:1038F0004617570721F41296DC93CE93119713863F
:1039000012863C9131503C933C91A489B589109723
:10391000F9F066857785E088F188EB01FD82EC821D
:10392000C089D1897B836A831196ED90FC901297B0
:10393000BF01645F7F4FE616F70621F41296DC9311
:10394000CE931197158A148A3C9131503C933C9147
:10395000A68930915D033A1710F4A0935D031A9F76
:10396000D0011124BD01675C7C4F7B01DB01119606
:10397000CD91DC91D583C4836C817D81778366830F
:103980006C817D81DB0113965C934E9312975D836E
:103990004C83F386E286E70138813F5F3883A0914C
:1039A000C202B091C302468956963C91431708F46F
:1039B00069CF21E067CFE091C202F091C302E689AE
:1039C000D9E0ED9FF0011124E75CFC4F808182304B
:1039D00008F021E08091EB0281110EC00AC08091B5
:1039E000E9029091EA0201969093EA028093E9023B
:1039F0006AC0222309F467C08091FF02882321F066
:103A000081E08093EB025FC01092EB02A091C202B2
:103A1000B091C302E091C202F091C3022D913C919A
:103A20008789908D82179307A8F08091C2029091A8
:103A3000C3028091C2029091C302259A2D9A2FEF62
:103A400067EA71E6215060407040E1F700C0000075
:103A50001D9AF5CF20915D0389E001C02150422FCE
:103A600050E0849FF001859FF00D1124E75CFC4F2E
:103A70009081992399F3A181B28112960D90BC9106
:103A8000A02DB283A183289FC0011124845C9C4F88
:103A9000A817B90729F412968D919C91928381837E
:103AA00089E0849FF001859FF00D1124E75CFC4FB5
:103AB0000180F281E02D868197819093C3028093EB
:103AC000C20220935D03A091C202B091C302CD91C6
:103AD000CDBFDD91DEBFFF91EF91DF91CF91BF911F
:103AE000AF919F918F917F916F915F914F913F9196
:103AF0002F911F910F91FF90EF90DF90CF90BF908B
:103B0000AF909F908F907F906F905F904F903F907D
:103B10002F901F900F900FBE0F900895CF93DF93BB
:103B2000EC010E94AC14CE010E948120EC010E94A5
:103B30003917209769F4259A2D9A2FEF80E792E0A4
:103B4000215080409040E1F700C000001D9AF5CF61
:103B5000CE01DF91CF9108957F928F929F92AF9285
:103B6000BF92CF92DF92EF92FF920F931F93CF936A
:103B7000DF93982EA92E762E872E7A01B22ECA01B7
:103B80000E948E1D6C01892B09F4D0C088E290E060
:103B90000E948E1DEC01892B09F4C5C0D88ECF8AF6
:103BA000A70165EA70E0C6010E94772521E0E21ACC
:103BB000F108EF89F88DEE0DFF1D672D782DCE01F0
:103BC00049969B01285F3F4FDB014D91BD01DC0110
:103BD0004D93CD01AB0141505109DA014C91442381
:103BE00019F06217730781F718A2BE8AB9A21AA248
:103BF0001B861A861D8A1C8AD987C88784E090E0B4
:103C00008B1991099D878C87DB8BCA8B1BA21CA209
:103C10001DA21EA21FA29082DF011197AC921197E4
:103C20001C92119780E88C9311971C9257971C92C5
:103C300011971C92B397F983E8830115110519F0C8
:103C4000F801D183C0830FB6F8940F9280913503A9
:103C50008F5F809335038091C2029091C302892BBC
:103C600009F073C0D093C302C093C20280913503A0
:103C7000813081F589E393E00E943D1682E493E070
:103C80000E943D168BE493E00E943D1684E593E08C
:103C90000E943D168AE293E00E943D1681E293E085
:103CA0000E943D1688E193E00E943D168FE093E06C
:103CB0000E943D1686E093E00E943D168AE293E062
:103CC000909305038093040381E293E090930303B0
:103CD00080930203809133038F5F809333038E8937
:103CE00090915D03981710F480935D03F9E08F9F26
:103CF000C0011124BE016E5F7F4F875C9C4F0E9404
:103D0000BD140F900FBE80913403882351F0E091D1
:103D1000C202F091C30296898E89981710F40E940E
:103D20007B1681E004C0C6010E94DB198FEFDF9192
:103D3000CF911F910F91FF90EF90DF90CF90BF90A8
:103D4000AF909F908F907F90089580913403811160
:103D5000C1CFE091C202F091C3029E898689981773
:103D600008F4B8CFD093C302C093C202B3CF0F936D
:103D70001F93CF93DF9307EE12E020E040EC50E07A
:103D800065E471E08EE49CE00E94AC1D813009F096
:103D90008CC00FB6F8940F928091000390910103AC
:103DA000892B49F58CED92E00E943D1683ED92E05F
:103DB0000E943D168CED92E09093F4028093F30202
:103DC00083ED92E09093F2028093F10281E590E01E
:103DD0000E948E1DEC01009751F04F9699838883C5
:103DE0008AE08B8F85E08C8FCE010E944B16D0939A
:103DF0000103C09300030F900FBE809100039091C8
:103E00000103892B09F451C005EE12E023E045E5DA
:103E100050E06AE471E083EA9AE10E94AC1D8130CF
:103E200009F043C0F8942FEF3FEF3093EE02209358
:103E3000ED02809334031092370310923603A89555
:103E400088E190EC0FB6F894A895809360000FBEBF
:103E500090936000A091C202B091C302CD91CDBFFA
:103E6000DD91DEBFFF91EF91DF91CF91BF91AF91D7
:103E70009F918F917F916F915F914F913F912F9182
:103E80001F910F91FF90EF90DF90CF90BF90AF9078
:103E90009F908F907F906F905F904F903F902F906A
:103EA0001F900F900FBE0F900895DF91CF911F913B
:103EB0000F9108950E94C81B1895CF93109261032B
:103EC0001092600388EE93E0A0E0B0E0809362037C
:103ED00090936303A0936403B09365038BE291E036
:103EE00090935F0380935E0385EC90E090936B0367
:103EF00080936A0384EC90E090936D0380936C034D
:103F000080EC90E090936F0380936E0381EC90E0DF
:103F1000909371038093700382EC90E0909373030D
:103F20008093720386EC90E0909375038093740302
:103F300010927703109278031092790310927A030B
:103F400010925504109254041092560484E594E0A3
:103F500090933C0480933B0410923E0410923D04E5
:103F60001092400410923F041092410410924204B7
:103F70001092430410924404109245041092460497
:103F800010924704109248041092490410924A0477
:103F900010924B0410924C0410924E0410924D0457
:103FA0001092500410924F04109251041092530436
:103FB0001092520410922604109225048DE391E091
:103FC00090932404809323048CE080932704CFEF04
:103FD000C09328048BE08093290485E080932A0411
:103FE00084E080932B0483E080932C0482E0809310
:103FF0002D0410922E0410922F041092300410926F
:1040000031041092320481E00E94EB0480911F047D
:104010008C30A0F491E0980F90931F0480932004BB
:1040200090E0FC01EE0FFF1FE80FF91FE550FC4F79
:1040300088EB9BE092838183CF910895C093200405
:10404000FBCF789484B5826084BD84B5816084BDE3
:1040500085B5826085BD85B5816085BD80916E0026
:10406000816080936E001092810080918100826057
:104070008093810080918100816080938100809194
:1040800080008160809380008091B1008460809383
:10409000B1008091B00081608093B00080917A007F
:1040A000846080937A0080917A00826080937A00A5
:1040B00080917A00816080937A0080917A00806894
:1040C00080937A001092C100209125013091260141
:1040D0008FEF98E0821B930B909322018093210134
:1040E0000E94F6100E94B71E0E94F610C0E0D0E0B9
:1040F0008BE394E00E9467062097D1F30E94E801C9
:10410000F7CF0F931F93CF93DF938230910510F475
:1041100082E090E0E0915904F0915A0430E020E010
:10412000B0E0A0E0309799F42115310509F44AC0B8
:10413000281B390B24303105D8F58A819B81611504
:10414000710589F1FB0193838283FE0111C04081D7
:1041500051810281138148175907E0F04817590728
:1041600099F4109761F012960C93129713961C9382
:104170003296CF01DF91CF911F910F910895009357
:10418000590410935A04F4CF2115310551F0421708
:10419000530738F0A901DB019A01BD01DF01F801E5
:1041A000C1CFEF01F9CF90935A0480935904CDCF3A
:1041B000FE01E20FF31F819391932250310939835D
:1041C0002883D7CF2091570430915804232B41F4F2
:1041D00020912301309124013093580420935704F7
:1041E00020912101309122012115310541F42DB793
:1041F0003EB74091250150912601241B350BE091DB
:104200005704F0915804E217F307A0F42E1B3F0B5C
:104210002817390778F0AC014E5F5F4F2417350738
:1042200048F04E0F5F1F50935804409357048193FA
:1042300091939FCFF0E0E0E09CCFCF93DF93009786
:10424000E9F0FC01329713821282A0915904B091D7
:104250005A04ED0130E020E01097A1F42081318173
:10426000820F931F20915704309158042817390763
:1042700009F061C0F0935804E0935704DF91CF91A7
:104280000895EA01CE17DF07E8F54A815B819E01B8
:1042900041155105B1F7E901FB83EA834991599131
:1042A000C40FD51FEC17FD0761F480819181029640
:1042B000840F951FE90199838883828193819B8371
:1042C0008A83F0E0E0E012968D919C91139700971D
:1042D000B9F52D913C911197CD010296820F931F54
:1042E00020915704309158042817390739F6309730
:1042F00051F510925A0410925904B0935804A093A7
:104300005704BCCFD383C28340815181840F951F52
:10431000C817D90761F44E5F5F4F88819981480FB4
:10432000591F518340838A819B8193838283211506
:10433000310509F0B0CFF0935A04E09359049ECFB1
:10434000FD01DC01C0CF13821282D7CFFC01882788
:104350009927E89421912032E9F3293010F02E308A
:10436000C8F32B3241F02D3239F4689404C00E9416
:10437000E721820F911D219120532A30C0F31EF4B2
:10438000909581959F4F0895FB01DC0102C0059037
:104390000D9241505040D8F70895BB274A3031F470
:1043A000992322F4BDE2909581959F4F0C9412229F
:1043B000BB272A3051F4992342F4BDE290958095B1
:1043C000709561957F4F8F4F9F4F0C94F0217AE04D
:1043D000979F902D879F802D910D11240895BB27C5
:1043E000FA01A62F6217710581059105330B30FB89
:1043F00066F0AA27660F771F881F991FAA1FA217AA
:1044000010F0A21B63953850A9F7A05DAA3308F0FD
:10441000A95DA19336F7B111B1931082CA010C9432
:104420002B22BB27FB015527AA27880F991FAA1FFC
:10443000A41710F0A41B83955051B9F7A05DAA33BF
:1044400008F0A95DA193009779F7B111B19311928A
:10445000CB010C942B22DC01FC01672F7191772397
:10446000E1F7329704C07C916D9370836291AE172F
:10447000BF07C8F308950E947D2208F481E00895E3
:10448000E89409C097FB3EF49095809570956195EE
:104490007F4F8F4F9F4F9923A9F0F92F96E9BB27A4
:1044A0009395F695879577956795B795F111F8CF20
:1044B000FAF4BB0F11F460FF1BC06F5F7F4F8F4F8B
:1044C0009F4F16C0882311F096E911C0772321F081
:1044D0009EE8872F762F05C0662371F096E8862F19
:1044E00070E060E02AF09A95660F771F881FDAF770
:1044F000880F9695879597F90895990F0008550F9D
:10450000AA0BE0E8FEEF16161706E807F907C0F059
:1045100012161306E407F50798F0621B730B840B61
:10452000950B39F40A2661F0232B242B252B21F43B
:1045300008950A2609F4A140A6958FEF811D811DDB
:1045400008950E94B4220C9425230E94172338F06A
:104550000E941E2320F0952311F00C940E230C943E
:10456000142311240C9459230E94362370F3959F31
:10457000C1F3950F50E0551F629FF001729FBB275A
:10458000F00DB11D639FAA27F00DB11DAA1F649FF6
:104590006627B00DA11D661F829F2227B00DA11DA9
:1045A000621F739FB00DA11D621F839FA00D611D2F
:1045B000221F749F3327A00D611D231F849F600D50
:1045C000211D822F762F6A2F11249F5750409AF079
:1045D000F1F088234AF0EE0FFF1FBB1F661F771F05
:1045E000881F91505040A9F79E3F510580F00C94D0
:1045F0000E230C9459235F3FE4F3983ED4F3869541
:1046000077956795B795F795E7959F5FC1F7FE2B6F
:10461000880F911D9695879597F9089597F99F674B
:1046200080E870E060E008959FEF80EC089500243A
:104630000A941616170618060906089500240A9407
:1046400012161306140605060895092E0394000C8D
:1046500011F4882352F0BB0F40F4BF2B11F460FF1C
:1046600004C06F5F7F4F8F4F9F4F089557FD905845
:10467000440F551F59F05F3F71F04795880F97FB26
:10468000991F61F09F3F79F08795089512161306E0
:104690001406551FF2CF4695F1DF08C0161617060F
:1046A0001806991FF1CF8695710561050894089544
:1046B000E894BB2766277727CB0197F90895052E45
:1046C00097FB1EF400940E94762357FD07D00E94AA
:1046D000C82307FC03D04EF40C94762350954095E4
:1046E000309521953F4F4F4F5F4F0895909580959E
:1046F000709561957F4F8F4F9F4F08950E94EA23D9
:10470000A59F900DB49F900DA49F800D911D112425
:104710000895B7FF0C947E230E947E23821B930B87
:1047200008952F923F924F925F926F927F928F9255
:104730009F92AF92BF92CF92DF92EF92FF920F9330
:104740001F93CF93DF93CDB7DEB7CA1BDB0B0FB63A
:10475000F894DEBF0FBECDBF09942A8839884888F7
:104760005F846E847D848C849B84AA84B984C8848D
:10477000DF80EE80FD800C811B81AA81B981CE0F84
:10478000D11D0FB6F894DEBF0FBECDBFED01089569
:10479000A1E21A2EAA1BBB1BFD010DC0AA1FBB1F45
:1047A000EE1FFF1FA217B307E407F50720F0A21BB7
:1047B000B30BE40BF50B661F771F881F991F1A9424
:1047C00069F760957095809590959B01AC01BD014E
:1047D000CF010895A29FB001B39FC001A39F700DA8
:1047E000811D1124911DB29F700D811D1124911DF9
:1047F00008955058BB27AA270E9411240C94252302
:104800000E94172338F00E941E2320F039F49F3FA6
:1048100019F426F40C9414230EF4E095E7FB0C94A1
:104820000E23E92F0E94362358F3BA176207730745
:104830008407950720F079F4A6F50C9458230EF41C
:10484000E0950B2EBA2FA02D0B01B90190010C01A0
:10485000CA01A0011124FF27591B99F0593F50F4B8
:10486000503E68F11A16F040A22F232F342F442710
:10487000585FF3CF469537952795A795F040539508
:10488000C9F77EF41F16BA0B620B730B840BBAF0D8
:104890009150A1F0FF0FBB1F661F771F881FC2F743
:1048A0000EC0BA0F621F731F841F48F48795779557
:1048B0006795B795F7959E3F08F0B0CF9395880F11
:1048C00008F09927EE0F9795879508950E943E234B
:1048D00088F09F5798F0B92F9927B751B0F0E1F0C1
:1048E000660F771F881F991F1AF0BA95C9F714C071
:1048F000B13091F00E945823B1E008950C945823F0
:10490000672F782F8827B85F39F0B93FCCF38695A9
:1049100077956795B395D9F73EF490958095709506
:1049200061957F4F8F4F9F4F08950E947D2208F41D
:104930008FEF08950E947D22880B990B0895991B93
:1049400079E004C0991F961708F0961B881F7A9586
:10495000C9F780950895EE0FFF1F0590F491E02DA3
:104960000994B0E0A0E0E7EBF4E20C9493238C010F
:10497000009751F4CB010E9481208C01C801CDB772
:10498000DEB7E0E10C94AF23FC01E60FF71F9C01BA
:1049900022503109E217F30708F49DC0D901CD91E7
:1049A000DC911197C617D70798F0C530D10530F3C1
:1049B000CE0104978617970708F3C61BD70B2297DB
:1049C000C193D1936D937C93CF010E941D21D6CFCB
:1049D0005B01AC1ABD0A4C018C0E9D1EA0915904BE
:1049E000B0915A04512C412CF12CE12C109731F547
:1049F00080915704909158048815990509F05CC07E
:104A00004616570608F058C0809121019091220166
:104A1000009741F48DB79EB7409125015091260132
:104A2000841B950BE817F90708F055C0F09358045C
:104A3000E0935704F90171836083A0CF8D919C911D
:104A4000119712966C90129713967C901397A81555
:104A5000B90559F56C0142E0C40ED11CCA14DB043F
:104A600020F1AC014A195B09DA011296159780F022
:104A70006282738251834083D9016D937C93E114E8
:104A8000F10471F0D7011396FC93EE93129776CF51
:104A900022968C0F9D1FF90191838083F301EFCF44
:104AA000F0935A04E093590469CF4816590608F464
:104AB0002C017D01D3019ACFCB010E9481207C0182
:104AC000009749F0AE01B8010E946E25C8010E940E
:104AD0001D21870153CF10E000E050CFFB01DC0126
:104AE00002C001900D9241505040D8F70895DC016A
:104AF00001C06D9341505040E0F70895FB01DC0187
:104B00008D91019080190110D9F3990B0895FB0143
:104B1000DC0101900D920020E1F70895FB01DC011A
:104B20004150504048F001900D920020C9F701C05B
:0E4B30001D9241505040E0F70895F894FFCFD9
:104B3E004B634E512D6B726B6D37445258786A50E1
:104B4E0064306E764277736744746C4A7A6C6D3259
:104B5E000000005B0480000000000017027401A139
:104B6E00016402D201B001C40100000000A005746E
:104B7E00017B03DB0349444C4500546D7220537690
:104B8E006300696E006F75740070776D007075004C
:104B9E006477006177007677000A5B494E464F5D79
:104BAE002000466C7573696E672074686520706CA2
:104BBE00616E74000A004C4344205441534B004430
:104BCE0048540074656D702843293A200068756D4D
:104BDE0069646974792825293A20004C4452006C86
:104BEE0075783A20006E616E00696E66006F7666AB
:104BFE00000A5B5741524E494E475D2000456D708D
:104C0E0074792064617461000A5B4552525D200024
:104C1E0052656164206468743131206572726F72FE
:104C2E000074656D703A0068756D69646974793ADF
:104C3E0000547279696E6720746F2073656E6420FC
:104C4E006461746100446174612073656E74006305
:104C5E00726561746564200043616E27742063720F
:104C6E0065617465205461736B2C206D656D6F7278
:104C7E007920616C6C6F636174696F6E20657272FE
:104C8E006F7200437265617465207461736B207579
:104C9E006E6B6E6F776E206572726F7200506C6104
:104CAE006E742D6D6F6E69746F720043616E277432
:104CBE002063726561746520717565756500517547
:104CCE006575652063726561746564006C63645F0D
:104CDE007461736B0064687431315F7461736B005F
:104CEE00666C757368506C616E745461736B00768C
:024CFE00720042
:107E0000112484B714BE81FFF0D085E080938100F7
:107E100082E08093C00088E18093C10086E0809377
:107E2000C20080E18093C4008EE0C9D0259A86E02C
:107E300020E33CEF91E0309385002093840096BBD3
:107E4000B09BFECF1D9AA8958150A9F7CC24DD24C4
:107E500088248394B5E0AB2EA1E19A2EF3E0BF2EE7
:107E6000A2D0813461F49FD0082FAFD0023811F036
:107E7000013811F484E001C083E08DD089C08234E0
:107E800011F484E103C0853419F485E0A6D080C0E4
:107E9000853579F488D0E82EFF2485D0082F10E0AE
:107EA000102F00270E291F29000F111F8ED06801E7
:107EB0006FC0863521F484E090D080E0DECF843638
:107EC00009F040C070D06FD0082F6DD080E0C81688
:107ED00080E7D80618F4F601B7BEE895C0E0D1E017
:107EE00062D089930C17E1F7F0E0CF16F0E7DF06D8
:107EF00018F0F601B7BEE89568D007B600FCFDCFD4
:107F0000A601A0E0B1E02C9130E011968C91119780
:107F100090E0982F8827822B932B1296FA010C0160
:107F200087BEE89511244E5F5F4FF1E0A038BF0790
:107F300051F7F601A7BEE89507B600FCFDCF97BE46
:107F4000E89526C08437B1F42ED02DD0F82E2BD052
:107F50003CD0F601EF2C8F010F5F1F4F84911BD097
:107F6000EA94F801C1F70894C11CD11CFA94CF0C13
:107F7000D11C0EC0853739F428D08EE10CD085E9AC
:107F80000AD08FE07ACF813511F488E018D01DD067
:107F900080E101D065CF982F8091C00085FFFCCF94
:107FA0009093C60008958091C00087FFFCCF809118
:107FB000C00084FD01C0A8958091C6000895E0E648
:107FC000F0E098E1908380830895EDDF803219F02E
:107FD00088E0F5DFFFCF84E1DECF1F93182FE3DFCA
:107FE0001150E9F7F2DF1F91089580E0E8DFEE27F6
:047FF000FF270994CA
:027FFE00040479
:0400000300007E007B
:00000001FF
