:100000000C9462000C948A000C948A000C948A0070
:100010000C948A000C948A000C946B110C948A0046
:100020000C948A000C948A000C948A000C948A0028
:100030000C948A000C948A000C948A000C948A0018
:100040000C9469060C948A000C9437060C941106E3
:100050000C948A000C948A000C948A000C948A00F8
:100060000C948A000C948A000000000024002700F1
:100070002A0000000000250028002B0000000000DE
:1000800023002600290004040404040404040202DA
:100090000202020203030303030301020408102007
:1000A0004080010204081020010204081020000012
:1000B0000008000201000003040700000000000027
:1000C00000006E1111241FBECFEFD8E0DEBFCDBF00
:1000D00011E0A0E0B1E0E6EEF6E202C005900D927C
:1000E000A238B107D9F722E0A2E8B1E001C01D9221
:1000F000AB3CB207E1F710E0C2E6D0E004C02197C4
:10010000FE010E945B13C136D107C9F70E94B811E6
:100110000C9471130C940000AF92BF92CF92DF92B7
:10012000EF92FF920F931F93CF93DF936C017B01AC
:100130008B01040F151FEB015E01AE18BF08C0173D
:10014000D10759F06991D601ED91FC910190F081B0
:10015000E02DC6010995892B79F7C501DF91CF9173
:100160001F910F91FF90EF90DF90CF90BF90AF90D5
:100170000895FC01538D448D252F30E0842F90E0AD
:10018000821B930B541710F0CF9608950197089592
:10019000FC01918D828D981761F0A28DAE0FBF2F5B
:1001A000B11D5D968C91928D9F5F9F73928F90E0B1
:1001B00008958FEF9FEF0895FC01918D828D981720
:1001C00031F0828DE80FF11D858D90E008958FEF5D
:1001D0009FEF0895FC01918D228D892F90E0805C26
:1001E0009F4F821B91098F739927089582E192E0B6
:1001F0000E94EA0021E0892B09F420E0822F089573
:100200000E94F60081110C940000089580E090E0B7
:10021000892B11F00C9400010895FC01A48DA80F06
:10022000B92FB11DA35ABF4F2C91848D90E0019638
:100230008F739927848FA689B7892C93A089B18958
:100240008C91837080648C93938D848D981306C0F9
:100250000288F389E02D80818F7D80830895EF925D
:10026000FF920F931F93CF93DF93EC0181E0888F70
:100270009B8D8C8D98131AC0E889F989808185FF40
:1002800015C09FB7F894EE89FF896083E889F989E2
:1002900080818370806480839FBF81E090E0DF91E4
:1002A000CF911F910F91FF90EF900895F62E0B8D37
:1002B00010E00F5F1F4F0F731127E02E8C8D8E11F2
:1002C0000CC00FB607FCFACFE889F989808185FF59
:1002D000F5CFCE010E940D01F1CFEB8DEC0FFD2F7C
:1002E000F11DE35AFF4FF0829FB7F8940B8FEA8914
:1002F000FB8980818062CFCFCF93DF93EC01888D23
:100300008823B9F0AA89BB89E889F9898C9185FD90
:1003100003C0808186FD0DC00FB607FCF7CF8C911E
:1003200085FFF2CF808185FFEDCFCE010E940D01C8
:10033000E9CFDF91CF910895833081F028F48130A7
:1003400099F08230A9F008958730A9F08830C9F07B
:100350008430B1F4809180008F7D03C08091800053
:100360008F7780938000089584B58F7784BD08953A
:1003700084B58F7DFBCF8091B0008F778093B000E4
:1003800008958091B0008F7DF9CFCF93DF93282F10
:1003900030E0F901E255FF4F8491F901E656FF4F35
:1003A000D491F901EA57FF4FC491CC23A1F08111F8
:1003B0000E949C01EC2FF0E0EE0FFF1FE458FF4F6E
:1003C000A591B491EC91ED2381E090E009F480E0F7
:1003D000DF91CF91089580E090E0FACF1F93CF9303
:1003E000DF93282F30E0F901E255FF4F8491F901A6
:1003F000E656FF4FD491F901EA57FF4FC491CC2341
:10040000A9F0162F81110E949C01EC2FF0E0EE0F55
:10041000FF1FEE58FF4FA591B4918FB7F894EC9160
:10042000111108C0D095DE23DC938FBFDF91CF91EF
:100430001F910895DE2BF8CFCF93DF9390E0FC015E
:10044000E656FF4F24918A579F4FFC0184918823E1
:10045000D1F090E0880F991FFC01E859FF4FA5915A
:10046000B491FC01EE58FF4FC591D49161110EC0BB
:100470009FB7F8948C91E22FE0958E238C9328817E
:10048000E223E8839FBFDF91CF9108958FB7F8945F
:10049000EC91E22BEC938FBFF6CF3FB7F8948091AD
:1004A000AF019091B001A091B101B091B20126B518
:1004B000A89B05C02F3F19F00196A11DB11D3FBF9C
:1004C000BA2FA92F982F8827BC01CD01620F711D6B
:1004D000811D911D42E0660F771F881F991F4A9565
:1004E000D1F708958F929F92AF92BF92CF92DF92F1
:1004F000EF92FF924B015C010E944D026B017C0167
:100500000E944D026C197D098E099F09683E734057
:1005100081059105A8F321E0821A9108A108B1088C
:1005200088EEC80E83E0D81EE11CF11C81149104F2
:10053000A104B10429F7FF90EF90DF90CF90BF9016
:10054000AF909F908F900895089590E080E0089577
:10055000E091BB01F091BC018081811107C08FEF58
:100560009FEF9093A3018093A2010895E091BB01B6
:10057000F091BC010580F681E02D0680F781E02D29
:1005800082819381EECFCF93DF93EC0160E08E8187
:100590000E94EE0161E08E810E94EE0160E08E819A
:1005A0000E94EE018BE891E00197F1F7DF91CF9186
:1005B0000895CF92DF92EF92FF920F931F93CF9304
:1005C000DF936C017C0187E0E80EF11CD0E0C0E015
:1005D000062F10E0B8010C2E02C0759567950A949D
:1005E000E2F76170F70181917F010E94EE0121968F
:1005F000C430D10579F7C601DF91CF911F910F91DA
:10060000FF90EF90DF90CF900C94C302CF92DF92D7
:10061000EF92FF920F931F93CF93DF93EC01F62E8F
:10062000642F8C810E94EE018D818F3F19F060E074
:100630000E94EE010F2D10E08F8584FF25C06E0112
:1006400087E0C80ED11CF12CE12CB8010E2C02C0A1
:10065000759567950A94E2F76170F60181916F01D3
:100660000E94EE01FFEFEF1AFF0A88E0E816F1049E
:1006700061F7CE01DF91CF911F910F91FF90EF9025
:10068000DF90CF900C94C302B80184E07595679514
:100690008A95E1F7CE010E94D9026F2DCE01DF913C
:1006A000CF911F910F91FF90EF90DF90CF900C941E
:1006B000D902CF93DF93823029F49091BE029860E3
:1006C0009093BE028093C2021092C30280E4809392
:1006D000C40280E18093C50280E58093C60261E098
:1006E0008091B3020E941C028091B4028F3F19F0E6
:1006F00061E00E941C0261E08091B5020E941C0230
:10070000CFEAD2E09E012F5A32408091BE0284FD92
:100710000BC084E090E021962817390744F461E08B
:100720008E810E941C02EECF88E090E0F4CF8BE334
:100730009DE00197F1F760E08091B3020E94EE0125
:1007400060E08091B5020E94EE018091B4028F3F7B
:1007500019F060E00E94EE016091BE0264FD45C0A8
:1007600063E08FEA92E00E94D902CBE4D6E4CE01A6
:100770000197F1F763E08FEA92E00E94D902219796
:10078000F1F763E08FEA92E00E94D90283E592E0FC
:100790000197F1F762E08FEA92E00E94D90260913E
:1007A000BE02606240E08FEA92E00E94060384E0AD
:1007B0008093BF0240E06CE08FEA92E00E94060363
:1007C00040E061E08FEA92E00E9406038BE39FE144
:1007D0000197F1F782E08093C00240E066E08FEA83
:1007E00092E0DF91CF910C940603606240E08FEAC3
:1007F00092E00E9406038BE496E40197F1F7609182
:10080000BE02606240E08FEA92E00E94060383E548
:1008100092E00197F1F76091BE02606240E08FEADA
:1008200092E00E940603BBCF41E00E94060381E0F4
:1008300090E00895FB0101900020E9F73197AF01A6
:10084000461B570BDC01ED91FC910280F381E02DFA
:1008500009948F929F92AF92BF920F931F93CF9361
:10086000DF93CDB7DEB7A1970FB6F894DEBF0FBE0A
:10087000CDBF19A2423008F44AE08E010F5D1F4F30
:10088000842E912CB12CA12CA50194010E94391326
:10089000E62FB901CA01EA3004F5E05DD801EE9314
:1008A0008D01232B242B252B79F790E080E01097E6
:1008B00029F0BD0182E192E00E941A04A1960FB6D0
:1008C000F894DEBF0FBECDBFDF91CF911F910F9186
:1008D000BF90AF909F908F900895E95CDFCFCF934A
:1008E000DF9300D000D01F92CDB7DEB70BE910E048
:1008F000AA24A394B12C19821A821B821C821D8205
:1009000061E086E00E941C0260E086E00E94EE0149
:1009100062E170E080E090E00E94720261E086E0B7
:100920000E94EE01C8010197F1F760E086E00E94A5
:100930001C02E1E1EE2EE7E2FE2E86E00E94C501F8
:10094000892B49F421E0E21AF108B9F78EEFE82E7D
:10095000FF24FA946DC071E1E72E77E2F72E86E06E
:100960000E94C501019729F431E0E31AF108B9F7B3
:10097000EDCF58E2C52ED12C67E0F62EE12C41E1F7
:10098000842E47E2942E86E00E94C501892B29F42B
:1009900041E0841A9108B9F7D9CF0E944D022B018A
:1009A0003C0131E1832E37E2932E86E00E94C5019F
:1009B000019729F451E0851A9108B9F7C7CF0E9431
:1009C0004D02641975098609970969327105810517
:1009D000910578F0E1E0F0E0EC0FFD1FEE0DF11D68
:1009E000808195010F2C01C0220F0A94EAF7822B17
:1009F0008083F11067C0E39427E0F22E81E0C81AEB
:100A0000D10809F0BCCF8981282F30E030938501CF
:100A1000209384019B81292F30E03093870120931C
:100A20008601890F9D81891721F1EE24EA94FE2C1D
:100A300064E271E082E192E00E941A046DE282E1D8
:100A400092E00E942F01C701FF0CAA0BBB0B9C0177
:100A5000AD0166277727CB01621B730B840B950BC7
:100A60004AE00E9429046FE371E082E192E00E9473
:100A70001A04C0908601D09087010D2C000CEE085E
:100A8000FF0868EE73E080E090E00E9472024AE0A6
:100A9000C701B601F7FE0DC06DE282E192E00E944F
:100AA0002F0166277727CB016C197D098E099F09D5
:100AB0004AE00E9429046FE371E082E192E00E9423
:100AC0001A0419CFFA949ACF00E010E08091A101A6
:100AD00081110CC08091EA01823010F00E94BF08A1
:100AE0000115110599F30E940001F0CF0FB6F8949B
:100AF0000F92E091CB01F091CC01C681D781CE015C
:100B000002960E9421078091110281508093110268
:100B10008091A10181508093A1010F900FBE8F8918
:100B2000988D0E94D50DCE010E94D50DCFCF0F9389
:100B30001F93E0912202F091230282E08083E091F2
:100B40001E02F0911F021082E0912002F09121021A
:100B50008FEC808310922A02E0912602F091270206
:100B600086E08083E0912402F091250280818061FB
:100B70008083E0912402F091250280818860808347
:100B8000E0912402F0912502808180688083E091C9
:100B90002402F091250280818F7D80836FE471E0D3
:100BA00082E192E00E941A046FE371E082E192E038
:100BB0000E941A0482E00E9459036FE471E08FEAF8
:100BC00092E00E941A0487E390E00E949F0F009732
:100BD000D9F09C01215E3F4FFC013183208323E04B
:100BE000238F28E0248F0E948F0810E000E021E08E
:100BF00048EC50E06DE571E08FE694E00E94BD0F97
:100C00001F910F910C94C8106EE671E082E192E0A2
:100C10000E941A046FE371E082E192E00E941A04DC
:100C2000E4CF1F920F920FB60F9211242F933F9390
:100C30004F935F936F937F938F939F93AF93BF93E4
:100C4000EF93FF9382E192E00E940D01FF91EF91FB
:100C5000BF91AF919F918F917F916F915F914F91D4
:100C60003F912F910F900FBE0F901F9018951F92DC
:100C70000F920FB60F9211242F938F939F93EF93A0
:100C8000FF93E0912202F09123028081E0912802FB
:100C9000F091290282FD1BC0908180912B028F5F11
:100CA0008F7320912C02821741F0E0912B02F0E02B
:100CB000EE5EFD4F958F80932B02FF91EF919F91F8
:100CC0008F912F910F900FBE0F901F9018958081DC
:100CD000F4CF1F920F920FB60F9211242F933F93D0
:100CE0008F939F93AF93BF938091AB019091AC0191
:100CF000A091AD01B091AE013091AA0123E0230F84
:100D00002D3758F50196A11DB11D2093AA0180939E
:100D1000AB019093AC01A093AD01B093AE01809173
:100D2000AF019091B001A091B101B091B2010196D3
:100D3000A11DB11D8093AF019093B001A093B101AB
:100D4000B093B201BF91AF919F918F913F912F913D
:100D50000F900FBE0F901F90189526E8230F029654
:100D6000A11DB11DD2CFFC01DB010FB6F8940F928B
:100D70004091B6015091B7012D913C9111972F3FB1
:100D80003207E1F0818192816091B801708176171C
:100D900019F048175907C0F4481B590B421753075D
:100DA00088F4241B350B2D933C938091B8018083EC
:100DB0008091B6019091B7019283818380E00F907A
:100DC0000FBE08951D921C9281E0F9CF0FB6F894E2
:100DD0000F928091B6019091B7010F900FBE0895C8
:100DE0008091B3018F5F8093B30108950FB6F8949B
:100DF0000F92FC01928D0F900FBE81E0911180E067
:100E00000895CF93DF939C01FB01DC011196CD91F6
:100E1000DC91D383C2838C819D81958384838C8173
:100E20009D81DC0113967C936E9312977D836C8376
:100E300031872087F90180818F5F8083DF91CF9197
:100E40000895CF93DF93FC01A085B18582819381C2
:100E500024813581EC013D832C83C481D5819B8322
:100E60008A8311968D919C9112978E179F0721F47A
:100E70001296DC93CE931197118610868C91815037
:100E80008C938C91DF91CF9108950F931F93CF9303
:100E9000DF93DC011596ED91FC91C681D7818E011F
:100EA000045F1F4FC8010E9421078091B301811187
:100EB00025C00A501109C8010E9421078E8990910E
:100EC0000E02981710F480930E02B9E08B9FC001B8
:100ED0001124B80186519E4F0E940107E0918201C2
:100EE000F09183019E898689891760F481E080935F
:100EF000A001DF91CF911F910F910895B8018FEC60
:100F000091E0EACF80E0F5CFEF92FF920F931F932D
:100F1000CF93DF93EC010FB6F8940F921E8D7C01F6
:100F200081E1E80EF11C01E01116D4F08FEF8E8FF5
:100F30000F900FBE0FB6F8940F921D8D7E0188E0C2
:100F4000E80EF11C01E01116B4F08FEF8D8F0F90B9
:100F50000FBEDF91CF911F910F91FF90EF900895F9
:100F60008989882319F3C7010E94450781110093DD
:100F7000A0011150D9CF8885882339F3C7010E9479
:100F8000450781110093A0011150DDCF0F931F93EE
:100F9000CF93DF938C01FB0180819181D80113965F
:100FA0008F3F9807F1F4E801AF81B88512968D91D3
:100FB0009C91139793838283EC01FD83EC83B5832B
:100FC000A4831396FC93EE93129711870087F80180
:100FD00080818F5F8083DF91CF911F910F91089562
:100FE000D90112962D913C911397E90148815981BD
:100FF00084179507A8F7DACFFC0173836283918782
:1010000080874617570790F0421B530B84859585C0
:1010100048175907C8F4BF016E5F7F4F8091A60142
:101020009091A7010E94C60780E0089542175307D8
:1010300018F46217730740F4BF016E5F7F4F809111
:10104000A8019091A901EECF81E00895FF920F933E
:101050001F93CF93DF93EC01F62E0091B601109110
:10106000B701809182019091830102960E9421072D
:10107000CF3FDC0789F4FF2079F060918201709105
:1010800083016E5F7F4F8DEB91E0DF91CF911F91D8
:101090000F91FF900C940107C00FD11FE0918201C6
:1010A000F0918301D383C2836091820170918301A7
:1010B000C017D10768F48091B9019091BA016E5FB1
:1010C0007F4FDF91CF911F910F91FF900C94C60736
:1010D0008091BB019091BC016E5F7F4F0E94C6075B
:1010E0008091A2019091A301C817D90720F4D09351
:1010F000A301C093A201DF91CF911F910F91FF90A7
:101100000895FC010396928381832FEF3FEF348390
:101110002383968385839087878310820895CF9356
:10112000DF93EC010FB6F8940F92888199812B8D93
:101130004C8DBC01249F600D711D11247D836C8337
:101140001A8E9B838A832150330B429FB001439FA9
:10115000700D1124860F971F9F838E838FEF8D8FC5
:101160008E8FCE0108960E948108CE0141960E9482
:1011700081080F900FBE81E0DF91CF9108950F920B
:101180000FB6F8940F921F9211242F923F924F9214
:101190005F926F927F928F929F92AF92BF92CF9207
:1011A000DF92EF92FF920F931F932F933F934F93F2
:1011B0005F936F937F938F939F93AF93BF93CF93DF
:1011C000DF93EF93FF93A0918201B09183010DB65D
:1011D0000D920EB60D928091B301882321F081E02B
:1011E0008093A0015FC01092A001A0918201B091F4
:1011F0008301E0918201F09183012D913C918789D7
:10120000908D82179307A8F08091820190918301BD
:101210008091820190918301259A2D9A2FEF87EA80
:1012200091E6215080409040E1F700C000001D9AF7
:10123000F5CF20910E0289E001C02150422F50E0ED
:10124000849FF001859FF00D1124E651FE4F90819F
:10125000992399F3A181B28112960D90BC91A02D92
:10126000B283A183289FC001112483519E4FA817E8
:10127000B90729F412968D919C919283818389E01C
:10128000849FF001859FF00D1124E651FE4F0180EF
:10129000F281E02D86819781909383018093820172
:1012A00020930E02A0918201B0918301CD91CDBF18
:1012B000DD91DEBFFF91EF91DF91CF91BF91AF91B3
:1012C0009F918F917F916F915F914F913F912F915E
:1012D0001F910F91FF90EF90DF90CF90BF90AF9054
:1012E0009F908F907F906F905F904F903F902F9046
:1012F0001F900F900FBE0F9008957F928F929F9234
:10130000AF92BF92CF92DF92EF92FF920F931F9313
:10131000CF93DF930FB6F8940F928091B301815071
:101320008093B3018091B301882389F080E00F900E
:101330000FBEDF91CF911F910F91FF90EF90DF9043
:10134000CF90BF90AF909F908F907F9008958091A5
:101350001102882359F3D0E0C0E029E0F22EEE24F8
:10136000E39429C0E091D401F091D501C681D781E1
:10137000CE010C960E9421078E010E5F1F4FC801FF
:101380000E9421078E8990910E02981710F4809385
:101390000E028F9DC0011124B80186519E4F0E94FC
:1013A0000107E0918201F09183019E898689981757
:1013B00010F0E092A0018091CF018111D3CFCD2B0D
:1013C00011F00E94A802E0909E01F0909F01E114AC
:1013D000F10409F4AFC089E0A82E77247394CC24DB
:1013E000CA94DC2C8091B301811192C0C091B601E6
:1013F000D091B7012196D093B701C093B601209741
:10140000B9F48091BB019091BC012091B901309158
:10141000BA013093BC012093BB019093BA01809331
:10142000B9018091B8018F5F8093B8010E94A80232
:101430008091A2019091A301B12CC817D90708F09F
:101440005BC0E0918201F0918301E689AE9EF001DC
:101450001124E651FE4F8081823010F0BB24B394FA
:101460008091A001811103C0BB2009F45AC0709281
:10147000A00157C0E091BB01F091BC010580F6814D
:10148000E02D06811781D80112968D919C91C81785
:10149000D90728F49093A3018093A201D2CF4801E9
:1014A000B2E08B0E911CC4010E942107F8018489CF
:1014B0009589892B21F0C8010C960E942107D8013B
:1014C00056968C9190910E02981710F480930E020C
:1014D0008A9DC0011124B40186519E4F0E940107CC
:1014E000E0918201F0918301D80156969C91868902
:1014F000981710F0BB24B394E091BB01F091BC01AC
:1015000080818111B7CFD092A301C092A20199CF5F
:1015100080919E0190919F01019690939F018093ED
:101520009E01B1E0EB1AF10809F05CCF10929F0127
:1015300010929E018091A001882309F4F7CE0E94A9
:10154000BF0881E0F4CEAF92BF92CF92DF92EF92CC
:10155000FF920F931F93CF93DF9300D000D01F9281
:10156000CDB7DEB78C017B011D821C8280E0680153
:1015700028E0C20ED11C0FB6F8940F92F801228D0C
:10158000938D291708F078C0D28C448D41115AC030
:1015900080819181892B11F080E009C0E480F58081
:1015A000E114F10421F580E0F80115821482D3944E
:1015B000F801D28E9189992321F0C80141960E94A9
:1015C000450781110E94BF080F900FBE81E00F9068
:1015D0000F900F900F900F90DF91CF911F910F916F
:1015E000FF90EF90DF90CF90BF90AF900895F701FC
:1015F00082A1815082A3268991A12917A1F281118C
:10160000D2CF5701F2E0AF0EB11CC5010E942107F5
:10161000F70181A1868B24E030E0281B3109358752
:10162000248790910E02981710F480930E02F9E02F
:101630008F9FC0011124B50186519E4F0E94010762
:1016400081E0B2CF50E0B701828193810E946113A3
:10165000F801848D22813381820F932F911D938312
:101660008283248135818217930708F495CF808186
:1016700091819383828390CF2C813D81232B21F410
:101680000F900FBE80E0A3CF811109C08091B801F7
:1016900089838091B6019091B7019B838A830F90D3
:1016A0000FBE0E94F0060FB6F8940F92F801858DD8
:1016B0008F3F09F4158EF801868D8F3F09F4168E41
:1016C0000F900FBEBE016C5F7F4FCE0101960E944E
:1016D000B30681112AC00FB6F8940F92F801928DCB
:1016E000838D0F900FBE98131AC0AC80BD8060919F
:1016F000820170918301645F7F4FC6010E94C6071B
:1017000061E0C5010E942608C8010E9484070E946A
:101710007D09811102C00E94BF0881E02CCFC80161
:101720000E9484070E947D09F8CFC8010E948407A7
:101730000E947D09A7CFCF93DF9300D000D01F92E6
:10174000CDB7DEB79C018091B4019091B5010097AF
:10175000B9F019827B836A833D832C832091100228
:10176000BE016F5F7F4F21112091B3010E94A30A38
:101770000F900F900F900F900F90DF91CF910895E1
:1017800080E0F6CFEF92FF920F931F93CF93DF93FA
:10179000E091A801F091A9018081811113C080918D
:1017A000A6019091A7019093A9018093A801F093BD
:1017B000A701E093A601DF91CF911F910F91FF90B8
:1017C000EF9008950580F681E02D00811181C6819A
:1017D000D7817E0182E0E80EF11CC7010E9421073B
:1017E000E889F989CE0109958A8982FFD1CF8C8554
:1017F0009D85800F911F0817190760F49B838A83CA
:10180000D987C887B7018091A8019091A9010E944A
:10181000C607BECFB801CE010E949B0BB9CF0F9275
:101820000FB6F8940F921F9211242F923F924F926D
:101830005F926F927F928F929F92AF92BF92CF9260
:10184000DF92EF92FF920F931F932F933F934F934B
:101850005F936F937F938F939F93AF93BF93CF9338
:10186000DF93EF93FF93A0918201B09183010DB6B6
:101870000D920EB60D9213BE8091B3018111F6C088
:101880008091B6019091B70101969093B701809332
:10189000B601009799F52091BB013091BC014091B0
:1018A000B9015091BA015093BC014093BB013093F0
:1018B000BA012093B9012091B8012F5F2093B8019C
:1018C000E091BB01F091BC012081211107C02FEFF5
:1018D0003FEF3093A3012093A20110C0E091BB0120
:1018E000F091BC010580F681E02D0680F781E02DA6
:1018F000228133813093A3012093A2012091A20180
:101900003091A3018217930710F420E09BC020E0E0
:1019100019E0E091BB01F091BC013081311107C0A9
:101920008FEF9FEF9093A3018093A2018BC0E09172
:10193000BB01F091BC010580F681E02D0680F781A6
:10194000E02D428153818417950728F45093A30119
:101950004093A20177C0AF014E5F5F4FA285B38570
:1019600064817581E680F780EB01FD82EC82C6819F
:10197000D7817B836A8311966D917C91129746176C
:10198000570721F41296DC93CE9311971386128693
:101990003C9131503C933C91A489B5891097F9F062
:1019A00066857785E088F188EB01FD82EC82C0894D
:1019B000D1897B836A831196ED90FC901297BF01C9
:1019C000645F7F4FE616F70621F41296DC93CE9300
:1019D0001197158A148A3C9131503C933C91A68909
:1019E00030910E023A1710F4A0930E021A9FD00104
:1019F0001124BD0166517E4F7B01DB011196CD9113
:101A0000DC91D583C4836C817D81778366836C810F
:101A10007D81DB0113965C934E9312975D834C831B
:101A2000F386E286E70138813F5F3883A091820127
:101A3000B0918301468956963C91431708F469CFCB
:101A400021E067CFE0918201F0918301E689D9E03E
:101A5000ED9FF0011124E651FE4F8081823008F0A5
:101A600021E08091A00181110EC00AC080919E01E9
:101A700090919F01019690939F0180939E016AC06F
:101A8000222309F467C08091B301882321F081E00B
:101A90008093A0015FC01092A001A0918201B0913B
:101AA0008301E0918201F09183012D913C9187891E
:101AB000908D82179307A8F0809182019091830105
:101AC0008091820190918301259A2D9A2FEF67EAE8
:101AD00071E6215060407040E1F700C000001D9A9F
:101AE000F5CF20910E0289E001C02150422F50E035
:101AF000849FF001859FF00D1124E651FE4F9081E7
:101B0000992399F3A181B28112960D90BC91A02DD9
:101B1000B283A183289FC001112483519E4FA8172F
:101B2000B90729F412968D919C919283818389E063
:101B3000849FF001859FF00D1124E651FE4F018036
:101B4000F281E02D868197819093830180938201B9
:101B500020930E02A0918201B0918301CD91CDBF5F
:101B6000DD91DEBFFF91EF91DF91CF91BF91AF91FA
:101B70009F918F917F916F915F914F913F912F91A5
:101B80001F910F91FF90EF90DF90CF90BF90AF909B
:101B90009F908F907F906F905F904F903F902F908D
:101BA0001F900F900FBE0F900895CF93DF93009773
:101BB00051F0EC010E94F006CE010E94B012DF91BC
:101BC000CF910C947D09DF91CF910895CF93DF934E
:101BD000CDB7DEB72A970FB6F894DEBF0FBECDBFE4
:101BE000E091A801F091A901F08010E000E0FF2051
:101BF00029F00580F681E02D008111810E94F00618
:101C00000E94E6066C018091A4019091A501C8167E
:101C1000D90608F07CC00E94C20BD092A501C092E8
:101C2000A4010E947D090091B4011091B5011A86AA
:101C3000198680E06801B1E1CB0ED11C0FB6F89493
:101C40000F92F801F28CFF2009F418C1448D44234F
:101C5000C1F050E086819781840F951F978386831A
:101C6000248135818217930720F0808191819783A9
:101C70008683D80116966D917C91CE0101960E94C3
:101C80006113FA94F801F28E8085882339F0C80137
:101C900008960E94450781110E94BF080F900FBE51
:101CA000D980D7FCC0CF0C811D81D8011A968D91A7
:101CB0009C91892B21F0C80102960E9421070E9465
:101CC000E6067C018091A4019091A501E816F90631
:101CD00010F40E94C20BF092A501E092A401B9E0B9
:101CE000BD1508F4A0CFED2DDD0CFF0BE358F14F2F
:101CF000D80152968C910C945B13010F010F010FC8
:101D0000390F240F330F010F010F390F240FD09219
:101D1000A501C092A401FF2099F1C016D106C0F11F
:101D20000E947D09E091A801F091A9010580F6814A
:101D3000E02DE680F780C70102960E942107D701B7
:101D400052968C91529782FF17C01C966D917C9190
:101D5000600F711F9801A601C7010E94FC0788232C
:101D600021F0B801C7010E949B0BD7015096ED915D
:101D7000FC91C701099557CF8E7FF701828BF5CF74
:101D8000E091A601F091A7018081BB24B394811159
:101D9000B12CE090B401F090B5010FB6F8940F9219
:101DA000F701858D8F3F09F4158ED7015E968C91D2
:101DB0005E978F3F11F45E961C920F900FBEF70155
:101DC000828D811114C06091820170918301645FE2
:101DD0007F4FC70141960E940107C8018C199D09D8
:101DE000BB2011F08FEF9FEF6B2D0E942608C701DB
:101DF0000E9484070E947D09811115CF0E94BF08AF
:101E000012CF8160F801828BCA80DB806485758582
:101E10006C0D7D1D9601A701C8010E94FC07882357
:101E200009F401CFD8015096ED91FC91C8010995B4
:101E3000F801828982FFF7CE648575856C0D7D1D62
:101E4000C8010E949B0BEFCE8160F801828B6A81F2
:101E50007B81758764876E0D7F1D9701A701C8017F
:101E60000E94FC07E0CE81FD04C0C8010E94D50D90
:101E7000DACE8E7FD80152968C93D5CE29853A85BD
:101E8000232B19F40F900FBEABCE811109C08091A6
:101E9000B8018E838091B6019091B70198878F83A6
:101EA0000F900FBE0E94F0060FB6F8940F92D80163
:101EB0005D968C915D978F3F11F45D961C92F801B1
:101EC000868D8F3F09F4168E0F900FBEBE01675F9F
:101ED0007F4FCE0106960E94B306811125C0C8012E
:101EE0000E94F6068823D1F0E984FA846091820189
:101EF00070918301645F7F4FC6010E94C60761E055
:101F0000C7010E942608C8010E9484070E947D091B
:101F1000811102C00E94BF0881E090CEC8010E94DA
:101F200084070E947D09F8CFC8010E9484070E949F
:101F30007D09C8010E94F606882371F351CECF9324
:101F4000DF93EC010E94F006CE010E941412EC0116
:101F50000E947D09209769F4259A2D9A2FEF80E73A
:101F600092E0215080409040E1F700C000001D9AAF
:101F7000F5CFCE01DF91CF9108957F928F929F92FE
:101F8000AF92BF92CF92DF92EF92FF920F931F9387
:101F9000CF93DF93982EA92E762E872E7A01B22E1C
:101FA000CA010E949F0F6C01892B09F4D0C088E2FE
:101FB00090E00E949F0FEC01892B09F4C5C0D88ED8
:101FC000CF8AA70165EA70E0C6010E946A1321E08A
:101FD000E21AF108EF89F88DEE0DFF1D672D782DBF
:101FE000CE0149969B01285F3F4FDB014D91BD011A
:101FF000DC014D93CD01AB0141505109DA014C9107
:10200000442319F06217730781F718A2BE8AB9A298
:102010001AA21B861A861D8A1C8AD987C88784E063
:1020200090E08B1991099D878C87DB8BCA8B1BA253
:102030001CA21DA21EA21FA29082DF011197AC92CA
:1020400011971C92119780E88C9311971C925797C7
:102050001C9211971C92B397F983E883011511051F
:1020600019F0F801D183C0830FB6F8940F928091D4
:1020700011028F5F80931102809182019091830100
:10208000892B09F073C0D0938301C09382018091A2
:102090001102813081F58AEE91E00E94810883EF80
:1020A00091E00E9481088CEF91E00E94810885E018
:1020B00092E00E94810881EE91E00E94810888ED03
:1020C00091E00E9481088FEC91E00E94810886ECEB
:1020D00091E00E9481088DEB91E00E94810881EEE1
:1020E00091E09093BC018093BB0188ED91E09093C7
:1020F000BA018093B90180910F028F5F80930F0224
:102100008E8990910E02981710F480930E02F9E0D8
:102110008F9FC0011124BE016E5F7F4F86519E4F7D
:102120000E9401070F900FBE80911002882351F08A
:10213000E0918201F091830196898E89981710F4BD
:102140000E94BF0881E004C0C6010E94D50D8FEF38
:10215000DF91CF911F910F91FF90EF90DF90CF9083
:10216000BF90AF909F908F907F90089580911002C4
:102170008111C1CFE0918201F09183019E8986890E
:10218000981708F4B8CFD0938301C0938201B3CFDE
:102190000F931F93CF93DF930CE911E020E040EC05
:1021A00050E062E471E084E695E00E94BD0F81306A
:1021B00009F08CC00FB6F8940F928091B401909101
:1021C000B501892B49F581E991E00E94810888E8F1
:1021D00091E00E94810881E991E09093A9018093A8
:1021E000A80188E891E09093A7018093A60181E57A
:1021F00090E00E949F0FEC01009751F04F96998359
:1022000088838AE08B8F85E08C8FCE010E948F08B7
:10221000D093B501C093B4010F900FBE8091B4016B
:102220009091B501892B09F451C00AE911E023E02E
:1022300045E550E067E471E086EE9DE00E94BD0F49
:10224000813009F043C0F8942FEF3FEF3093A301A2
:102250002093A201809310021092B7011092B60150
:10226000A89588E190EC0FB6F894A895809360004B
:102270000FBE90936000A0918201B0918301CD9137
:10228000CDBFDD91DEBFFF91EF91DF91CF91BF9187
:10229000AF919F918F917F916F915F914F913F91FE
:1022A0002F911F910F91FF90EF90DF90CF90BF90F3
:1022B000AF909F908F907F906F905F904F903F90E6
:1022C0002F901F900F900FBE0F900895DF91CF9128
:1022D0001F910F9108950E940F0C1895E2E1F2E012
:1022E0001382128288EE93E0A0E0B0E084839583AD
:1022F000A683B7838AE091E09183808385EC90E0A8
:102300009587848784EC90E09787868780EC90E0BF
:10231000918B808B81EC90E0938B828B82EC90E0B0
:10232000958B848B86EC90E0978B868B118E128E2A
:10233000138E148EEFEAF2E0138212828CE191E0A8
:10234000918380838CE084838FEF85838BE0868309
:1023500085E0878384E0808783E0818782E08287CD
:102360001386148615861686178681E00C94590309
:10237000789484B5826084BD84B5816084BD85B560
:10238000826085BD85B5816085BD80916E0081606C
:1023900080936E0010928100809181008260809312
:1023A0008100809181008160809381008091800014
:1023B0008160809380008091B10084608093B1003F
:1023C0008091B00081608093B00080917A00846039
:1023D00080937A0080917A00826080937A00809165
:1023E0007A00816080937A0080917A00806880937F
:1023F0007A001092C10020910401309105018FEF05
:1024000098E0821B930B90930101809300010E943E
:1024100097050E94C8100E949705C0E0D0E0209761
:10242000F1F30E940001FBCF0F931F93CF93DF9333
:102430008230910510F482E090E0E091C902F091C1
:10244000CA0230E020E0B0E0A0E0309799F4211516
:10245000310509F44AC0281B390B24303105D8F561
:102460008A819B816115710589F1FB0193838283C8
:10247000FE0111C040815181028113814817590723
:10248000E0F04817590799F4109761F012960C93F1
:10249000129713961C933296CF01DF91CF911F9123
:1024A0000F9108950093C9021093CA02F4CF211529
:1024B000310551F04217530738F0A901DB019A01A9
:1024C000BD01DF01F801C1CFEF01F9CF9093CA023E
:1024D0008093C902CDCFFE01E20FF31F8193919348
:1024E0002250310939832883D7CF2091C7023091F8
:1024F000C802232B41F42091020130910301309353
:10250000C8022093C70220910001309101012115DA
:10251000310541F42DB73EB74091040150910501BA
:10252000241B350BE091C702F091C802E217F307B4
:10253000A0F42E1B3F0B2817390778F0AC014E5F33
:102540005F4F2417350748F04E0F5F1F5093C802A6
:102550004093C702819391939FCFF0E0E0E09CCF3E
:10256000CF93DF930097E9F0FC0132971382128238
:10257000A091C902B091CA02ED0130E020E01097AD
:10258000A1F420813181820F931F2091C7023091E5
:10259000C8022817390709F061C0F093C802E09318
:1025A000C702DF91CF910895EA01CE17DF07E8F562
:1025B0004A815B819E0141155105B1F7E901FB8319
:1025C000EA8349915991C40FD51FEC17FD0761F4B7
:1025D000808191810296840F951FE90199838883F8
:1025E000828193819B838A83F0E0E0E012968D9153
:1025F0009C9113970097B9F52D913C911197CD01BE
:102600000296820F931F2091C7023091C8022817AB
:10261000390739F6309751F51092CA021092C90263
:10262000B093C802A093C702BCCFD383C2834081BA
:102630005181840F951FC817D90761F44E5F5F4F12
:1026400088819981480F591F518340838A819B81DA
:10265000938382832115310509F0B0CFF093CA022C
:10266000E093C9029ECFFD01DC01C0CF138212822C
:10267000D7CFA1E21A2EAA1BBB1BFD010DC0AA1FBA
:10268000BB1FEE1FFF1FA217B307E407F50720F0DB
:10269000A21BB30BE40BF50B661F771F881F991F56
:1026A0001A9469F760957095809590959B01AC019F
:1026B000BD01CF010895EE0FFF1F0590F491E02DAD
:1026C0000994FB01DC0102C001900D924150504081
:1026D000D8F70895DC0101C06D9341505040E0F7F8
:0626E0000895F894FFCFFD
:1026E6000000CB028000000000002F018C00B90022
:1026F6007C01EA00C800DC000000000014048C0025
:10270600A502A4025B4552524F525D205265616498
:10271600206468743131206572726F723A20000D40
:102726000A0049444C4500546D72205376630050AC
:102736006C616E742D6D6F6E69746F720054454DC9
:102746005045524154555245205441534B00436124
:102756006E27742063726561746520717565756591
:02276600000071
:00000001FF
