:1000000065C3000094C3000092C3000090C30000C9
:100010008EC300008CC300008AC3000088C30000A8
:1000200086C3000084C3000082C3000080C30000B8
:100030000C9433187CC300007AC3000078C300001E
:1000400076C3000074C3000072C3000070C30000D8
:100050006EC300006CC300006AC300000C94660EFF
:1000600066C300000C94300E0C94060E60C30000B2
:100070005EC300005CC300005AC3000058C3000008
:1000800056C3000054C3000052C3000050C3000018
:100090004EC300004CC300004AC3000048C3000028
:1000A00046C3000044C3000042C3000040C3000038
:1000B0003EC300003CC300003AC3000038C3000048
:1000C00036C3000034C3000032C3000030C3000058
:1000D0002EC300002CC300002AC3000028C3000068
:1000E00026C300000D5B494E464F5D204D7574657B
:1000F000782063726561746564000D5B4552524FF0
:10010000525D2043616E27742063726561746520BF
:100110006D75746578000D5B494E464F5D205175D5
:100120006575652063726561746564000D5B455299
:10013000524F525D2043616E277420637265617473
:1001400065207175657565000D5B494E464F5D20F4
:100150005461736B207363686564756C6520737498
:1001600061727465640000002000230026002900ED
:100170002C002F00320000010000030106010901DC
:100180000D5B494E464F5D20726561642068756D58
:100190006964697479203A000D5B494E464F5D20D1
:1001A000726561642074656D70203A000D5B494E84
:1001B000464F5D20646174612074797065203A0057
:1001C0000D5B4552524F525D205265616420646858
:1001D000743131206572726F723A20000D5B494EA6
:1001E000464F5D2044485420646174612073656EFD
:1001F00074000D5B494E464F5D20444854205441E5
:10020000534B2053454E44494E47204441544100EE
:100210000D5B494E464F5D2066726565206D656DCC
:100220006F72793A20000D5B4552524F525D204368
:100230007265617465207461736B20756E6B6E6F8F
:10024000776E206572726F72000D5B4552524F528D
:100250005D2043616E27742063726561746520546C
:1002600061736B2C206D656D6F727920616C6C6FA2
:10027000636174696F6E206572726F72000D5B4905
:100280004E464F5D206372656174656420000D5BAE
:10029000494E46305D2072656365697665643A2033
:1002A000000D5B494E464F5D204C43442054415362
:1002B0004B000D5B494E464F5D204C4452207C2044
:1002C0006C75783A20000D5B494E464F5D204C44DA
:1002D00052207C207261773A20005B494E464F5D88
:1002E000204C445220646174612073656E74000D6B
:1002F0005B494E464F5D204C4452205441534B00C5
:100300000D5B494E464F5D20547279696E672074CB
:100310006F2073656E6420646174610000002100C9
:10032000240027002A002D003000330001010000C6
:10033000040107010A0100002200250028002B000B
:100340002E003100340002010000050108010B01FC
:1003500005050505070508080808020202020A0A41
:10036000080804040404010101010101010103035F
:10037000030303030303040707070C0C0C0C0C0C0A
:100380000C0C0202020206060606060606060B0B07
:100390000B0B0B0B0B0B0102102020080810204048
:1003A0001020408002010201080402010102040839
:1003B00010204080804020100804020180040201C7
:1003C0008040201008040201080402010102040810
:1003D00010204080010204081020408000000A0B19
:1003E00002090C0D0E0807030401000000000000C4
:1003F00000000000000000000000000000000000FD
:1004000000000000000000001211100000000000B9
:1004100000000000000000000000000000000000DC
:1004200000008091B302811108C0809118038230CE
:1004300010F00E9491109DD2F4CF0FB6F8940F9255
:10044000E091F302F091F402C681D781CE010296C9
:100450000E941E0F80911403815080931403809199
:10046000B30281508093B3020F900FBE8F89988D95
:100470000E94C613CE010E94C613D3CFCF93DF9341
:1004800000D01F921F92CDB7DEB7E091D302F0915A
:10049000D402F08010E000E0FF2029F00580F68112
:1004A000E02D008111810E94ED0E0E94E30E6C018F
:1004B0008091CF029091D002C816D90608F04DC0A5
:1004C0000E947C13D092D002C092CF020E9457119A
:1004D00050E040E0BE016F5F7F4F8091DF0290915E
:1004E000E0020E94D413882381F2898187FDF0CF36
:1004F0000C811D81D8011A968D919C91892B21F038
:10050000C80102960E941E0F0E94E30E7C0180919A
:10051000CF029091D002E816F90610F40E947C13E5
:10052000F092D002E092CF02E981EA3088F60E2EF6
:10053000000CFF0BD80152969C918827ED55FD4F7A
:100540008F4F0C94641C27032703270360034B037E
:100550005A032703270360034B03D092D002C092B3
:10056000CF02FF2099F1C016D106C0F10E945711A9
:10057000E091D302F091D4020580F681E02DE6806F
:10058000F780C70102960E941E0FD70152968C91E8
:10059000529782FF17C01C966D917C91600F711F5E
:1005A0009801A601C7010E94F40F882321F0B80129
:1005B000C7010E945413D7015096ED91FC91C701D9
:1005C000199586CF8E7FF701828BF5CFE091D1020E
:1005D000F091D2028081BB24B3948111B12CE090C0
:1005E000DF02F090E0020FB6F8940F92F701858DCC
:1005F0008F3F09F4158ED7015E968C915E978F3FE1
:1006000011F45E961C920F900FBEF701828D81113E
:1006100014C060919C0270919D02645F7F4FC7017E
:1006200041960E94FE0EC8018C199D09BB2011F055
:100630008FEF9FEF6B2D0E941D10C7010E947E0F50
:100640000E945711811144CF0E94911041CF9160B7
:10065000F801928B2A813B8164857585620F731F37
:10066000A701C8010E94F40F882309F431CFD801F3
:100670005096ED91FC91C8011995F801828982FF8D
:1006800027CF6A817B8184859585680F791FC80192
:100690000E9454131DCF9160F801928B6A817B8177
:1006A000758764876E0D7F1D9701A701C8010E94A1
:1006B000F40F0ECF91FD04C0C8010E94C61308CFED
:1006C0009E7FD80152969C9303CF351811241FBEEC
:1006D000CFEFD1E2DEBFCDBF00E00CBF12E0A0E063
:1006E000B2E0E2ECFAE300E00BBF02C007900D922B
:1006F000AC39B107D9F723E0ACE9B2E001C01D92F3
:10070000A63FB207E1F713E0C6E6D3E000E006C07B
:1007100021970109802FFE010E94641CC536D10774
:1007200080E00807A9F70E947F180C945F1D68CC31
:10073000DC01ED91FC910190F081E02D1994AF92D4
:10074000BF92CF92DF92EF92FF920F931F93CF93BE
:10075000DF936C017B018B01040F151FEB015E0120
:10076000AE18BF08C017D10759F06991D601ED91B5
:10077000FC910190F081E02DC6011995892B79F744
:10078000C501DF91CF911F910F91FF90EF90DF9006
:10079000CF90BF90AF900895FC01538D448D252FCD
:1007A00030E0842F90E0821B930B541710F0CF960B
:1007B000089501970895FC01918D828D981761F03D
:1007C000A28DAE0FBF2FB11D5D968C91928D9F5F54
:1007D0009F73928F90E008958FEF9FEF0895FC0133
:1007E000918D828D981731F0828DE80FF11D858DE6
:1007F00090E008958FEF9FEF0895FC01918D228D79
:10080000892F90E0805C9F4F821B91098F739927FD
:1008100008958DE393E0F1DF21E0892B09F420E0D6
:10082000822F0895FC01A48DA80FB92FB11DA35AE2
:10083000BF4F2C91848D90E001968F739927848F00
:10084000A689B7892C93A089B1898C918370806423
:100850008C93938D848D981306C00288F389E02DC4
:1008600080818F7D80830895EF92FF920F931F9375
:10087000CF93DF93EC0181E0888F9B8D8C8D981353
:100880001AC0E889F989808185FF15C09FB7F8945F
:10089000EE89FF896083E889F989808183708064AB
:1008A00080839FBF81E090E0DF91CF911F910F91F6
:1008B000FF90EF900895F62E0B8D10E00F5F1F4F05
:1008C0000F731127E02E8C8D8E110BC00FB607FC15
:1008D000FACFE889F989808185FFF5CFCE01A2DFC3
:1008E000F2CFEB8DEC0FFD2FF11DE35AFF4FF0829D
:1008F0009FB7F8940B8FEA89FB8980818062D0CF03
:100900000F931F93CF93DF938C01D0E0C0E0F801E9
:10091000EC0FFD1F6491662339F08DE393E0A4DFB3
:10092000892B11F02196F3CFCE01DF91CF911F914A
:100930000F910895CF93DF93EC01888D8823B1F058
:10094000AA89BB89E889F9898C9185FD03C08081DA
:1009500086FD0CC00FB607FCF7CF8C9185FFF2CF58
:10096000808185FFEDCFCE015DDFEACFDF91CF91B2
:10097000089580E090E0892B21F04BDF81110E94E7
:10098000000080E090E0892B49F080E090E0892B26
:1009900029F00E94000081110E94000080E090E098
:1009A000892B49F080E090E0892B29F00E9400001B
:1009B00081110E94000080E090E0892B49F080E0E6
:1009C00090E0892B29F00E94000081110C94000016
:1009D0000895282F30E0F901E452FC4F9491F90179
:1009E000EA56FC4F4491205B3C4FF90124912223AD
:1009F00009F435C0992311F191509231F8F4E92F9F
:100A0000F0E08827E95FFA4F8F4F0C94641C38059B
:100A10003C051905300534051E053F05450549050A
:100A20004F05530557055D0561051E0565056B05F9
:100A30006F05809180008F7780938000E22FF0E037
:100A4000EE0FFF1FEA5CFC4FA591B4918FB7F894AD
:100A5000EC91611148C040954E234C938FBF08958F
:100A6000809180008F7DE8CF80918000877FE4CFE8
:100A700084B58F7784BDE2CF84B58F7DFBCF809125
:100A8000B0008F778093B000D9CF8091B0008F7D78
:100A9000F9CF809190008F7780939000CFCF809195
:100AA00090008F7DF9CF80919000877FF5CF809166
:100AB000A0008F778093A000C1CF8091A0008F7D90
:100AC000F9CF8091A000877FF5CF809120018F77AB
:100AD00080932001B3CF809120018F7DF9CF809149
:100AE0002001877FF5CF4E2BB8CFCF93DF9390E0D7
:100AF000FC01EA56FC4F2491805B9C4FFC018491E1
:100B00008823D1F090E0880F991FFC01E45EFC4F30
:100B1000A591B491FC01EA5CFC4FC591D49161119F
:100B20000EC09FB7F8948C91E22FE0958E238C93A2
:100B30002881E223E8839FBFDF91CF9108958FB78B
:100B4000F894EC91E22BEC938FBFF6CF3FB7F8947B
:100B50008091DA029091DB02A091DC02B091DD027B
:100B600026B5A89B05C02F3F19F00196A11DB11D08
:100B70003FBFBA2FA92F982F8827BC01CD01620F44
:100B8000711D811D911D42E0660F771F881F991FFF
:100B90004A95D1F708958F929F92AF92BF92CF92CC
:100BA000DF92EF92FF926B017C01D0DF4B015C0181
:100BB000C114D104E104F104B1F0C8DF6819790966
:100BC0008A099B09683E73408105910588F321E0FD
:100BD000C21AD108E108F10888EE880E83E0981E59
:100BE000A11CB11CE5CFFF90EF90DF90CF90BF909C
:100BF000AF909F908F900895089590E080E00895C1
:100C0000E091E302F091E4028081811107C08FEF4F
:100C10009FEF9093CE028093CD020895E091E3027E
:100C2000F091E4020580F681E02D0680F781E02D49
:100C300082819381EECFCF93DF93EC0160E08E81D0
:100C4000C8DE61E08E81C5DE60E08E81C2DE8BE8A9
:100C500091E00197F1F7DF91CF910895CF92DF9264
:100C6000EF92FF920F931F93CF93DF936C017C0160
:100C700087E0E80EF11CD0E0C0E0062F10E0B801DC
:100C80000C2E02C0759567950A94E2F76170F70122
:100C900081917F019EDE2196C430D10581F7C60186
:100CA000DF91CF911F910F91FF90EF90DF90CF9048
:100CB000C2CFCF92DF92EF92FF920F931F93CF9309
:100CC000DF93EC01F62E642F8C8183DE8D818F3FC4
:100CD00011F060E07EDE0F2D10E08F8584FF23C0D1
:100CE0006E0187E0C80ED11CF12CE12CB8010E2C4E
:100CF00002C0759567950A94E2F76170F6018191DB
:100D00006F0167DEFFEFEF1AFF0A88E0E816F104D3
:100D100069F7CE01DF91CF911F910F91FF90EF9076
:100D2000DF90CF9088CFB80184E0759567958A955C
:100D3000E1F7CE0193DF6F2DCE01DF91CF911F91AF
:100D40000F91FF90EF90DF90CF9088CF40E0682F19
:100D50008AED93E0AECF9091ED03691710F06FEF3D
:100D6000690FE62FF0E0E652FC4F9489890F806806
:100D7000EDCFCF93DF93813029F09091E903986014
:100D80009093E9038093ED031092EE0380E4809347
:100D9000EF0380E18093F00380E58093F10361E04D
:100DA0008091DE03A2DE8091DF038F3F11F061E0CE
:100DB0009CDE61E08091E00398DECAEDD3E09E0105
:100DC0002A5D33408091E90384FD0AC084E090E00D
:100DD0002196281739073CF461E08E8186DEEFCF3B
:100DE00088E090E0F5CF8BE39DE00197F1F760E0BC
:100DF0008091DE03EEDD60E08091E003EADD80912A
:100E0000DF038F3F11F060E0E4DD8091E90384FDB2
:100E100031C063E08AED93E021DFCBE4D6E4CE017C
:100E20000197F1F763E08AED93E018DF2197F1F77E
:100E300063E08AED93E012DF83E592E00197F1F73A
:100E400062E08AED93E00ADF8091E90380627EDF51
:100E500084E08093EA038CE079DF81E077DF8BE345
:100E60009FE10197F1F782E08093EB0386E0DF9149
:100E7000CF916CCF80626ADF8BE496E40197F1F743
:100E80008091E903806262DF83E592E00197F1F7E8
:100E90008091E90380625ADFD7CF41E00ADF81E029
:100EA00090E00895FC0180819181009711F00C94ED
:100EB0009F190895FB0101900020E9F73197AF01D8
:100EC000461B570BDC01ED91FC910280F381E02D74
:100ED00019948F929F92AF92BF92EF92FF920F93CD
:100EE0001F93CF93DF93CDB7DEB7A1970FB6F894DA
:100EF000DEBF0FBECDBF7C01FA01CB0119A22230AB
:100F000008F42AE08E010F5D1F4F822E912CB12C28
:100F1000A12CBF01A50194010E94411BF901CA0146
:100F20006A3004F5605DD8016E938D01232B242B6C
:100F3000252B79F790E080E0109719F0BD01C701EB
:100F4000B9DFA1960FB6F894DEBF0FBECDBFDF911B
:100F5000CF911F910F91FF90EF90BF90AF909F9016
:100F60008F900895695CDFCFCF92DF92EF92FF926E
:100F70000F931F93CF93DF9377FF1BC06A017B0111
:100F8000EC016DE2D5DB8C0144275527BA014C19E1
:100F90005D096E097F092AE0CE019BDF800F911F5A
:100FA000DF91CF911F910F91FF90EF90DF90CF9045
:100FB00008952AE0DF91CF911F910F91FF90EF905C
:100FC000DF90CF9086CFCF93DF931F921F92CDB744
:100FD000DEB780E192E094DC2091F2033091F303DC
:100FE000CE0101962115310591F4865F93409A83D5
:100FF000898349815A81052E000C660B770B8DE39E
:1010000093E0B2DF0F900F90DF91CF910895821B94
:10101000930BE091F403F091F50330E020E030977A
:1010200051F02E5F3F4F40815181240F351F0280C8
:10103000F381E02DF4CF820F931FD9CFCF93DF93AD
:10104000EC01613069F48DE792E05ADC4C815D81FE
:10105000688179818DE393E072DBDF91CF91B3CF2B
:1010600089E492E06F3F11F086E292E049DCF5CF2F
:101070002F923F924F925F926F927F928F929F92A8
:10108000AF92BF92CF92DF92EF92FF921F93CF93D6
:10109000DF93EC016A017B01722EAB019601CB015B
:1010A000B6010E94601C64E272E0811126C0460114
:1010B0005701E894B7F82FEF3FEF4FE75FE7C5011F
:1010C000B4010E94601C81110CC02FEF3FEF4FE76D
:1010D0005FE7C501B4010E94281A68E272E01816A1
:1010E00064F02FEF3FEF4FE75FE4C701B6010E94C6
:1010F0005C1C1816ACF46CE272E0CE01DF91CF916B
:101100001F91FF90EF90DF90CF90BF90AF909F9096
:101110008F907F906F905F904F903F902F90CACEAE
:101120002FEF3FEF4FE75FECC701B6010E94281A8F
:1011300087FDE1CF20E030E0A901C701B6010E94A0
:10114000281A312C212C87FF08C06DE2CE01F0DA7D
:101150001C01F7FAF094F7F8F09410E060E070E00A
:1011600080E09FE3711641F020E030E040E251E47E
:101170000E94C81B1F5FF6CFA70196010E94641B47
:101180002B013C010E94301C4B015C012AE0BC0198
:10119000A401CE019EDE7C01E20CF31C1123B1F10F
:1011A000C501B4010E942C1A9B01AC01C301B2011C
:1011B0000E94631B4B015C016EE2CE01B9DAE80EBE
:1011C000F91E115018F120E030E040E251E4C50171
:1011D000B4010E948D1A2B013C010E94301C4B016E
:1011E000B12CA12C2AE0B501A401CE0172DEE80EDB
:1011F000F91EC501B4010E942C1A9B01AC01C30168
:10120000B2010E94631B4B015C01DBCFC701DF9180
:10121000CF911F91FF90EF90DF90CF90BF90AF9054
:101220009F908F907F906F905F904F903F902F9006
:101230000895EF92FF920F931F93CF93DF93EC01EA
:101240007B01198218821B821A821D821C82FB017B
:1012500001900020E9F731978F01061B170BB801A9
:101260006F5F7F4F90E080E00E946C1C0097B9F0A8
:10127000998388831B830A832C813D81232B11F45E
:10128000FC0110821D830C83B70188819981DF9155
:10129000CF911F910F91FF90EF900C94581D888172
:1012A0009981009711F00E949F19198218821D825E
:1012B0001C821B821A82DF91CF911F910F91FF90A8
:1012C000EF900895CF93DF9300D000D000D01F920D
:1012D0001F92CDB7DEB781E039DD8BE39FE1019747
:1012E000F1F781EA92E00CDB4FEF5FEFBE016F5F39
:1012F0007F4F8091AF029091B0020E94D413813051
:1013000081F78EE892E0FCDA89819A81009779F57D
:1013100060E372E08DE393E0CDDD64E372E08DE3A2
:1013200093E0C8DD60E080E016DD67E372E08AEDFF
:1013300093E0C0DD60E08AE00EDD4C815D816E816E
:101340007F818AED93E010DE61E080E004DD61E4FE
:1013500072E08AED93E0AEDD61E08EE0FCDC488572
:1013600059856A857B858AED93E0FEDDBACF0197CA
:1013700009F0B7CF6FE472E08DE393E09BDD64E3A7
:1013800072E08DE393E096DD62E080E0E4DC63E50B
:1013900072E08AED93E08EDD62E086E0DCDC4B817A
:1013A0005C816D817E8122E08AED93E061DE99CFE0
:1013B0007F928F929F92AF92BF92CF92DF92EF92E5
:1013C000FF920F931F93CF93DF93CDB7DEB7609754
:1013D0000FB6F894DEBF0FBECDBFEE82FF82088746
:1013E00019872A873B874C875D876E877F87888B25
:1013F00080E093E085DA0091B1021091B2028FEFA4
:101400009FEF9D838C83D12C90E0580121E1A20EA7
:10141000B11C89E0782E24E0822E912C0FB6F8942E
:101420000F92D8015A968C915A97882309F451C08B
:1014300081505A968C935A978D919C91892BA1F447
:1014400080919C0290919D02892B39F0E0919C0241
:10145000F0919D0282A18F5F82A380919C02909166
:101460009D02F80195838483D80118968C91882376
:1014700029F0C801089606D5811153D60F900FBEEA
:101480004FEF5FEFBE016A5F7F4F8091AF02909197
:10149000B0020E94761250E040E070E060E080917F
:1014A000B1029091B2020E94761260960FB6F89443
:1014B000DEBF0FBECDBFDF91CF911F910F91FF9087
:1014C000EF90DF90CF90BF90AF909F908F907F90E4
:1014D00008952C813D81232B89F2911109C08091BF
:1014E0001703898380911503909116039B838A8348
:1014F0000F900FBE72D40FB6F8940F92F801858D3D
:101500008F3F09F4158ED8015E968C915E978F3FC0
:1015100011F45E961C920F900FBEBE016C5F7F4F60
:10152000CE0101961DD4811181C0C8015CD48823ED
:1015300009F478C0F80180819181892B09F050C0AD
:101540000FB6F8940F92E480F580E114F10409F4E9
:1015500067C0F7018689E0919C02F0919D0296890F
:10156000891708F051C0D7011C962D913C911D9709
:1015700037FD0CC0E0919C02F0919D029689940188
:10158000291B31091D963C932E931C97879DC00102
:101590001124885E9C4FF70122853385281739076F
:1015A00059F56701F2E0CF0ED11CC60147D4E09196
:1015B0009C02F0919D028689D70156968C9390915A
:1015C0003C03981710F480933C03879DC0011124BD
:1015D000B601885E9C4F12D4DD24D3940F900FBEC9
:1015E0006C817D81C50180D5C80188D460D6811108
:1015F00001C097D591E012CFE0919C02F0919D023D
:101600008689F701868BE8CFE0919C02F0919D02DC
:10161000DD24D394D70191969C9186899817F0F296
:10162000D12CDCCFC8016AD442D6E4CFC80166D43D
:101630003ED6C801D8D38823E9F2DD2009F420CFB3
:101640000FB6F8940F92F8018189882309F456C0E7
:101650000688F789E02D908184E0891BD8011496D3
:101660000D911C910115110509F408CFF80191A104
:10167000981708F4982FD80156968C91569798177A
:1016800009F4FCCE92962C919297213009F0F6CE77
:1016900056969C9356971C962D913C911D9737FD1D
:1016A00008C024E030E0291B31091D963C932E939D
:1016B0001C97B9E08B9FC0011124885E9C4FF801F4
:1016C000228533852817390709F0D8CE7801F2E052
:1016D000EF0EF11CC701B2D3D80156968C919091B0
:1016E0003C03981710F480933C03B9E08B9FC00132
:1016F0001124B701885E9C4F81D3C0CE80E0AECF6D
:10170000CF93DF9300D000D000D01F921F92CDB7AF
:10171000DEB780E4B82EDD24D394C12C8FEE92E0A6
:10172000EFD880917B00877F80937B00B0927C0014
:1017300080917A00806480937A0080917A0086FD9F
:10174000FCCF8091780060917900762F682F072E6A
:10175000000C880B990B0E942E1A2B013C01409221
:10176000AB025092AC026092AD027092AE0220E0E9
:1017700030E0A9010E94281A882309F448C020E01B
:1017800030E040EA5BE3C301B2010E948D1A9B0185
:10179000AC0160E070E08AE793E40E94C81B20E09F
:1017A00030E048E452E40E94631B162F972EA82EC7
:1017B000F92E86EC92E0A4D822E0B301A2018DE3D9
:1017C00093E056DC82EB92E09BD822E0412F592D2A
:1017D0006A2D7F2D8DE393E04BDCED2CD982CA82FC
:1017E000012F812F992DAA2DBF2D8B839C83AD8333
:1017F000BE83FC2C1C812D813E814F8158856985DB
:101800007A858B85D5DD8AED92E07AD887CF10E096
:10181000912CA12CF12CCDCFCF93DF93CDB7DEB798
:1018200061970FB6F894DEBF0FBECDBF812C20ECC0
:10183000922E29E7A22E24ECB22E82EF91E060D8FE
:10184000ECE9F3E00491E6E5F3E08491E82FF0E0C1
:10185000EE0FFF1FEA59FE4F259034901092A6021A
:101860001092A7021092A8021092A9021092AA0246
:1018700061E086E03AD960E086E0ABD862E170E0F2
:1018800080E090E088D961E086E0A3D88BE990E021
:101890000197F1F760E086E028D980E991E0F10155
:1018A00020812023A9F40197D1F780929E02909283
:1018B0009F02A092A002B092A1028092A2029092F6
:1018C000A302A092A402B092A5020EEF1FEFBDC02A
:1018D00080E991E0F1012081202319F00197D1F7EF
:1018E000E4CF88E2582E10E8412C80E991E0F10124
:1018F0002081202319F40197D1F7D7CF27D96B0185
:101900007C0180E991E0F1012081202319F0019709
:10191000D1F7CBCF1BD96C197D098E099F0969328C
:1019200071058105910538F0E42DF0E0E256FD4F98
:101930008085812B8087169511F4439410E85A9482
:101940005110D3CF61E086E0D0D861E086E041D885
:101950001091A602C12ED12CF12CE12CC701B601A9
:101960000E942C1A60939E0270939F028093A002A3
:101970009093A1020091A802202E312C512C412CD1
:10198000C201B1010E942C1A6093A2027093A302BB
:101990008093A4029093A502100F8091AA021813BD
:1019A00052C00C873D864E865F86C88AD98A7E2CB7
:1019B0006F2C8CEA91E00E94800440E050E0BA0174
:1019C0008DE393E0D1DA88E991E00E9480044C85B0
:1019D0005D856E857F858DE393E0C6DA80E891E0D2
:1019E0000E948004488959896E2D7F2D8DE393E0F4
:1019F000BBDA64E670E080E090E0CDD801E01A82C6
:101A000019820B83FC85FC838D858D83EE85EE83A7
:101A1000FF85FF8388898887E989E9877A866B86CD
:101A2000002309F40ACFE980FA801C812D813E81D0
:101A30004F2F582F6E2F772D862DBADC8CED91E02D
:101A40000E948004FACE0FEF1FEF80EC91E00E941D
:101A50008004A801110F660B770B8DE393E084DA05
:101A600000E0CDCF0F931F93CF93DF9300D000D032
:101A7000CDB7DEB7E0914D03F0914E0382E0808355
:101A8000E0914903F0914A031082E0914B03F091F9
:101A90004C038FEC808310925503E0915103F09139
:101AA000520386E08083E0914F03F09150038081E0
:101AB00080618083E0914F03F091500380818860C2
:101AC0008083E0914F03F091500380818068808390
:101AD000E0914F03F091500380818F7D808384E0FB
:101AE00048D966E672E08AED93E0E4D960E087E0E9
:101AF0000E94750560E081E00E945A168C010097F3
:101B000059F0FC011582148211821082168250E075
:101B100040E070E060E0EAD41093B2020093B102BA
:101B2000012B21F48AEF90E00E94800484EE90E083
:101B30000E9480046BE082E00E945A169093B002EB
:101B40008093AF02892B21F48CE291E00E94800403
:101B500086E191E00E94800410E000E023E048EC80
:101B600050E064E772E082E699E00E949F16182F29
:101B70006DE772E0CE0101965CDB612FCE0101962C
:101B80005DDACE0101968ED910E000E021E048EC4C
:101B900050E061E872E08CE09CE00E949F16182FF4
:101BA0006CE872E0CE01019644DB612FCE01019614
:101BB00045DACE01019676D910E000E021E048EC4C
:101BC00050E062E972E080E89BE00E949F16182FC7
:101BD0006FE472E0CE0101962CDB612FCE010196FD
:101BE0002DDACE0101965ED90E94A217ECD988E4C5
:101BF00091E00E94800426960FB6F894DEBF0FBED7
:101C0000CDBFDF91CF911F910F9108951F920F9239
:101C10000FB60F9211240BB60F922F933F934F9351
:101C20005F936F937F938F939F93AF93BF93EF9344
:101C3000FF938DE393E00E941204FF91EF91BF9117
:101C4000AF919F918F917F916F915F914F913F9154
:101C50002F910F900BBE0F900FBE0F901F901895F5
:101C60001F920F920FB60F9211240BB60F922F9363
:101C70008F939F93EF93FF93E0914D03F0914E0369
:101C80008081E0915303F091540382FD1DC0908147
:101C9000809156038F5F8F7320915703821741F015
:101CA000E0915603F0E0E35CFC4F958F8093560380
:101CB000FF91EF919F918F912F910F900BBE0F90FD
:101CC0000FBE0F901F9018958081F2CF1F920F9238
:101CD0000FB60F9211242F933F938F939F93AF933F
:101CE000BF938091D6029091D702A091D802B09173
:101CF000D9023091D50223E0230F2D3758F50196F4
:101D0000A11DB11D2093D5028093D6029093D702D6
:101D1000A093D802B093D9028091DA029091DB02AD
:101D2000A091DC02B091DD020196A11DB11D80934E
:101D3000DA029093DB02A093DC02B093DD02BF9144
:101D4000AF919F918F913F912F910F900FBE0F9068
:101D50001F90189526E8230F0296A11DB11DD2CF22
:101D6000FC01DB010FB6F8940F92409115035091DE
:101D700016032D913C9111972F3F3207E1F081819D
:101D80009281609117037081761719F048175907EF
:101D9000C0F4481B590B4217530788F4241B350B1A
:101DA0002D933C938091170380838091150390912C
:101DB00016039283818380E00F900FBE08951D92D9
:101DC0001C9281E0F9CF0FB6F8940F928091150321
:101DD000909116030F900FBE08958091DE028F5FE1
:101DE0008093DE0208950FB6F8940F92FC01928D55
:101DF0000F900FBE81E0911180E00895CF93DF93A3
:101E00009C01FB01DC011196CD91DC91D383C2834F
:101E10008C819D81958384838C819D81DC011396C7
:101E20007C936E9312977D836C8331872087F901B1
:101E300080818F5F8083DF91CF910895CF93DF936F
:101E4000FC01A085B1858281938124813581EC01DB
:101E50003D832C83C481D5819B838A8311968D9188
:101E60009C9112978E179F0721F41296DC93CE93C4
:101E70001197118610868C9181508C938C91DF91F3
:101E8000CF9108950F931F93CF93DF93DC011596A5
:101E9000ED91FC91C681D7818E01045F1F4FC8016F
:101EA000CDDF8091DE02811123C00A501109C801E3
:101EB000C5DF8E8990913C03981710F480933C0302
:101EC000B9E08B9FC0011124B801885E9C4F96DF5A
:101ED000E0919C02F0919D029E898689891760F4A9
:101EE00081E08093CC02DF91CF911F910F910895F3
:101EF000B80187EF92E0EBCF80E0F5CFEF92FF9251
:101F00000F931F93CF93DF93EC010FB6F8940F92CA
:101F10001E8D7C0181E1E80EF11C01E01116D4F068
:101F20008FEF8E8F0F900FBE0FB6F8940F921D8D0E
:101F30007E0188E0E80EF11C01E01116ACF08FEF95
:101F40008D8F0F900FBEDF91CF911F910F91FF905A
:101F5000EF9008958989882319F3C70193DF8111D0
:101F60000093CC021150DACF8885882341F3C70152
:101F700089DF81110093CC021150DFCF0F931F93A3
:101F8000CF93DF938C01FB0180819181D80113965F
:101F90008F3F9807F1F4E801AF81B88512968D91D3
:101FA0009C91139793838283EC01FD83EC83B5832B
:101FB000A4831396FC93EE93129711870087F80180
:101FC00080818F5F8083DF91CF911F910F91089562
:101FD000D90112962D913C911397E90148815981BD
:101FE00084179507A8F7DACFFC0173836283918782
:101FF00080874617570788F0421B530B84859585C9
:1020000048175907C0F4BF016E5F7F4F8091D1021E
:102010009091D202B3DF80E008954217530718F47D
:102020006217730740F4BF016E5F7F4F8091D30248
:102030009091D402EFCF81E00895FF920F931F9308
:10204000CF93DF93EC01F62E009115031091160348
:1020500080919C0290919D020296F0DECF3FDC07BA
:1020600081F4FF2071F060919C0270919D026E5F7F
:102070007F4F85EE92E0DF91CF911F910F91FF90FE
:10208000BDCEC00FD11FE0919C02F0919D02D38381
:10209000C28360919C0270919D02C017D10760F4C9
:1020A0008091E1029091E2026E5F7F4FDF91CF91CC
:1020B0001F910F91FF9062CF8091E3029091E40213
:1020C0006E5F7F4F5BDF8091CD029091CE02C8178B
:1020D000D90720F4D093CE02C093CD02DF91CF91E7
:1020E0001F910F91FF900895CF93DF93EB016091C3
:1020F0009C0270919D02645F7F4F40DF61E0CE01E2
:10210000DF91CF919ACFFC010396928381832FEFC9
:102110003FEF348323839683858390878783108260
:1021200008950F920FB6F8940F920BB60F920CB65B
:102130000F921F9211242F923F924F925F926F92B3
:102140007F928F929F92AF92BF92CF92DF92EF9247
:10215000FF920F931F932F933F934F935F936F9330
:102160007F938F939F93AF93BF93CF93DF93EF931F
:10217000FF93A0919C02B0919D020DB60D920EB6F8
:102180000D928091DE02882321F081E08093CC02C1
:102190005FC01092CC02A0919C02B0919D02E09190
:1021A0009C02F0919D022D913C918789908D821720
:1021B0009307A8F080919C0290919D0280919C02CF
:1021C00090919D02279A2F9A2FEF87EA91E621504E
:1021D00080409040E1F700C000001F9AF5CF2091A9
:1021E0003C0389E001C02150422F50E0849FF00160
:1021F000859FF00D1124E85EFC4F9081992399F39F
:10220000A181B28112960D90BC91A02DB283A183C1
:10221000289FC0011124855E9C4FA817B90729F497
:1022200012968D919C919283818389E0849FF00125
:10223000859FF00D1124E85EFC4F0180F281E02DB6
:102240008681978190939D0280939C0220933C030A
:10225000A0919C02B0919D02CD91CDBFDD91DEBFDA
:10226000FF91EF91DF91CF91BF91AF919F918F91AE
:102270007F916F915F914F913F912F911F910F919E
:10228000FF90EF90DF90CF90BF90AF909F908F9096
:102290007F906F905F904F903F902F901F900F9086
:1022A0000CBE0F900BBE0F900FBE0F9008957F9243
:1022B0008F929F92AF92BF92CF92DF92EF92FF9256
:1022C0000F931F93CF93DF930FB6F8940F928091E3
:1022D000DE0281508093DE028091DE02882389F045
:1022E00080E00F900FBEDF91CF911F910F91FF9073
:1022F000EF90DF90CF90BF90AF909F908F907F90A6
:10230000089580911403882359F3D0E0C0E029E0B8
:10231000F22EEE24E39426C0E091FC02F091FD023F
:10232000C681D781CE010C9689DD8E010E5F1F4FCD
:10233000C80184DD8E8990913C03981710F4809336
:102340003C038F9DC0011124B801885E9C4F56DD6F
:10235000E0919C02F0919D029E898689981710F069
:10236000E092CC028091F7028111D6CFCD2B11F0F3
:102370000E940006E090CA02F090CB02E114F10442
:1023800009F4ACC089E0A82E77247394CC24CA94B5
:10239000DC2C8091DE0281118FC0C0911503D09199
:1023A00016032196D0931603C09315032097B9F412
:1023B0008091E3029091E4022091E1023091E202E7
:1023C0003093E4022093E3029093E2028093E102CF
:1023D000809117038F5F809317030E9400068091FE
:1023E000CD029091CE02B12CC817D90708F058C081
:1023F000E0919C02F0919D02E689AE9EF0011124CD
:10240000E85EFC4F8081823010F0BB24B394809151
:10241000CC02811103C0BB2009F457C07092CC02DA
:1024200054C0E091E302F091E4020580F681E02DD2
:1024300006811781D80112968D919C91C817D907F2
:1024400028F49093CE028093CD02D2CF4801B2E01F
:102450008B0E911CC401F2DCF80184899589892BCB
:1024600019F0C8010C96EADCD80156968C9190912F
:102470003C03981710F480933C038A9DC0011124FB
:10248000B401885E9C4FBADCE0919C02F0919D0201
:10249000D80156969C918689981710F0BB24B39466
:1024A000E091E302F091E40280818111BACFD092F1
:1024B000CE02C092CD029CCF8091CA029091CB02F5
:1024C00001969093CB028093CA02B1E0EB1AF10817
:1024D00009F05FCF1092CB021092CA028091CC0219
:1024E000882309F4FDCE1DDE81E0FBCEAF92BF92C2
:1024F000DF92EF92FF920F931F93CF93DF9300D061
:102500001F921F92CDB7DEB78C017B015D834C8398
:1025100080E0580128E0A20EB11C0FB6F8940F928B
:10252000F801228D938D291708F073C0D28C448D49
:10253000411155C080819181892B11F080E009C043
:10254000E480F580E114F10409F580E0F8011582DA
:102550001482D394F801D28E9189992319F0C8017D
:10256000419690DC8111DDDD0F900FBE81E00F9070
:102570000F900F900F900F90DF91CF911F910F91BF
:10258000FF90EF90DF90BF90AF900895F70182A188
:10259000815082A3268991A12917B9F28111D5CF43
:1025A0005701F2E0AF0EB11CC50148DCF70181A173
:1025B000868B24E030E0281B3109358724879091F1
:1025C0003C03981710F480933C03F9E08F9FC001FF
:1025D0001124B501885E9C4F11DC81E0B7CF50E03B
:1025E000B701828193810E94481DF801848D228168
:1025F0003381820F932F911D9383828324813581B0
:102600008217930708F49ACF808191819383828304
:1026100095CF2C813D81232B21F40F900FBE80E0BC
:10262000A6CF811109C0809117038983809115037A
:10263000909116039B838A830F900FBECEDB0FB65B
:10264000F8940F92F801858D8F3F09F4158EF801EB
:10265000868D8F3F09F4168E0F900FBEBE016C5F02
:102660007F4FCE0101967CDB81111AC00FB6F89422
:102670000F92F801928D838D0F900FBE98130CC0AE
:102680006C817D81C50130DDC80138DC10DE81112F
:1026900001C047DD81E041CFC80130DC08DEFACF60
:1026A000C8012CDC04DEBBCFCF93DF9300D01F9298
:1026B0001F92CDB7DEB79C018091DF029091E002BE
:1026C0000097C1F019827B836A833D832C8320911C
:1026D000130350E040E0BE016F5F7F4F2111209156
:1026E000DE0204DF0F900F900F900F900F90DF919C
:1026F000CF91089580E0F6CFEF92FF920F931F9352
:10270000CF93DF93E091D302F091D40280818111C5
:1027100013C08091D1029091D2029093D402809301
:10272000D302F093D202E093D102DF91CF911F91B7
:102730000F91FF90EF9008950580F681E02D0081C4
:102740001181C681D7817E0182E0E80EF11CC701AC
:1027500075DBE889F989CE0119958A8982FFD2CF84
:102760008C859D85800F911F0817190758F49B834E
:102770008A83D987C887B7018091D3029091D40208
:10278000FDDBC0CFB801CE018FDFBCCFCF93DF938D
:10279000009739F0EC0121DBCE01D1D5DF91CF914B
:1027A00086CDDF91CF910895AF92BF92CF92DF9205
:1027B000FF920F931F93CF93DF9300D01F921F922E
:1027C000CDB7DEB78C016B015D834C8380E058018F
:1027D00091E1A90EB11C0FB6F8940F92F801F28C9A
:1027E000FF20B1F1448D4423B1F050E08681978100
:1027F000840F951F978386832481358182179307E1
:1028000020F08081918197838683F80166817781AA
:10281000C6010E94481DFA94F801F28E8085882333
:1028200029F0C80108962EDB81117BDC0F900FBECA
:1028300081E00F900F900F900F900F90DF91CF914C
:102840001F910F91FF90DF90CF90BF90AF900895B0
:102850002C813D81232B21F40F900FBE80E0E9CF26
:10286000811109C08091170389838091150390918C
:1028700016039B838A830F900FBEAFDA0FB6F894CE
:102880000F92F801858D8F3F09F4158EF801868D22
:102890008F3F09F4168E0F900FBEBE016C5F7F4F05
:1028A000CE0101965DDA811114C0C8019CDA88233B
:1028B00061F06C817D81C50117DCC8011FDBF7DC8D
:1028C000811101C02EDC81E086CFC80117DBEFDC6F
:1028D000FACFC80113DBEBDCC80185DA882399F352
:1028E000BDCF0F920FB6F8940F920BB60F920CB6A5
:1028F0000F921F9211242F923F924F925F926F92EC
:102900007F928F929F92AF92BF92CF92DF92EF927F
:10291000FF920F931F932F933F934F935F936F9368
:102920007F938F939F93AF93BF93CF93DF93EF9357
:10293000FF93A0919C02B0919D020DB60D920EB630
:102940000D9213BE8091DE028111F6C080911503B5
:1029500090911603019690931603809315030097A8
:1029600099F52091E3023091E4024091E102509107
:10297000E2025093E4024093E3023093E202209398
:10298000E102209117032F5F20931703E091E302E8
:10299000F091E4022081211107C02FEF3FEF309327
:1029A000CE022093CD0210C0E091E302F091E40248
:1029B0000580F681E02D0680F781E02D22813381AC
:1029C0003093CE022093CD022091CD023091CE02E1
:1029D0008217930710F420E09BC020E019E0E091FB
:1029E000E302F091E4023081311107C08FEF9FEFD5
:1029F0009093CE028093CD028BC0E091E302F091E0
:102A0000E4020580F681E02D0680F781E02D428109
:102A100053818417950728F45093CE024093CD023A
:102A200077C0AF014E5F5F4FA285B385648175812A
:102A3000E680F780EB01FD82EC82C681D7817B8343
:102A40006A8311966D917C9112974617570721F46E
:102A50001296DC93CE931197138612863C913150D7
:102A60003C933C91A489B5891097F9F066857785E8
:102A7000E088F188EB01FD82EC82C089D1897B83FB
:102A80006A831196ED90FC901297BF01645F7F4FAF
:102A9000E616F70621F41296DC93CE931197158A69
:102AA000148A3C9131503C933C91A68930913C036F
:102AB0003A1710F4A0933C031A9FD0011124BD01D2
:102AC000685E7C4F7B01DB011196CD91DC91D58353
:102AD000C4836C817D81778366836C817D81DB011A
:102AE00013965C934E9312975D834C83F386E28634
:102AF000E70138813F5F3883A0919C02B0919D022D
:102B0000468956963C91431708F469CF21E067CF78
:102B1000E0919C02F0919D02E689D9E0ED9FF001E1
:102B20001124E85EFC4F8081823008F021E0809122
:102B3000CC0281110EC00AC08091CA029091CB02D2
:102B400001969093CB028093CA026AC0222309F4B3
:102B500067C08091DE02882321F081E08093CC025F
:102B60005FC01092CC02A0919C02B0919D02E091B6
:102B70009C02F0919D022D913C918789908D821746
:102B80009307A8F080919C0290919D0280919C02F5
:102B900090919D02279A2F9A2FEF67EA71E62150B4
:102BA00060407040E1F700C000001F9AF5CF20910F
:102BB0003C0389E001C02150422F50E0849FF00186
:102BC000859FF00D1124E85EFC4F9081992399F3C5
:102BD000A181B28112960D90BC91A02DB283A183E8
:102BE000289FC0011124855E9C4FA817B90729F4BE
:102BF00012968D919C919283818389E0849FF0014C
:102C0000859FF00D1124E85EFC4F0180F281E02DDC
:102C10008681978190939D0280939C0220933C0330
:102C2000A0919C02B0919D02CD91CDBFDD91DEBF00
:102C3000FF91EF91DF91CF91BF91AF919F918F91D4
:102C40007F916F915F914F913F912F911F910F91C4
:102C5000FF90EF90DF90CF90BF90AF909F908F90BC
:102C60007F906F905F904F903F902F901F900F90AC
:102C70000CBE0F900BBE0F900FBE0F900895CF9318
:102C8000DF93EC01AAD8CE01BED2EC0110DB209775
:102C900069F4279A2F9A2FEF80E792E02150804025
:102CA0009040E1F700C000001F9AF5CFCE01DF9100
:102CB000CF9108950F931F93CF93DF93082F162F73
:102CC000869FC00111244F96DADFEC01009769F16D
:102CD000111131C0998388830B8F1C8F0FB6F89424
:102CE0000F92888199812B8D4C8DBC01249F600DA2
:102CF000711D11247D836C831A8E9B838A832150DE
:102D0000330B429FB001439F700D1124860F971F14
:102D10009F838E838FEF8D8F8E8FCE010896F3D990
:102D2000CE014196F0D90F900FBECE01DF91CF9129
:102D30001F910F9108954F9699838883CDCF7F92ED
:102D40008F929F92AF92BF92CF92DF92EF92FF92BB
:102D50000F931F93CF93DF93982EA92E762E872E55
:102D60007A01B22ECA018BDF6C01892B09F4C9C02C
:102D700088E290E084DFEC01892B09F4C0C0D88E92
:102D8000CF8AA70165EA70E0C6018BD621E0E21A7E
:102D9000F108EF89F88DEE0DFF1D672D782DCE011E
:102DA00049969B01285F3F4FDB014D91BD01DC013E
:102DB0004D93CD01AB0141505109DA014C914423AF
:102DC00019F06217730781F718A2BE8AB9A21AA276
:102DD0001B861A861D8A1C8AD987C88784E090E0E2
:102DE0008B1991099D878C87DB8BCA8B1BA21CA238
:102DF0001DA21EA21FA29082DF011197AC92119713
:102E00001C9211971C92119780E88C9311971C9239
:102E100011971C9211971C9257971C9211971C9214
:102E2000B697F983E8830115110519F0F801D183EC
:102E3000C0830FB6F8940F92809114038F5F809334
:102E4000140380919C0290919D02892B09F068C027
:102E5000D0939D02C0939C0280911403813039F578
:102E600088E193E050D981E293E04DD98AE293E082
:102E70004AD983E393E047D989E093E044D980E0DD
:102E800093E041D987EF92E03ED98EEE92E03BD9B4
:102E900085EE92E038D989E093E09093E402809344
:102EA000E30280E093E09093E2028093E10280915C
:102EB00012038F5F809312038E8990913C039817C1
:102EC00010F480933C03F9E08F9FC0011124BE01F0
:102ED0006E5F7F4F885E9C4F0E94FE0E0F900FBE6C
:102EE00080911303882349F0E0919C02F0919D02A8
:102EF00096898E89981708F414D981E003C0C60119
:102F000045DC8FEFDF91CF911F910F91FF90EF90F4
:102F1000DF90CF90BF90AF909F908F907F9008955B
:102F2000809113038111C3CFE0919C02F0919D0227
:102F30009E898689981708F4BACFD0939D02C093D2
:102F40009C02B5CF0F931F9308EC12E020E040ECF9
:102F500050E069E572E081E192E0F1DE813009F054
:102F60007FC00FB6F8940F928091DF029091E0023B
:102F7000892BC9F48DEB92E0C6D884EB92E0C3D8DC
:102F80008DEB92E09093D4028093D30284EB92E095
:102F90009093D2028093D10265E08AE08BDE909319
:102FA000E0028093DF020F900FBE8091DF029091CC
:102FB000E002892B09F454C006EC12E023E045E559
:102FC00050E06EE572E08EE392E0B9DE813009F008
:102FD00047C0F8942FEF3FEF3093CE022093CD02FD
:102FE000809313031092160310921503A89588E19D
:102FF00090EC0FB6F894A895809360000FBE909364
:103000006000A0919C02B0919D02CD91CDBFDD9159
:10301000DEBFFF91EF91DF91CF91BF91AF919F9173
:103020008F917F916F915F914F913F912F911F9160
:103030000F91FF90EF90DF90CF90BF90AF909F9057
:103040008F907F906F905F904F903F902F901F9048
:103050000F900CBE0F900BBE0F900FBE0F900895F7
:103060001F910F9108953DDC1895EDE3F3E0138275
:10307000128288EE93E0A0E0B0E084839583A6837B
:10308000B7838AE092E09183808385EC90E0958716
:10309000848784EC90E09787868780EC90E0918B22
:1030A000808B81EC90E0938B828B82EC90E0958B0F
:1030B000848B86EC90E0978B868B118E128E138E0C
:1030C000148EEAEDF3E0138212828CE192E0918398
:1030D00080838CE084838FEF85838BE0868385E01B
:1030E000878384E0808783E0818782E082871386FC
:1030F000148615861686178681E00C94B906789496
:1031000084B5826084BD84B5816084BD85B58260EC
:1031100085BD85B5816085BD80916E00816080939D
:103120006E00109281008091810082608093810006
:103130008091810081608093810080918000816016
:10314000809380008091B10084608093B100809171
:10315000B00081608093B000809191008260809384
:103160009100809191008160809391008091900006
:103170008160809390008091A10082608093A10083
:103180008091A10081608093A1008091A000816066
:103190008093A00080912101826080932101809121
:1031A00021018160809321018091200181608093C1
:1031B000200180917A00846080937A0080917A0067
:1031C000826080937A0080917A00816080937A0097
:1031D00080917A00806880937A001092C1002091DB
:1031E0000402309105028FEF91E2821B930B9093C2
:1031F0000102809300020E94320DA4DE0E94320D73
:103200000E94B904FDCF0F931F93CF93DF938230B9
:10321000910510F482E090E0E091F403F091F50361
:1032200030E020E0B0E0A0E0309799F421153105BE
:1032300009F44AC0281B390B24303105D8F58A819E
:103240009B816115710589F1FB0193838283FE01E6
:1032500011C0408151810281138148175907E0F064
:103260004817590799F4109761F012960C9312972A
:1032700013961C933296CF01DF91CF911F910F913E
:1032800008950093F4031093F503F4CF211531054D
:1032900051F04217530738F0A901DB019A01BD0133
:1032A000DF01F801C1CFEF01F9CF9093F5038093CF
:1032B000F403CDCFFE01E20FF31F819391932250CF
:1032C000310939832883D7CF2091F2033091F3035A
:1032D000232B41F420910202309103023093F30337
:1032E0002093F20320910002309101022115310553
:1032F00041F42DB73EB74091040250910502241BC2
:10330000350BE091F203F091F303E217F307A0F419
:103310002E1B3F0B2817390778F0AC014E5F5F4F2B
:103320002417350748F04E0F5F1F5093F303409367
:10333000F203819391939FCFF0E0E0E09CCFCF9395
:10334000DF930097E9F0FC01329713821282A0917B
:10335000F403B091F503ED0130E020E01097A1F403
:1033600020813181820F931F2091F2033091F3036A
:103370002817390709F061C0F093F303E093F203D3
:10338000DF91CF910895EA01CE17DF07E8F54A8172
:103390005B819E0141155105B1F7E901FB83EA8389
:1033A00049915991C40FD51FEC17FD0761F4808135
:1033B00091810296840F951FE90199838883828108
:1033C00093819B838A83F0E0E0E012968D919C913B
:1033D00013970097B9F52D913C911197CD01029665
:1033E000820F931F2091F2033091F30328173907BE
:1033F00039F6309751F51092F5031092F403B0931B
:10340000F303A093F203BCCFD383C28340815181E5
:10341000840F951FC817D90761F44E5F5F4F8881ED
:103420009981480F591F518340838A819B819383DF
:1034300082832115310509F0B0CFF093F503E093B5
:10344000F4039ECFFD01DC01C0CF13821282D7CFDF
:1034500040D008F481E00895E89409C097FB3EF459
:1034600090958095709561957F4F8F4F9F4F9923D1
:10347000A9F0F92F96E9BB279395F695879577954F
:103480006795B795F111F8CFFAF4BB0F11F460FF0F
:103490001BC06F5F7F4F8F4F9F4F16C0882311F067
:1034A00096E911C0772321F09EE8872F762F05C07B
:1034B000662371F096E8862F70E060E02AF09A9516
:1034C000660F771F881FDAF7880F9695879597F90B
:1034D0000895990F0008550FAA0BE0E8FEEF1616A5
:1034E0001706E807F907C0F012161306E407F507F8
:1034F00098F0621B730B840B950B39F40A2661F06C
:10350000232B242B252B21F408950A2609F4A1400E
:10351000A6958FEF811D811D08950BD078C069D0CD
:1035200028F06ED018F0952309F05AC05FC011241E
:10353000A2C07ED0A0F3959FD1F3950F50E0551F08
:10354000629FF001729FBB27F00DB11D639FAA27F8
:10355000F00DB11DAA1F649F6627B00DA11D661F47
:10356000829F2227B00DA11D621F739FB00DA11D68
:10357000621F839FA00D611D221F749F3327A00D22
:10358000611D231F849F600D211D822F762F6A2FBE
:1035900011249F5750408AF0E1F088234AF0EE0F43
:1035A000FF1FBB1F661F771F881F91505040A9F750
:1035B0009E3F510570F014C05EC05F3FECF3983E33
:1035C000DCF3869577956795B795F795E7959F5FB7
:1035D000C1F7FE2B880F911D9695879597F9089551
:1035E00097F99F6780E870E060E008959FEF80ECB6
:1035F000089500240A941616170618060906089559
:1036000000240A9412161306140605060895092EBE
:103610000394000C11F4882352F0BB0F40F4BF2B2D
:1036200011F460FF04C06F5F7F4F8F4F9F4F08956D
:1036300057FD9058440F551F59F05F3F71F0479563
:10364000880F97FB991F61F09F3F79F08795089548
:10365000121613061406551FF2CF4695F1DF08C067
:10366000161617061806991FF1CF86957105610584
:1036700008940895E894BB2766277727CB0197F92C
:103680000895A1E21A2EAA1BBB1BFD010DC0AA1FA3
:10369000BB1FEE1FFF1FA217B307E407F50720F0BB
:1036A000A21BB30BE40BF50B661F771F881F991F36
:1036B0001A9469F760957095809590959B01AC017F
:1036C000BD01CF0108955058BB27AA270ED09FCF28
:1036D00090DF30F095DF20F031F49F3F11F41EF4BD
:1036E00085CF0EF4E095E7FB7BCFE92FA1DF80F3D8
:1036F000BA17620773078407950718F071F49EF5EF
:10370000B9CF0EF4E0950B2EBA2FA02D0B01B90105
:1037100090010C01CA01A0011124FF27591B99F047
:10372000593F50F4503E68F11A16F040A22F232F53
:10373000342F4427585FF3CF469537952795A795A3
:10374000F0405395C9F77EF41F16BA0B620B730B4A
:10375000840BBAF09150A1F0FF0FBB1F661F771FBB
:10376000881FC2F70EC0BA0F621F731F841F48F470
:10377000879577956795B795F7959E3F08F0B3CFF6
:103780009395880F08F09927EE0F979587950895E0
:103790000CD03DCF35DF40F02CDF30F021F45F3F1F
:1037A00019F01ECF511167CF21CF42DF98F3992333
:1037B000C9F35523B1F3951B550BBB27AA276217F5
:1037C0007307840738F09F5F5F4F220F331F441F3A
:1037D000AA1FA9F333D00E2E3AF0E0E830D0915072
:1037E0005040E695001CCAF729D0FE2F27D0660F5F
:1037F000771F881FBB1F261737074807AB07B0E89E
:1038000009F0BB0B802DBF01FF2793585F4F2AF0B3
:103810009E3F510568F0E4CE2ECF5F3FECF3983E1B
:10382000DCF3869577956795B795F7959F5FC9F710
:10383000880F911D9695879597F90895E1E0660F99
:10384000771F881FBB1F621773078407BA0720F012
:10385000621B730B840BBA0BEE1F88F7E09508957B
:10386000EFDE88F09F5790F0B92F9927B751A0F05D
:10387000D1F0660F771F881F991F1AF0BA95C9F704
:1038800012C0B13081F0F6DEB1E00895F3CE672FBB
:10389000782F8827B85F39F0B93FCCF386957795B4
:1038A0006795B395D9F73EF490958095709561959D
:1038B0007F4F8F4F9F4F08950CDE08F48FEF0895D0
:1038C00008DE880B990B0895EE0FFF1F881F8BBF32
:1038D0000790F691E02D19944F925F926F927F922C
:1038E0008F929F92AF92BF92CF92DF92EF92FF9210
:1038F0000F931F93CF93DF938C01009791F4CB012B
:10390000DF91CF911F910F91FF90EF90DF90CF90BB
:10391000BF90AF909F908F907F906F905F904F90EF
:1039200072CCFC01E60FF71F9C0122503109E2170F
:10393000F30708F4AAC0D901CD91DC911197C617FD
:10394000D70718F1C530D10570F0CE01049786175E
:10395000970748F0C61BD70B2297C193D1936D935D
:103960007C93CF01ECDCC801DF91CF911F910F91C7
:10397000FF90EF90DF90CF90BF90AF909F908F908F
:103980007F906F905F904F9008955B01AC1ABD0AD5
:103990004C018C0E9D1EA091F403B091F503512CA7
:1039A000412CF12CE12C109731F58091F20390918C
:1039B000F3038815990509F05CC04616570608F010
:1039C00058C08091000290910102009741F48DB798
:1039D0009EB74091040250910502841B950BE81795
:1039E000F90708F052C0F093F303E093F203F901F2
:1039F00071836083B8CF8D919C91119712966C90D2
:103A0000129713967C901397A815B90559F56C0178
:103A100042E0C40ED11CCA14DB0420F1AC014A19E7
:103A20005B09DA011296159780F0628273825183E6
:103A30004083D9016D937C93E114F10471F0D701B7
:103A40001396FC93EE9312978ECF22968C0F9D1FA8
:103A5000F90191838083F301EFCFF093F503E093B5
:103A6000F40381CF4816590608F42C017D01D301D7
:103A70009ACFCB01C8DB7C01009739F0AE01B801C9
:103A800007D0C8015CDC87016ECF10E000E06BCF8F
:103A9000FB01DC0102C001900D9241505040D8F76B
:103AA0000895DC0101C06D9341505040E0F7089546
:103AB000FB01DC0101900D920020E1F70895F894DC
:023AC000FFCF36
:103AC2000000F60380000000000034049F03CC03D2
:103AD2009A04FD03DB03EF03000000004D079F0380
:103AE200FD05FC056E616E00696E66006F7666000C
:103AF200444854000D0A0074656D702843293A2029
:103B02000068756D69646974792825293A20004C2A
:103B12004452006C75783A200049444C4500546D7B
:103B2200722053766300506C616E742D6D6F6E69F6
:103B3200746F72004C4344205441534B004C434435
:103B4200004448543131205441534B0044485431CD
:0C3B520031004C4452205441534B000001
:00000001FF
