:100000000C945F010C9487010C9487010C94870178
:100010000C9487010C9487010C940E160C948701A4
:100020000C9487010C9487010C9487010C94870130
:100030000C9487010C9487010C9487010C94870120
:100040000C94E70A0C9487010C94B50A0C948F0A5F
:100050000C9487010C9487010C9487010C94870100
:100060000C9487010C9487015B494E464F5D204DEF
:10007000757465782063726561746564200D005B3A
:100080004552524F525D2043616E27742063726562
:10009000617465206D75746578200D005B494E466E
:1000A0004F5D205175657565206372656174656487
:1000B0000D005B4552524F525D2043616E27742004
:1000C000637265617465207175657565200D005BEF
:1000D000494E464F5D204372656174696E672071B9
:1000E0007565756520776974682073697A65206F16
:1000F000662025640D005B494E464F5D20546173B8
:100100006B207363686564756C65207374617274C9
:100110006564200A005B494E464F5D2074656D7032
:10012000202564207C2068756D69646974792025B8
:10013000640D005B4552524F525D20526561642050
:100140006468743131206572726F723A20256420C0
:100150000D005B494E464F5D2053697A65206F66FE
:100160002071756575652025640D005B494E464F0D
:100170005D20547279696E6720746F2073656E64B8
:1001800020646174610D005B494E464F5D20444818
:100190005420646174612073656E740D005B494E78
:1001A000464F5D2066726565206D656D6F72793AA8
:1001B0002025640D005B4552524F525D204372650D
:1001C000617465207461736B20756E6B6E6F776EF2
:1001D000206572726F72200D005B4552524F525D66
:1001E0002043616E277420637265617465205461D9
:1001F000736B2C206D656D6F727920616C6C6F6311
:100200006174696F6E206572726F72200D005B49B8
:100210004E464F5D206372656174656420257320CE
:100220007461736B200D0074656D70202564207CF3
:100230002068756D69646974792025640D005B49D7
:100240004E46305D2072656365697665643A200DBF
:10025000005B494E464F5D204C4344205441534B74
:100260000000000000240027002A000000000025F4
:100270000028002B000000000023002600290004B5
:10028000040404040404040202020202020303033D
:100290000303030102040810204080010204081037
:1002A00020010204081020000000080002010000E4
:1002B00003040700000000000000000011161124D4
:1002C0001FBECFEFD8E0DEBFCDBF11E0A0E0B1E0B0
:1002D000E0E5F7E302C005900D92AE35B107D9F71E
:1002E00022E0AEE5B1E001C01D92AB3AB207E1F702
:1002F00011E0CFE5D1E004C02197FE010E94221851
:10030000CE35D107C9F70E945B160C94A61B0C943E
:100310000000AF92BF92CF92DF92EF92FF920F93C5
:100320001F93CF93DF936C017B018B01040F151F8B
:10033000EB015E01AE18BF08C017D10759F06991F3
:10034000D601ED91FC910190F081E02DC601099557
:10035000892B79F7C501DF91CF911F910F91FF9004
:10036000EF90DF90CF90BF90AF900895FC01538D38
:10037000448D252F30E0842F90E0821B930B54177F
:1003800010F0CF96089501970895FC01918D828D0C
:10039000981761F0A28DAE0FBF2FB11D5D968C91A5
:1003A000928D9F5F9F73928F90E008958FEF9FEFE4
:1003B0000895FC01918D828D981731F0828DE80FA0
:1003C000F11D858D90E008958FEF9FEF0895FC015A
:1003D000918D228D892F90E0805C9F4F821B910927
:1003E0008F739927089582EF91E00E94E70121E041
:1003F000892B09F420E0822F08950E94F3018111D6
:100400000C940000089580E090E0892B11F00C948A
:10041000FD010895FC01A48DA80FB92FB11DA35AA9
:10042000BF4F2C91848D90E001968F739927848F14
:10043000A689B7892C93A089B1898C918370806437
:100440008C93938D848D981306C00288F389E02DD8
:1004500080818F7D80830895EF92FF920F931F9389
:10046000CF93DF93EC0181E0888F9B8D8C8D981367
:100470001AC0E889F989808185FF15C09FB7F89473
:10048000EE89FF896083E889F989808183708064BF
:1004900080839FBF81E090E0DF91CF911F910F910A
:1004A000FF90EF900895F62E0B8D10E00F5F1F4F19
:1004B0000F731127E02E8C8D8E110CC00FB607FC28
:1004C000FACFE889F989808185FFF5CFCE010E94B6
:1004D0000A02F1CFEB8DEC0FFD2FF11DE35AFF4F18
:1004E000F0829FB7F8940B8FEA89FB898081806244
:1004F000CFCFCF93DF93EC01888D8823B9F0AA8901
:10050000BB89E889F9898C9185FD03C0808186FDCE
:100510000DC00FB607FCF7CF8C9185FFF2CF80811D
:1005200085FFEDCFCE010E940A02E9CFDF91CF9186
:100530000895833081F028F4813099F08230A9F059
:1005400008958730A9F08830C9F08430B1F48091E3
:1005500080008F7D03C0809180008F778093800022
:10056000089584B58F7784BD089584B58F7DFBCFC2
:100570008091B0008F778093B00008958091B00093
:100580008F7DF9CFCF93DF93282F30E0F901E95524
:10059000FD4F8491F901ED56FD4FD491F901E158D9
:1005A000FD4FC491CC23A1F081110E949902EC2F40
:1005B000F0E0EE0FFF1FEB58FD4FA591B491EC91C9
:1005C000ED2381E090E009F480E0DF91CF91089580
:1005D00080E090E0FACF1F93CF93DF93282F30E095
:1005E000F901E955FD4F8491F901ED56FD4FD49184
:1005F000F901E158FD4FC491CC23A9F0162F8111C8
:100600000E949902EC2FF0E0EE0FFF1FE559FD4F1D
:10061000A591B4918FB7F894EC91111108C0D095C1
:10062000DE23DC938FBFDF91CF911F910895DE2BE6
:10063000F8CFCF93DF9390E0FC01ED56FD4F24916E
:1006400081589D4FFC0184918823D1F090E0880F60
:10065000991FFC01EF59FD4FA591B491FC01E5599B
:10066000FD4FC591D49161110EC09FB7F8948C9144
:10067000E22FE0958E238C932881E223E8839FBFAD
:10068000DF91CF9108958FB7F894EC91E22BEC9322
:100690008FBFF6CF3FB7F89480918F019091900172
:1006A000A0919101B091920126B5A89B05C02F3F62
:1006B00019F00196A11DB11D3FBFBA2FA92F982F88
:1006C0008827BC01CD01620F711D811D911D42E083
:1006D000660F771F881F991F4A95D1F708958F924B
:1006E0009F92AF92BF92CF92DF92EF92FF924B0117
:1006F0005C010E944A036B017C010E944A036C1951
:100700007D098E099F09683E734081059105A8F314
:1007100021E0821A9108A108B10888EEC80E83E092
:10072000D81EE11CF11C81149104A104B10429F725
:10073000FF90EF90DF90CF90BF90AF909F908F9001
:100740000895089590E080E00895E0919801F09177
:1007500099018081811107C08FEF9FEF90938301F2
:10076000809382010895E0919801F09199010580AC
:10077000F681E02D0680F781E02D82819381EECF16
:10078000EF92FF920F931F93CF93DF93CDB7DEB716
:10079000C058D1090FB6F894DEBF0FBECDBF40E8F8
:1007A00050E0C557DF4F68817981CB58D0408E012A
:1007B0000F5F1F4FC8010E94DC17C158DF4F18821E
:1007C000CF57D040F80101900020E9F77F01F801F0
:1007D00001900020E9F7B8016E1B7F0B60587F4F36
:1007E0009E0123573F4FA801C7010E94FC18C05823
:1007F000DF4F1882C058D040F70101900020E9F780
:100800003197AF014E195F09B70182EF91E00E9465
:100810008901C058DF4F0FB6F894DEBF0FBECDBFC1
:10082000DF91CF911F910F91FF90EF900895CF939B
:10083000DF9300D0CDB7DEB72091A7023091A80298
:10084000CE01019621153105E9F48B5A92409A8325
:10085000898389819A819F938F938DE991E09F93FA
:100860008F9382EF91E09F938F930E94C0030F902C
:100870000F900F900F900F900F900F900F90DF91AF
:10088000CF910895821B930BE091A902F091AA02E7
:1008900030E020E0309751F02E5F3F4F4081518192
:1008A000240F351F0280F381E02DF4CF820F931FB8
:1008B000CECFCF93DF93EC0160E08E810E94EB02FC
:1008C00061E08E810E94EB0260E08E810E94EB026B
:1008D0008BE891E00197F1F7DF91CF910895CF92E6
:1008E000DF92EF92FF920F931F93CF93DF936C01F0
:1008F0007C0187E0E80EF11CD0E0C0E0062F10E09C
:10090000B8010C2E02C0759567950A94E2F76170E4
:10091000F70181917F010E94EB022196C430D1053D
:1009200079F7C601DF91CF911F910F91FF90EF9062
:10093000DF90CF900C945904CF92DF92EF92FF9208
:100940000F931F93CF93DF93EC01F62E642F8C81CE
:100950000E94EB028D818F3F19F060E00E94EB0254
:100960000F2D10E08F8584FF25C06E0187E0C80E33
:10097000D11CF12CE12CB8010E2C02C075956795A5
:100980000A94E2F76170F60181916F010E94EB0217
:10099000FFEFEF1AFF0A88E0E816F10461F7CE01D5
:1009A000DF91CF911F910F91FF90EF90DF90CF904B
:1009B0000C945904B80184E0759567958A95E1F720
:1009C000CE010E946F046F2DCE01DF91CF911F9158
:1009D0000F91FF90EF90DF90CF900C946F04CF9326
:1009E000DF93813029F090919E02986090939E024F
:1009F0008093A2021092A30280E48093A40280E17B
:100A00008093A50280E58093A60261E08091930225
:100A10000E941903809194028F3F19F061E00E94B7
:100A2000190361E0809195020E941903CFE8D2E09A
:100A30009E012F58324080919E0284FD0BC084E0BD
:100A400090E021962817390744F461E08E810E94D6
:100A50001903EECF88E090E0F4CF8BE39DE001979F
:100A6000F1F760E0809193020E94EB0260E08091D8
:100A700095020E94EB02809194028F3F19F060E092
:100A80000E94EB0260919E0264FD45C063E08FE826
:100A900092E00E946F04CBE4D6E4CE010197F1F717
:100AA00063E08FE892E00E946F042197F1F763E022
:100AB0008FE892E00E946F0483E592E00197F1F7DE
:100AC00062E08FE892E00E946F0460919E02606293
:100AD00040E08FE892E00E949C0484E080939F02B3
:100AE00040E06CE08FE892E00E949C0440E061E00E
:100AF0008FE892E00E949C048BE39FE10197F1F75D
:100B000082E08093A00240E066E08FE892E0DF910F
:100B1000CF910C949C04606240E08FE892E00E94C8
:100B20009C048BE496E40197F1F760919E02606269
:100B300040E08FE892E00E949C0483E592E00197F8
:100B4000F1F760919E02606240E08FE892E00E94BF
:100B50009C04BBCF41E00E949C0481E090E008959A
:100B6000FC0180819181009711F00C945317089536
:100B7000EF92FF920F931F93CF93DF93EC017B01D2
:100B80008A0188819981009729F02A813B81241765
:100B9000350788F4B8016F5F7F4F0E9428180097CF
:100BA00091F0998388831B830A832C813D81232BB9
:100BB00011F4FC0110821D830C83B7018881998197
:100BC0000E94F5180CC088819981009711F00E944D
:100BD0005317198218821D821C821B821A82CE0131
:100BE000DF91CF911F910F91FF90EF9008950F9398
:100BF0001F93CF93DF9300D000D000D0CDB7DEB7E6
:100C00006130B1F51A8219821C821B821E821D82FC
:100C1000FC01608171818E010F5F1F4F61157105AD
:100C200029F044815581C8010E94B8051F930F9394
:100C30008EE092E09F938F9382EF91E09F938F934A
:100C40000E94C003C8010E94B0050F900F900F9042
:100C50000F900F900F900E94170426960FB6F894ED
:100C6000DEBF0FBECDBFDF91CF911F910F910895D1
:100C700089ED91E06F3F11F085EB91E09F938F93A9
:100C800082EF91E09F938F930E94C0030F900F908B
:100C90000F900F90E0CF00E010E080918101811172
:100CA0000CC08091CD01823010F00E941E0D011504
:100CB000110599F30E94FD01F0CF0FB6F8940F9241
:100CC000E091A801F091A901C681D781CE010296D9
:100CD0000E949F0B8091C90181508093C90180912E
:100CE00081018150809381010F900FBE8F89988D73
:100CF0000E946410CE010E946410CFCFCF93DF9387
:100D0000CDB7DEB72B970FB6F894DEBF0FBECDBFC1
:100D100081E5E82E82E0F82E02EF11E09EE3C92E75
:100D200092E0D92E27E2A22E22E0B22EFF92EF927D
:100D30001F930F930E94C0034FEF5FEFBE016F5FE1
:100D40007F4F80916601909167010E9475100F900E
:100D50000F900F900F90813009F5DF92CF921F9383
:100D60000F930E94C0038B858F938A858F9389850B
:100D70008F9388858F938F818F938E818F938D81B1
:100D80008F938C818F93BF92AF921F930F930E948A
:100D9000C0030FB6F894DEBF0FBECDBF0E941E0D7C
:100DA000C5CFCF93DF93CDB7DEB76C970FB6F8946E
:100DB000DEBF0FBECDBF42EFE42E41E0F42E54E083
:100DC000252E312C1C861D861E861F86188A61E002
:100DD00086E00E94190360E086E00E94EB0262E177
:100DE00070E080E090E00E946F0361E086E00E9486
:100DF000EB028BE990E00197F1F760E086E00E945A
:100E0000190301E117E286E00E94C202892B29F44E
:100E100001501109C1F79EEF68C001E117E286E0B9
:100E20000E94C202019721F401501109C1F7F3CFCA
:100E300038E2C32ED12C17E000E021E1A22E27E2F8
:100E4000B22E86E00E94C202892B29F421E0A21A68
:100E5000B108B9F7E0CF0E944A032B013C0191E1B0
:100E6000A92E97E2B92E86E00E94C202019729F4CA
:100E700031E0A31AB108B9F7CECF0E944A03641932
:100E8000750986099709693271058105910580F018
:100E9000ECE0F0E0EC0FFD1FE00FF11D808121E0A0
:100EA00030E0012E01C0220F0A94EAF7822B8083E2
:100EB00011112EC00F5F17E041E0C41AD10809F0EC
:100EC000BCCF9C85292F30E03093610120936001D5
:100ED0008E85282F30E03093630120936201392FF3
:100EE000380F28893217B1F09FEF8FEF8F939F93C0
:100EF00083E391E09F938F93FF92EF920E94C00350
:100F00000F900F900F900F900F900F9080E02EC0D9
:100F10001150D2CF282F30E050E040E02D8B3E8B97
:100F20004F8B588F292F30E050E040E0298F3A8FC7
:100F30004B8F5C8F1F921F921F929F931F921F9245
:100F40001F928F9385E191E09F938F93FF92EF9291
:100F50000E94C00364E670E080E090E00E946F03AE
:100F60000FB6F894DEBF0FBECDBF81E01A821982A2
:100F70008B832D893E894F89588D2C833D834E83E9
:100F80005F83298D3A8D4B8D5C8D288739874A8701
:100F90005B87882309F483C041E050E04C0F5D1F5C
:100FA0005C8B4B8B8BE691E09F938F93FF92EF923C
:100FB0000E94C00300916401109165018FEF9FEFC3
:100FC0009A8B898B0F900F900F900F90B12C90E01F
:100FD000480151E1850E911C89E0782E0FB6F894F6
:100FE0000F92D8015A968C915A97882309F45AC0C7
:100FF00081505A968C935A978D919C91892BA1F48C
:1010000080915E0190915F01892B39F0E0915E0142
:10101000F0915F0182A18F5F82A380915E01909128
:101020005F01F80195838483D80118968C918823F9
:1010300039F0C80108960E94C30B81110E941E0D51
:101040000F900FBE4FEF5FEFBE016D5E7F4F80913F
:101050006601909167010E94020F50E040E070E04D
:1010600060E080916401909165010E94020F1F92DF
:1010700082E08F9382E591E09F938F93FF92EF92AE
:101080000E94C00387E891E09F938F93FF92EF92B5
:101090000E94C0030FB6F894DEBF0FBECDBF0E9402
:1010A0001E0D90CE29893A89232B51F2911109C046
:1010B0008091CC018C878091CA019091CB019E8751
:1010C0008D870F900FBE0E946E0B0FB6F8940F9293
:1010D000F801858D8F3F09F4158ED8015E968C91AD
:1010E0005E978F3F11F45E961C920F900FBEBE016B
:1010F0006F5E7F4FCE010C960E94310B81118AC02A
:10110000C8010E94740B882309F47EC0F801808115
:101110009181892B09F052C00FB6F8940F92C480C8
:10112000D580C114D10409F46DC0F6018689E0911F
:101130005E01F0915F019689891708F057C0D601CA
:101140001C962D913C911D9737FD0CC0E0915E01DE
:10115000F0915F0196899101291B31091D963C93FD
:101160002E931C97879DC001112483539E4FF60137
:10117000228533852817390789F55601F2E0AF0E2D
:10118000B11CC5010E949F0BE0915E01F0915F01CF
:101190008689D60156968C939091F101981710F498
:1011A0008093F101879DC0011124B50183539E4FA7
:1011B0000E947F0BBB24B3940F900FBE69897A897C
:1011C000C4010E94FF0CC8010E94020C0E94DC0DA9
:1011D000811102C00E941E0D91E000CFE0915E01DE
:1011E000F0915F018689F601868BE4CFE0915E0184
:1011F000F0915F01BB24B394D60191969C918689AE
:101200009817D0F2B12CD8CFC8010E94020C0E94CE
:10121000DC0DE2CFC8010E94020C0E94DC0DC80167
:101220000E94740B8823C1F2BB2009F40BCF0FB6C8
:10123000F8940F92F8018189882309F457C0068831
:10124000F789E02D908184E0891BD80114960D91D7
:101250001C910115110509F4F3CEF80191A198171D
:1012600008F4982FD80156968C915697981709F440
:10127000E7CE92962C919297213009F0E1CE5696C6
:101280009C9356971C962D913C911D9737FD07C056
:101290009101291B31091D963C932E931C97B9E0AF
:1012A0008B9FC001112483539E4FF8012285338503
:1012B0002817390709F0C4CE6801F2E0CF0ED11C1F
:1012C000C6010E949F0BD80156968C919091F10116
:1012D000981710F48093F101B9E08B9FC00111249D
:1012E000B60183539E4F0E947F0BAACE80E0ADCF04
:1012F000EF92FF920F931F93CF93DF9300D000D014
:1013000000D0CDB7DEB7E0910202F091030282E097
:101310008083E091FE01F091FF011082E0910002D4
:10132000F09101028FEC808310920A02E091060294
:10133000F091070286E08083E0910402F0910502BB
:10134000808180618083E0910402F09105028081B8
:1013500088608083E0910402F091050280818068BA
:101360008083E0910402F091050280818F7D80836B
:101370000E94170484E00E94EF044DE050E061E316
:1013800071E08FE892E00E94890160E087E00E94AE
:10139000190360E081E00E9429148C01009761F03C
:1013A000FC011582148211821082168250E040E006
:1013B00070E060E00E94020F1093650100936401E9
:1013C0008FE790E0012B11F088E690E09F938F93D8
:1013D00082EF91E09F938F930E94C0030F900F9034
:1013E0000F900F900E9417041F928BE08F938FEC49
:1013F00090E09F938F9302EF11E01F930F930E9451
:10140000C0036BE084E00E942914909367018093ED
:1014100066010F900F900F900F900F900F90892BF7
:1014200061F482EB90E09F938F931F930F930E9440
:10143000C0030F900F900F900F908CE990E09F9356
:101440008F9382EFE82E81E0F82EFF92EF920E94B8
:10145000C0030E94170410E000E021E048EC50E0D7
:101460006FE371E08EE796E00E947114182F1A82E4
:1014700019821C821B821E821D8243E050E068E4B8
:1014800071E0CE0101960E94B805612FCE01019650
:101490000E94F705CE0101960E94B00510E000E021
:1014A00023E048EC50E06CE471E081ED96E00E94AE
:1014B0007114182F1A8219821C821B821E821D82AF
:1014C00045E050E067E571E0CE0101960E94B80565
:1014D000612FCE0101960E94F705CE0101960E9470
:1014E000B0050E947C150E94170486EF90E09F9340
:1014F0008F93FF92EF920E94C0030FB6F894DEBF65
:101500000FBECDBF26960FB6F894DEBF0FBECDBF7F
:10151000DF91CF911F910F91FF90EF9008951F924F
:101520000F920FB60F9211242F933F934F935F9317
:101530006F937F938F939F93AF93BF93EF93FF939B
:1015400082EF91E00E940A02FF91EF91BF91AF916B
:101550009F918F917F916F915F914F913F912F91CB
:101560000F900FBE0F901F9018951F920F920FB6FD
:101570000F9211242F938F939F93EF93FF93E091FA
:101580000202F09103028081E0910802F0910902C9
:1015900082FD1BC0908180910B028F5F8F73209121
:1015A0000C02821741F0E0910B02F0E0EE50FE4F8A
:1015B000958F80930B02FF91EF919F918F912F91C7
:1015C0000F900FBE0F901F9018958081F4CF1F923F
:1015D0000F920FB60F9211242F933F938F939F93E7
:1015E000AF93BF9380918B0190918C01A0918D015D
:1015F000B0918E0130918A0123E0230F2D3758F5E9
:101600000196A11DB11D20938A0180938B019093B7
:101610008C01A0938D01B0938E0180918F019091E8
:101620009001A0919101B09192010196A11DB11D6F
:1016300080938F0190939001A0939101B0939201B8
:10164000BF91AF919F918F913F912F910F900FBEBE
:101650000F901F90189526E8230F0296A11DB11D2B
:10166000D2CFFC01DB010FB6F8940F924091CA0172
:101670005091CB012D913C9111972F3F3207E1F012
:10168000818192816091CC017081761719F04817A1
:101690005907C0F4481B590B4217530788F4241B01
:1016A000350B2D933C938091CC0180838091CA01AE
:1016B0009091CB019283818380E00F900FBE0895BB
:1016C0001D921C9281E0F9CF0FB6F8940F92809191
:1016D000CA019091CB010F900FBE089580919301A4
:1016E0008F5F8093930108950FB6F8940F92FC01D9
:1016F000928D0F900FBE81E0911180E00895CF93FD
:10170000DF939C01FB01DC011196CD91DC91D38329
:10171000C2838C819D81958384838C819D81DC0132
:1017200013967C936E9312977D836C833187208709
:10173000F90180818F5F8083DF91CF910895CF93EE
:10174000DF93FC01A085B18582819381248135815D
:10175000EC013D832C83C481D5819B838A831196C0
:101760008D919C9112978E179F0721F41296DC930E
:10177000CE931197118610868C9181508C938C9109
:10178000DF91CF9108950F931F93CF93DF93DC01E7
:101790001596ED91FC91C681D7818E01045F1F4F94
:1017A000C8010E949F0B80919301811125C00A50AE
:1017B0001109C8010E949F0B8E899091F101981721
:1017C00010F48093F101B9E08B9FC0011124B8019E
:1017D00083539E4F0E947F0BE0915E01F0915F0169
:1017E0009E898689891760F481E080938001DF916A
:1017F000CF911F910F910895B8018CEA91E0EACF43
:1018000080E0F5CFEF92FF920F931F93CF93DF937A
:10181000EC010FB6F8940F921E8D7C0181E1E80E69
:10182000F11C01E01116D4F08FEF8E8F0F900FBED8
:101830000FB6F8940F921D8D7E0188E0E80EF11C22
:1018400001E01116B4F08FEF8D8F0F900FBEDF9176
:10185000CF911F910F91FF90EF9008958989882370
:1018600019F3C7010E94C30B81110093800111502D
:10187000D9CF8885882339F3C7010E94C30B811112
:10188000009380011150DDCF0F931F93CF93DF930F
:101890008C01FB0180819181D80113968F3F9807BD
:1018A000F1F4E801AF81B88512968D919C91139760
:1018B00093838283EC01FD83EC83B583A483139629
:1018C000FC93EE93129711870087F80180818F5F58
:1018D0008083DF91CF911F910F910895D9011296C6
:1018E0002D913C911397E9014881598184179507FF
:1018F000A8F7DACFFC01738362839187808746174C
:10190000570790F0421B530B84859585481759075C
:10191000C8F4BF016E5F7F4F80918601909187016F
:101920000E94440C80E008954217530718F4621790
:10193000730740F4BF016E5F7F4F809188019091E3
:101940008901EECF81E00895FF920F931F93CF930B
:10195000DF93EC01F62E0091CA011091CB0180912A
:101960005E0190915F0102960E949F0BCF3FDC07C2
:1019700089F4FF2079F060915E0170915F016E5FE4
:101980007F4F8AE991E0DF91CF911F910F91FF90F6
:101990000C947F0BC00FD11FE0915E01F0915F01AD
:1019A000D383C28360915E0170915F01C017D1073C
:1019B00068F480919601909197016E5F7F4FDF915F
:1019C000CF911F910F91FF900C94440C809198013E
:1019D000909199016E5F7F4F0E94440C809182012B
:1019E00090918301C817D90720F4D0938301C09345
:1019F0008201DF91CF911F910F91FF900895CF93B6
:101A0000DF93EB0160915E0170915F01645F7F4F36
:101A10000E94440C61E0CE01DF91CF910C94A40CA4
:101A2000FC010396928381832FEF3FEF348323835E
:101A30009683858390878783108208950F920FB6CF
:101A4000F8940F921F9211242F923F924F925F921F
:101A50006F927F928F929F92AF92BF92CF92DF92BE
:101A6000EF92FF920F931F932F933F934F935F93A8
:101A70006F937F938F939F93AF93BF93CF93DF9396
:101A8000EF93FF93A0915E01B0915F010DB60D92AF
:101A90000EB60D9280919301882321F081E080930E
:101AA00080015FC010928001A0915E01B0915F0142
:101AB000E0915E01F0915F012D913C918789908DBD
:101AC00082179307A8F080915E0190915F01809149
:101AD0005E0190915F01259A2D9A2FEF87EA91E69A
:101AE000215080409040E1F700C000001D9AF5CFE2
:101AF0002091F10189E001C02150422F50E0849FE4
:101B0000F001859FF00D1124E353FE4F908199233E
:101B100099F3A181B28112960D90BC91A02DB28350
:101B2000A183289FC001112480539E4FA817B90795
:101B300029F412968D919C919283818389E0849FF0
:101B4000F001859FF00D1124E353FE4F0180F281D7
:101B5000E02D8681978190935F0180935E012093B1
:101B6000F101A0915E01B0915F01CD91CDBFDD91FA
:101B7000DEBFFF91EF91DF91CF91BF91AF919F9128
:101B80008F917F916F915F914F913F912F911F9115
:101B90000F91FF90EF90DF90CF90BF90AF909F900C
:101BA0008F907F906F905F904F903F902F901F90FD
:101BB0000F900FBE0F9008957F928F929F92AF92D9
:101BC000BF92CF92DF92EF92FF920F931F93CF932A
:101BD000DF930FB6F8940F92809193018150809318
:101BE000930180919301882389F080E00F900FBECC
:101BF000DF91CF911F910F91FF90EF90DF90CF90E9
:101C0000BF90AF909F908F907F9008958091C90171
:101C1000882359F3D0E0C0E029E0F22EEE24E394CB
:101C200029C0E091B101F091B201C681D781CE0106
:101C30000C960E949F0B8E010E5F1F4FC8010E94E1
:101C40009F0B8E899091F101981710F48093F10108
:101C50008F9DC0011124B80183539E4F0E947F0BBA
:101C6000E0915E01F0915F019E898689981710F0DE
:101C7000E09280018091AC018111D3CFCD2B11F086
:101C80000E94A503E0907E01F0907F01E114F10431
:101C900009F4AFC089E0A82E77247394CC24CA94A9
:101CA000DC2C80919301811192C0C091CA01D09126
:101CB000CB012196D093CB01C093CA012097B9F4F0
:101CC000809198019091990120919601309197010E
:101CD00030939901209398019093970180939601F6
:101CE0008091CC018F5F8093CC010E94A5038091ED
:101CF000820190918301B12CC817D90708F05BC00D
:101D0000E0915E01F0915F01E689AE9EF001112441
:101D1000E353FE4F8081823010F0BB24B394809156
:101D20008001811103C0BB2009F45AC07092800168
:101D300057C0E0919801F09199010580F681E02D5E
:101D400006811781D80112968D919C91C817D907E9
:101D500028F49093830180938201D2CF4801B2E0AE
:101D60008B0E911CC4010E949F0BF80184899589F8
:101D7000892B21F0C8010C960E949F0BD801569622
:101D80008C919091F101981710F48093F1018A9D44
:101D9000C0011124B40183539E4F0E947F0BE09138
:101DA0005E01F0915F01D80156969C918689981743
:101DB00010F0BB24B394E0919801F09199018081D7
:101DC0008111B7CFD0928301C092820199CF8091C7
:101DD0007E0190917F01019690937F0180937E0117
:101DE000B1E0EB1AF10809F05CCF10927F0110927C
:101DF0007E0180918001882309F4F7CE0E941E0D98
:101E000081E0F4CEAF92BF92DF92EF92FF920F93F8
:101E10001F93CF93DF9300D000D01F92CDB7DEB7D2
:101E20008C017B015D834C8380E0580128E0A20E89
:101E3000B11C0FB6F8940F92F801228D938D2917DB
:101E400008F077C0D28C448D411159C080819181B6
:101E5000892B11F080E009C0E480F580E114F104E1
:101E600019F580E0F80115821482D394F801D28E1E
:101E70009189992321F0C80141960E94C30B8111D9
:101E80000E941E0D0F900FBE81E00F900F900F90DB
:101E90000F900F90DF91CF911F910F91FF90EF90D6
:101EA000DF90BF90AF900895F70182A1815082A387
:101EB000268991A12917A9F28111D3CF5701F2E008
:101EC000AF0EB11CC5010E949F0BF70181A1868B4B
:101ED00024E030E0281B3109358724879091F101F7
:101EE000981710F48093F101F9E08F9FC00111243D
:101EF000B50183539E4F0E947F0B81E0B3CF50E02A
:101F0000B701828193810E94E518F801848D2281B6
:101F10003381820F932F911D938382832481358196
:101F20008217930708F496CF8081918193838283EF
:101F300091CF2C813D81232B21F40F900FBE80E0A7
:101F4000A4CF811109C08091CC0189838091CA01FD
:101F50009091CB019B838A830F900FBE0E946E0BE2
:101F60000FB6F8940F92F801858D8F3F09F4158E06
:101F7000F801868D8F3F09F4168E0F900FBEBE01BB
:101F80006C5F7F4FCE0101960E94310B811120C002
:101F90000FB6F8940F92F801928D838D0F900FBEBB
:101FA000981310C06C817D81C5010E94FF0CC8018F
:101FB0000E94020C0E94DC0D811102C00E941E0DC5
:101FC00081E037CFC8010E94020C0E94DC0DF8CFDF
:101FD000C8010E94020C0E94DC0DB1CFCF93DF93A9
:101FE00000D000D01F92CDB7DEB79C018091940144
:101FF000909195010097C9F019827B836A833D8394
:102000002C832091C80150E040E0BE016F5F7F4FFC
:102010002111209193010E94020F0F900F900F90B9
:102020000F900F90DF91CF91089580E0F6CFEF925F
:10203000FF920F931F93CF93DF93E0918801F0916C
:1020400089018081811113C080918601909187015F
:102050009093890180938801F0938701E093860132
:10206000DF91CF911F910F91FF90EF900895058020
:10207000F681E02D00811181C681D7817E0182E049
:10208000E80EF11CC7010E949F0BE889F989CE0177
:1020900009958A8982FFD1CF8C859D85800F911FFC
:1020A0000817190760F49B838A83D987C887B7010B
:1020B00080918801909189010E94440CBECFB801A3
:1020C000CE010E94EE0FB9CFCF93DF93009751F06E
:1020D000EC010E946E0BCE010E945317DF91CF914D
:1020E0000C94DC0DDF91CF910895AF92BF92CF9207
:1020F000DF92FF920F931F93CF93DF9300D000D016
:102100001F92CDB7DEB78C016B015D834C8380E0FD
:10211000580191E1A90EB11C0FB6F8940F92F80185
:10212000F28CFF20C1F1448D4423B1F050E0868150
:102130009781840F951F9783868324813581821729
:10214000930720F08081918197838683F8016681CF
:102150007781C6010E94E518FA94F801F28E808515
:10216000882339F0C80108960E94C30B81110E9490
:102170001E0D0F900FBE81E00F900F900F900F90EB
:102180000F90DF91CF911F910F91FF90DF90CF9033
:10219000BF90AF9008952C813D81232B21F40F90A7
:1021A0000FBE80E0E9CF811109C08091CC01898305
:1021B0008091CA019091CB019B838A830F900FBEBF
:1021C0000E946E0B0FB6F8940F92F801858D8F3F29
:1021D00009F4158EF801868D8F3F09F4168E0F9045
:1021E0000FBEBE016C5F7F4FCE0101960E94310B86
:1021F00081111BC0C8010E94740B882381F06C817F
:102200007D81C5010E94FF0CC8010E94020C0E9442
:10221000DC0D811102C00E941E0D81E07DCFC8013E
:102220000E94020C0E94DC0DF8CFC8010E94020C33
:102230000E94DC0DC8010E94740B882371F3B1CF9A
:10224000CF93DF9300D000D01F92CDB7DEB7E091DF
:102250008801F0918901F08010E000E0FF2029F072
:102260000580F681E02D008111810E946E0B0E9495
:10227000640B6C018091840190918501C816D90688
:1022800008F04BC00E941710D0928501C0928401C3
:102290000E94DC0D50E040E0BE016F5F7F4F8091F7
:1022A0009401909195010E947510882381F2898193
:1022B00087FDF0CF0C811D81D8011A968D919C91DC
:1022C000892B21F0C80102960E949F0B0E94640B8B
:1022D0007C018091840190918501E816F90610F443
:1022E0000E941710F0928501E0928401E981EA30A2
:1022F00088F60E2E000CFF0BED57FE4ED8015296BD
:102300008C910C94221807120712071240122B12FC
:102310003A120712071240122B12D0928501C09276
:102320008401FF2099F1C016D106C0F10E94DC0D96
:10233000E0918801F09189010580F681E02DE68029
:10234000F780C70102960E949F0BD70152968C918D
:10235000529782FF17C01C966D917C91600F711F80
:102360009801A601C7010E947A0C882321F0B801C8
:10237000C7010E94EE0FD7015096ED91FC91C70165
:10238000099588CF8E7FF701828BF5CFE09186018A
:10239000F09187018081BB24B3948111B12CE0902E
:1023A0009401F09095010FB6F8940F92F701858D86
:1023B0008F3F09F4158ED7015E968C915E978F3F03
:1023C00011F45E961C920F900FBEF701828D811161
:1023D00014C060915E0170915F01645F7F4FC7011F
:1023E00041960E947F0BC8018C199D09BB2011F0FA
:1023F0008FEF9FEF6B2D0E94A40CC7010E94020C6F
:102400000E94DC0D811146CF0E941E0D43CF8160DA
:10241000F801828B2A813B8164857585620F731F69
:10242000A701C8010E947A0C882309F433CFD80190
:102430005096ED91FC91C8010995F801828982FFBF
:1024400029CF6A817B8184859585680F791FC801B2
:102450000E94EE0F1FCF8160F801828B6A817B8121
:10246000758764876E0D7F1D9701A701C8010E94C3
:102470007A0C10CF81FD04C0C8010E9464100ACFFD
:102480008E7FD80152968C9305CF0F920FB6F89499
:102490000F921F9211242F923F924F925F926F9250
:1024A0007F928F929F92AF92BF92CF92DF92EF92E4
:1024B000FF920F931F932F933F934F935F936F93CD
:1024C0007F938F939F93AF93BF93CF93DF93EF93BC
:1024D000FF93A0915E01B0915F010DB60D920EB613
:1024E0000D9213BE809193018111F6C08091CA01B3
:1024F0009091CB0101969093CB018093CA010097F4
:1025000099F520919801309199014091960150914F
:10251000970150939901409398013093970120932C
:1025200096012091CC012F5F2093CC01E09198017E
:10253000F09199012081211107C02FEF3FEF3093D7
:1025400083012093820110C0E0919801F0919901DC
:102550000580F681E02D0680F781E02D2281338110
:102560003093830120938201209182013091830175
:102570008217930710F420E09BC020E019E0E0915F
:102580009801F09199013081311107C08FEF9FEFD1
:1025900090938301809382018BC0E0919801F09128
:1025A00099010580F681E02D0680F781E02D4281BA
:1025B00053818417950728F4509383014093820137
:1025C00077C0AF014E5F5F4FA285B385648175818F
:1025D000E680F780EB01FD82EC82C681D7817B83A8
:1025E0006A8311966D917C9112974617570721F4D3
:1025F0001296DC93CE931197138612863C9131503C
:102600003C933C91A489B5891097F9F0668577854C
:10261000E088F188EB01FD82EC82C089D1897B835F
:102620006A831196ED90FC901297BF01645F7F4F13
:10263000E616F70621F41296DC93CE931197158ACD
:10264000148A3C9131503C933C91A6893091F10120
:102650003A1710F4A093F1011A9FD0011124BD0183
:1026600063537E4F7B01DB011196CD91DC91D583C5
:10267000C4836C817D81778366836C817D81DB017E
:1026800013965C934E9312975D834C83F386E28698
:10269000E70138813F5F3883A0915E01B0915F010F
:1026A000468956963C91431708F469CF21E067CFDD
:1026B000E0915E01F0915F01E689D9E0ED9FF001C4
:1026C0001124E353FE4F8081823008F021E0809195
:1026D000800181110EC00AC080917E0190917F011E
:1026E000019690937F0180937E016AC0222309F4B2
:1026F00067C080919301882321F081E0809380015D
:102700005FC010928001A0915E01B0915F01E091E5
:102710005E01F0915F012D913C918789908D821728
:102720009307A8F080915E0190915F0180915E0116
:1027300090915F01259A2D9A2FEF67EA71E621505B
:1027400060407040E1F700C000001D9AF5CF209175
:10275000F10189E001C02150422F50E0849FF00137
:10276000859FF00D1124E353FE4F9081992399F337
:10277000A181B28112960D90BC91A02DB283A1834C
:10278000289FC001112480539E4FA817B90729F430
:1027900012968D919C919283818389E0849FF001B0
:1027A000859FF00D1124E353FE4F0180F281E02D4F
:1027B0008681978190935F0180935E012093F10160
:1027C000A0915E01B0915F01CD91CDBFDD91DEBFE3
:1027D000FF91EF91DF91CF91BF91AF919F918F9139
:1027E0007F916F915F914F913F912F911F910F9129
:1027F000FF90EF90DF90CF90BF90AF909F908F9021
:102800007F906F905F904F903F902F901F900F9010
:102810000FBE0F900895CF93DF93EC010E946E0BD3
:10282000CE010E94B716EC010E94DC0D209769F4DE
:10283000259A2D9A2FEF80E792E02150804090401A
:10284000E1F700C000001D9AF5CFCE01DF91CF91D6
:1028500008950F931F93CF93DF93082F162F869F12
:10286000C00111244F960E940B14EC01009779F1DE
:10287000111133C0998388830B8F1C8F0FB6F89486
:102880000F92888199812B8D4C8DBC01249F600D06
:10289000711D11247D836C831A8E9B838A83215042
:1028A000330B429FB001439F700D1124860F971F79
:1028B0009F838E838FEF8D8F8E8FCE0108960E941F
:1028C000100DCE0141960E94100D0F900FBECE014B
:1028D000DF91CF911F910F9108954F96998388832F
:1028E000CBCF7F928F929F92AF92BF92CF92DF9287
:1028F000EF92FF920F931F93CF93DF93982EA92E01
:10290000762E872E7A01B22ECA010E940B146C011A
:10291000892B09F4D0C088E290E00E940B14EC01EE
:10292000892B09F4C5C0D88ECF8AA70165EA70E06B
:10293000C6010E94EE1821E0E21AF108EF89F88D35
:10294000EE0DFF1D672D782DCE0149969B01285F66
:102950003F4FDB014D91BD01DC014D93CD01AB013A
:1029600041505109DA014C91442319F06217730761
:1029700081F718A2BE8AB9A21AA21B861A861D8ADE
:102980001C8AD987C88784E090E08B1991099D87BC
:102990008C87DB8BCA8B1BA21CA21DA21EA21FA2AE
:1029A0009082DF011197AC9211971C92119780E8E9
:1029B0008C9311971C9257971C9211971C92B39766
:1029C000F983E8830115110519F0F801D183C0835B
:1029D0000FB6F8940F928091C9018F5F8093C9015F
:1029E00080915E0190915F01892B09F073C0D093B3
:1029F0005F01C0935E018091C901813081F58DEC4A
:102A000091E00E94100D86ED91E00E94100D8FED77
:102A100091E00E94100D88EE91E00E94100D8EEB67
:102A200091E00E94100D85EB91E00E94100D8CEA60
:102A300091E00E94100D83EA91E00E94100D8AE956
:102A400091E00E94100D8EEB91E09093990180939C
:102A5000980185EB91E09093970180939601809186
:102A6000C7018F5F8093C7018E899091F1019817FC
:102A700010F48093F101F9E08F9FC0011124BE0191
:102A80006E5F7F4F83539E4F0E947F0B0F900FBE50
:102A90008091C801882351F0E0915E01F0915F01BF
:102AA00096898E89981710F40E941E0D81E004C04B
:102AB000C6010E9464108FEFDF91CF911F910F919B
:102AC000FF90EF90DF90CF90BF90AF909F908F904E
:102AD0007F9008958091C8018111C1CFE0915E017E
:102AE000F0915F019E898689981708F4B8CFD0933A
:102AF0005F01C0935E01B3CF0F931F930CE711E00A
:102B000020E040EC50E064E271E08BE496E00E944B
:102B10007114813009F07FC00FB6F8940F92809144
:102B2000940190919501892BE1F481E791E00E9455
:102B3000100D88E691E00E94100D81E791E09093DE
:102B400089018093880188E691E0909387018093C2
:102B5000860165E08AE00E94291490939501809394
:102B600094010F900FBE8091940190919501892B53
:102B700009F451C00AE711E023E045E550E069E2BD
:102B800071E080E291E10E947114813009F043C04C
:102B9000F8942FEF3FEF30938301209382018093CD
:102BA000C8011092CB011092CA01A89588E190EC5F
:102BB0000FB6F894A895809360000FBE90936000C4
:102BC000A0915E01B0915F01CD91CDBFDD91DEBFDF
:102BD000FF91EF91DF91CF91BF91AF919F918F9135
:102BE0007F916F915F914F913F912F911F910F9125
:102BF000FF90EF90DF90CF90BF90AF909F908F901D
:102C00007F906F905F904F903F902F901F900F900C
:102C10000FBE0F9008951F910F9108950E944512C5
:102C20001895E2EFF1E01382128288EE93E0A0E0C3
:102C3000B0E084839583A683B7838AE091E0918393
:102C4000808385EC90E09587848784EC90E097877B
:102C5000868780EC90E0918B808B81EC90E0938B69
:102C6000828B82EC90E0958B848B86EC90E0978B46
:102C7000868B118E128E138E148EEFE8F2E0138283
:102C800012828CE191E0918380838CE084838FEFCA
:102C900085838BE0868385E0878384E0808783E07B
:102CA000818782E0828713861486158616861786AA
:102CB00081E00C94EF04789484B5826084BD84B57F
:102CC000816084BD85B5826085BD85B5816085BD27
:102CD00080916E00816080936E00109281008091DF
:102CE0008100826080938100809181008160809367
:102CF0008100809180008160809380008091B1008C
:102D000084608093B1008091B00081608093B000B6
:102D100080917A00846080937A0080917A0082604A
:102D200080937A0080917A00816080937A0080910C
:102D30007A00806880937A001092C100209104018B
:102D4000309105018FEF98E0821B930B9093010166
:102D5000809300010E9478090E947C150E947809E6
:102D6000C0E0D0E02097F1F30E94FD01FBCF0F936C
:102D70001F93CF93DF938230910510F482E090E0AF
:102D8000E091A902F091AA0230E020E0B0E0A0E0DA
:102D9000309799F42115310509F44AC0281B390BE5
:102DA00024303105D8F58A819B816115710589F13F
:102DB000FB0193838283FE0111C040815181028116
:102DC000138148175907E0F04817590799F41097ED
:102DD00061F012960C93129713961C933296CF01C2
:102DE000DF91CF911F910F9108950093A902109345
:102DF000AA02F4CF2115310551F04217530738F0DC
:102E0000A901DB019A01BD01DF01F801C1CFEF018A
:102E1000F9CF9093AA028093A902CDCFFE01E20FD1
:102E2000F31F819391932250310939832883D7CF9F
:102E30002091A7023091A802232B41F42091020196
:102E4000309103013093A8022093A7022091000142
:102E5000309101012115310541F42DB73EB7409164
:102E6000040150910501241B350BE091A702F0915C
:102E7000A802E217F307A0F42E1B3F0B281739070F
:102E800078F0AC014E5F5F4F2417350748F04E0FC6
:102E90005F1F5093A8024093A702819391939FCF05
:102EA000F0E0E0E09CCFCF93DF930097E9F0FC01E6
:102EB000329713821282A091A902B091AA02ED0169
:102EC00030E020E01097A1F420813181820F931F20
:102ED0002091A7023091A8022817390709F061C094
:102EE000F093A802E093A702DF91CF910895EA0141
:102EF000CE17DF07E8F54A815B819E014115510538
:102F0000B1F7E901FB83EA8349915991C40FD51FB9
:102F1000EC17FD0761F4808191810296840F951F63
:102F2000E90199838883828193819B838A83F0E07E
:102F3000E0E012968D919C9113970097B9F52D9131
:102F40003C911197CD010296820F931F2091A70209
:102F50003091A8022817390739F6309751F51092A9
:102F6000AA021092A902B093A802A093A702BCCF14
:102F7000D383C28340815181840F951FC817D9071D
:102F800061F44E5F5F4F88819981480F591F5183CB
:102F900040838A819B81938382832115310509F0C7
:102FA000B0CFF093AA02E093A9029ECFFD01DC010D
:102FB000C0CF13821282D7CFFB01DC0141505040B9
:102FC00048F005900D920020C9F701C01D924150B4
:102FD0005040E0F708952F923F924F925F926F9288
:102FE0007F928F929F92AF92BF92CF92DF92EF9299
:102FF000FF920F931F93CF93DF93CDB7DEB7CA1B1A
:10300000DB0B0FB6F894DEBF0FBECDBF09942A8844
:10301000398848885F846E847D848C849B84AA84EC
:10302000B984C884DF80EE80FD800C811B81AA8179
:10303000B981CE0FD11D0FB6F894DEBF0FBECDBF44
:10304000ED010895EE0FFF1F0590F491E02D099416
:10305000B0E0A0E0EEE2F8E10C94ED178C010097EF
:1030600051F4CB010E94B7168C01C801CDB7DEB771
:10307000E0E10C940918FC01E60FF71F9C012250B7
:103080003109E217F30708F49DC0D901CD91DC9115
:103090001197C617D70798F0C530D10530F3CE0188
:1030A00004978617970708F3C61BD70B2297C1937F
:1030B000D1936D937C93CF010E945317D6CF5B01C0
:1030C000AC1ABD0A4C018C0E9D1EA091A902B091B4
:1030D000AA02512C412CF12CE12C109731F5809152
:1030E000A7029091A8028815990509F05CC04616C0
:1030F000570608F058C08091000190910101009797
:1031000041F48DB79EB74091040150910501841B95
:10311000950BE817F90708F055C0F093A802E09363
:10312000A702F90171836083A0CF8D919C911197C3
:1031300012966C90129713967C901397A815B90568
:1031400059F56C0142E0C40ED11CCA14DB0420F115
:10315000AC014A195B09DA011296159780F0628278
:10316000738251834083D9016D937C93E114F10400
:1031700071F0D7011396FC93EE93129776CF2296B7
:103180008C0F9D1FF90191838083F301EFCFF093A2
:10319000AA02E093A90269CF4816590608F42C0147
:1031A0007D01D3019ACFCB010E94B7167C01009715
:1031B00049F0AE01B8010E94E518C8010E945317FA
:1031C000870153CF10E000E050CFFB01DC0102C0CB
:1031D00001900D9241505040D8F70895DC0101C094
:1031E0006D9341505040E0F70895FB01DC010190E0
:1031F0000D920020E1F70895AEE0B0E0E2E0F9E1E1
:103200000C94F9178C01FA0186E08C831A830983E8
:1032100077FF02C060E070E8615071097E836D83C2
:10322000A901BF01CE0101960E9428194D815E813E
:1032300057FD0AC02F813885421753070CF49A01B5
:10324000020F131FF80110822E96E4E00C9415185B
:10325000ABE0B0E0EEE2F9E10C94EB177C013B014E
:103260008A01FC0117821682838181FFC8C1CE01C9
:1032700001965C01F7019381F30193FD859193FF22
:1032800081913F01882309F453C1853239F493FDBC
:10329000859193FF81913F01853229F4B70190E038
:1032A0000E94181BE7CF912C212C312CFFE1F31544
:1032B00038F08B3211F190F4803209F1833229F128
:1032C00037FC3CC020ED280F2A3050F536FE20C0D8
:1032D0008AE0989E200D1124922E06C08D3291F026
:1032E000803371F7689430F8F30193FD859193FF73
:1032F00081913F018111DACF21C0689431F868943F
:1033000032F8F2CF689433F8EFCF689434F8ECCF0A
:10331000EAE02E9E200D1124222E689435F8E4CF89
:103320008E3229F436FC04C1689436F8DDCF8C3631
:1033300019F4689437F8D8CF8836B1F2982F9F7D6A
:1033400095549330E0F08336A1F18337C1F1833592
:1033500009F063C02801F2E04F0E511CF801C08053
:10336000D180692D70E036FC02C06FEF7FEFC6019F
:103370000E94021B4C01689437F882010AC00C5F5E
:103380001F4FFFE3F98388248394912C6501E8940F
:1033900037F833FE2DC0522C8114910471F555205D
:1033A00009F468CFB70180E290E00E94181B5A949C
:1033B000F6CFF801808189830E5F1F4FE4CF28018B
:1033C000F2E04F0E511CF801C080D180692D70E0F1
:1033D00036FC02C06FEF7FEFC6010E940D1B4C014F
:1033E0008201D5CFB70180E290E00E94181B2A9499
:1033F0002814190409F0B0F7CECFF60137FC8591F7
:1034000037FE81916F01B70190E00E94181B5110A7
:103410005A94F1E08F1A9108BFCF843619F089369B
:1034200009F077C0F80137FE6BC06081718182813D
:1034300093810C5F1F4FF32DFF763F2E97FF09C03E
:1034400090958095709561957F4F8F4F9F4F6894B1
:1034500037F82AE030E0A5010E94481BC82ECA18A0
:103460008C2C432C36FE0CC0E89440F8C91440F470
:1034700034FE05C032FC03C0F32DFE7E4F2E892C96
:1034800044FE95C0FE01EC0DF11D8081803309F0F2
:1034900087C0242D297E422E842D8870582E43FC0F
:1034A00095C040FE8FC09C2C821418F42C0C922CDA
:1034B000981844FE91C0B70180E390E00E94181B69
:1034C00042FE09C088E790E041FE02C088E590E036
:1034D000B7010E94181BC91408F48AC0CA94D12CE1
:1034E0009FEFC91AD90ACA0CDB1CF60182916F0141
:1034F000B70190E00E94181BAC14BD04B1F74FCF88
:1035000060817181072E000C880B990B0E5F1F4F95
:1035100092CFD32CE894D4F82AE030E0853739F103
:10352000232D297FD22E8F3601F148F48835A9F05A
:10353000F701868197812B96E2E10C94071880377A
:1035400049F08837A9F7D4FE02C06894D2F820E188
:1035500030E00DC06894D4F8F6CF34FE03C0822F5B
:103560008660D82E20E132E002C028E030E0F80189
:10357000D7FE0FC060817181828193810C5F1F4FE4
:10358000A5010E94481BC82ECA183D2CE89437F8A4
:1035900067CF6081718190E080E00E5F1F4FF0CFB8
:1035A00042FC02C0839478CF8394839475CF842D9A
:1035B000867809F471CFF6CFB70180E290E00E94DF
:1035C000181B83948214C0F3512C73CF522C5818BB
:1035D000821408F46ECFF8CF842D867809F47BCF5F
:1035E0008BE241FE80E247FC8DE2B70190E071CFB3
:1035F000B70180E390E00E94181B9A946CCF8FEF84
:103600009FEF99CFFC010590615070400110D8F7F1
:10361000809590958E0F9F1F0895FC01615070401A
:1036200001900110D8F7809590958E0F9F1F0895F7
:103630000F931F93CF93DF93182F092FEB018B81EB
:1036400081FD09C01FEF0FEF812F902FDF91CF91E8
:103650001F910F91089582FF14C02E813F818C81AC
:103660009D81281739073CF4E881F981CF01019643
:103670009983888310838E819F8101969F838E8397
:10368000E3CFE885F985812F0995892BA1F3DACF5E
:10369000FA01AA27283051F1203181F1E8946F9383
:1036A0006E7F6E5F7F4F8F4F9F4FAF4FB1E03ED029
:1036B000B4E03CD0670F781F891F9A1FA11D680FC7
:1036C000791F8A1F911DA11D6A0F711D811D911DFA
:1036D000A11D20D009F468943F912AE0269F11246F
:1036E0003019305D3193DEF6CF010895462F4770D3
:1036F000405D4193B3E00FD0C9F7F6CF462F4F702E
:10370000405D4A3318F0495D31FD4052419302D08B
:10371000A9F7EACFB4E0A695979587957795679531
:10372000BA95C9F700976105710508959B01AC0131
:103730000A2E06945795479537952795BA95C9F758
:10374000620F731F841F951FA01D0895F894FFCF6B
:103750000000AB028000000000002C028901B601CD
:103760007902E701C501D90100000000AA0589011D
:10377000A203A10349444C4500546D722053766363
:1037800000506C616E742D6D6F6E69746F72004CB9
:103790004344205441534B004C434400444854316B
:0E37A00031205441534B004448543131000055
:00000001FF
